:020000040000fa
:080000000002040000000000f2
:020000040000fa
:10000800c2030000c2030000c2030000c2030000d4
:10001800c2030000c2030000c2030000c2030000c4
:10002800c2030000c2030000c2030000c2030000b4
:10003800c2030000c2030000c2030000c2030000a4
:10004800c2030000c2030000c2030000c203000094
:10005800c2030000c2030000c2030000c203000084
:10006800c2030000c2030000c2030000c203000074
:10007800c2030000c2030000c2030000c203000064
:10008800c2030000c2030000c2030000c203000054
:10009800c2030000c2030000c2030000c203000044
:1000a800c2030000c2030000c2030000c203000034
:1000b800c2030000c2030000c2030000c203000024
:1000c800c2030000c2030000c2030000c203000014
:1000d800c2030000c2030000c2030000c203000004
:1000e800c2030000c2030000c2030000c2030000f4
:1000f800c2030000c2030000c2030000c2030000e4
:10010800c2030000c2030000c2030000c2030000d3
:10011800c2030000c2030000c2030000c2030000c3
:10012800c2030000c2030000c2030000c2030000b3
:10013800c2030000c2030000c2030000c2030000a3
:10014800c2030000c2030000c2030000c203000093
:10015800c2030000c20300001a030000fc020000f2
:10016800c2030000c2030000c2030000c203000073
:10017800c2030000c2030000c2030000c203000063
:10018800c2030000c2030000c2030000c203000053
:10019800c2030000c2030000c2030000c203000043
:1001a800c2030000c2030000c2030000c203000033
:1001b800c2030000c2030000c2030000c203000023
:1001c800c2030000c2030000c2030000c203000013
:1001d800c2030000c2030000c2030000c203000003
:1001e800c2030000c2030000c2030000c2030000f3
:0801f800c2030000c203000075
:020000040000fa
:10020800c2030000c2030000c2030000c2030000d2
:10021800c2030000c2030000c2030000c2030000c2
:10022800c2030000c2030000c2030000c2030000b2
:10023800c2030000c2030000c2030000c2030000a2
:10024800c2030000c2030000c2030000c203000092
:10025800c2030000c2030000c2030000c203000082
:10026800c2030000c2030000c2030000c203000072
:10027800c2030000c2030000c2030000c203000062
:10028800c2030000c2030000c2030000c203000052
:10029800c2030000c2030000c2030000c203000042
:1002a800c2030000c2030000c2030000c203000032
:1002b800c2030000c2030000c2030000c203000022
:1002c800c2030000c2030000c2030000c203000012
:1002d800c2030000c2030000c2030000c203000002
:1002e800c2030000c2030000c2030000c2030000f2
:1002f800c2030000c2030000c2030000c2030000e2
:10030800c2030000c2030000c2030000c2030000d1
:10031800c2030000c2030000c2030000c2030000c1
:10032800c2030000c2030000c2030000c2030000b1
:10033800c2030000c2030000c2030000c2030000a1
:10034800c2030000c2030000c2030000c203000091
:10035800c2030000c20300001a030000fc020000f0
:10036800c2030000c2030000c2030000c203000071
:10037800c2030000c2030000c2030000c203000061
:10038800c2030000c2030000c2030000c203000051
:10039800c2030000c2030000c2030000c203000041
:1003a800c2030000c2030000c2030000c203000031
:1003b800c2030000c2030000c2030000c203000021
:1003c800c2030000c2030000c2030000c203000011
:1003d800c2030000c2030000c2030000c203000001
:1003e800c2030000c2030000c2030000c2030000f1
:0803f800c2030000c203000073
:020000040000fa
:10040000afd720000e7f24000e01880000000000fe
:1004100000012000200288000c000700c0492400d1
:100420000100200011000700000020000000e00093
:10043000020032000000020000000000520302002f
:10044000000000000040da000000fe004440a90067
:10045000e00120000000e000030032000000200066
:10046000a00188004440a800000006009101880017
:10047000800078000000eb0015003700e2804000ab
:1004800032a0b4009101ba00e280400032a0b40072
:100490009102ba00e280400032a0b4000002eb00fa
:1004a000472bde00f507b200602ce10004003a00a3
:1004b0000059eb008301e900fdff3e000400370016
:1004c0006128e100010032000082eb000400070017
:1004d0001101ba000200e000e8ff3a000000060047
:1004e0003159ba008301e9000c0032002159ba00e9
:1004f0008301e900080032000400e00003003a0034
:10050000e280400032a0b400f5ff370011d9ba00f4
:100510008301e900faff3a008100e800e180400031
:1005200032a0b40000000600642f040000000000a8
:10053000542f0400000000000c30040000000000f4
:10054000ce2f040000000000223104000000000053
:10055000e4300400000000007832040000000000d5
:100560005432040000000000e832040000000000e3
:10057000c432040000000000ca3304000000000080
:10058000a633040000000000a034040000000000b6
:100590007c34040000000000e0350400000000008e
:1005a000bc350400000000001e36040000000000fe
:1005b0000e36040000000000743604000000000045
:1005c0005036040000000000463704000000000020
:1005d0002237040000000000323804000000000050
:1005e0000e38040000000000ca39040000000000ba
:1005f000a639040000000000841f78000000fa0003
:100600002023a90004188000946b8800946b80005c
:10061000a46b8800946b8000b46b8800a46b80008e
:10062000c41f88008de0a9000080fa004f02780006
:1006300000400600841f78000000fa00b46b8000c0
:10064000b41f88008dc0a9000080fa004f02780016
:10065000004006000800fa002007980031079800c3
:100660006022b800048fbe006022b800048fbe0074
:10067000040037001e02be0061024200e0824a0010
:10068000048fbe001e03be002e029000be0290002a
:10069000840f5300858f5b00f6ff35000080fa0061
:1006a000000006000000fa0094022000343a88009e
:1006b000243a80000460a1000470a100243a88005c
:1006c000253a800004fe2f0004826200243a88004c
:1006d0000002eb00443a8800160020008407200046
:1006e000a509200037742000844b7800854b7800e2
:1006f000864b780016002000640420007505200059
:1007000027742000844b7800854b7800864b780056
:1007100000000000153a8000040027008482620077
:1007200004002100848f5200faff3a00000000000c
:10073000153a80000402200004826200e00f52009b
:10074000fbff3200dd2107000822070024220700fa
:100750000002eb004416880000242400f100200071
:10076000bcff07000082eb00641688000024240010
:10077000f1002000b7ff07000002eb0064168800bc
:10078000f5ff37000040da000000fe000080400066
:1007900003003800000028004200ae00f0ff2700f0
:1007a000000006004f0ade008102780001f0a1007f
:1007b00003f823000118e10004003c0000002800b9
:1007c0000400a600f0ff2700000006008500780066
:1007d00002002000037024006227020000000000d5
:1007e000362602000000000000000600000178002c
:1007f000810178000200e00006003a0011002000ac
:100800000118e10003003a000000eb008000eb005b
:1008100000000600881f7800030478000300e00051
:10082000050034004210de00ce18dd0000817000ab
:10083000c299de00040037000500240003abb900b4
:100840000229b800830143000380cf000000e000cc
:1008500004003a000300e700000120008280cf007e
:100860000080400063005000f00010000112de0024
:100870008019dd00830172000011dd0004002400f6
:10088000048251004e11de00c222dd00850071009d
:100890008102780005abb9000600280007b1b80056
:1008a0008380500005bbb9006655250007b1b8002c
:1008b0008380400005bbb9000600240007b1b800e2
:1008c0008380500005bbb9004633230007b1b80050
:1008d0008380400005bbb900a6aa220007b1b8007a
:1008e0008380500005bbb9002649220007b1b8003b
:1008f0008380400005bbb9000600220007b1b800a4
:100900008380500005bbb90026c7210007b1b8009d
:100910008380400005bbb900a699210007b1b8004b
:100920008380500005bbb9006674210007b1b80090
:1009300003814000f3ff2f006000e10013003a0044
:100940000800e0000300340024722100040141008b
:10095000eb814900e4f226004f98de000413b80052
:100960000419b80087034100608149000400b80001
:1009700002014000040028000403430060804b0093
:10098000e00049004f047800000006006100e1002b
:1009900016003a0024172b0004015100e081590091
:1009a0000800e0000300340024722100040141002b
:1009b000eb814900e4f226004f98de000413b800f2
:1009c0000419b80087034100608149000400b800a1
:1009d00002014000040028000403430060804b0033
:1009e000e00049004f047800000006006200e100ca
:1009f00016003a00442e260004015100e1815900fe
:100a00000800e000030034002472210004014100ca
:100a1000eb814900e4f226004f98de000413b80091
:100a20000419b80087034100608149000400b80040
:100a300002014000040028000403430060804b00d2
:100a4000e00049004f047800000006006300e10068
:100a500016003a006445210004015100e28159006a
:100a60000800e0000300340024722100040141006a
:100a7000eb814900e4f226004f98de000413b80031
:100a80000419b80087034100608149000400b800e0
:100a900002014000040028000403430060804b0072
:100aa000e00049004f047800000006006400e10007
:100ab00016003a00845c2c0004015100e2815900c8
:100ac0000800e0000300340024722100040141000a
:100ad000eb814900e4f226004f98de000413b800d1
:100ae0000419b80087034100608149000400b80080
:100af00002014000040028000403430060804b0012
:100b0000e00049004f047800000006006500e100a5
:100b100016003a00a473270004015100e381590034
:100b20000800e000030034002472210004014100a9
:100b3000eb814900e4f226004f98de000413b80070
:100b40000419b80087034100608149000400b8001f
:100b500002014000040028000403430060804b00b1
:100b6000e00049004f047800000006006600e10044
:100b700016003a00d48a220004015100e481590091
:100b80000800e00003003400247221000401410049
:100b9000eb814900e4f226004f98de000413b80010
:100ba0000419b80087034100608149000400b800bf
:100bb00002014000040028000403430060804b0051
:100bc000e00049004f047800000006006700e100e3
:100bd00016003a00f4a12d0004015100e4815900ef
:100be0000800e000030034002472210004014100e9
:100bf000eb814900e4f226004f98de000413b800b0
:100c00000419b80087034100608149000400b8005e
:100c100002014000040028000403430060804b00f0
:100c2000e00049004f047800000006006800e10081
:100c300016003a0024b9280004015100e58159004a
:100c40000800e00003003400247221000401410088
:100c5000eb814900e4f226004f98de000413b8004f
:100c60000419b80087034100608149000400b800fe
:100c700002014000040028000403430060804b0090
:100c8000e00049004f047800000006006900e10020
:100c900016003a0044d0230004015100e6815900b7
:100ca0000800e00003003400247221000401410028
:100cb000eb814900e4f226004f98de000413b800ef
:100cc0000419b80087034100608149000400b8009e
:100cd00002014000040028000403430060804b0030
:100ce000e00049004f047800000006006a00e100bf
:100cf00016003a0054e72e0004015100e681590025
:100d00000800e000030034002472210004014100c7
:100d1000eb814900e4f226004f98de000413b8008e
:100d20000419b80087034100608149000400b8003d
:100d300002014000040028000403430060804b00cf
:100d4000e00049004f047800000006006b00e1005d
:100d500016003a0074fe290004015100e781590091
:100d60000800e00003003400247221000401410067
:100d7000eb814900e4f226004f98de000413b8002e
:100d80000419b80087034100608149000400b800dd
:100d900002014000040028000403430060804b006f
:100da000e00049004f047800000006006c00e100fc
:100db00016003a009415250004015100e8815900fd
:100dc0000800e00003003400247221000401410007
:100dd000eb814900e4f226004f98de000413b800ce
:100de0000419b80087034100608149000400b8007d
:100df00002014000040028000403430060804b000f
:100e0000e00049004f047800000006006d00e1009a
:100e100016003a00c42c200004015100e981590059
:100e20000800e000030034002472210004014100a6
:100e3000eb814900e4f226004f98de000413b8006d
:100e40000419b80087034100608149000400b8001c
:100e500002014000040028000403430060804b00ae
:100e6000e00049004f047800000006006e00e10039
:100e700016003a00e4432b0004015100e9815900b7
:100e80000800e00003003400247221000401410046
:100e9000eb814900e4f226004f98de000413b8000d
:100ea0000419b80087034100608149000400b800bc
:100eb00002014000040028000403430060804b004e
:100ec000e00049004f04780000000600045b2600a3
:100ed00004015100ea8159000800e00003003400d9
:100ee0002472210004014100eb814900e4f2260054
:100ef0004f98de000413b8000419b80087034100be
:100f0000608149000400b80002014000040028008c
:100f10000403430060804b00e00049004f04780068
:100f20000000000000000600889fbe008a9fbe00ef
:100f30008c9fbe00cf8bde004f9bde000204b8000a
:100f40000306b8008904460060854e000606b80016
:100f50000a054600e0854e000606b8008b054600ef
:100f6000020eb800890446000a854e00e0854d0057
:100f7000030eb8000a0546008b854e00060eb80029
:100f80008b054600023eb8000a0546008b854e00e0
:100f9000033eb8008b054600023eb8008b054600b4
:100fa0000b00e00002003a000af0a300150039002f
:100fb0000af0a60020003700e18545000b00e000a4
:100fc0001d003a0005f0a600080037000480440028
:100fd00085004d0001f0a600230037004f06be003b
:100fe0004f05be004f04be00000006000480440010
:100ff00085004d004f06be004f05be004f04be00e9
:101000000000060005f0a700f8ff37000480440048
:1010100085004d00e0854d000b00e00006003a0021
:1010200001f0a700040037004f06be004f05be00c8
:101030004f04be00000006000bf0a7000a003700b6
:10104000f0ff2f00f1ff27004f06be004f05be0046
:101050004f04be00000006004f06be004f05be0054
:101060004f04be0000000600000020000100280020
:101070004f06be004f05be004f04be000000060034
:101080000000e00006003a00020028000110e10024
:1010900003003a008180ea000080ea0000000600b8
:1010a000f2ff2f000192b9000010b9008100420048
:1010b00000000600010028000000ea000100e7002f
:1010c0000080ea00000006000002eb0001f0a3002f
:1010d00003003900f0ff2f00f1ff2f000000060091
:1010e0000490e700050037000498e700030037008c
:1010f0000000eb0011002000000006000480e70063
:1011000006003700150020000588e70003003700bf
:101110000000eb0011002000000006000002eb00c0
:101120000480e700050037000488e700030037006b
:101130000000eb008000eb000000060003f0a600ba
:10114000310037000100e000090032006108e100d1
:1011500003003a00050028000500e1000400390002
:10116000829fbe00840707004f01be001a003700af
:101170000100e0000b003a0005d82e000500e10058
:1011800008003100cf08dd00c102de00858070005c
:101190004f00dd00829fbe000b0607004f01be001e
:1011a0000d003700ce08dd00c202de008580700031
:1011b0004e00dd0061004000e0804800829fbe00dc
:1011c000010607004f01be004100de00cf0add002e
:1011d00005007000c108de000200e00006003a00d1
:1011e000050028000328e10003003a008381ea009b
:1011f0000281ea0004003700f6ff2f0003b2b900b5
:101200000231b900830142000002eb000490e700c4
:1012100003003700150020000518e7000000060055
:10122000889fbe008a9fbe008c9fbe000306780088
:101230008001eb00809fbe00aa0907004f01be009d
:10124000809fbe000300e00048033200240020001d
:101250000498e600030337000300e00003003200b7
:10126000044c2d000410e100fe023100a405200012
:1012700084874700e40120008483570004f02f0096
:10128000f5ff2f00f6072000ab0020008413780044
:1012900085137800861378008b05e9000b00e000c9
:1012a000faff3c008f0378008213780083137800e4
:1012b0000002eb0084137800e4874700829fbe00a1
:1012c00002007800830078004f89de000004b80037
:1012d0000102b8008904420060854a000202b80099
:1012e0000a054200e0854a008b054200000ab8006a
:1012f000890442000a854a00e0854d00010ab800d1
:101300000a0542008b854a00020ab8008b0542009c
:101310008b0542000012b8000a0542008b854a0086
:101320008b0542000408200004044400e0844c00c3
:1013300060054d00e0854d004844de00484add0070
:1013400004007400c84cde004852dd008480740044
:101350004855de00485add0004017500801378000e
:101360008113780082137800cf91de000004b8006a
:101370000102b8008904420060854a000202b800f8
:101380000a054200e0854a008b054200000ab800c9
:10139000890442000a854a00e0854d00010ab80030
:1013a0000a0542008b854a00020ab8008b054200fc
:1013b0008b0542000012b8000a0542008b854a00e6
:1013c0008b054200040820008484440060054d0021
:1013d000e0854d00c84cde004852dd0004807400fa
:1013e0004855de00485add008400750048d9de000b
:1013f000801378008113780082137800cf91de008b
:101400000004b8000102b8008904420060854a0067
:101410000202b8000a054200e0854a008b0542003e
:10142000000ab800890442000a854a00e0854d00a0
:10143000010ab8000a0542008b854a00020ab8007a
:101440008b0542008b0542000012b8000a054200dd
:101450008b854a008b0542000408200084844400e8
:1014600060054d00e0854d00c84cde004852dd00af
:10147000048074004855de00485add008400750081
:1014800048d9de0080137800811378008213780039
:10149000cf91de000004b8000102b80089044200c8
:1014a00060854a000202b8000a054200e0854a0051
:1014b0008b054200000ab800890442000a854a00f0
:1014c000e0854d00010ab8000a0542008b854a00fc
:1014d000020ab8008b0542008b0542000012b800da
:1014e0000a0542008b854a008b0542000408200053
:1014f0008484440060054d00e0854d00c84cde004a
:101500004852dd00048074004855de00485add0072
:101510008400750048d9de008013780081137800bc
:10152000821378004f02be00e48757002600200097
:1015300006a8e600e70137000500e00003003200de
:10154000a62126000620e100e2013100e4874700e1
:10155000849fbe00cf91de000004b8000102b800f5
:101560008904420060854a000202b8000a05420070
:10157000e0854a008b054200000ab8008904420059
:101580000a854a00e0854d00010ab8000a054200bc
:101590008b854a00020ab8008b0542008b05420089
:1015a0000012b8000a0542008b854a008b054200f4
:1015b000040820008484440060054d00e0854d004f
:1015c000c84cde004852dd00048074004855de003f
:1015d000485add008400750048d9de008013780089
:1015e00081137800821378004f02be00e487570011
:1015f0002600200006a8e600b60137000500e0003e
:101600000300320096d222000620e100b101310031
:10161000e4874700849fbe00cf91de000004b8003d
:101620000102b8008904420060854a000202b80045
:101630000a054200e0854a008b054200000ab80016
:10164000890442000a854a00e0854d00010ab8007d
:101650000a0542008b854a00020ab8008b05420049
:101660008b0542000012b8000a0542008b854a0033
:101670008b054200040820008484440060054d006e
:10168000e0854d00c84cde004852dd000480740047
:101690004855de00485add008400750048d9de0058
:1016a0008013780081137800821378004f02be0007
:1016b000e48757002600200006a8e60085013700d1
:1016c0000500e00003003200865a21000620e100f8
:1016d00080013100e4874700849fbe00cf91de0087
:1016e0000004b8000102b8008904420060854a0085
:1016f0000202b8000a054200e0854a008b0542005c
:10170000000ab800890442000a854a00e0854d00bd
:10171000010ab8000a0542008b854a00020ab80097
:101720008b0542008b0542000012b8000a054200fa
:101730008b854a008b054200040820008484440005
:1017400060054d00e0854d00c84cde004852dd00cc
:10175000048074004855de00485add00840075009e
:1017600048d9de0080137800811378008213780056
:101770004f02be00e48757002600200006a8e600be
:10178000540137000500e00003003200d6a9200014
:101790000620e1004f013100e4874700849fbe002e
:1017a000cf91de000004b8000102b80089044200b5
:1017b00060854a000202b8000a054200e0854a003e
:1017c0008b054200000ab800890442000a854a00dd
:1017d000e0854d00010ab8000a0542008b854a00e9
:1017e000020ab8008b0542008b0542000012b800c7
:1017f0000a0542008b854a008b0542000408200040
:101800008484440060054d00e0854d00c84cde0036
:101810004852dd00048074004855de00485add005f
:101820008400750048d9de008013780081137800a9
:10183000821378004f02be00e48757002600200084
:1018400006a8e600230137000500e000030032008f
:101850001654200006a0e6001e013700e48747006a
:10186000849fbe00cf91de000004b8000102b800e2
:101870008904420060854a000202b8000a0542005d
:10188000e0854a008b054200000ab8008904420046
:101890000a854a00e0854d00010ab8000a054200a9
:1018a0008b854a00020ab8008b0542008b05420076
:1018b0000012b8000a0542008b854a008b054200e1
:1018c000040820008484440060054d00e0854d003c
:1018d000c84cde004852dd00048074004855de002c
:1018e000485add008400750048d9de008013780076
:1018f00081137800821378004f02be00e4875700fe
:101900002600200006a8e600f20037000500e000ef
:1019100003003200d62920000620e100ed0031004e
:10192000e4874700849fbe00cf91de000004b8002a
:101930000102b8008904420060854a000202b80032
:101940000a054200e0854a008b054200000ab80003
:10195000890442000a854a00e0854d00010ab8006a
:101960000a0542008b854a00020ab8008b05420036
:101970008b0542000012b8000a0542008b854a0020
:101980008b054200040820008484440060054d005b
:10199000e0854d00c84cde004852dd000480740034
:1019a0004855de00485add008400750048d9de0045
:1019b0008013780081137800821378004f02be00f4
:1019c000e48757002600200006a8e600c100370083
:1019d0000500e00003003200e61420000620e100cc
:1019e000bc003100e4874700849fbe00cf91de0039
:1019f0000004b8000102b8008904420060854a0072
:101a00000202b8000a054200e0854a008b05420048
:101a1000000ab800890442000a854a00e0854d00aa
:101a2000010ab8000a0542008b854a00020ab80084
:101a30008b0542008b0542000012b8000a054200e7
:101a40008b854a008b0542000408200084844400f2
:101a500060054d00e0854d00c84cde004852dd00b9
:101a6000048074004855de00485add00840075008b
:101a700048d9de0080137800811378008213780043
:101a80004f02be00e48757002600200006a8e600ab
:101a9000900037000500e00003003200760a2000c5
:101aa0000620e1008b003100e4874700849fbe00e0
:101ab000cf91de000004b8000102b80089044200a2
:101ac00060854a000202b8000a054200e0854a002b
:101ad0008b054200000ab800890442000a854a00ca
:101ae000e0854d00010ab8000a0542008b854a00d6
:101af000020ab8008b0542008b0542000012b800b4
:101b00000a0542008b854a008b054200040820002c
:101b10008484440060054d00e0854d00c84cde0023
:101b20004852dd00048074004855de00485add004c
:101b30008400750048d9de00801378008113780096
:101b4000821378004f02be00e48757002600200071
:101b500006a8e6005f0037000500e0000300320041
:101b6000460520000620e1005a003100e4874700c6
:101b7000849fbe00cf91de000004b8000102b800cf
:101b80008904420060854a000202b8000a0542004a
:101b9000e0854a008b054200000ab8008904420033
:101ba0000a854a00e0854d00010ab8000a05420096
:101bb0008b854a00020ab8008b0542008b05420063
:101bc0000012b8000a0542008b854a008b054200ce
:101bd000040820008484440060054d00e0854d0029
:101be000c84cde004852dd00048074004855de0019
:101bf000485add008400750048d9de008013780063
:101c000081137800821378004f02be00e4875700ea
:101c10002600200006a8e6002e0037000500e000a0
:101c200003003200a60220000620e1002900310056
:101c3000e4874700849fbe00cf91de000004b80017
:101c40000102b8008904420060854a000202b8001f
:101c50000a054200e0854a008b054200000ab800f0
:101c6000890442000a854a00e0854d00010ab80057
:101c70000a0542008b854a00020ab8008b05420023
:101c80008b0542000012b8000a0542008b854a000d
:101c90008b054200040820008484440060054d0048
:101ca000e0854d00c84cde004852dd000480740021
:101cb0004855de00485add008400750048d9de0032
:101cc0008013780081137800821378004f02be00e1
:101cd000e48757008f037800e683530007037800fa
:101ce000eb00200027017800a70178002702780088
:101cf000c814de00c81add0005807400481dde002f
:101d0000c822dd008500750048a1de0000137800c0
:101d100001137800021378008b05e9000b00e00046
:101d2000f0ff3c008f0378004405200084855300b9
:101d300004002000150020000003eb008003eb00ee
:101d4000ea002000e48747008e1f7800fe00200094
:101d5000e6854500100020000a00dd000c00e100cf
:101d600038003c0000065600e88747008c9fbe0004
:101d7000e681550023007800a30078002301780055
:101d80008a9fbe00cf91de000404b8000506b800ab
:101d90008904460060854e000606b8000a05460024
:101da000e0854e000706b8008b054600040eb8001b
:101db000890446000a854e00e0854d00050eb800f6
:101dc0000a0546008b854e00060eb8008b054600be
:101dd0000416b8000a0546008b854e000516b800ab
:101de0008b0546000416b8008b0546000c00280041
:101df0000c02440060824c00e0024d0060834d0004
:101e0000cfb3de004f05be004f06be00e887570087
:101e10000700e00004003a000600e00002003a007b
:101e200005f0a30007003900f4ff2f00f5ff27009d
:101e30000003eb008003eb004f077800e4875700b6
:101e4000b002370000000000610555000e07e900f0
:101e50000e00e000beff3c004f077800e48757000b
:101e6000a8023700020078008300780058012000a3
:101e700008e0e6004c012000610456000400200048
:101e8000150020000003eb008003eb000c00e000d5
:101e90009e023200e48747008e1f78000807e800a2
:101ea0004f89de000404b8000506b8008904460026
:101eb00060854e000606b8000a054600e0854e0023
:101ec0000706b8008b054600040eb80089044600da
:101ed0000a854e00e0854d00050eb8000a05460053
:101ee0008b854e00060eb8008b0546000416b80020
:101ef0000a0546008b854e000516b8008b05460086
:101f00000416b8008b0546000c0028000c024400a3
:101f100060824c00e0024d0060834d00cfb3de00d4
:101f20000700e00004003a000600e00002003a006a
:101f300005f0a30007003900f4ff2f00f5ff27008c
:101f40000003eb008003eb004f077800e4875700a5
:101f50006e0237000e07e9000e00e000d0ff3c00e3
:101f60004f077800e487570068023700a405200077
:101f7000848747008f0378008213780083137800ea
:101f80000002eb00841378000200780083007800e0
:101f90004f89de000004b8000102b8008904420045
:101fa00060854a000202b8000a054200e0854a0046
:101fb0008b054200000ab800890442000a854a00e5
:101fc000e0854d00010ab8000a0542008b854a00f1
:101fd000020ab8008b0542008b0542000012b800cf
:101fe0000a0542008b854a008b05420061044400cb
:101ff000e0844c0060054d00e0854d004140de006e
:102000004f4add0004007000c148de004f52dd0081
:10201000848070004151de004f5add0004017100e0
:10202000801378008113780082137800cf91de004e
:102030000004b8000102b8008904420060854a002b
:102040000202b8000a054200e0854a008b05420002
:10205000000ab800890442000a854a00e0854d0064
:10206000010ab8000a0542008b854a00020ab8003e
:102070008b0542008b0542000012b8000a054200a1
:102080008b854a008b0542000400280084844c00a4
:1020900060054d00e0854d004f48de004152dd00f7
:1020a00004007000cf50de00415add0084807000d3
:1020b0004fd9de00801378008113780082137800f6
:1020c000cf91de000004b8000102b800890442008c
:1020d00060854a000202b8000a054200e0854a0015
:1020e0008b054200000ab800890442000a854a00b4
:1020f000e0854d00010ab8000a0542008b854a00c0
:10210000020ab8008b0542008b0542000012b8009d
:102110000a0542008b854a008b0542000400280016
:1021200084844c0060054d00e0854d004f48de0082
:102130004152dd0004007000cf50de00415add0046
:10214000848070004fd9de008013780081137800fe
:1021500082137800cf91de000004b8000102b800bd
:102160008904420060854a000202b8000a05420064
:10217000e0854a008b054200000ab800890442004d
:102180000a854a00e0854d00010ab8000a054200b0
:102190008b854a00020ab8008b0542008b0542007d
:1021a0000012b8000a0542008b854a008b054200e8
:1021b0000400280084844c0060054d00e0854d003b
:1021c0004f48de004152dd0004007000cf50de00b9
:1021d000415add00848070004fd9de008013780002
:1021e0008113780082137800cf91de000004b800dc
:1021f0000102b8008904420060854a000202b8006a
:102200000a054200e0854a008b054200000ab8003a
:10221000890442000a854a00e0854d00010ab800a1
:102220000a0542008b854a00020ab8008b0542006d
:102230008b0542000012b8000a0542008b854a0057
:102240008b0542000400280084844c0060054d008a
:10225000e0854d004f48de004152dd000400700073
:10226000cf50de00415add00848070004fd9de007f
:10227000801378008113780082137800cf91de00fc
:102280000004b8000102b8008904420060854a00d9
:102290000202b8000a054200e0854a008b054200b0
:1022a000000ab800890442000a854a00e0854d0012
:1022b000010ab8000a0542008b854a00020ab800ec
:1022c0008b0542008b0542000012b8000a0542004f
:1022d0008b854a008b0542000400280084844c0052
:1022e00060054d00e0854d004f48de004152dd00a5
:1022f00004007000cf50de00415add008480700081
:102300004fd9de00801378008113780082137800a3
:10231000cf91de000004b8000102b8008904420039
:1023200060854a000202b8000a054200e0854a00c2
:102330008b054200000ab800890442000a854a0061
:10234000e0854d00010ab8000a0542008b854a006d
:10235000020ab8008b0542008b0542000012b8004b
:102360000a0542008b854a008b05420004002800c4
:1023700084844c0060054d00e0854d004f48de0030
:102380004152dd0004007000cf50de00415add00f4
:10239000848070004fd9de008013780081137800ac
:1023a00082137800cf91de000004b8000102b8006b
:1023b0008904420060854a000202b8000a05420012
:1023c000e0854a008b054200000ab80089044200fb
:1023d0000a854a00e0854d00010ab8000a0542005e
:1023e0008b854a00020ab8008b0542008b0542002b
:1023f0000012b8000a0542008b854a008b05420096
:102400000400280084844c0060054d00e0854d00e8
:102410004f48de004152dd0004007000cf50de0066
:10242000415add00848070004fd9de0080137800af
:102430008113780082137800cf91de000004b80089
:102440000102b8008904420060854a000202b80017
:102450000a054200e0854a008b054200000ab800e8
:10246000890442000a854a00e0854d00010ab8004f
:102470000a0542008b854a00020ab8008b0542001b
:102480008b0542000012b8000a0542008b854a0005
:102490008b0542000400280084844c0060054d0038
:1024a000e0854d004f48de004152dd000400700021
:1024b000cf50de00415add00848070004fd9de002d
:1024c000801378008113780082137800cf91de00aa
:1024d0000004b8000102b8008904420060854a0087
:1024e0000202b8000a054200e0854a008b0542005e
:1024f000000ab800890442000a854a00e0854d00c0
:10250000010ab8000a0542008b854a00020ab80099
:102510008b0542008b0542000012b8000a054200fc
:102520008b854a008b0542000400280084844c00ff
:1025300060054d00e0854d004f48de004152dd0052
:1025400004007000cf50de00415add00848070002e
:102550004fd9de0080137800811378008213780051
:10256000cf91de000004b8000102b80089044200e7
:1025700060854a000202b8000a054200e0854a0070
:102580008b054200000ab800890442000a854a000f
:10259000e0854d00010ab8000a0542008b854a001b
:1025a000020ab8008b0542008b0542000012b800f9
:1025b0000a0542008b854a008b0542000400280072
:1025c00084844c0060054d00e0854d004f48de00de
:1025d0004152dd0004007000cf50de00415add00a2
:1025e000848070004fd9de0080137800811378005a
:1025f00082137800cf91de000004b8000102b80019
:102600008904420060854a000202b8000a054200bf
:10261000e0854a008b054200000ab80089044200a8
:102620000a854a00e0854d00010ab8000a0542000b
:102630008b854a00020ab8008b0542008b054200d8
:102640000012b8000a0542008b854a008b05420043
:102650000400280084844c0060054d00e0854d0096
:102660004f48de004152dd0004007000cf50de0014
:10267000415add00848070004fd9de00801378005d
:102680008113780082137800cf91de000004b80037
:102690000102b8008904420060854a000202b800c5
:1026a0000a054200e0854a008b054200000ab80096
:1026b000890442000a854a00e0854d00010ab800fd
:1026c0000a0542008b854a00020ab8008b054200c9
:1026d0008b0542000012b8000a0542008b854a00b3
:1026e0008b0542000400280084844c0060054d00e6
:1026f000e0854d004f48de004152dd0004007000cf
:10270000cf50de00415add00848070004fd9de00da
:10271000801378008113780082137800cf91de0057
:102720000004b8000102b8008904420060854a0034
:102730000202b8000a054200e0854a008b0542000b
:10274000000ab800890442000a854a00e0854d006d
:10275000010ab8000a0542008b854a00020ab80047
:102760008b0542008b0542000012b8000a054200aa
:102770008b854a008b0542000400280084844c00ad
:1027800060054d00e0854d004f48de004152dd0000
:1027900004007000cf50de00415add0084807000dc
:1027a0004fd9de00801378008113780082137800ff
:1027b0008f037800e683530007037800eb002000c6
:1027c00027017800a701780027027800cf14de00e7
:1027d000c11add00058074004f1dde00c122dd003e
:1027e000850075004fa1de0000137800011378000a
:1027f000021378008b05e9000b00e000f0ff3c00bd
:102800008f037800440520008485530004002000d5
:10281000150020000003eb008003eb00ea0020001d
:10282000e48747008e1f7800fe002000e685450003
:10283000100020000a00dd000c00e1002b003c002d
:1028400000065600e6815500e88747008c9fbe00d1
:1028500023007800a3007800230178008a9fbe003f
:10286000cf91de000404b8000506b80089044600d4
:1028700060854e000606b8000a054600e0854e0059
:102880000706b8008b054600040eb8008904460010
:102890000a854e00e0854d00050eb8000a05460089
:1028a0008b854e00060eb8008b0546000416b80056
:1028b0000a0546008b854e000516b8008b054600bc
:1028c0000416b8008b0546000c0028000c024400da
:1028d00060824c00e0024d0060834d00cfb3de000b
:1028e0004f05be004f06be00e88757006105550042
:1028f0000e07e9000e00e000ccff3c004f07780017
:10290000e4875700a2052000828757004f00be00d1
:102910004f89de000404b8000506b80089044600ab
:1029200060854e000606b8000a054600e0854e00a8
:102930000706b8008b054600040eb800890446005f
:102940000a854e00e0854d00050eb8000a054600d8
:102950008b854e00060eb8008b0546000416b800a5
:102960000a0546008b854e000516b8008b0546000b
:102970000416b8008b054600040028000404440037
:10298000e0844c0060054d00e0854d0009007800b2
:102990008a0078000b00e00002003a000af0a30071
:1029a00005003900f0ff2f00f1ff2700020037007b
:1029b000a2052000828757004f06be004f05be00cb
:1029c0004f04be000000060000027800810278007b
:1029d0000000e00010003a000200280081017800a9
:1029e00000002800cf80de000218e700000006008b
:1029f000f2ff2700000028008000eb000218e7002b
:102a000000000600f0ff2f00f1ff27000001eb009f
:102a10000218e70000000600889fbe008a9fbe00e3
:102a20008c9fbe000400780085007800180020000c
:102a300001f0a30004003900f8ff2f0001c2b90023
:102a40000040b90081004200881f7800809fbe00ce
:102a50008181cf000300e00004003a000118e70084
:102a6000030120000081cf0083014100e281510079
:102a70007018e10008003c000300e000090032008b
:102a8000708111000202de008308dd008480700086
:102a90000300dd0003003700708151008200dd007b
:102aa0000000eb00831f7800050028000002eb0007
:102ab0000001520081815a00858041000414b80051
:102ac0000516b8008904460060854e008005eb00bd
:102ad000040eb800890446000a854e00e0854d00ca
:102ae000050eb8000a0546008b854e004f48de00f3
:102af000c150dd00010370004f50de00c158dd0001
:102b0000810370000214b8000316b800890446005f
:102b100060854e008005eb00890446000a854e0062
:102b2000e0854d00031eb8000a0546008b854e0067
:102b30004f48de00c150dd00010170004f50de0043
:102b4000c158dd0081017000000028008080410034
:102b50000614b8000716b8008904460060854e00c8
:102b60008005eb00060eb800890446000a854e0079
:102b7000e0854d00070eb8000a0546008b854e0023
:102b80004f48de00c150dd00010370004f50de00f1
:102b9000c158dd00810370000214b8000316b800ac
:102ba0008904460060854e008005eb0089044600dc
:102bb0000a854e00e0854d00031eb8000a05460058
:102bc0008b854e004f48de00c150dd0001017000d2
:102bd0004f50de00c158dd00810170000000280068
:102be000808041000614b8000716b800890446002a
:102bf00060854e008005eb00060eb8008904460093
:102c00000a854e00e0854d00070eb8000a05460013
:102c10008b854e004f48de00c150dd00010370007f
:102c20004f50de00c158dd00810370000214b8006f
:102c30000316b8008904460060854e008005eb004d
:102c4000890446000a854e00e0854d00031eb80049
:102c50000a0546008b854e004f48de00c150dd005e
:102c6000010170004f50de00c158dd00810170008d
:102c700000002800808041000614b8000716b80044
:102c80008904460060854e008005eb00060eb80002
:102c9000890446000a854e00e0854d00070eb80005
:102ca0000a0546008b854e004f48de00c150dd000e
:102cb000010370004f50de00c158dd008103700039
:102cc0000214b8000316b8008904460060854e005f
:102cd0008005eb00890446000a854e00e0854d0022
:102ce000031eb8000a0546008b854e004f48de00e3
:102cf000c150dd00010170004f50de00c158dd0001
:102d00008101700000002800808041000614b80096
:102d10000716b8008904460060854e008005eb0068
:102d2000060eb800890446000a854e00e0854d0075
:102d3000070eb8000a0546008b854e004f48de009e
:102d4000c150dd00010370004f50de00c158dd00ae
:102d5000810370000214b8000316b800890446000d
:102d600060854e008005eb00890446000a854e0010
:102d7000e0854d00031eb8000a0546008b854e0015
:102d80004f48de00c150dd00010170004f50de00f1
:102d9000c158dd00810170000000280080804100e2
:102da0000614b8000716b8008904460060854e0076
:102db0008005eb00060eb800890446000a854e0027
:102dc000e0854d00070eb8000a0546008b854e00d1
:102dd0004f48de00c150dd00010370004f50de009f
:102de000c158dd00810370000214b8000316b8005a
:102df0008904460060854e008005eb00890446008a
:102e00000a854e00e0854d00031eb8000a05460005
:102e10008b854e004f48de00c150dd00010170007f
:102e20004f50de00c158dd00810170000000280015
:102e3000808041000614b8000716b80089044600d7
:102e400060854e008005eb00060eb8008904460040
:102e50000a854e00e0854d00070eb8000a054600c1
:102e60008b854e004f48de00c150dd00010270002e
:102e70004f50de00c158dd0081027000cf017800a4
:102e8000120020007018e10004003c00f0801100e6
:102e90008110de000310dd0003003700f0805100d8
:102ea0008110dd000000eb004f89de008201780018
:102eb0000404b8000506b8008904460060854e0089
:102ec000040eb800890446000a854e00050eb800bd
:102ed0000a0546000416b8000a054600e00546004b
:102ee0004f02be004e22de00422edd000c027200b8
:102ef000ce2ade00570020000500e00002003a0064
:102f00000720e10005003500070024000704440005
:102f1000e0844c0060054d00e0854d004f40de0030
:102f2000414add0004007000cf48de004152dd0060
:102f3000848070004f51de00415add0004017100b1
:102f40000200e00002003a0001f0a3000200390094
:102f5000f0ff2f00f1ff27004f04780001c2b900f5
:102f60000040b900810042004f06be004f05be0080
:102f70004f04be00000006000002780081027800c5
:102f80000000e00010003a000200280081017800f3
:102f9000e0ff2f00cf80de000218e70000000600ef
:102fa000f2ff270020002000cf80de000218e7009b
:102fb00000000600f0ff2f00f1ff27000001eb00ea
:102fc0000218e70000000600040078008500780081
:102fd000889fbe001800200001f0a3000400390003
:102fe000f8ff2f0001c2b9000040b9008100420083
:102ff000881f780000017800810178000300e0005c
:1030000014003a00140020000220e10007003a00fa
:10301000f0ff2f00f1ff270001c2b9000040b90006
:10302000810042004f04be00000006002400200082
:103030000220e10007003a00f0ff2f00f1ff270017
:1030400001c2b9000040b900810042004f04be0037
:10305000000006008181cf000300e00004003a0078
:103060000118e700030120000081cf008301410027
:10307000e28151007018e10005003c0070811100f0
:103080000202de008308dd00848070000200370049
:10309000708151008200dd0004002800810252008e
:1030a0006118e100830034008a9fbe008c9fbe003f
:1030b0000000220006002800050343000625b80092
:1030c0004f55de00c15ddd000b027500052db80017
:1030d00000054500e0854d004e55de00c25ddd0077
:1030e0008b027500e08342000725b8006126b90015
:1030f0008c8545000b027800052db800e185450060
:10310000c1dade0000002400060028008503430029
:103110000725b8004230de0000054500e0854d007f
:103120004f55de00c15ddd000b027500052db800b6
:1031300000e0230000054500e0854d004f55de000e
:10314000c15ddd008b027500850343000725b800d3
:103150004f52de00415cdd00080272004f5cde0071
:1031600000002400052db80000054500e0854d0055
:103170004f55de00c15ddd008b0275008503430005
:10318000043db80008beb9008c8545004f52de00f2
:10319000415cdd00080272004f5cde00052db800c6
:1031a00000054500e0854d004f55de00c15ddd00a6
:1031b0008b02750085034300043db80008beb900ca
:1031c0008c8545004f52de00415cdd000802720034
:1031d0004f5cde00052db80000054500e0854d0080
:1031e0004f55de00c15ddd008b0275008503430095
:1031f000043db80008beb9008c8545004f52de0082
:10320000415cdd0008027200cf5ade00120020008f
:103210007018e10004003c00f08011008110de0015
:103220000310dd0003003700f08051008110dd0045
:103230000000eb004f89de00820178004fabde001a
:10324000860378000404b8000506b8008904460027
:1032500060854e000606b8000a054600040eb80058
:10326000890446000a854e00050eb8000a0546008e
:103270000416b8000a0546008b0546004e40de00e5
:10328000424add0004007000ce48de004252dd00fc
:10329000848070004f06be004f05be004f047800ca
:1032a00001c2b9000040b900810042004f04be00d5
:1032b000000006000300e0007c0034008a9fbe008e
:1032c0008c9fbe00000022000600280085034300fa
:1032d0000725b8004f55de00c15ddd000b0275000b
:1032e000052db80000054500e0854d004e55de0077
:1032f000c25ddd008b027500e08342000725b80047
:103300006126b9008c8545000b027800052cb800b9
:1033100006044400e0844c00c1cade004100dd0028
:1033200006002800850343000725b8004f55de003e
:10333000c15ddd000b027500052db80000054500dc
:10334000e0854d004f55de00c15ddd008b0275004c
:10335000850343000725b8004f55de00c15ddd0041
:103360000b027500052db80000054500e0854d00f5
:103370004f55de00c15ddd008b0275008503430003
:103380000725b8004f52de00415cdd0008027200e4
:103390004f5cde00052db80000054500e0854d00be
:1033a0004f55de00c15ddd008b02750085034300d3
:1033b000043db80008beb9008c8545004f52de00c0
:1033c000415cdd00080272004f5cde00052db80094
:1033d00000054500e0854d004f55de00c15ddd0074
:1033e0008b02750085034300043db80008beb90098
:1033f0008c8545004f52de00415cdd000802720002
:10340000cf5ade00120020007018e10004003c00da
:10341000f08011008110de000310dd000300370092
:10342000f08051008110dd000000eb004f89de00cc
:10343000820178004fabde00860378000404b800f8
:103440000506b8008904460060854e000606b800ef
:103450000a054600040eb800890446000a854e009d
:10346000050eb8000a0546000416b8000a05460015
:103470008b0546004e40de00424add00040070002d
:10348000ce48de004252dd00848070004f06be0050
:103490004f05be004f04780001c2b9000040b900da
:1034a000810042004f04be00000006008a9fbe005b
:1034b0008c9fbe0000002400060028008503430006
:1034c0000725b8004f55de00c15ddd000b02750019
:1034d000052db80000054500e0854d004f55de0084
:1034e000c15ddd008b027500850343000725b80030
:1034f0004f55de00c15ddd000b027500052db800e3
:1035000000054500e0854d004f55de00c15ddd0042
:103510008b027500850343000725b8004f55de0078
:10352000c15ddd000b027500052db80000054500ea
:10353000e0854d004f55de00c15ddd008b0275005a
:10354000850343000725b8004f55de00c15ddd004f
:103550000b027500052db80000054500e0854d0003
:103560004f55de00c15ddd008b0275000004eb00ed
:10357000850343000725b8004f52de00415cdd00a3
:10358000080272004f5cde00052db8000005450002
:10359000e0854d004f55de00c15ddd008b027500fa
:1035a00085034300043db80008beb9008c85450082
:1035b0004f52de00415cdd00080272004f5cde000d
:1035c000052db80000054500e0854d004f55de0093
:1035d000c15ddd008b02750085034300043db8002a
:1035e00008beb9008c8545004f52de00415cdd000d
:1035f00008027200cf5ade00120020007018e100ad
:1036000004003c00f08011008110de000310dd009a
:1036100003003700f08051008110dd000000eb0056
:103620004f89de00820178004fabde008603780010
:103630000404b8000506b8008904460060854e0001
:103640000606b8000a054600040eb80089044600c4
:103650000a854e00050eb8000a0546000416b8009b
:103660000a0546008b0546004e40de00424add005a
:1036700004007000ce48de004252dd0084807000fd
:103680004f06be004f05be004f04780001c2b900ce
:103690000040b900810042004f04be000000060057
:1036a00000017800010028000000eb000110e70095
:1036b00000000600881f7800180020000010e600b7
:1036c000f8ff2f000890b900120024000300280022
:1036d0000280e60000805100f28b22000200e1002f
:1036e00028003d00824826000281b9000400210024
:1036f00004014100e08149004d11de00431add0064
:10370000040071000001780050bb2600f1ff270083
:103710000110e7001a003700b0442900110028000a
:103720000110e600160037000293b9004f33de00a7
:10373000c13bdd0087017300c119dd000312b90030
:103740005155250001abb900c1bbde000700510097
:10375000032ab9004144240001abb900c5bbde0017
:1037600007004000032ab9007180260001abb900b0
:103770000540200085834300cbbbde0007005000de
:1037800031003700030024000080510082482600e9
:103790000281b9000400210004014100e0814900d8
:1037a0004d11de00431add000400710011f02f00fe
:1037b000f20f20000100e100230035000200e100cb
:1037c00002003c00f0ff27001f00370000017800d6
:1037d00001002800905224000110e7001a00370071
:1037e000f1ff2700f0ff27000292b9004f22de0010
:1037f000c12add00050272004122dd0001a1b800ee
:1038000007002800071bb9000700500003a1b800fb
:1038100057552500071bb900c3bbde000700400059
:1038200003a1b80037d82200071bb900c7bbde00d0
:103830000700500003a1b800070d2000071bb900c6
:10384000c7bbde00070040000880b9004f047800c5
:10385000000006000080000000000000f15b000096
:1038600001000000cdb1000003000000f30a0000d9
:103870000a000000904c00001b000000e234000031
:103880004a000000e3b60000c90000000b51000030
:10389000240200009f7a0000d2050000be8a0000ca
:1038a000d30f00009f3b0000052b000024120000f6
:1038b000f1740000000000002d5e0000a522000051
:1038c000bf0c0000b0040000ba010000a20000001c
:1038d0003c0000001600000008000000030000008b
:1038e00001000000889fbe008a9fbe008c9fbe0022
:1038f00001047800829fbe000001780081017800f9
:103900000300e000050034004112de00cf1add00a4
:1039100004817200c199de00040037000500280010
:1039200003abb9000229b800830143000002eb0099
:103930000380cf000000e00004003a000300e7002d
:10394000000120008280cf00008040006200500013
:10395000f00010000112de008019dd00830172000a
:103960000011dd000400280004825100c113de00b4
:10397000cf22dd00858073008402780041a2de0042
:103980004f11de00c12add008502710005abb900d0
:103990000600220007b1b9008280500003025a00dd
:1039a00005bbb9005655210007b1b900828040001f
:1039b00003024a0005bbb9000600210007b1b900a7
:1039c0008280500003025a0005bbb900d6cc20000b
:1039d00007b1b9008280400003024a0005bbb9006c
:1039e000b6aa200007b1b9008280500003025a0035
:1039f00005bbb9005692200007b1b9008280400093
:103a000003024a0005bbb9000680200007b1b900d7
:103a10008280500003025a0005bbb900c671200025
:103a200007b1b9008280400003024a0005bbb9001b
:103a30006666200007b1b9008280500003025a0078
:103a400005bbb900165d200007b1b90082804000b7
:103a500003024a00c508de00cb22dd0005817000ac
:103a6000c5a1de006000e1000b003a000800e000a4
:103a700004003400e5622100f42f24000401410019
:103a8000858149004910de00c71add00050070007d
:103a9000c998de00fd0037006100e10010003a0027
:103aa0002516200004432e00040151008581590091
:103ab0000800e00005003400e5622100f42f240036
:103ac00004014100858149004110de004910de00fb
:103ad000c71add0005007000c998de00eb00370052
:103ae0006200e1000f003a00552c200004862c00f3
:103af00004015100858159000800e00004003400f1
:103b0000e5622100f42f2400040141008581490071
:103b10004910de00c71add0005007000c998de00fc
:103b2000da0037006300e1000f003a008542200010
:103b300004c92a0004015100858159000800e000f1
:103b400004003400e5622100f42f24000401410048
:103b5000858149004910de00c71add0005007000ac
:103b6000c998de00c90037006400e1000f003a0088
:103b7000b5582000040c290004015100858159002a
:103b80000800e00004003400e5622100f42f240066
:103b900004014100858149004910de00c71add009b
:103ba00005007000c998de00b80037006500e1002c
:103bb0000f003a00e56e2000044f27000401510079
:103bc000858159000800e00004003400e56221000e
:103bd000f42f240004014100858149004910de00d2
:103be000c71add0005007000c998de00a700370085
:103bf0006600e1000f003a001585200004922500c0
:103c000004015100858159000800e00004003400df
:103c1000e5622100f42f2400040141008581490060
:103c20004910de00c71add0005007000c998de00eb
:103c3000960037006700e1000f003a00459b200026
:103c4000f4d4230004015100858159000800e000ec
:103c500004003400e5622100f42f24000401410037
:103c6000858149004910de00c71add00050070009b
:103c7000c998de00850037006800e1000f003a00b7
:103c800075b12000e417220004015100858159001c
:103c90000800e00004003400e5622100f42f240055
:103ca00004014100858149004910de00c71add008a
:103cb00005007000c998de00740037006900e1005b
:103cc0000f003a00a5c72000f45a2000040151005b
:103cd000858159000800e00004003400e5622100fd
:103ce000f42f240004014100858149004910de00c1
:103cf000c71add0005007000c998de0063003700b8
:103d00006a00e1000f003a00c5dd2000f49d2e009e
:103d100004015100858159000800e00004003400ce
:103d2000e5622100f42f240004014100858149004f
:103d30004910de00c71add0005007000c998de00da
:103d4000520037006b00e1000f003a00f5f320004d
:103d5000f4e02c0004015100858159000800e000c6
:103d600004003400e5622100f42f24000401410026
:103d7000858149004910de00c71add00050070008a
:103d8000c998de00410037006c00e1000f003a00e6
:103d9000250a2100f4232b000401510085815900dc
:103da0000800e00004003400e5622100f42f240044
:103db00004014100858149004910de00c71add0079
:103dc00005007000c998de00300037006d00e1008a
:103dd0000f003a0055202100f4662900040151002b
:103de000858159000800e00004003400e5622100ec
:103df000f42f240004014100858149004910de00b0
:103e0000c71add0005007000c998de001f003700ea
:103e10006e00e1000f003a0085362100f4a927006a
:103e200004015100858159000800e00004003400bd
:103e3000e5622100f42f240004014100858149003e
:103e40004910de00c71add0005007000c998de00c9
:103e50000e003700b54c2100e4ec250004015100b0
:103e6000858159000800e00004003400e56221006b
:103e7000f42f240004014100858149004910de002f
:103e8000c71add0005007000c998de004f02be00b1
:103e90004f89de004fabde000404b8000506b80011
:103ea0008904460060854e000606b8000a054600f3
:103eb000e0854e008b054600040eb80089044600dc
:103ec0000a854e00e0854d00050eb8000a05460043
:103ed0008b854e00060eb8008b0546000416b80010
:103ee0000a0546008b854e000516b8008b05460076
:103ef0000416b8008b0546004242de00ce49dd00c4
:103f000003047200c24ade00ce51dd0083847200d9
:103f10004253de00ce59dd0003057300c2ddde0032
:103f20000bf0a3000e003100b5962900f49d2d0082
:103f30000802520089825a0062031d00e0835d007e
:103f400007f0a30016003900f0ff2f00f1ff270053
:103f50004f06be004f05be004f04be000000060025
:103f600034a22100b5dd2000d6ff2f00f7ff2f007f
:103f70000402540085825c0006035d0087835d00b7
:103f800007f0a300060039008000eb000000eb0002
:103f90004f06be004f05be004f04be0000000600e5
:103fa0004e4ade00c252dd00048272008002eb0045
:103fb00004f0a700150020000001eb000590e700c9
:103fc0000402ea00849fbe0004aab90009e0a1002f
:103fd00009f0a1000003eb000700240008034300e0
:103fe00089834b0008007800890078004f89de0043
:103ff0000004b8000106b8008904460060854e0040
:104000000206b8000a0546008c854e00000eb80076
:10401000890446000a854e00e0854d00010eb80077
:104020000a0546008b854e00020eb8008b0546003f
:104030008b0546000016b8000a0546008b854e0029
:104040008b0546004e4ade00c254dd000482740037
:10405000ce52de00c25cdd008582740008002400c0
:104060004fa9de008005eb000446b800e0044600de
:1040700060854e00e0854d000546b8000a05460003
:104080008b854e000246b8008b05460002002400d6
:104090008284440060054d00e0854d004f49de00fc
:1040a000c154dd0002817400cf51de00c15cdd002f
:1040b000838174000203430083834b004f89de0039
:1040c000cfa9de000404b8000506b8008904460044
:1040d00060854e000306b8000a054600e0854e00e4
:1040e0000306b8008b054600040eb800890446009c
:1040f0000a854e00e0854d00050eb8000a05460011
:104100008b854e00030eb8008b0546000416b800e0
:104110000a0546008b854e000516b8008b05460043
:104120000416b8008b054600e184440060054d008c
:10413000e0854d004e4ade00c254dd00048274006a
:10414000ce52de00c25cdd0085827400b3aa2a0074
:104150000324b800a8aa20000826b8008904460055
:1041600060854e008005eb00032eb80089044600f0
:104170000a854e00e0854d00082eb8000a0546006d
:104180008b854e004fa9de000316b8000a054600d5
:104190008b854e000816b8008b0546000316b80044
:1041a0008b054600080022008884440060054d000d
:1041b000e0854d004e49de00c254dd0002817400ee
:1041c000ce51de00c25cdd00838174000203430037
:1041d00083834b004f89de00cfa9de000404b800c2
:1041e0000506b8008904460060854e000306b80045
:1041f0000a054600e0854e000306b8008b05460020
:10420000040eb800890446000a854e00e0854d0082
:10421000050eb8000a0546008b854e00030eb80057
:104220008b0546000416b8000a0546008b854e0033
:104230000516b8008b0546000416b8008b0546002d
:10424000e184440060054d00e0854d004e4ade00eb
:10425000c254dd0004827400ce52de00c25cdd0078
:1042600085827400b3aa2a000324b800a82a20007b
:104270000826b8008904460060854e008005eb00e2
:10428000032eb800890446000a854e00e0854d00e3
:10429000082eb8000a0546008b854e004fa9de00a7
:1042a0000316b8000a0546008b854e000816b800b4
:1042b0008b0546000316b8008b0546000800220057
:1042c0008884440060054d00e0854d004e49de00c5
:1042d000c254dd0002817400ce51de00c25cdd00fc
:1042e000838174000203430083834b004f89de0007
:1042f000cfa9de000404b8000506b8008904460012
:1043000060854e000306b8000a054600e0854e00b1
:104310000306b8008b054600040eb8008904460069
:104320000a854e00e0854d00050eb8000a054600de
:104330008b854e00030eb8008b0546000416b800ae
:104340000a0546008b854e000516b8008b05460011
:104350000416b8008b0546004e4ade00c254dd004c
:1043600004827400ce52de00c25cdd0085827400df
:10437000938828000324b800880820000826b80085
:104380008904460060854e008005eb00032eb800ce
:10439000890446000a854e00e0854d00082eb800cd
:1043a0000a0546008b854e004fa9de000316b800b3
:1043b0000a0546008b854e000816b8008b0546009e
:1043c0000316b8008b0546000800220088844400cc
:1043d00060054d00e0854d004e49de00c254dd0011
:1043e00002817400ce51de00c25cdd008381740066
:1043f0000203430083834b004f89de00cfa9de0018
:104400000404b8000506b8008904460060854e0023
:104410000306b8000a054600e0854e000306b80012
:104420008b054600040eb800890446000a854e003c
:10443000e0854d00050eb8000a0546008b854e004c
:10444000030eb8008b0546000416b8000a054600a6
:104450008b854e000516b8008b0546000416b80083
:104460008b0546004e4ade00c254dd000482740013
:10447000ce52de00c25cdd0085827400c3162c00c3
:104480000324b800680120000826b800890446000b
:1044900060854e008005eb00032eb80089044600bd
:1044a0000a854e00e0854d00082eb8000a0546003a
:1044b0008b854e004fa9de000316b8000a054600a2
:1044c0008b854e000816b8008b0546000316b80011
:1044d0008b054600080022008884440060054d00da
:1044e000e0854d004e49de00c254dd0002817400bb
:1044f000ce51de00c25cdd00838174000203430004
:1045000083834b004f89de00cfa9de000404b8008e
:104510000506b8008904460060854e000306b80011
:104520000a054600e0854e000306b8008b054600ec
:10453000040eb800890446000a854e00e0854d004f
:10454000050eb8000a0546008b854e00030eb80024
:104550008b0546000416b8000a0546008b854e0000
:104560000516b8008b0546000416b8008b054600fa
:104570004e4ade00c254dd0004827400ce52de00da
:10458000c25cdd0085827400430324000324b8006c
:10459000380020000826b8008904460060854e00d7
:1045a0008005eb00032eb800890446000a854e0002
:1045b000e0854d00082eb8000a0546008b854e00a8
:1045c0004fa9de000316b8000a0546008b854e0091
:1045d0000816b8008b0546000316b8008b05460088
:1045e000080022008884440060054d00e0854d00ed
:1045f0004e49de00c254dd0002817400ce51de005f
:10460000c25cdd00838174000203430083834b009e
:104610004f89de00cfa9de000404b8000506b8000b
:104620008904460060854e000306b8000a0546006e
:10463000e0854e000306b8008b054600040eb80066
:10464000890446000a854e00e0854d00050eb8003d
:104650000a0546008b854e00030eb8008b05460008
:104660000416b8000a0546008b854e000516b800f2
:104670008b0546000416b8008b0546004e4ade0046
:10468000c254dd0004827400ce52de00c25cdd0044
:1046900085827400738026000324b8008005eb0037
:1046a000032eb800e004460060854e00e0854d0012
:1046b0004fa9de000316b8000a0546008b854e00a0
:1046c0000316b8008b0546000800220088844400c9
:1046d00060054d00e0854d004e49de00c254dd000e
:1046e00002817400ce51de00c25cdd008381740063
:1046f0000203430083834b004f89de00cfa9de0015
:104700000404b8000506b8008904460060854e0020
:104710000306b8000a054600e0854e000306b8000f
:104720008b054600040eb800890446000a854e0039
:10473000e0854d00050eb8000a0546008b854e0049
:10474000030eb8008b0546000416b8000a054600a3
:104750008b854e000516b8008b0546000416b80080
:104760008b0546004e4ade00c254dd000482740010
:10477000ce52de00c25cdd0085827400f3b82000fa
:104780000324b8008005eb00032eb800e0044600c7
:1047900060854e00e0854d004fa9de000316b8008d
:1047a0000a0546008b854e000316b8008b054600af
:1047b000080022008884440060054d00e0854d001b
:1047c0004e49de00c254dd0002817400ce51de008d
:1047d000c25cdd00838174000203430083834b00cd
:1047e0004f89de00cfa9de000404b8000506b8003a
:1047f0008904460060854e000306b8000a0546009d
:10480000e0854e000306b8008b054600040eb80094
:10481000890446000a854e00e0854d00050eb8006b
:104820000a0546008b854e00030eb8008b05460036
:104830000416b8000a0546008b854e000516b80020
:104840008b0546000416b8008b0546004e4ade0074
:10485000c254dd0004827400ce52de00c25cdd0072
:1048600085827400831220000324b8008005eb00c9
:10487000032eb800e004460060854e00e0854d0040
:104880004fa9de000316b8000a0546008b854e00ce
:104890000316b8008b0546000800220088844400f7
:1048a00060054d00e0854d004e49de00c254dd003c
:1048b00002817400ce51de00c25cdd008381740091
:1048c0000203430083834b004f89de00cfa9de0043
:1048d0000404b8000506b8008904460060854e004f
:1048e0000306b8000a054600e0854e000306b8003e
:1048f0008b054600040eb800890446000a854e0068
:10490000e0854d00050eb8000a0546008b854e0077
:10491000030eb8008b0546000416b8000a054600d1
:104920008b854e000516b8008b0546000416b800ae
:104930008b0546004e4ade00c254dd00048274003e
:10494000ce52de00c25cdd0085827400b30120001f
:104950000324b8008005eb00032eb800e0044600f5
:1049600060854e00e0854d004fa9de000316b800bb
:104970000a0546008b854e000316b8008b054600dd
:10498000080022008884440060054d00e0854d0049
:104990004e49de00c254dd0002817400ce51de00bb
:1049a000c25cdd00838174000203430083834b00fb
:1049b0004f02be000500e00030003a004222dd0058
:1049c0000000200090018800a1c2210084804000e6
:1049d0003100ba009100ba004f89de00060278006b
:1049e000870278000003eb000404b8000506b80055
:1049f0008904460060854e000606b8000a05460098
:104a0000e0854e008b054600040eb8008904460080
:104a10000a854e00e0854d00050eb8000a054600e7
:104a20008b854e00060eb8008b0546000416b800b4
:104a30000a0546008b854e000516b8008b0546001a
:104a40008b054600040021008484440060054d006d
:104a5000e0854d00cd4cde004352dd000480740043
:104a60004d55de00435add00840075004f06be0040
:104a70004f05be004f04be00000006004122dd00cd
:104a80000000200090018800a1c521008480400022
:104a90001100ba0006027800870278000003eb00dc
:104aa0000404b8000506b8008904460060854e007d
:104ab0000606b8000a054600e0854e008b05460054
:104ac0008b054600ce4cde004252dd0004807400af
:104ad0004e55de00425add00840075004f06be00d0
:104ae0004f05be004f04be000000060003f0a20008
:104af000889fbe008a9fbe008c1f7800d9000700e7
:104b0000e00033006450e1004f0032006420e10017
:104b10005200320003826c0007003b000905d00000
:104b20000306d000820f54000c065d00020039001d
:104b30000200320089017800030678008582550062
:104b400004003d000003fd008103fd008502ea0032
:104b50008b854200840f720002003b006000100051
:104b6000e08018006011b8000005eb007a28e10031
:104b70000a00390006007800c75ddd00f707b200c3
:104b8000878075002d003700828171000a0178004e
:104b9000610560008180d1000080d3008502e900ba
:104ba000f9ff3b00060440008784480002003b00f8
:104bb00060041400e0841c000988a3000700320090
:104bc0008a81710082817100610164008904d100d1
:104bd0000884d3008b05e800170037000978a3008c
:104be00013003a000b00e000130034008b05e900cd
:104bf0000804440089844c000a4474000978a30026
:104c00000d003a000b00e000070034008b05e900be
:104c10000804440089844c0001003a000b00200085
:104c20000978a300f7ff32000001eb000200370013
:104c3000828171000a0178004f0007000cf0a70084
:104c400001f0a000980037006420e10002003a0063
:104c5000838f6c00980033000801be000200be0084
:104c600091003700f4ff2f00ca0037000001be009a
:104c7000670007000470a70003f0a1006509b100f8
:104c8000160032000d0035006828e10006003500ee
:104c9000f0ff2f00f1ff27000300e00013003b00ae
:104ca000010028000000050000004000818048004d
:104cb0008502e900fcff3a0008003700f88f420047
:104cc00002003c008000eb00000005008100d100e4
:104cd0000080d3008502e800fcff3a000300e000fa
:104ce00002003b0060001000e08018000000060099
:104cf0000001be00460007000470a70003f0a100f9
:104d000003f8a30013003a006509b1001000320057
:104d1000090035006928e100020035000100280083
:104d20000000050000004000818048008502e90085
:104d3000fcff3a0000000600f88f42000500350035
:104d40008100d1000080d3008502e800fcff3a001a
:104d5000000006008000eb00000005004f89de0027
:104d600082017800a60037006011b800b400370057
:104d7000040020008700370081002000618055007a
:104d80000b003d000b00200061fe2f000100e10040
:104d90001d00340082817100610164008904d1002a
:104da0000884d3000000e800faff3a0071002000f8
:104db000610064000300700002006000090032001e
:104dc00061044400e0844c000988a500050032001d
:104dd0008b05e8006808e10002003a008904d10070
:104de0000884d300f20f20000258e10005003d00c6
:104df000c75ddd00f907b200898075000800780002
:104e0000000006000bf827008b007800000005006a
:104e1000c70ade00f107b200f50fb2000800320049
:104e2000e1cf4200020032000170a0002400050022
:104e3000810f7000010032000408050044000500e5
:104e4000810f700002003a00140005008502e9009d
:104e50000000400081c04800fcff3b000170a00042
:104e6000240005000004be00e9ff07000003be00a7
:104e70000405be000200be00e5ff0700844f750078
:104e8000000006000200be006450e100050036008c
:104e90006420e100020036000968a30001003a0026
:104ea0000800be000160a0004f0678004f05be005c
:104eb0004f04be0000000600f0ff2f00f1ff2700a6
:104ec000f9ff3700889fbe008a9fbe008c1f7800c4
:104ed000e4ff0700ebff330003866c006450e10041
:104ee000240032006420e100270032006150e1001c
:104ef000220032006120e100210032008b85420057
:104f0000eb07b1000134b800003ab80008044200d1
:104f100089844a00013ab8000030b8008880400017
:104f200009014a000400330000004000818048006d
:104f3000020149008b05e900c909dd008301700009
:104f40000100320013002000c814de004814dd0008
:104f50004709de001200b200c808de0008847000b5
:104f600085ff070001f0a1000cf0a70001f0a000f0
:104f7000cdff37006120e100cfff32000801be0005
:104f80000200be00f7ff37006150e100fcff3a006d
:104f9000c9ff3700889fbe008a9fbe00841f78002b
:104fa000b0ff07004f00780011003300f0ff2f0022
:104fb000838f6c0006003b00040565000a00a70013
:104fc0000800370009f0a600100020000800370094
:104fd000820f5400838f5c00030039001000200012
:104fe00001003e000000200009f0a7000000ea00d8
:104ff0004f05be004f04be000000e00000000600a8
:10500000881f7800030478000300e00007003d00db
:1050100060001000e080180060011900e0811900b4
:1050200002003b0001f02d000300370004000700e0
:1050300008f0a70001f0a0004f047800000006006f
:10504000889fbe008a9fbe0000827000040271002b
:1050500004827100260032000004be000200be007f
:105060006011b8006b092000950220000182cf007a
:105070000a0039000541b1000082cf000700390065
:105080000541b1000982cf00040039000541b1009b
:105090000882cf00010039000541b10005425200ed
:1050a000120032000a003b0082817100610164003d
:1050b0008100d1000080d3008984d3000884d3000c
:1050c0008b05e8000442e800f7ff3a0007003700cc
:1050d0000804440089844c00000048008180480096
:1050e0008b05e9000442e900f9ff3a0022ff0700be
:0c50f0004f05be004f04be00000006008b
:020000040000fa
:1050fc0000000000cc0c000099190000662600008e
:10510c0032330000ff3f0000cc4c000098590000e7
:10511c0065660000327300003f0600005b4f000024
:0c512c00666d00007d0700007f6f000032
:020000040000fa
:105138000400fa00008fbe0002002000037824005b
:105148001e00be005dff07000002be000400be0096
:10515800c4fe07000002be000400be000080fa0082
:10516800000006000200fa00000f78001e02780016
:105178006123b800b4f92f00f5ff2f0006024200a2
:1051880087824a003600200007002000860f520060
:10519800878f5a000d003e000460010003003700ad
:1051a80004003700050037000600370034002000ef
:1051b80007003700340020000500370034002000c5
:1051c8000300370034002000010037000082eb00a4
:1051d800040078000080fa00000006000800fa00c9
:1051e8001007980021079800320798001e029000c7
:1051f8006402420014027800840278002e029000b3
:1052080004aab90004027800630f42001e0290004d
:105218000482e800140278000402e900840278009d
:105228002e029000848f5200050031003e0290004b
:1052380035002000050a78000002eb000400370062
:105248001e027800040242009e029000048242007e
:10525800040078000080fa00000006000800fa0048
:10526800889fbe008a1f78001007980021079800c1
:10527800320798002e029000050020000400be00ae
:10528800b7fe07000003be001e029000680242003d
:105298001402be000401be000600be0007ff07009e
:1052a8000002be0002002000030424000400be0027
:1052b8000dfe07000002be000400be008afe0700c3
:1052c8000002be00040f78002e02900005002000a6
:1052d8000400be00a2fe07000004be001e029000eb
:1052e800640242001402be000200200003f82300fa
:1052f8000400be00fbfd07000002be001ac0b30098
:105308000401be000800be0054fe07000002780039
:10531800e00f520001003c000045eb00e04f550053
:10532800050032003e02900035002000050a780092
:105338000002eb00040037001e0278004222dd0064
:105348009e02900004824200040078004f05780015
:105358004f04be000080fa00000006000800fa00b2
:105368001007980021079800320798001e02900045
:1053780064024200140278000402e8008402780003
:105388002e02900004aab90004027800630f4200bc
:105398001e0290000482e800140278000402e9006a
:1053a800840278002e029000848f5200050031009c
:1053b8003e02900035002000050a78000002eb004c
:1053c800040037001e027800040242009e0290008a
:1053d80004824200040078000080fa000000060001
:1053e8000800fa00889fbe008a1f780010079800fe
:1053f80021079800320798002e029000050020002f
:105408000400be0056fe07000004be001e02900005
:10541800680242001402be000200200003f82300c4
:105428000400be00b0fd07000002be000401be007b
:105438000800be00a1fe07000002be000200200016
:10544800030424000400be00a7fd07000002be00fc
:105458000400be0024fe07000002be00040f78000e
:105468002e029000050020000400be003cfe07004c
:105478000004be001e029000640242001402be0036
:105488000200200003f823000400be0095fd070079
:105498000002be001ac0b3000401be000800be002e
:1054a800eefd070000027800e00f520001003c000a
:1054b8000045eb00e04f5500050032003e02900029
:1054c80035002000050a78000002eb0004003700d0
:1054d8001e0278004222dd009e02900004824200f3
:1054e800040078004f0578004f04be000080fa00e1
:1054f800000006000800fa0010079800210798002d
:10550800320798001e0290006402420014027800dc
:105518000402e800840278002e02900004aab90070
:105528000402780004024200630f42001e02900049
:105538000482e800140278000402e900840278007a
:105548002e029000848f5200050031003e02900028
:1055580035002000050a78000002eb00040037003f
:105568001e027800040242009e029000048242005b
:10557800040078000080fa00000006000800fa0025
:10558800889fbe008a1f780010079800210798009e
:10559800320798002e029000040242000500200005
:1055a8000400be00eefd07000004be001e029000cd
:1055b800680242001402be000200200003f8230023
:1055c8000400be0048fd07000002be000401be0042
:1055d8000800be0039fe07000002be0002002000dd
:1055e800030424000400be003ffd07000002be00c3
:1055f8000400be00bcfd07000002be00040f7800d6
:105608002e029000050020000400be00d4fd070013
:105618000004be001e029000640242001402be0094
:105628000200200003f823000400be002dfd07003f
:105638000002be001ac0b3000401be000800be008c
:1056480086fd070000027800e00f520001003c00d0
:105658000045eb00e04f5500050032003e02900087
:1056680035002000050a78000002eb00040037002e
:105678001e0278004222dd009e0290000482420051
:10568800040078004f0578004f04be000080fa003f
:10569800000006000800fa0010079800210798008b
:1056a800320798001e02900064024200140278003b
:1056b800840278002e02900004aab900040278003f
:1056c800630f42001e0290000482e8001402780072
:1056d8000402e900840278002e029000848f5200b0
:1056e800050031003e02900035002000050a7800d0
:1056f8000002eb00040037001e027800040242009a
:105708009e02900004824200040078000080fa00a3
:10571800000006000800fa00889fbe008a1f780073
:105728001007980021079800320798002e02900071
:10573800050020000400be0089fd07000003be002c
:105748001e029000680242001402be000401be005e
:105758000600be00d9fd07000002be0002002000be
:10576800030424000400be00dffc07000002be00a2
:105778000400be005cfd07000002be00040f7800b4
:105788002e029000050020000400be0074fd0700f2
:105798000004be001e029000640242001402be0013
:1057a8000200200003f823000400be00cdfc07001f
:1057b8000002be001ac0b3000401be000800be000b
:1057c80026fd070000027800e00f520001003c00af
:1057d8000045eb00e04f5500050032003e02900006
:1057e80035002000050a78000002eb0004003700ad
:1057f8001e0278004222dd009e02900004824200d0
:10580800040078004f0578004f04be000080fa00bd
:10581800000006000400fa00889fbe00000f780010
:10582800110798001e02780014027800840278009c
:105838001e029000848f52000200320014002000e3
:10584800670037009e02900054062000848f5200a3
:10585800040032009e02900064062000848f5200eb
:105868001a003a001e82e800940278001e037800ad
:10587800640243001402780004aab9000404780002
:105888001e82e800940278009e0378006482430038
:105898001402780004aab90004027800840478008d
:1058a8001e0090002ffe07000002780004824400ca
:1058b800040242001e02420014027800840f5400c1
:1058c8003c00320024002000450037009e02900072
:1058d80074062000848f52001c003a001e82e800e3
:1058e8001402780004024200840278001e03780043
:1058f80064024300140278000402e80004aab90014
:10590800040378001e82e8001402780004024200b2
:10591800840278009e0378006482430014027800b1
:105928000402e8000402420004aab9000402780054
:10593800660242001e02420014027800840f5300df
:105948001c00320024002000250037009e02900031
:1059580084062000848f520016003a001e82e80058
:10596800940278001e037800640243001402780051
:1059780004aab900040378001e82e80094027800a3
:105988009e037800648243001402780004aab900d8
:105998000402780063024200040242001e02420030
:1059a80014027800840f5300020032002400200003
:1059b8000b0037009e02900054062000848f52008e
:1059c80004003e009e02900084062000848f52004e
:1059d8000200360014002000010037000002eb002e
:1059e800040078004f04be000080fa0000000600a2
:1059f8000400fa00889fbe008a9fbe00000f78004e
:105a0800110798001e0278001404be001e029000c0
:105a1800050020000400be00d1fc07000002be0003
:105a28000401be000800be00cffc07000002780099
:105a3800e00f52000200320014002000a5003700d9
:105a48009e02900054062000848f52000400320009
:105a58009e02900064062000848f520028003a00bd
:105a68009e027800648242001403be009e02780001
:105a7800688242001402be000401be000600be0097
:105a88000efd07000002be000404be009e0278005e
:105a9800648242001403be009e02780068824200bd
:105aa8001402be000401be000600be0003fd07008c
