:020000040000fa
:080000000002040000000000f2
:020000040000fa
:10040000cff22300007f24000001880000000000dc
:100410000c000700602421000100200011000700eb
:10042000000020000000e000020032000000020096
:100430000000000090520200000000000040da00be
:100440000000fe004440a90060fb20000000e00026
:100450000300320000002000a00188004440a800f2
:100460000000060091018800800078000000eb0089
:1004700015003700e280400032a0b4009101ba00bc
:10048000e280400032a0b4009102ba00e280400055
:1004900032a0b4000002eb00472bde00f507b200eb
:1004a000602ce10004003a000059eb008301e900f0
:1004b000fdff3e00040037006128e100010032002a
:1004c0000082eb00040007001101ba000200e00006
:1004d000e8ff3a00000006003159ba008301e90044
:1004e0000c0032002159ba008301e90008003200f3
:1004f0000400e00003003a00e280400032a0b400b3
:10050000f5ff370011d9ba008301e900faff3a007c
:100510008100e800e180400032a0b4000000060045
:020000040000fa
:0200000401f009
:04000800ffff0000f6
:020000040000fa
:0200000401f009
:04000c00f8ff0000f9
:020000040000fa
:0200000401f009
:040010007bff000072
:020000040000fa
:0200000401f009
:040014007fff00006a
:020000040000fa
:100008001e5600001e5600001e5600001e56000018
:100018001e5600001e5600001e5600001e56000008
:100028001e5600001e5600001e5600001e560000f8
:100038001e5600001e5600001e5600001e560000e8
:100048001e5600001e5600001e5600001e560000d8
:100058001e5600001e5600001e5600001e560000c8
:100068001e5600001e5600001e5600001e560000b8
:10007800b24f00001e5600001e5600001e5600001b
:100088001e5600001e5600001e5600001e56000098
:100098001e560000385000001e5600001e56000074
:1000a8001e5600001e5600001e5600001e56000078
:1000b8001e5600001e5600001e5600001e56000068
:1000c8001e5600001e5600001e5600001e56000058
:1000d8001e5600001e5600001e5600001e56000048
:1000e8001e5600001e5600001e5600001e56000038
:1000f8001e5600001e5600001e5600001e56000028
:100108001e5600001e5600001e5600001e56000017
:100118005c5000001e5600001e5600001e560000cf
:100128001e5600001e5600001e5600001e560000f7
:100138001e5600001e5600001e5600001e560000e7
:100148001e5600001e5600001e5600001e560000d7
:100158001e5600001e5600001e5600001e560000c7
:100168001e5600001e5600001e5600001e560000b7
:100178001e5600001e5600001e5600001e560000a7
:100188001e5600001e5600001e5600001e56000097
:100198001e5600001e5600001e5600001e56000087
:1001a8001e5600001e5600001e5600001e56000077
:1001b8001e5600001e5600001e5600001e56000067
:1001c8001e5600001e5600001e5600001e56000057
:1001d8001e5600001e5600001e5600001e56000047
:1001e8001e5600001e5600001e5600001e56000037
:0801f8001e5600001e56000017
:020000040000fa
:100208001e5600001e5600001e5600001e56000016
:100218001e5600001e5600001e5600001e56000006
:100228001e5600001e5600001e5600001e560000f6
:100238001e5600001e5600001e5600001e560000e6
:100248001e5600001e5600001e5600001e560000d6
:100258001e5600001e5600001e5600001e560000c6
:100268001e5600001e5600001e5600001e560000b6
:10027800b24f00001e5600001e5600001e56000019
:100288001e5600001e5600001e5600001e56000096
:100298001e560000385000001e5600001e56000072
:1002a8001e5600001e5600001e5600001e56000076
:1002b8001e5600001e5600001e5600001e56000066
:1002c8001e5600001e5600001e5600001e56000056
:1002d8001e5600001e5600001e5600001e56000046
:1002e8001e5600001e5600001e5600001e56000036
:1002f8001e5600001e5600001e5600001e56000026
:100308001e5600001e5600001e5600001e56000015
:100318005c5000001e5600001e5600001e560000cd
:100328001e5600001e5600001e5600001e560000f5
:100338001e5600001e5600001e5600001e560000e5
:100348001e5600001e5600001e5600001e560000d5
:100358001e5600001e5600001e5600001e560000c5
:100368001e5600001e5600001e5600001e560000b5
:100378001e5600001e5600001e5600001e560000a5
:100388001e5600001e5600001e5600001e56000095
:100398001e5600001e5600001e5600001e56000085
:1003a8001e5600001e5600001e5600001e56000075
:1003b8001e5600001e5600001e5600001e56000065
:1003c8001e5600001e5600001e5600001e56000055
:1003d8001e5600001e5600001e5600001e56000045
:1003e8001e5600001e5600001e5600001e56000035
:0803f8001e5600001e56000015
:020000040000fa
:1005200000000000cc0c00009919000066260000b5
:1005300032330000ff3f0000cc4c0000985900000f
:100540006566000032730000ff7f000015000000a8
:100550001500000015000000160000001600000045
:100560001600000016000000160000001600000033
:100570001600000016000000170000001700000021
:10058000170000001700000017000000170000000f
:1005900017000000180000001800000018000000fc
:1005a00018000000180000001800000018000000eb
:1005b00018000000190000001900000019000000d8
:1005c00019000000190000001900000019000000c7
:1005d0001a0000001a0000001a0000001a000000b3
:1005e0001a0000001a0000001a0000001a000000a3
:1005f0001b0000001b0000001b0000001b0000008f
:100600001b0000001b0000001b0000001c0000007d
:100610001c0000001c0000001c0000001c0000006a
:100620001c0000001c0000001c0000001d00000059
:100630001d0000001d0000001d0000001d00000046
:100640001d0000001d0000001d0000001e00000035
:100650001e0000001e0000001e0000001e00000022
:100660001e0000001e0000001e0000001f00000011
:100670001f0000001f0000001f0000001f000000fe
:100680001f0000001f0000001f0000001f000000ee
:1006900020000000200000002000000020000000da
:1006a00020000000200000002000000020000000ca
:1006b00021000000210000002100000021000000b6
:1006c00021000000210000002100000021000000a6
:1006d0002100000022000000220000002200000093
:1006e0002200000022000000220000002200000082
:1006f0002200000022000000220000002300000071
:10070000230000002300000023000000230000005d
:10071000230000002300000023000000230000004d
:100720002400000024000000240000002400000039
:100730002400000024000000240000002400000029
:100740002400000024000000240000002500000018
:100750002500000025000000250000002500000005
:1007600025000000250000002500000025000000f5
:1007700025000000250000002600000026000000e3
:1007800026000000260000002600000026000000d1
:1007900026000000260000002600000026000000c1
:1007a00026000000260000002700000027000000af
:1007b000270000002700000027000000270000009d
:1007c000270000002700000027000000270000008d
:1007d000270000002700000027000000280000007c
:1007e0002800000028000000280000002800000069
:1007f0002800000028000000280000002800000059
:100800002800000028000000280000002800000048
:100810002800000028000000280000002900000037
:100820002900000029000000290000002900000024
:100830002900000029000000290000002900000014
:100840002900000029000000290000002900000004
:1008500029000000290000002900000029000000f4
:1008600029000000290000002900000029000000e4
:100870002a0000002a0000002a0000002a000000d0
:100880002a0000002a0000002a0000002a000000c0
:100890002a0000002a0000002a0000002a000000b0
:1008a0002a0000002a0000002a0000002a000000a0
:1008b0002a0000002a0000002a0000002a00000090
:1008c0002a0000002a0000002a0000002a00000080
:1008d0002a0000002a0000002a0000002a00000070
:1008e0002a0000002a0000002a0000002a00000060
:1008f0002a0000002a0000002a0000002a00000050
:100900002a0000002a0000002a0000002a0000003f
:100910002a0000002a0000002a0000002a0000002f
:100920002a0000002a0000002a0000002a0000001f
:100930002a0000002a0000002a0000002a0000000f
:100940002a0000002a0000002a0000002a000000ff
:100950002a0000002a0000002a0000002a000000ef
:100960002a0000002a0000002a0000002a000000df
:100970002a0000002a0000002a0000002a000000cf
:100980002a0000002a0000002a0000002a000000bf
:100990002a0000002a0000002a0000002a000000af
:1009a0002a0000002a0000002a0000002a0000009f
:1009b0002a0000002a0000002a0000002a0000008f
:1009c0002a0000002a0000002a0000002a0000007f
:1009d0002a0000002a0000002a0000002a0000006f
:1009e0002a0000002a0000002a0000002a0000005f
:1009f0002a00000029000000290000002900000052
:100a00002900000029000000290000002900000042
:100a10002900000029000000290000002900000032
:100a20002900000029000000290000002900000022
:100a30002900000029000000290000002900000012
:100a40002900000029000000280000002800000004
:100a500028000000280000002800000028000000f6
:100a600028000000280000002800000028000000e6
:100a700028000000280000002800000028000000d6
:100a800028000000280000002700000027000000c8
:100a900027000000270000002700000027000000ba
:100aa00027000000270000002700000027000000aa
:100ab000270000002700000027000000260000009b
:100ac000260000002600000026000000260000008e
:100ad000260000002600000026000000260000007e
:100ae000260000002600000026000000250000006f
:100af0002500000025000000250000002500000062
:100b00002500000025000000250000002500000051
:100b10002500000025000000250000002400000042
:100b20002400000024000000240000002400000035
:100b30002400000024000000240000002400000025
:100b40002400000023000000230000002300000018
:100b50002300000023000000230000002300000009
:100b600023000000230000002300000022000000fa
:100b700022000000220000002200000022000000ed
:100b800022000000220000002200000022000000dd
:100b900021000000210000002100000021000000d1
:100ba00021000000210000002100000021000000c1
:100bb00021000000200000002000000020000000b4
:100bc00020000000200000002000000020000000a5
:100bd00020000000200000001f0000001f00000097
:100be0001f0000001f0000001f0000001f00000089
:100bf0001f0000001f0000001e0000001e0000007b
:100c00001e0000001e0000001e0000001e0000006c
:100c10001e0000001e0000001d0000001d0000005e
:100c20001d0000001d0000001d0000001d00000050
:100c30001d0000001d0000001c0000001c00000042
:100c40001c0000001c0000001c0000001c00000034
:100c50001c0000001c0000001b0000001b00000026
:100c60001b0000001b0000001b0000001b00000018
:100c70001b0000001b0000001a0000001a0000000a
:100c80001a0000001a0000001a0000001a000000fc
:100c90001a000000190000001900000019000000ef
:100ca00019000000190000001900000019000000e0
:100cb00019000000180000001800000018000000d3
:100cc00018000000180000001800000018000000c4
:100cd00017000000170000001700000017000000b8
:100ce00017000000170000001700000017000000a8
:100cf000160000001600000016000000160000009c
:100d0000160000001600000016000000150000008c
:100d1000150000001500000015000000150000007f
:100d20001500000015000000140000001400000071
:100d30001400000014000000140000001400000063
:100d40001400000014000000130000001300000055
:100d50001300000013000000130000001300000047
:100d6000130000001200000012000000120000003a
:100d7000120000001200000012000000120000002b
:100d8000120000001100000011000000110000001e
:100d9000110000001100000011000000110000000f
:100da0001000000010000000100000001000000003
:100db00010000000100000001000000010000000f3
:100dc0000f0000000f0000000f0000000f000000e7
:100dd0000f0000000f0000000f0000000f000000d7
:100de0000e0000000e0000000e0000000e000000cb
:100df0000e0000000e0000000e0000000d000000bc
:100e00000d0000000d0000000d0000000d000000ae
:100e10000d0000000d0000000d0000000c0000009f
:100e20000c0000000c0000000c0000000c00000092
:100e30000c0000000c0000000c0000000c00000082
:100e40000b0000000b0000000b0000000b00000076
:100e50000b0000000b0000000b0000000b00000066
:100e60000a0000000a0000000a0000000a0000005a
:100e70000a0000000a0000000a0000000a0000004a
:100e80000a0000000900000009000000090000003d
:100e9000090000000900000009000000090000002e
:100ea0000900000009000000080000000800000020
:100eb0000800000008000000080000000800000012
:100ec0000800000008000000080000000700000003
:100ed00007000000070000000700000007000000f6
:100ee00007000000070000000700000007000000e6
:100ef00007000000060000000600000006000000d9
:100f000006000000060000000600000006000000c9
:100f100006000000060000000600000005000000ba
:100f200005000000050000000500000005000000ad
:100f3000050000000500000005000000050000009d
:100f4000050000000500000004000000040000008f
:100f50000400000004000000040000000400000081
:100f60000400000004000000040000000400000071
:100f70000400000004000000030000000300000063
:100f80000300000003000000030000000300000055
:100f90000300000003000000030000000300000045
:100fa0000300000003000000030000000300000035
:100fb0000200000002000000020000000200000029
:1011c000000000000000000001000000010000001d
:1011d000010000000100000001000000010000000b
:1011e00001000000010000000100000001000000fb
:1011f00001000000010000000100000001000000eb
:1012000001000000010000000100000001000000da
:1012100001000000010000000200000002000000c8
:1012200002000000020000000200000002000000b6
:1012300002000000020000000200000002000000a6
:101240000200000002000000020000000200000096
:101250000200000002000000030000000300000084
:101260000300000003000000030000000300000072
:101270000300000003000000030000000300000062
:101280000300000003000000030000000300000052
:10129000040000000400000004000000040000003e
:1012a000040000000400000004000000040000002e
:1012b000040000000400000004000000040000001e
:1012c000050000000500000005000000050000000a
:1012d00005000000050000000500000005000000fa
:1012e00005000000050000000500000006000000e9
:1012f00006000000060000000600000006000000d6
:1013000006000000060000000600000006000000c5
:1013100006000000070000000700000007000000b2
:1013200007000000070000000700000007000000a1
:101330000700000007000000070000000800000090
:10134000080000000800000008000000080000007d
:10135000080000000800000008000000080000006d
:101360000900000009000000090000000900000059
:101370000900000009000000090000000900000049
:10138000090000000a0000000a0000000a00000036
:101390000a0000000a0000000a0000000a00000025
:1013a0000a0000000a0000000b0000000b00000013
:1013b0000b0000000b0000000b0000000b00000001
:1013c0000b0000000b0000000c0000000c000000ef
:1013d0000c0000000c0000000c0000000c000000dd
:1013e0000c0000000c0000000d0000000d000000cb
:1013f0000d0000000d0000000d0000000d000000b9
:101400000d0000000d0000000e0000000e000000a6
:101410000e0000000e0000000e0000000e00000094
:101420000e0000000e0000000f0000000f00000082
:101430000f0000000f0000000f0000000f00000070
:101440000f0000000f00000010000000100000005e
:10145000100000001000000010000000100000004c
:101460001000000011000000110000001100000039
:101470001100000011000000110000001100000028
:101480001100000012000000120000001200000015
:101490001200000012000000120000001200000004
:1014a00013000000130000001300000013000000f0
:1014b00013000000130000001300000013000000e0
:1014c00014000000140000001400000014000000cc
:1014d00014000000140000001400000015000000bb
:1014e0001500000015000000150000004851000024
:1014f00090620000d87300001f050000661600000f
:10150000ab270000f0380000334a0000755b000094
:10151000b66c0000f47d0000310f00006c2000006c
:10152000a4310000da4200000e5400003e650000c5
:101530006c76000097070000be180000e12900004b
:10154000023b00001e4c0000365d00004a6e0000a9
:101550005a7f0000651000006b2100006d32000012
:101560006a430000615400005365000040760000ab
:101570002607000007180000e2280000b739000025
:10158000854a00004d5b00000e6c0000c87c000026
:101590007a0d0000261e0000ca2e0000673f0000e2
:1015a000fc4f0000896000000e7100008b010000fc
:1015b000ff1100006b220000ce3200002843000023
:1015c00079530000c0630000ff7300003304000083
:1015d0005e1400007f24000096340000a344000045
:1015e000a65400009e6400008b7400006d0400008f
:1015f0004414000010240000d13300008643000092
:1016000030530000ce6200005f720000e501000070
:101610005e110000cb2000002c3000007f3f000056
:10162000c64e0000ff5d00002b6d00004a7c0000ec
:101630005c0b00005f1a0000552900003d380000d7
:1016400017470000e25500009f6400004e73000041
:10165000ed0100007e100000001f0000732d00004f
:10166000d63b00002a4a00006e580000a266000027
:10167000c7740000db020000e0100000d41e000070
:10168000b72c00008a3a00004c480000fe550000cc
:101690009e6300002d710000ab7e0000170c00005f
:1016a00072190000bb260000f3330000184100004f
:1016b0002b4e00002c5b00001b680000f77400003c
:1016c000c0010000770e00001b1b0000ac270000cb
:1016d0002934000094400000eb4c00002e5900001b
:1016e0005e6500007a710000837d000077090000cc
:1016f0005715000023210000da2c00007d3800007f
:101700000c440000854f0000ea5a00003a660000d1
:10171000757100009b7c0000ab070000a612000062
:101720008b1d00005b28000015330000ba3d00004f
:1017300048480000c0520000225d00006e670000b3
:10174000a4710000c37b0000cb050000bd0f0000aa
:10175000981900005c230000092d00009f3600004e
:101760001e40000086490000d65200000f5c0000b9
:10177000306500003a6e00002c7700000600000083
:10178000c808000072110000051a00007e22000047
:10179000e02a00002a3300005a3b00007343000097
:1017a000734b00005a530000285b0000de6200000b
:1017b0007b6a0000fe71000069790000ba00000039
:1017c000f3070000120f000017160000041d0000b0
:1017d000d6230000902a00002f310000b53700000a
:1017e000213e000073440000ac4a0000ca500000d3
:1017f000cf560000b95c0000896200003f6800001d
:10180000db6d00005c730000c3780000107e0000f8
:10181000420300005a080000570d00003912000072
:1018200001170000ae1b000041200000b82400009a
:1018300015290000562d00007d310000893500007b
:101840007a3900004f3d00000a410000a944000021
:101850002d480000964b0000e44e00001652000098
:101860002e550000295800000a5b0000cf5d0000e3
:10187000786000000663000079650000d067000012
:101880000b6a00002b6c0000306e00001870000026
:10189000e6710000977300002d750000a776000028
:1018a00005780000487900006f7a00007b7b00001b
:1018b0006a7c00003e7d0000f67d0000927e000004
:1018c000137f0000787f0000c17f0000ee7f0000e2
:1018d000ff7f0000f57f0000cf7f00008d7f0000bc
:1018e0002f7f0000b67e0000207e00006f7d00008c
:1018f000a37c0000ba7b0000b67a00009679000055
:101900005a780000037700008f7500000174000012
:101910005672000090700000ae6e0000b16c0000c6
:10192000986a00006368000013660000a863000066
:10193000216100007e5e0000c05b0000e7580000ef
:10194000f2550000e2520000b64f00006f4c00005c
:101950000d49000090450000f7410000443e0000a2
:10196000753a00008b36000086320000662e0000bb
:101970002c2a0000d625000065210000da1c00009a
:101980003318000072130000970e0000a009000039
:101990008f040000647f00001e7a0000be74000007
:1019a000436f0000ae690000fe630000355e00007a
:1019b00051580000535200003b4c00000a46000002
:1019c000be3f000058390000d9320000402c000012
:1019d0008d250000c11e0000db170000dc10000098
:1019e000c309000092020000467b0000e273000081
:1019f000656c0000ce6400001f5d000057550000bc
:101a0000764d00007d4500006a3d00004035000035
:101a1000fc2c0000a12400002d1c0000a1130000dc
:101a2000fd0a0000410200006d7900008170000095
:101a30007d670000625e00002f550000e54b00004e
:101a4000834200000a3900007a2f0000d3250000ed
:101a5000141c00003f12000053080000507e0000dc
:101a600037740000076a0000c15f00006555000080
:101a7000f24a000069400000ca350000162b000041
:101a80004b2000006b150000760a00006b7f000001
:101a90004b74000015690000cb5d00006b52000024
:101aa000f74600006d3b0000d02f00001d24000011
:101ab000571800007c0c00008d00000089740000a5
:101ac00072680000475c000009500000b743000046
:101ad00051370000d82a00004c1e0000ad11000054
:101ae000fb040000377800005f6b0000755e0000ab
:101af000795100006a4400004a370000172a0000ac
:101b0000d21c00007c0f0000140200009b74000037
:101b10001067000074590000c74b0000093e000028
:101b20003a3000005b2200006b1400006b060000de
:101b30005b7800003a6a00000a5c0000c94d0000b2
:101b4000793f00001a310000ab2200002d14000084
:101b5000a0050000057700005a680000a0590000a9
:101b6000d94a0000033c00001e2d00002c1e00007e
:101b70002c0f00001e00000002710000d96100005f
:101b8000a35200006043000010340000b3240000a2
:101b900049150000d305000050760000c266000021
:101ba0002757000080470000ce37000010280000b3
:101bb000471800007308000093780000a96800002f
:101bc000b3580000b4480000a93800009528000070
:101bd000761800004e0800001c780000e067000046
:101be0009a5700004c470000f4360000932600008e
:101bf0002a160000b80500003d750000ba64000018
:101c00002f5400009c430000023300005f220000bc
:101c1000b5110000040100004c7000008d5f000051
:101c2000c74e0000fb3d0000282d00004e1c0000a8
:101c30006f0b00008a7a00009e690000ae58000019
:101c4000b8470000bc360000bc250000b7140000f7
:101c5000ad0300009e7200008b6100007450000014
:101c6000593f00003a2e0000171d0000f10b000044
:101c7000c77a00009a6900006a58000037470000e0
:101c800002360000ca240000901300005402000035
:101c900016710000d65f0000944e0000513d000018
:101ca0000c2c0000c71a0000810900003a780000df
:101cb000f2660000aa5500006244000019330000db
:101cc000d121000089100000427f0000fb6d000060
:101cd000b55c0000704b00002c3a0000ea280000c0
:101ce000a91700006a0600002d750000f1630000ce
:101cf000b8520000824100004e3000001c1f00005e
:101d0000ee0d0000c37c00009b6b0000765a0000c3
:101d100055490000383800001e2700000916000051
:101d2000f8040000ec730000e4620000e2510000df
:101d3000e4400000eb2f0000f71e00000a0e000038
:101d4000217d00003f6c0000625b00008c4a0000b7
:101d5000bc390000f32800003018000075070000af
:101d6000c0760000126600006c550000ce440000f2
:101d700037340000a823000021130000a202000055
:101d80002b720000be61000058510000fc400000b2
:101d9000a93000005f2000001e100000e77f000057
:101da000b96f0000965f00007c4f00006d3f00009f
:101db000682f00006d1f00007d0f0000987f00005d
:101dc000be6f0000ef5f00002b500000734000006a
:101dd000c730000026210000911100000802000019
:101de0008c7200001c630000b953000062440000c4
:101df00018350000db250000ab1600008907000045
:101e0000747800006d690000745a0000884b00006f
:101e1000ab3c0000dc2d00001b1f0000691000001f
:101e2000c601000031730000ab64000035560000ad
:101e3000ce470000763900002e2b0000f51c000074
:101e4000cd0e0000b4000000ac720000b4640000cd
:101e5000cc560000f54800002e3b0000792d000014
:101e6000d41f000041120000be0400004e770000a5
:101e7000ee690000a15c0000654f00003b420000dd
:101e8000233500001d2800002a1b0000490e000019
:101e90007b010000c074000017680000815b000037
:101ea000ff4e00008f42000034360000eb29000096
:101eb000b61d000095110000880500008e79000015
:101ec000a96d0000d86100001c560000734a000094
:101ed000e03e000061330000f7270000a11c000075
:101ee0006111000036060000207b00002070000019
:101ef00035650000605a0000a04f0000f644000065
:101f0000623a0000e42f00007d2500002b1b00003a
:101f1000f0100000cb060000bd7c0000c572000080
:101f2000e56800001b5f000068550000cc4b000016
:101f300047420000d9380000832f000044260000eb
:101f40001d1d00000e140000160b000035020000dd
:101f50006d790000bd70000025680000a55f0000dd
:101f60003d570000ed4e0000b6460000973e0000d1
:101f700091360000a42e0000cf260000131f0000a1
:101f800070170000e60f0000750800001d0100003a
:101f9000df790000b9720000ad6b0000ba64000088
:101fa000e15d0000215700007b500000ef49000078
:101fb0007c430000243d0000e5360000c0300000f6
:101fc000b52a0000c4240000ed1e000030190000f6
:101fd0008e130000060e0000980800004403000065
:101fe0000c7e0000ed780000e9730000006f000037
:101ff000326a00007e650000e5600000665c00005b
:1020000003580000bb5300008d4f00007a4b0000c6
:1020100083470000a6430000e53f00003f3c00006e
:10202000b338000044350000ef310000b62e000048
:10203000982b000095280000ae250000e222000049
:10204000312000009c1d0000231b0000c41800006c
:10205000821600005b1400005012000060100000a7
:102060008c0e0000d30c0000360b0000b5090000f8
:102070005008000006070000d8050000c604000054
:10208000cf030000f40200003502000092010000be
:102090000a0100009e0000004e0000001a0000002f
:1020a0000200000005000000240000005f000000a6
:1020b000b600000028010000b60100006002000028
:1020c0002603000007040000050500001e060000ae
:1020d00052070000a30800000f0a0000970b000041
:1020e0003a0d0000f90e0000d4100000ca120000e2
:1020f000dc1400000a17000053190000b81b000090
:10210000381e0000d32000008a2300005d26000056
:102110004b290000542c0000782f0000b83200003a
:10212000143600008a3900001c3d0000c840000041
:102130009044000073480000714c00008a50000079
:10214000be5400000d590000775d0000fc610000e6
:102150009b660000566b00002a7000001a75000094
:10216000247a0000497f000088040000e209000092
:10217000560f0000e41400008d1a000050200000eb
:102180002d260000242c00003532000061380000ac
:10219000a63e0000054500007e4b000010520000e6
:1021a000bc580000825f0000616600005a6d0000ac
:1021b0006c740000987b0000dd0200003b0a000008
:1021c000b211000042190000eb200000ac28000012
:1021d000873000007a38000086400000ab480000dd
:1021e000e85000003d590000ab610000316a00007a
:1021f000cf720000857b000053040000390d000001
:10220000361600004c1f000078280000bd31000089
:10221000193b00008c440000164e0000b857000027
:10222000706100003f6b000026750000237f0000f6
:102230003609000060130000a11d0000f82700000f
:1022400065320000e83c0000814700003052000089
:10225000f55c0000cf670000c0720000c57d000083
:10226000e008000010140000551f0000b02a000014
:102270001f360000a34100003b4d0000e85800005d
:10228000aa640000807000006a7c000068080000fa
:102290007a140000a0200000d92c0000263900008c
:1022a00087450000fb510000825e00001c6b0000af
:1022b000ca7700008a0400005c110000411e000083
:1022c000392b0000433800005f4500008d520000ac
:1022d000ce5f00001f6d0000837a0000f807000049
:1022e0007e15000016230000bf300000783e00007d
:1022f000434c00001e5a00000968000006760000ea
:10230000120400002e1200005b200000972e000037
:10231000e33c00003e4b0000a95900002368000088
:10232000ac76000045050000ec130000a12200007f
:102330006531000038400000194f0000075e0000c2
:10234000046d00000e7c0000270b00004c1a0000fa
:102350007f290000bf3800000c48000066570000cd
:10236000cc6600003f760000bf0500004a15000063
:10237000e22400008534000035440000f0530000e2
:10238000b663000088730000640300004c13000073
:102390003f2300003c33000043430000555300003e
:1023a0007163000097730000c70300000014000071
:1023b0004324000090340000e54400004455000030
:1023c000ab6500001b7600009306000014170000a8
:1023d0009d2700002e380000c74800006759000004
:1023e0000f6a0000be7a0000750b0000321c00006e
:1023f000f62c0000c13d0000934e00006a5f000013
:10240000487000002c010000161200000523000097
:10241000fa330000f4440000f3550000f7660000b2
:10242000007800000d0900001f1a0000352b000085
:102430004f3c00006d4d00008f5e0000b56f000046
:10244000de0000000a120000392300006b34000097
:102450009f450000d7560000106800004c7900002e
:102460008a0a0000c91b00000b2d00004d3e000031
:10247000914f0000d76000001d720000640300004f
:0c248000ab140000f32500003b37000007
:020000040000fa
:10248c00000800002c3700000100000000000000d4
:10249c000000000000000000000000000000000030
:1024ac000000000000000000000000000000000020
:1024bc000000000000000000000000000000000010
:1024cc000000000000000000000000000000000000
:020000040000fa
:1092f4000000fa0081e2a90007e2a90007a2a90080
:109304000762a9000742a9000722a8000702a900d2
:109314000011200020108800e442a800e462a800a4
:109324000070200000148800f00020001014880051
:1093340010002000401488001000200060148800f1
:109344000080fa00000006000000fa0007e2a8000e
:109354008b80a9009b80a800210c200091407800fc
:1093640080cfb30000c060000024a000c2e0b700ba
:1093740081e2a8000080fa00000006000800fa005c
:1093840010079800210798002e0090001000780024
:10939400000f78001e409000614060001047980064
:1093a4001e00900000004000100798001e4090002e
:1093b4008080fb001e0090000100700010079800e0
:1093c4000602a80006c2bf00614060000004e0007d
:1093d400fcff3a00400320001010880009c2bf00bf
:1093e4000044b2000004e000fcff3a0009c2bf00e0
:1093f40001c8b300014060000004e000080032002e
:109404000642a80006c2bf00644060000004e000f9
:10941400fcff3a000080eb00300798002e00370074
:109424001e0090001010880009c2bf000044b20062
:109434000004e000fcff3a0009c2bf0001c8b30009
:10944400014060000004e000080032000642a80069
:1094540006c2bf00644060000004e000fcff3a0064
:109464000080eb00300798001b0037001e40780096
:109474000080fb001010880009c2bf000044b20045
:109484000004e000fcff3a0009c2bf0001c8b300b9
:10949400014060000004e000080032000642a80019
:1094a40006c2bf00644060000004e000fcff3a0014
:1094b4000080eb0030079800070037000642a80040
:1094c40006c2bf00644060000004e000fcff3a00f4
:1094d40010002000300798003e0090000080fa0041
:1094e400000006000400fa00100020001007980095
:1094f4008e80e8000000eb00a0ff0700000f78005a
:109504000080eb009e0f100001003a00ffff3700bf
:10951400f0062000100798008e80e800100020005c
:1095240096ff07000080eb009e0f100001003a0038
:10953400ffff370050012000100798008e80e800dc
:10954400200020008dff07000080eb009e0f10001c
:1095540001003a00ffff3700900820001007980030
:109564008e80e8003000200084ff07000080eb00bc
:109574009e0f100001003a00ffff37008001200019
:10958400100798008e80e800400020007bff070051
:109594000080eb009e0f100001003a00ffff37002f
:1095a400901a2000100798008e80e80060002000c8
:1095b40072ff07000080eb009e0f100001003a00cc
:1095c400ffff3700a0002000100798008e80e800fd
:1095d4007000200069ff07000080eb009e0f100060
:1095e40001003a00ffff37004000200010079800f8
:1095f4008e80e8008000200060ff07000080eb0000
:109604009e0f100001003a00ffff37008000200089
:10961400100798008e80e800e000200057ff070044
:109624000080eb009e0f100001003a00ffff37009e
:1096340000042000100798008e80e800b00120008c
:109644004eff07000080eb009e0f100001003a005f
:10965400ffff370050002000100798008e80e800bc
:10966400c001200045ff07000080eb009e0f1000a2
:1096740001003a00ffff3700f003200010079800b4
:109684008e80e800d00120003cff07000080eb0042
:109694009e0f100001003a00ffff3700d0072000a2
:1096a400100798008e80e800e001200033ff0700d7
:1096b4000080eb009e0f100001003a00ffff37000e
:1096c40000102000100798008e80e800e0012000c0
:1096d4002aff07000080eb009e0f100001003a00f3
:1096e400ffff370080012000100798008e80e800fb
:1096f4004002200021ff07000080eb009e0f1000b5
:1097040001003a00ffff3700c00020001007980056
:109714008e80e8005002200018ff07000080eb0054
:109724009e0f100001003a00ffff370030092000af
:10973400100798008e80e800600220000fff0700e9
:109744000080eb009e0f100001003a00ffff37007d
:10975400900e2000100798008e80e8007002200010
:1097640006ff07000080eb009e0f100001003a0086
:10977400ffff370040002000100798008e80e800ab
:10978400c0022000fdfe07000080eb009e0f1000c9
:1097940001003a00ffff37000000eb0010079800bb
:1097a4008e80e800f0022000f4fe07000080eb0049
:1097b4009e0f100001003a00ffff37001000200048
:1097c400100798008e80e80080032000ebfe07005d
:1097d4000080eb009e0f100001003a00ffff3700ed
:1097e4000080fa00000006000400fa0010002000c7
:1097f400100798008e80e8000000eb00dffe0700f1
:10980400000f78000080eb009e0f100001003a006a
:10981400ffff3700f0062000100798008e80e80054
:1098240010002000d5fe07000080eb009e0f100002
:1098340001003a00ffff3700500120001007980094
:109844008e80e80020002000ccfe07000080eb00a2
:109854009e0f100001003a00ffff3700900820001f
:10986400100798008e80e80030002000c3fe070037
:109874000080eb009e0f100001003a00ffff37004c
:1098840080012000100798008e80e800400020002e
:10989400bafe07000080eb009e0f100001003a00a2
:1098a400ffff370090162000100798008e80e80014
:1098b40060002000b1fe07000080eb009e0f100046
:1098c40001003a00ffff37006000200010079800f5
:1098d4008e80e80070002000a8fe07000080eb00e6
:1098e4009e0f100001003a00ffff370040002000e7
:1098f400100798008e80e800800020009ffe07007b
:109904000080eb009e0f100001003a00ffff3700bb
:109914000000eb00100798008e80e8008001200012
:1099240096fe07000080eb009e0f100001003a0035
:10993400ffff37000000eb00100798008e80e8005e
:10994400900120008dfe07000080eb009e0f1000a8
:1099540001003a00ffff37000000eb0010079800f9
:109964008e80e8000002200084fe07000080eb00e7
:109974009e0f100001003a00ffff37000000eb00cb
:10998400100798008e80e800100220007bfe07007c
:109994000080eb009e0f100001003a00ffff37002b
:1099a4000000eb00100798008e80e80020022000e1
:1099b40072fe07000080eb009e0f100001003a00c9
:1099c400ffff370080012000100798008e80e80018
:1099d4004002200069fe07000080eb009e0f10008b
:1099e40001003a00ffff3700c00020001007980074
:1099f4008e80e8005002200060fe07000080eb002b
:109a04009e0f100001003a00ffff370030092000cc
:109a1400100798008e80e8006002200057fe0700bf
:109a24000080eb009e0f100001003a00ffff37009a
:109a3400900e2000100798008e80e800700220002d
:109a44004efe07000080eb009e0f100001003a005c
:109a5400ffff37000000eb00100798008e80e8003d
:109a64008002200045fe07000080eb009e0f1000de
:109a740001003a00ffff3700400020001007980063
:109a84008e80e800c00220003cfe07000080eb004e
:109a94009e0f100001003a00ffff37000001200074
:109aa400100798008e80e800d002200033fe0700e3
:109ab4000080eb009e0f100001003a00ffff37000a
:109ac4000000eb00100798008e80e800f0022000f0
:109ad4002afe07000080eb009e0f100001003a00f0
:109ae400ffff370010002000100798008e80e80068
:109af4008003200021fe07000080eb009e0f100071
:109b040001003a00ffff37000080fa000000060061
:109b14000400fa0010002000100798008e80e8006e
:109b24000000eb0015fe0700000f78000080eb003a
:109b34009e0f100001003a00ffff3700f0062000de
:109b4400100798008e80e800100020000bfe07002c
:109b54000080eb009e0f100001003a00ffff370069
:109b640050012000100798008e80e800200020009b
:109b740002fe07000080eb009e0f100001003a0077
:109b8400ffff370090082000100798008e80e8003f
:109b940030002000f9fd07000080eb009e0f10004c
:109ba40001003a00ffff37008001200010079800f1
:109bb4008e80e80040002000f0fd07000080eb00ec
:109bc4009e0f100001003a00ffff370090102000a4
:109bd400100798008e80e80060002000e7fd070071
:109be4000080eb009e0f100001003a00ffff3700d9
:109bf4000000eb00100798008e80e8007000200041
:109c0400defd07000080eb009e0f100001003a000b
:109c1400ffff370040002000100798008e80e80006
:109c240080002000d5fd07000080eb009e0f10008f
:109c340001003a00ffff3700600120001007980080
:109c44008e80e80040022000ccfd07000080eb007d
:109c54009e0f100001003a00ffff37004003200070
:109c6400100798008e80e80050022000c3fd070012
:109c74000080eb009e0f100001003a00ffff370048
:109c8400b01d2000100798008e80e80060022000bc
:109c9400bafd07000080eb009e0f100001003a009f
:109ca400ffff370050042000100798008e80e80062
:109cb40070022000b1fd07000080eb009e0f100031
:109cc40001003a00ffff3700400020001007980011
:109cd4008e80e800c0022000a8fd07000080eb0091
:109ce4009e0f100001003a00ffff37000000eb0058
:109cf400100798008e80e800f00220009ffd070006
:109d04000080eb009e0f100001003a00ffff3700b7
:109d140010002000100798008e80e80080032000c7
:109d240096fd07000080eb009e0f100001003a0032
:109d3400ffff37000080fa00000006000400fa006c
:109d440010002000100798008e80e8000000eb004f
:109d54008afd0700000f78000080eb009e0f1000c2
:109d640001003a00ffff3700f006200010079800ba
:109d74008e80e8001000200080fd07000080eb00ca
:109d84009e0f100001003a00ffff37005001200031
:109d9400100798008e80e8002000200077fd07005f
:109da4000080eb009e0f100001003a00ffff370017
:109db40090082000100798008e80e80030002000f2
:109dc4006efd07000080eb009e0f100001003a00ba
:109dd400ffff370080012000100798008e80e80004
:109de4004000200065fd07000080eb009e0f10007e
:109df40001003a00ffff37008e80e8006000200079
:109e04005efd07000080eb009e0f100001003a0089
:109e1400ffff37000000eb00100798008e80e80079
:109e24007000200055fd07000080eb009e0f10001d
:109e340001003a00ffff370040002000100798009f
:109e44008e80e800800020004cfd07000080eb00bd
:109e54009e0f100001003a00ffff37008001200030
:109e6400100798008e80e8004002200043fd0700a0
:109e74000080eb009e0f100001003a00ffff370046
:109e8400c0002000100798008e80e80050022000d7
:109e94003afd07000080eb009e0f100001003a001d
:109ea400ffff370030092000100798008e80e8007b
:109eb4006002200031fd07000080eb009e0f1000bf
:109ec40001003a00ffff3700900e200010079800b1
:109ed4008e80e8007002200028fd07000080eb005f
:109ee4009e0f100001003a00ffff370040002000e1
:109ef400100798008e80e800c00220001ffd0700b4
:109f04000080eb009e0f100001003a00ffff3700b5
:109f14000000eb00100798008e80e800f00220009b
:109f240016fd07000080eb009e0f100001003a00b0
:109f3400ffff370010002000100798008e80e80013
:109f4400800320000dfd07000080eb009e0f100031
:109f540001003a00ffff37000080fa00000006000d
:109f6400801f78000200fa000000eb001040880017
:109f7400004080000000e8000040880000408000ad
:109f8400e70f5000020036000000eb00004088009c
:109f940000408000000f78001e007800e30f50009e
:109fa400200032001e007800e30f500007003e003e
:109fb4001e007800e10f5000140032001e007800eb
:109fc400e10f500014003e000d0037001e00780021
:109fd400e50f5000190032001e007800e50f500014
:109fe400130039001e007800e60f500016003200fe
:109ff4001e007800e70f50001600320017003700eb
:10a0040000002e00801688001400370000002a008b
:10a01400801688001100370000002c00801688008c
:10a024000e00370000002800801688000b0037005f
:10a034000000260080168800080037000000220077
:10a044008016880005003700000024008016880070
:10a05400020037000000eb00801688008680a9000b
:10a064000080fa004f00780000400600801f78004e
:10a074000000fa00d5c2bf00624060000004e000a6
:10a0840008003a00104080000000e80010408800fa
:10a0940010408000e90f5000020036000000eb0081
:10a0a4001040880087a0a9000080fa004f007800c3
:10a0b400004006003600f800809fbe00829fbe006c
:10a0c400849fbe00869fbe00881f78000600fa00a9
:10a0d400801480002040880000408000e10f500080
:10a0e40011003a00104080000100200000004000f0
:10a0f40081804800022928000200400010007800f6
:10a10400010026006e540200000000008000780068
:10a11400000026008100500020408000fa52020016
:10a12400000000002040880000408000e20f500042
:10a134000e003a00104080000100200000004000a2
:10a144008180480002292800020040009000780025
:10a154000000280081005000204080006280200020
:10a1640022530200000000002040880000408000cc
:10a17400e30f500015003a0040408000b65402003e
:10a184000000000080007800204080006e5402002f
:10a1940000000000204088001040800000004000c3
:10a1a4008000780040408000008040000080e8008b
:10a1b4004040880041408000f0ff2700808f50001d
:10a1c40002003a001000280040408800004080004f
:10a1d400e40f50000300320000408000e50f5000ff
:10a1e40054003a0000408000e40f500018003a0088
:10a1f400804380000100200000004000818048006e
:10a2040062a728000200400090017800804380008b
:10a21400010020000000400081804800622a2800dc
:10a2240002004000100078002540800003027800fe
:10a234008001780022032000a1802000050078001e
:10a24400e853020000000000204088002500370089
:10a2540020408000010024006e5402000000000031
:10a2640000047800804380000100200000004000ca
:10a274008180480062a72800020040009001780015
:10a2840080438000010020000000400081804800dd
:10a29400622a280002004000100078002540800057
:10a2a400030278008001780022032000a1802000ae
:10a2b40005007800e85302000000000001002400bb
:10a2c4006e5402000000000000044400a04180001d
:10a2d400010022006e54020000000000000044004f
:10a2e40020408800704380000000e800704388002c
:10a2f400104080006b0010008000d100704380008b
:10a30400808f50000b003e00804380000000e80076
:10a314008043880081438000703e2000808f50007d
:10a32400020036000000eb00804388000000eb00d0
:10a334007043880000408000e60f500016003a0089
:10a3440021408000000024006e5402000000000040
:10a354000004780011408000b02b20000088b90070
:10a364000000e800244080008001780022f22300ed
:10a3740021872000040078009853020000000000a8
:10a3840080007800000024006e54020000000000e9
:10a39400000044002040880000408000e70f500087
:10a3a40053003a000000eb00200798000000eb0087
:10a3b400100798000000eb00000f780003158400dc
:10a3c400104080000100200000004000818048000f
:10a3d4000229280002004000100078008300780061
:10a3e4006e54020000000000254080000002780046
:10a3f400f33b200042f2230021872000050078006f
:10a40400545302000000000020079800f314840055
:10a4140010408000010020000000400081804800be
:10a424000229280002004000100078008300780010
:10a434006e5402000000000001ff200000027800ba
:10a44400b32d200062f223002e009000545302002a
:10a454000000000010079800e314840010408000fe
:10a4640001002000000040008180480002292800eb
:10a474000200400010007800830078006e5402004f
:10a4840000000000615a210000027800f32a200035
:10a4940082f223001e0090005453020000000000ca
:10a4a400000f7800d31484001040800001002000c5
:10a4b400000040008180480002292800020040007a
:10a4c40010007800830078006e5402000000000041
:10a4d40041b0210000027800b3222000a2f2230040
:10a4e4001e00780054530200000000002040880041
:10a4f40020408000c01488008b80a9000080fa00ee
:10a504004f0478004f03be004f02be004f01be004f
:10a514004f00be003600f900004006000000fa00bb
:10a5240090022000303a880044c7bf00f043b200d4
:10a5340044e7b700417420009140780000ceb30096
:10a5440000c0600044e7b7000000eb00403a880018
:10a554001200200081072000a0092000337420008d
:10a5640081497800804978008249780012002000ef
:10a5740061042000700520002374200081497800c4
:10a58400804978008249780043c7bf000047b20081
:10a59400f04f5000fcff3a0042c7bf000042b20037
:10a5a4000004e000fcff3200200020007005880059
:10a5b40000322000900588007a4902000000000063
:10a5c400a649020000000000f64b02000000000053
:10a5d400ae5502000000000000022000e855020011
:10a5e400000000009055020000000000ffff37004b
:10a5f4000400fa00000f7800110798001e00900074
:10a604009e0f1000020034001e009000000f78001e
:10a614001e00900014560200000000009e0f50001f
:10a62400040034001e0090001456020000000000d4
:10a63400000f78001e0078000080fa000000060079
:10a644000600fa00881f7800000f780011079800b0
:10a65400220798001e0090000000e0000b00340068
:10a664009e0090001e0078009b0007000004780004
:10a67400f1ff27001e009000808050002e00900003
:10a684001000780094000700000f44002e00900092
:10a694001e0878001e0078004f0478000080fa003d
:10a6a400000006001000fa003007980041079800e7
:10a6b4005207980063079800740798000000eb00a5
:10a6c40020079800ee0190005e019000ce009000fb
:10a6d4003e00900015000700100798000000eb00f2
:10a6e400000f78007e009000145602000000000065
:10a6f4009e00900078000700800078003e009000e3
:10a704000080400020079800fe0090002e0090007a
:10a7140071000700800078001e009000008f400048
:10a724001e0078000080fa00000006000c00fa0009
:10a7340020079800310798004207980053079800b3
:10a744004e00900090007800110798001e009000c1
:10a754000100200000004000818048008000780053
:10a764003e00900000804000100f78001e00900012
:10a774000100200000004000818048008000780033
:10a784003e00900000804000ae0090000108780078
:10a794001e0090000000e800100798009e00900042
:10a7a4005e009000808f5000020039000000eb0032
:10a7b400100798004e0090009e0090000108780059
:10a7c4001e0078000080fa00000006000e00fa0067
:10a7d400881f7800200798003107980042079800e6
:10a7e4005307980064079800f1ff27006e0090005b
:10a7f400008150005e009000cf80de000000400029
:10a8040081804800800078003e0090000080400075
:10a8140010007800820078002f0007000004780000
:10a824005e009000cf80de00000040008180480080
:10a83400800078003e009000008040000080e80026
:10a8440010007800ee00900023000700000f440081
:10a854004e0090000000e900100798001400370033
:10a864001e009000cf80de00000040008180480080
:10a87400800078003e009000008140001e0090009f
:10a88400cf80de0000004000818048008000780016
:10a894003e009000008040000080e9001000780035
:10a8a400000978001e0090000000e90010079800dd
:10a8b4001e0090000000e000e9ff3c003e00900014
:10a8c400ae009000010878001e0078004f04780064
:10a8d4000080fa00000006000600fa002200f800da
:10a8e4002400f8002600f8001007980021079800bb
:10a8f4000000eb00000f78009e0290002e029000f2
:10a904001301c0000000cc00000f78001e00780086
:10a914002600f9002400f9002200f9000080fa0062
:10a92400000006000600fa001007980021079800ae
:10a934000000eb00000f7800020037001e0fe80053
:10a94400000000001e0078006101b9001e009000a4
:10a95400ae009000800f5100818f5900f7ff39003d
:10a964000080fa00000006000001780001002800c1
:10a974000000eb000110e70000000600881f7800cb
:10a98400180020000010e600f8ff2f000890b9001e
:10a9940012002400030028000280e6000080510019
:10a9a400f28b22000200e10028003d0082482600cc
:10a9b4000281b9000400210004014100e081490042
:10a9c4004d11de00431add0004007100000178001f
:10a9d40050bb2600f1ff27000110e7001a003700e2
:10a9e400b0442900110028000110e60016003700c9
:10a9f4000293b9004f33de00c13bdd0087017300d1
:10aa0400c119dd000312b9005155250001abb9008d
:10aa1400c1bbde0007005100032ab90041442400f1
:10aa240001abb900c5bbde0007004000032ab90032
:10aa34007180260001abb9000540200085834300e6
:10aa4400cbbbde00070050003100370003002400b8
:10aa540000805100824826000281b90004002100d0
:10aa640004014100e08149004d11de00431add007c
:10aa74000400710011f02f00f20f20000100e1002a
:10aa8400230035000200e10002003c00f0ff270033
:10aa94001f003700000178000100280090522400b4
:10aaa4000110e7001a003700f1ff2700f0ff27002c
:10aab4000292b9004f22de00c12add0005027200b5
:10aac4004122dd0001a1b80007002800071bb900de
:10aad4000700500003a1b80057552500071bb90013
:10aae400c3bbde000700400003a1b80037d8220032
:10aaf400071bb900c7bbde000700500003a1b80064
:10ab0400070d2000071bb900c7bbde00070040008b
:10ab14000880b9004f047800000006000000fa0025
:10ab240060002000100488008680a9009680a80098
:10ab340087a0a90097a0a800cda2a900cfa2a80031
:10ab4400cdc2a900cfc2a800cde2a900cfe2a800df
:10ab54000080fa00000006000000fa00e402a900e8
:10ab6400e602a900e422a900e622a9000080fa0076
:10ab7400000006000400fa00100798000000eb0033
:10ab8400000f78000000eb00000f78000a00370087
:10ab9400401f20009454020000000000e802a800b6
:10aba400e822a800401f2000945402000000000086
:10abb400e822a9001e0fe8001e0090009e0f10005e
:10abc400f3ff35000080fa00000006000400fa00dc
:10abd400100798000000eb00000f78000000eb0065
:10abe400000f78000a003700401f20009454020030
:10abf40000000000e802a900e822a800401f20008d
:10ac04009454020000000000e822a9001e0fe8008e
:10ac14001e0090009e0f1000f3ff35000080fa0024
:10ac240000000600010028000000ea000100e7001f
:08ac34000080ea0000000600a8
:020000040000fa
:04ac3c000000fe0016
:00000001FF
