:020000040000fa
:080000000002040000000000f2
:020000040000fa
:100008009402000094020000940200009402000090
:100018009402000094020000940200009402000080
:100028009402000094020000940200009402000070
:100038009402000094020000940200009402000060
:020000040000fa
:020000040000fa
:100400008fa520000e7f24000e0188000000000050
:1004100000012000200288000c0007008052240008
:100420000100200011000700000020000000e00093
:100430000200320000000200000000002042020022
:10044000000000000040da000000fe004440a90067
:10045000802020000000e0000300320000002000a7
:10046000a00188004440a800000006009101880017
:10047000800078000000eb0015003700e2804000ab
:1004800032a0b4009101ba00e280400032a0b40072
:100490009102ba00e280400032a0b4000002eb00fa
:1004a000472bde00f507b200602ce10004003a00a3
:1004b0000059eb008301e900fdff3e000400370016
:1004c0006128e100010032000082eb000400070017
:1004d0001101ba000200e000e8ff3a000000060047
:1004e0003159ba008301e9000c0032002159ba00e9
:1004f0008301e900080032000400e00003003a0034
:10050000e280400032a0b400f5ff370011d9ba00f4
:100510008301e900faff3a008100e800e180400031
:1005200032a0b400000006000040da000000fe0027
:1005300000c0da00000006000a00fa00e20f5000d6
:1005400022003e00b4528000e10f5200060032004b
:100550008723200046232000242320000523200099
:10056000e08f530004003a0087222000462220003a
:100570002422200005222000000028001500600031
:1005800003003a00800b780007002800958a73006a
:10059000054020009482620001003a0014a0a000ef
:1005a0008202780006003700940378000710b2003a
:1005b000fdff3200b103fb00070b78008502e90064
:1005c000e08f5200f8ff3a000800370034002000a6
:1005d000b4bf9f00c0bf9f00d1bf9f00e2bf9f007c
:1005e0006a805700d2ff07006fb9970002007800b9
:1005f0000080fa0000000600889fbe008a9fbe00af
:100600008c1f7800960007009d00330003866c0065
:100610006450e100240032006420e1002700320031
:100620006150e100220032006120e100210032002f
:100630008b854200eb07b1000134b800003ab800e6
:100640000804420089844a00013ab8000030b8002a
:100650008880400009014a00040033000000400087
:1006600081804800020149008b05e900c909dd00cd
:10067000830170000100320013002000c814de0066
:100680004814dd004709de001200b200c808de0091
:10069000088470008a00070001f0a1000cf0a70098
:1006a00001f0a0007f0037006120e10081003200ee
:1006b0000801be000200be00f7ff37006150e100f4
:1006c000fcff3a007b0037000001be00a2000700db
:1006d0000470a70003f0a1006509b1001600320004
:1006e0000d0035006828e10006003500f0ff2f00fe
:1006f000f1ff27000300e00013003b000100280089
:100700000000050000004000818048008502e900eb
:10071000fcff3a0008003700f88f420002003c005e
:100720008000eb00000005008100d1000080d300b4
:100730008502e800fcff3a000300e00002003b00f5
:1007400060001000e0801800000006004f89de0005
:100750008201780095003700889fbe008a9fbe0006
:100760008c1f78003e0007004500330003866c00b4
:100770006450e1002e0032006420e10033003200ba
:100780006150e1002f0032006120e10031003200b1
:1007900085855500eb07b000090020000804200003
:1007a000050037000804440089844c000a00310029
:1007b0000603430087834b000001530081815b00e7
:1007c000f8ff33000203be000800a0000804440044
:1007d00089844c00f6ff3900c639dd0083017300bf
:1007e00001003200130020008904d1000884d300e6
:1007f0000998a300050032000800a7000300a0002c
:100800008904d1000884d3008b05e8008904d10055
:100810000884d3000001eb000281d2002800070009
:1008200001f0a1000cf0a70001f0a0001d003700ae
:100830006420e1001f0032000801be000200be007b
:10084000f7ff37006120e1001a0032006000b800b5
:10085000f3ff37000000200001f82700f0ff370009
:100860000004be003c0007000003be000405be00fb
:100870000200be0038000700844f7500000006002b
:100880000200be006450e100050036006420e10073
:10089000020036000968a30001003a000800be000b
:1008a0000160a0004f0678004f05be004f04be0057
:1008b00000000600f0ff2f00f1ff2700f9ff3700ce
:1008c00081002000618055000b003d000b002000de
:1008d00061fe2f000100e1001d00340082817100e3
:1008e000610164008904d1000884d3000000e8009d
:1008f000faff3a00710020006100640003007000fc
:10090000020060000900320061044400e0844c00f1
:100910000988a500050032008b05e8006808e100a1
:1009200002003a008904d1000884d300f20f2000ad
:100930000258e10005003d00c75ddd00f907b20087
:100940008980750008007800000006000bf8270079
:100950008b00780000000500c70ade00f107b20036
:10096000f50fb20008003200e1cf42000200320071
:100970000170a00024000500810f7000010032000a
:100980000408050044000500810f700002003a00d1
:10099000140005008502e9000000400081c0480005
:1009a000fcff3b000170a00024000500881f7800b8
:1009b000030478000300e00007003d006000100021
:1009c000e080180060011900e081190002003b007e
:1009d00001f02d00030037000400070008f0a70015
:1009e00001f0a0004f04780000000600889fbe00c0
:1009f0008a9fbe00008270000402710004827100b0
:100a0000260032000004be000200be006011b800e3
:100a10006b092000950220000182cf000a003900f6
:100a20000541b1000082cf00070039000541b10047
:100a30000982cf00040039000541b1000882cf00cf
:100a4000010039000541b100054252001200320098
:100a50000a003b0082817100610164008100d100c5
:100a60000080d3008984d3000884d3008b05e8007c
:100a70000442e800f7ff3a0007003700080444008a
:100a800089844c0000004800818048008b05e90003
:100a90000442e900f9ff3a0089ff07004f05be0054
:100aa0004f04be00000006002800fa00889fbe0028
:100ab0008a9fbe008c9fbe0003866b004503070023
:100ac0000028a30064003a000128a30067003a0050
:100ad0000008a30062003a000108a30065003a0084
:100ae0001e009000be08900081064000ed3fb1005e
:100af000f4805700ee019000111ab8008e099000a2
:100b0000311bb8009e099000311cb800511db8007f
:100b1000f485570046000700fe0190003a000700e8
:100b20008b85e8003e0007008e099000400007001a
:100b3000ee019000340007008b85e80038000700c4
:100b40008e099000400007009e0990001b18b80015
:100b5000890440000a854800fe0190003400070027
:100b60008b85e80038000700ee0190003000070098
:100b70008e0990001b18b800890440000a854800bf
:100b80000a98a30008003a000402420085824a0045
:100b900006034b0087834b0008044c0089844c00fb
:100ba0000a054d008d06e9008482720085027300fb
:100bb0004c3add0085027200010032001500200071
:100bc000443ade001400b2004538de00cb45dd00bb
:100bd0000b007000c540de00cb4ddd008b80700047
:100be0004549de00cb55dd000b017100c551de002b
:100bf0000d0378001003070003f0a1000cf0a7001c
:100c000003f0a000070337001b18b800850240005e
:100c100006834800e0834b0060044c000700370067
:100c20001b18b8000603400087834800faff37000e
:100c30001b18b8008703400008844800e0844c007b
:100c400060054d00000006001b18b80008044000b5
:100c500089844800faff37000108a300ee023a0039
:100c60005800be005801be00e3ff37000008a30093
:100c7000e9023a0009047800f9ff3700810378009f
:100c800035ff07000001be006000b8000478a30033
:100c900013003a006220e10015003e000d0039000b
:100ca0008301d1000281d3008180d3008301d10070
:100cb0000281d3008180d3008301d1000281d3005f
:100cc0008180d3000538b000c42add00f300b200f3
:100cd0008381720007f0a70003f0a0000000060067
:100ce000f3ff2700f2ff2f006110b900fbff370070
:100cf00003ff2700f7ff37008f1fd100fa0207001c
:100d00008f87e9000000e00000000600801feb0074
:100d1000f50207008f87e9000000e00000000600f0
:100d20001400fa00889fbe008a9fbe008c9fbe0000
:100d30000005be000206be00680047000c90be0021
:100d40000a90be00110307006400e1001a0032009f
:100d500016003e006100e1001a0032006e049000af
:100d6000fe0490000e0b90009e0b90006011b800e6
:100d70009e0590000b38b100d501200082817100e2
:100d8000610164008703d1000683d3008984d30006
:100d90000884d3008502e900f8ff3a00c8fe070086
:100da0000df0a70001f0a0009e023700f1ff270020
:100db000f0ff2f009b02370001f827000000200001
:100dc000f7ff37006000b800f5ff37001603070093
:100dd0000509780000000600809feb00c2020700b2
:100de0008f87e9000000e000000006002800fa00fc
:100df000889fbe008a9fbe008c9fbe0007067800b9
:100e0000878669000c003b000304780087047800a3
:100e100008f0a10009f0a100840f5000858f580050
:100e2000860f5900890f5c00030033000cf0a2000c
:100e300001003a000cf0a100660207006400e10026
:100e40005f003200780147006408e1006100320071
:100e50006c014700748557003200be001201be00cd
:100e60003a04be001a05be001e039000be0a9000a0
:100e70008503530006003d000004fd008104fd00d1
:100e80000205fd008305fd008703ea0005037800e5
:100e90000df8a3000400320060041400e0841c007c
:100ea00060051d00e0851d006022b8007d03200064
:100eb0000d38e1008006eb000b0039004433dd0003
:100ec000f300b2008301730039003700848272009e
:100ed0000d027800e10664008b85d1000a85d300fd
:100ee0008984d3000884d3008703e900f7ff3b001f
:100ef00008004000898048000a0149008b814900b0
:100f000004003b0060001000e08018006001190040
:100f1000e08119000358a300090032008d8272009d
:100f200084827200610260008301d1000281d300db
:100f30008180d3000080d3000603e8001b00370047
:100f40000348a30017003a000600e0001700340031
:100f50000603e9000d00a30000004800818048005e
:100f600002014900838149000348a3000f003a00b1
:100f70000600e000090034000603e900000040001c
:100f800081804800020149008381490001003a0044
:100f90000003eb000348a300f5ff32006022b80015
:100fa000020037008482720061826600220207001c
:100fb00003f0a1000cf0a70003f0a0001902370015
:100fc000640147006408e10002003a000df8a30044
:100fd00011023a003200be001201be0011023700b9
:100fe0001400fa00889fbe008a9fbe008c9fbe003e
:100ff0000004be000205be00680047000a90be0063
:101000000890be00610207000070a7000bf0a1006d
:101010000bf8a30020003a009e0990000e099000f2
:10102000fe0090006e0090009e029000344320006d
:1010300084825200fb0132000a003c00b4fc2f0005
:101040000428e100140034008301d1000281d300a0
:101050008180d3000080d3008502e800faff3a00c7
:10106000f0013700b40020000428e10007003c0034
:10107000000040008180480002014900838149004e
:101080008502e900faff3a00e60137000300280074
:1010900002002000010037006011b8006000b800b5
:1010a000e00137002800fa00889fbe008a9fbe003a
:1010b0008c9fbe0003866b00c60107006400e10040
:1010c000440032006408e1004a0032006100e1009f
:1010d000460032006108e10049003200ec0647009a
:1010e0006000b8003d02be003d03be00f48657001c
:1010f0006011b8003d04be003d05be007d03200028
:101100000b0037000000a0008d06e900130032003c
:101110000402420085824a0006034b0087834b008d
:10112000000040008180480002014900838149009d
:101130000802520089825a000a035b008b835b001d
:10114000f0ff3b000802420089824a000a034b007c
:101150008b834b008d06e900edff3a00848272001c
:1011600086827200f707b2008782720001003200a7
:10117000150020001e0490003e0b90000603540052
:10118000e63fb0000368a300070032000000a7009c
:101190000500a0008301d1000281d3008180d3002b
:1011a0000080d3000603e8008301d1000281d30050
:1011b0008180d3000080d3000002eb000482d200c3
:1011c0009d01070003f0a1000cf0a70003f0a000b0
:1011d00094013700640247006408e1008e01320088
:1011e0003400be003401be00f6ff37006108e100a4
:1011f000890132006011b8006000b800f1ff3700cb
:1012000003ff270002002000fbff3700889fbe007d
:101210000082700004027100048271002400320018
:1012200036432000c50020008383cf000a00390028
:101230000541b1008283cf00070039000541b100ac
:101240008183cf00040039000541b1008083cf00c5
:10125000010039000541b10085c353006022b80088
:10126000120032000a003b008482720061026000ba
:101270008301d1000281d3008180d3000080d3009c
:101280000603e8008743e800f7ff3a00070037004d
:10129000000040008180480002014900838149002c
:1012a0000603e9008743e900f9ff3a0062010700fd
:1012b0004f04be000000060007f0a200cbfe37007e
:1012c000889fbe008a9fbe003004be002005be007d
:1012d0000404440085844c0006054d0087854d00bc
:1012e0000898be000a90be000440e10005c8e10075
:1012f00006d0e10007d8e10002003100680040009c
:101300001008e8004f05be004f04be0000000600b4
:101310001000fa00889fbe008a9fbe000605be002e
:101320000404be003002be002003be00c4b79f000c
:10133000d5b79f00e6b79f00f7b79f00080252009d
:1013400089825a000a035b008b835b0084bf9f0085
:1013500095bf9f00a6bf9f00b7bf9f000498be0027
:101360000698be00110020004fb29700dfb2970030
:101370006fb39700ffb39700b20007000100390078
:101380008000eb00108810004f05be004f04be0027
:101390000080fa00000006001400fa00889fbe00da
:1013a0008a9fbe008c9fbe00790007000605be0024
:1013b0000404be000006eb00ccb79f00bcb79f0042
:1013c000acb79f009cb79f008cb79f000d04200016
:1013d0004fb39700bfb29700860343002fb2970028
:1013e000e00f530004003d009b0007000f00400089
:1013f000b3ff070003003700970007000f0040000d
:10140000c3ff0700cfb2970095bf9f00e08f520047
:1014100009003500650007001400200005002000c9
:101420006033b80000007200818072000201730016
:1014300083817300560007000c06e8008d0f5600ec
:10144000e3ff3a001fba9700e00f520005003d008d
:101450000802be000a03be0000fe2f000f0040007d
:1014600097ff07004faa9700e00f520008003a00cc
:101470000fb497009fb497002fb59700bfb59700a2
:10148000d8b79f00e9b79f00fab79f008bbf9f00b6
:10149000460007004f06be004f05be004f04be00c9
:1014a0000080fa0000000600881f78001800200065
:1014b000881f7800b8ff07008f87e9004f04780085
:1014c00000000600801feb00b3ff07008f87e900d4
:1014d00000000600889fbe008a9fbe0041000700f2
:1014e00007003d00440007001800200049000700e5
:1014f00008003d002f0007000004eb000500370046
:101500000004eb004300070002003d002900070033
:1015100018002000e4ff0700e00f54000100320033
:10152000410007004f05be004f04be00000006004a
:10153000889fbe008a9fbe008c1f7800290007008c
:1015400005003d002c0007001c0020003d000700a6
:1015500007003d00050037000006eb002d000700e6
:1015600003003d006044b8006055b8001300070058
:10157000d4ff0700e00f5600010032002a000700e8
:101580004f0678004f05be004f04be000000060065
:10159000010007000000060090b79f00a1b79f0060
:1015a000b2b79f00c3b79f00000006000800070005
:1015b000000006006044b8006055b8000402540002
:1015c00085825c0006035d0087835d0000000600e5
:1015d0001fb09700afb097003fb19700cfb1970011
:1015e00000000600e00f5000e08f5800e00f5900a7
:1015f000e08f5900000006006044b8006055b80054
:101600000000540081805c0002015d0083815d0068
:1016100000000600e00f5200e08f5a00e00f5b0070
:10162000e08f5b00000006006022b8006033b80065
:101630000000520081805a0002015b0083815b0040
:10164000000006000820e10009a8e1000ab0e1005e
:101650000bb8e100000006004f2bde00870373008b
:10166000a7b79f004f23de008582420085027300ea
:1016700095b79f00ffaa97004f2bde00040242009f
:101680000402730084b79f006faa97004f23de0007
:101690008582420085027300f5af9f00ccff0700f2
:1016a0004f18de000402420000027200e4af9f0007
:1016b000c7ff070000004000818048000201490088
:1016c00083814900b4ff07000802be000a03be0080
:1016d00000fe2f0000000600889fbe008a9fbe000b
:1016e0008c1f78000006eb00e00f5000e08f5800e0
:1016f000e00f5900e08f590007003d006044b8003a
:101700006055b8000000540081805c0002015d005b
:1017100083815d001c002000e00f5200e08f5a0022
:10172000e00f5b00e08f5b0007003d006044b80005
:101730006055b8000402540085825c0006035d0019
:1017400087835d000c00a200c4000700e00f560074
:10175000060032006022b8006033b800000052007a
:1017600081805a0002015b0083815b004f06780094
:101770004f05be004f04be00000006006022b80006
:10178000060220000000d0008180d2000482d20036
:101790008582d2000000a0000202520083825a001b
:1017a000030031000202420083824a000000a100cf
:1017b0000603e900f3ff3a0000000600020ab90040
:1017c000001bb9000200b800810042008100430004
:1017d00000000600680447000294be000094be00aa
:1017e000fc0447008694be008494be000900780083
:1017f0006600070008007800640007009900780080
:10180000814f70000b003b000800be00b5000700d0
:101810004f00b10003003700f3ff2700f2ff2f0055
:101820006110b9004f06be004f05be004f04be0058
:101830000080fa0000000600180020005700200079
:10184000080453000d003d000600200097fc2f0007
:101850000740e1001e0034008482720061026000d3
:101860008301d1000281d3008180d3000080d300a6
:101870000804e800f8ff3a00470020006104600017
:1018800005047400040464000d003200610040008f
:10189000e080480060014900e081490003b8a500ec
:1018a000070032000603e8006538e10004003a0052
:1018b0008301d1000281d3008180d3000080d30056
:1018c000f87f20000830e1000300350008037800ad
:1018d0006000b8006011b8004433dd00f300b200ce
:1018e0008301730000000600889fbe008a9fbe002f
:1018f0008c9fbe000404be000605be00809fbe0093
:10190000829fbe0085000700040678000800be0024
:101910000a01be0081000700840678004f03be0064
:101920004f02be008d4f76007fb09700130033004a
:10193000f0ff2f008b8f6b0006003b000d0666004a
:101940000c00a7000a00370007f0a60010002000d6
:101950000a003700880f5200898f5a008a0f5b00f7
:101960008b8f5b00030039001000200001003e0057
:101970000000200007f0a7000000ea004f06be00ac
:101980004f05be004f04be00000006008000780036
:101990005002be005003be004439de00f700b20022
:1019a000f37f200003016100090032000218e1000a
:1019b00016003a0085017200830173008381730071
:1019c0000008200015003a004000200013003700f6
:1019d00085017200830173008381730005003a0062
:1019e00004a8be0006a8be00100020000b003700af
:1019f0000201e9000402420085824a0006034b000e
:101a000087834b000748a300f9ff32000740a0007e
:101a100004a8be0006a8be00200020008000980098
:101a200092009800000006000003be00cafb0700f9
:101a30006220e100020032000600be000500050041
:101a4000e507b100f107b20004f0230084807000c4
:101a500007f0a70001f0a00024000500889fbe0049
:101a60008a9fbe008c9fbe000404b8000506b80023
:101a70008904460060854e000606b8000a05460047
:101a8000e0854e000706b8008b054600040eb8003e
:101a9000890446000a854e00e0854d00050eb80019
:101aa0000a0546008b854e00060eb8008b054600e1
:101ab0000416b8000a0546008b854e000516b800ce
:101ac0008b054600041eb8008b0546000800be00ca
:101ad0000a01be004f06be004f05be004f04be0007
:101ae00000000600e48240001078a30007003200e6
:101af000640240001178a3003400be001401be004f
:101b0000040032000330a700000006003500be00cc
:101b10001501be000330a0000000060005ff2700ed
:101b200005826100070032000428e1000100320054
:101b3000240005000600070001003a0044000500eb
:101b40000408050002000700f9ff3a001400050030
:101b50006f8261008102700085027100850272004f
:101b6000000006000000e00006003a000200280025
:101b70000110e10003003a008180ea000080ea00e1
:101b800000000600f2ff2f000192b9000010b9001a
:101b90008100420000000600889fbe008a9fbe00b0
:101ba0008c9fbe00cf8bde004f9bde000204b8008e
:101bb0000306b8008904460060854e000606b8009a
:101bc0000a054600e0854e000606b8008b05460073
:101bd000020eb800890446000a854e00e0854d00db
:101be000030eb8000a0546008b854e00060eb800ad
:101bf0008b054600023eb8000a0546008b854e0064
:101c0000033eb8008b054600023eb8008b05460037
:101c10000b00e00002003a000af0a30015003900b2
:101c20000af0a60020003700e18545000b00e00027
:101c30001d003a0005f0a6000800370004804400ab
:101c400085004d0001f0a600230037004f06be00be
:101c50004f05be004f04be00000006000480440093
:101c600085004d004f06be004f05be004f04be006c
:101c70000000060005f0a700f8ff370004804400cc
:101c800085004d00e0854d000b00e00006003a00a5
:101c900001f0a700040037004f06be004f05be004c
:101ca0004f04be00000006000bf0a7000a0037003a
:101cb000f0ff2f00f1ff27004f06be004f05be00ca
:101cc0004f04be00000006004f06be004f05be00d8
:101cd0004f04be00000006000000200001002800a4
:101ce0004f06be004f05be004f04be0000000600b8
:101cf0000002eb0001f0a30003003900f0ff2f0009
:101d0000f1ff2f00000006000490e70005003700f7
:101d10000498e700030037000000eb0011002000ea
:101d2000000006000480e7000600370015002000d0
:101d30000588e700030037000000eb0011002000d9
:101d4000000006000002eb000480e70005003700f9
:101d50000488e700030037000000eb008000eb0080
:101d60000000060003f0a600310037000100e0008b
:101d7000090032006108e10003003a000500280074
:101d80000500e10004003900829fbe00f307070050
:101d90004f01be001a0037000100e0000b003a00be
:101da00005d82e000500e10008003100cf08dd0055
:101db000c102de00858070004f00dd00829fbe0002
:101dc0007a0607004f01be000d003700ce08dd0087
:101dd000c202de00858070004e00dd006100400020
:101de000e0804800829fbe00700607004f01be00e1
:101df0004100de00cf0add0005007000c108de00f2
:101e00000200e00006003a00050028000328e10077
:101e100003003a008381ea000281ea0004003700ef
:101e2000f6ff2f0003b2b9000231b900830142006e
:101e30000002eb000490e7000300370015002000cb
:101e40000518e700000006004400f800889fbe0067
:101e50008a9fbe008c9fbe00030678008001eb00c5
:101e6000809fbe00ab0907004f01be00809fbe00ef
:101e70000300e0003a033200240020000498e6004a
:101e8000f90237000300e00003003200044c2d008b
:101e90000410e100f4023100a4052000848747000b
:101ea000e40120008483570004f02f00f5ff2f0089
:101eb000f6072000090008000200000084137800e3
:101ec00085137800861378008f03780082137800da
:101ed000831378000002eb0084137800e487470046
:101ee000829fbe0002007800830078004f89de00e8
:101ef0000004b8000102b8008904420060854a006d
:101f00000202b8000a054200e0854a008b05420043
:101f1000000ab800890442000a854a00e0854d00a5
:101f2000010ab8000a0542008b854a00020ab8007f
:101f30008b0542008b0542000012b8000a054200e2
:101f40008b854a008b0542000408200004044400ed
:101f5000e0844c0060054d00e0854d004844de0003
:101f6000484add0004007400c84cde004852dd0021
:101f7000848074004855de00485add000401750075
:101f8000801378008113780082137800cf91de00ef
:101f90000004b8000102b8008904420060854a00cc
:101fa0000202b8000a054200e0854a008b054200a3
:101fb000000ab800890442000a854a00e0854d0005
:101fc000010ab8000a0542008b854a00020ab800df
:101fd0008b0542008b0542000012b8000a05420042
:101fe0008b854a008b05420004082000848444004d
:101ff00060054d00e0854d00c84cde004852dd0014
:10200000048074004855de00485add0084007500e5
:1020100048d9de008013780081137800821378009d
:10202000cf91de000004b8000102b800890442002c
:1020300060854a000202b8000a054200e0854a00b5
:102040008b054200000ab800890442000a854a0054
:10205000e0854d00010ab8000a0542008b854a0060
:10206000020ab8008b0542008b0542000012b8003e
:102070000a0542008b854a008b05420004082000b7
:102080008484440060054d00e0854d00c84cde00ae
:102090004852dd00048074004855de00485add00d7
:1020a0008400750048d9de00801378008113780021
:1020b00082137800cf91de000004b8000102b8005e
:1020c0008904420060854a000202b8000a05420005
:1020d000e0854a008b054200000ab80089044200ee
:1020e0000a854a00e0854d00010ab8000a05420051
:1020f0008b854a00020ab8008b0542008b0542001e
:102100000012b8000a0542008b854a008b05420088
:10211000040820008484440060054d00e0854d00e3
:10212000c84cde004852dd00048074004855de00d3
:10213000485add008400750048d9de00801378001d
:1021400081137800821378004f02be00e4875700a5
:102150002600200006a8e600e70137000500e000a1
:1021600003003200a62126000620e100e201310032
:10217000e4874700849fbe00cf91de000004b800d2
:102180000102b8008904420060854a000202b800da
:102190000a054200e0854a008b054200000ab800ab
:1021a000890442000a854a00e0854d00010ab80012
:1021b0000a0542008b854a00020ab8008b054200de
:1021c0008b0542000012b8000a0542008b854a00c8
:1021d0008b054200040820008484440060054d0003
:1021e000e0854d00c84cde004852dd0004807400dc
:1021f0004855de00485add008400750048d9de00ed
:102200008013780081137800821378004f02be009b
:10221000e48757002600200006a8e600b601370034
:102220000500e0000300320096d222000620e10003
:10223000b1013100e4874700849fbe00cf91de00ea
:102240000004b8000102b8008904420060854a0019
:102250000202b8000a054200e0854a008b054200f0
:10226000000ab800890442000a854a00e0854d0052
:10227000010ab8000a0542008b854a00020ab8002c
:102280008b0542008b0542000012b8000a0542008f
:102290008b854a008b05420004082000848444009a
:1022a00060054d00e0854d00c84cde004852dd0061
:1022b000048074004855de00485add008400750033
:1022c00048d9de00801378008113780082137800eb
:1022d0004f02be00e48757002600200006a8e60053
:1022e000850137000500e00003003200865a210016
:1022f0000620e10080013100e4874700849fbe0092
:10230000cf91de000004b8000102b8008904420049
:1023100060854a000202b8000a054200e0854a00d2
:102320008b054200000ab800890442000a854a0071
:10233000e0854d00010ab8000a0542008b854a007d
:10234000020ab8008b0542008b0542000012b8005b
:102350000a0542008b854a008b05420004082000d4
:102360008484440060054d00e0854d00c84cde00cb
:102370004852dd00048074004855de00485add00f4
:102380008400750048d9de0080137800811378003e
:10239000821378004f02be00e48757002600200019
:1023a00006a8e600540137000500e00003003200f3
:1023b000d6a920000620e1004f013100e487470044
:1023c000849fbe00cf91de000004b8000102b80077
:1023d0008904420060854a000202b8000a054200f2
:1023e000e0854a008b054200000ab80089044200db
:1023f0000a854a00e0854d00010ab8000a0542003e
:102400008b854a00020ab8008b0542008b0542000a
:102410000012b8000a0542008b854a008b05420075
:10242000040820008484440060054d00e0854d00d0
:10243000c84cde004852dd00048074004855de00c0
:10244000485add008400750048d9de00801378000a
:1024500081137800821378004f02be00e487570092
:102460002600200006a8e600230137000500e00052
:10247000030032001654200006a0e6001e013700bb
:10248000e4874700849fbe00cf91de000004b800bf
:102490000102b8008904420060854a000202b800c7
:1024a0000a054200e0854a008b054200000ab80098
:1024b000890442000a854a00e0854d00010ab800ff
:1024c0000a0542008b854a00020ab8008b054200cb
:1024d0008b0542000012b8000a0542008b854a00b5
:1024e0008b054200040820008484440060054d00f0
:1024f000e0854d00c84cde004852dd0004807400c9
:102500004855de00485add008400750048d9de00d9
:102510008013780081137800821378004f02be0088
:10252000e48757002600200006a8e600f2003700e6
:102530000500e00003003200d62920000620e1005b
:10254000ed003100e4874700849fbe00cf91de009c
:102550000004b8000102b8008904420060854a0006
:102560000202b8000a054200e0854a008b054200dd
:10257000000ab800890442000a854a00e0854d003f
:10258000010ab8000a0542008b854a00020ab80019
:102590008b0542008b0542000012b8000a0542007c
:1025a0008b854a008b054200040820008484440087
:1025b00060054d00e0854d00c84cde004852dd004e
:1025c000048074004855de00485add008400750020
:1025d00048d9de00801378008113780082137800d8
:1025e0004f02be00e48757002600200006a8e60040
:1025f000c10037000500e00003003200e6142000af
:102600000620e100bc003100e4874700849fbe0043
:10261000cf91de000004b8000102b8008904420036
:1026200060854a000202b8000a054200e0854a00bf
:102630008b054200000ab800890442000a854a005e
:10264000e0854d00010ab8000a0542008b854a006a
:10265000020ab8008b0542008b0542000012b80048
:102660000a0542008b854a008b05420004082000c1
:102670008484440060054d00e0854d00c84cde00b8
:102680004852dd00048074004855de00485add00e1
:102690008400750048d9de0080137800811378002b
:1026a000821378004f02be00e48757002600200006
:1026b00006a8e600900037000500e00003003200a5
:1026c000760a20000620e1008b003100e4874700f5
:1026d000849fbe00cf91de000004b8000102b80064
:1026e0008904420060854a000202b8000a054200df
:1026f000e0854a008b054200000ab80089044200c8
:102700000a854a00e0854d00010ab8000a0542002a
:102710008b854a00020ab8008b0542008b054200f7
:102720000012b8000a0542008b854a008b05420062
:10273000040820008484440060054d00e0854d00bd
:10274000c84cde004852dd00048074004855de00ad
:10275000485add008400750048d9de0080137800f7
:1027600081137800821378004f02be00e48757007f
:102770002600200006a8e6005f0037000500e00004
:1027800003003200460520000620e1005a00310017
:10279000e4874700849fbe00cf91de000004b800ac
:1027a0000102b8008904420060854a000202b800b4
:1027b0000a054200e0854a008b054200000ab80085
:1027c000890442000a854a00e0854d00010ab800ec
:1027d0000a0542008b854a00020ab8008b054200b8
:1027e0008b0542000012b8000a0542008b854a00a2
:1027f0008b054200040820008484440060054d00dd
:10280000e0854d00c84cde004852dd0004807400b5
:102810004855de00485add008400750048d9de00c6
:102820008013780081137800821378004f02be0075
:10283000e48757002600200006a8e6002e00370097
:102840000500e00003003200a60220000620e1009f
:1028500029003100e4874700849fbe00cf91de004d
:102860000004b8000102b8008904420060854a00f3
:102870000202b8000a054200e0854a008b054200ca
:10288000000ab800890442000a854a00e0854d002c
:10289000010ab8000a0542008b854a00020ab80006
:1028a0008b0542008b0542000012b8000a05420069
:1028b0008b854a008b054200040820008484440074
:1028c00060054d00e0854d00c84cde004852dd003b
:1028d000048074004855de00485add00840075000d
:1028e00048d9de00801378008113780082137800c5
:1028f0004f02be00e48757008f037800e683530041
:10290000070378000d0008000c0000002701780084
:10291000a701780027027800c814de00c81add007d
:1029200005807400481dde00c822dd0085007500aa
:1029300048a1de000013780001137800021378002c
:102940008f03780044052000848553000400200094
:10295000150020000003eb008003eb00ea002000dc
:102960000e0008003e000000e68545001000200033
:102970000a00dd000c00e10037003c0000065600b4
:10298000e88747008c9fbe00e68155002300780051
:10299000a3007800230178008a9fbe00cf91de005b
:1029a0000404b8000506b8008904460060854e009e
:1029b0000606b8000a054600e0854e000706b80086
:1029c0008b054600040eb800890446000a854e00b7
:1029d000e0854d00050eb8000a0546008b854e00c7
:1029e000060eb8008b0546000416b8000a0546001e
:1029f0008b854e000516b8008b0546000416b800fe
:102a00008b0546000c0028000c02440060824c003c
:102a1000e0024d0060834d00cfb3de004f05be00e5
:102a20004f06be00e88757000700e00004003a00a8
:102a30000600e00002003a0005f0a300060039009d
:102a4000f4ff2f00f5ff27004560a8000003eb000e
:102a50008003eb00a002370000000000000000002f
:102a6000610555009c023700020078008300780061
:102a70005801200008e0e6004c01200061045600e7
:102a800004002000150020000003eb008003eb0091
:102a90000c00e00092023200088008002e000000c6
:102aa0004f89de000404b8000506b800890446001a
:102ab00060854e000606b8000a054600e0854e0017
:102ac0000706b8008b054600040eb80089044600ce
:102ad0000a854e00e0854d00050eb8000a05460047
:102ae0008b854e00060eb8008b0546000416b80014
:102af0000a0546008b854e000516b8008b0546007a
:102b00000416b8008b0546000c0028000c02440097
:102b100060824c00e0024d0060834d00cfb3de00c8
:102b20000700e00004003a000600e00002003a005e
:102b300005f0a30008003900f4ff2f00f5ff27007f
:102b40004560a8000003eb008003eb00640237003f
:102b500000000000000000000000000060023700dc
:102b6000a4052000848747008f0378008213780033
:102b7000831378000002eb008413780002007800d1
:102b8000830078004f89de000004b8000102b8001d
:102b90008904420060854a000202b8000a0542002a
:102ba000e0854a008b054200000ab8008904420013
:102bb0000a854a00e0854d00010ab8000a05420076
:102bc0008b854a00020ab8008b0542008b05420043
:102bd0000012b8000a0542008b854a008b054200ae
:102be00061044400e0844c0060054d00e0854d0028
:102bf0004140de004f4add0004007000c148de00a5
:102c00004f52dd00848070004151de004f5add00dc
:102c1000040171008013780081137800821378001a
:102c2000cf91de000004b8000102b8008904420020
:102c300060854a000202b8000a054200e0854a00a9
:102c40008b054200000ab800890442000a854a0048
:102c5000e0854d00010ab8000a0542008b854a0054
:102c6000020ab8008b0542008b0542000012b80032
:102c70000a0542008b854a008b05420004002800ab
:102c800084844c0060054d00e0854d004f48de0017
:102c90004152dd0004007000cf50de00415add00db
:102ca000848070004fd9de00801378008113780093
:102cb00082137800cf91de000004b8000102b80052
:102cc0008904420060854a000202b8000a054200f9
:102cd000e0854a008b054200000ab80089044200e2
:102ce0000a854a00e0854d00010ab8000a05420045
:102cf0008b854a00020ab8008b0542008b05420012
:102d00000012b8000a0542008b854a008b0542007c
:102d10000400280084844c0060054d00e0854d00cf
:102d20004f48de004152dd0004007000cf50de004d
:102d3000415add00848070004fd9de008013780096
:102d40008113780082137800cf91de000004b80070
:102d50000102b8008904420060854a000202b800fe
:102d60000a054200e0854a008b054200000ab800cf
:102d7000890442000a854a00e0854d00010ab80036
:102d80000a0542008b854a00020ab8008b05420002
:102d90008b0542000012b8000a0542008b854a00ec
:102da0008b0542000400280084844c0060054d001f
:102db000e0854d004f48de004152dd000400700008
:102dc000cf50de00415add00848070004fd9de0014
:102dd000801378008113780082137800cf91de0091
:102de0000004b8000102b8008904420060854a006e
:102df0000202b8000a054200e0854a008b05420045
:102e0000000ab800890442000a854a00e0854d00a6
:102e1000010ab8000a0542008b854a00020ab80080
:102e20008b0542008b0542000012b8000a054200e3
:102e30008b854a008b0542000400280084844c00e6
:102e400060054d00e0854d004f48de004152dd0039
:102e500004007000cf50de00415add008480700015
:102e60004fd9de0080137800811378008213780038
:102e7000cf91de000004b8000102b80089044200ce
:102e800060854a000202b8000a054200e0854a0057
:102e90008b054200000ab800890442000a854a00f6
:102ea000e0854d00010ab8000a0542008b854a0002
:102eb000020ab8008b0542008b0542000012b800e0
:102ec0000a0542008b854a008b0542000400280059
:102ed00084844c0060054d00e0854d004f48de00c5
:102ee0004152dd0004007000cf50de00415add0089
:102ef000848070004fd9de00801378008113780041
:102f000082137800cf91de000004b8000102b800ff
:102f10008904420060854a000202b8000a054200a6
:102f2000e0854a008b054200000ab800890442008f
:102f30000a854a00e0854d00010ab8000a054200f2
:102f40008b854a00020ab8008b0542008b054200bf
:102f50000012b8000a0542008b854a008b0542002a
:102f60000400280084844c0060054d00e0854d007d
:102f70004f48de004152dd0004007000cf50de00fb
:102f8000415add00848070004fd9de008013780044
:102f90008113780082137800cf91de000004b8001e
:102fa0000102b8008904420060854a000202b800ac
:102fb0000a054200e0854a008b054200000ab8007d
:102fc000890442000a854a00e0854d00010ab800e4
:102fd0000a0542008b854a00020ab8008b054200b0
:102fe0008b0542000012b8000a0542008b854a009a
:102ff0008b0542000400280084844c0060054d00cd
:10300000e0854d004f48de004152dd0004007000b5
:10301000cf50de00415add00848070004fd9de00c1
:10302000801378008113780082137800cf91de003e
:103030000004b8000102b8008904420060854a001b
:103040000202b8000a054200e0854a008b054200f2
:10305000000ab800890442000a854a00e0854d0054
:10306000010ab8000a0542008b854a00020ab8002e
:103070008b0542008b0542000012b8000a05420091
:103080008b854a008b0542000400280084844c0094
:1030900060054d00e0854d004f48de004152dd00e7
:1030a00004007000cf50de00415add0084807000c3
:1030b0004fd9de00801378008113780082137800e6
:1030c000cf91de000004b8000102b800890442007c
:1030d00060854a000202b8000a054200e0854a0005
:1030e0008b054200000ab800890442000a854a00a4
:1030f000e0854d00010ab8000a0542008b854a00b0
:10310000020ab8008b0542008b0542000012b8008d
:103110000a0542008b854a008b0542000400280006
:1031200084844c0060054d00e0854d004f48de0072
:103130004152dd0004007000cf50de00415add0036
:10314000848070004fd9de008013780081137800ee
:1031500082137800cf91de000004b8000102b800ad
:103160008904420060854a000202b8000a05420054
:10317000e0854a008b054200000ab800890442003d
:103180000a854a00e0854d00010ab8000a054200a0
:103190008b854a00020ab8008b0542008b0542006d
:1031a0000012b8000a0542008b854a008b054200d8
:1031b0000400280084844c0060054d00e0854d002b
:1031c0004f48de004152dd0004007000cf50de00a9
:1031d000415add00848070004fd9de0080137800f2
:1031e0008113780082137800cf91de000004b800cc
:1031f0000102b8008904420060854a000202b8005a
:103200000a054200e0854a008b054200000ab8002a
:10321000890442000a854a00e0854d00010ab80091
:103220000a0542008b854a00020ab8008b0542005d
:103230008b0542000012b8000a0542008b854a0047
:103240008b0542000400280084844c0060054d007a
:10325000e0854d004f48de004152dd000400700063
:10326000cf50de00415add00848070004fd9de006f
:10327000801378008113780082137800cf91de00ec
:103280000004b8000102b8008904420060854a00c9
:103290000202b8000a054200e0854a008b054200a0
:1032a000000ab800890442000a854a00e0854d0002
:1032b000010ab8000a0542008b854a00020ab800dc
:1032c0008b0542008b0542000012b8000a0542003f
:1032d0008b854a008b0542000400280084844c0042
:1032e00060054d00e0854d004f48de004152dd0095
:1032f00004007000cf50de00415add008480700071
:103300004fd9de0080137800811378008213780093
:10331000cf91de000004b8000102b8008904420029
:1033200060854a000202b8000a054200e0854a00b2
:103330008b054200000ab800890442000a854a0051
:10334000e0854d00010ab8000a0542008b854a005d
:10335000020ab8008b0542008b0542000012b8003b
:103360000a0542008b854a008b05420004002800b4
:1033700084844c0060054d00e0854d004f48de0020
:103380004152dd0004007000cf50de00415add00e4
:10339000848070004fd9de0080137800811378009c
:1033a000821378008f037800e683530007037800c8
:1033b0000d0008000c00000027017800a70178002c
:1033c00027027800cf14de00c11add0005807400ea
:1033d0004f1dde00c122dd00850075004fa1de001b
:1033e0000013780001137800021378008f0378002f
:1033f00044052000848553000400200015002000af
:103400000003eb008003eb00ea0020000e00080040
:1034100030000000e6854500100020000a00dd00b5
:103420000c00e1002b003c0000065600e681550030
:10343000e88747008c9fbe0023007800a300780037
:10344000230178008a9fbe00cf91de000404b800fb
:103450000506b8008904460060854e000606b800df
:103460000a054600e0854e000706b8008b054600b9
:10347000040eb800890446000a854e00e0854d0020
:10348000050eb8000a0546008b854e00060eb800f2
:103490008b0546000416b8000a0546008b854e00d1
:1034a0000516b8008b0546000416b8008b054600cb
:1034b0000c0028000c02440060824c00e0024d0029
:1034c00060834d00cfb3de004f05be004f06be0047
:1034d000e887570061055500a20520008287570044
:1034e0004f00be004f89de000404b8000506b80096
:1034f0008904460060854e000606b8000a054600ad
:10350000e0854e000706b8008b054600040eb800a3
:10351000890446000a854e00e0854d00050eb8007e
:103520000a0546008b854e00060eb8008b05460046
:103530000416b8000a0546008b854e000516b80033
:103540008b0546000416b8008b05460004002800d1
:1035500004044400e0844c0060054d00e0854d000b
:10356000090078008a0078000b00e00002003a00b1
:103570000af0a30005003900f0ff2f00f1ff27003b
:1035800002003700a2052000828757004f06be00c8
:103590004f05be004f04be004400f90000000600c5
:1035a0004f0ade008102780001f0a10003f8230039
:1035b0000118e10004003c00000028000400a600ff
:1035c000f0ff2700000006008500780002002000c0
:1035d00003702400fc0202000000000064030200eb
:1035e0000000000000000600000178000100280033
:1035f0000000eb000110e700000006004400f800a6
:10360000881f7800180020000010e600f8ff2f0047
:10361000100a20004420b7000890b90012002400ce
:10362000030028000280e60000805100f28b220097
:103630000200e10023003d0084482600800278005b
:103640001301c0008206cc0050bb2600f1ff27000a
:103650000110e70044003700b044290011002800a1
:103660000110e600400037000293b9004f33de003e
:10367000c13bdd0087017300c119dd000312b900f1
:103680005155250001abb900c1bbde000700510058
:10369000032ab9004144240001abb900c5bbde00d8
:1036a00007004000032ab9007180260001abb90071
:1036b0000540200085834300cbbbde00070050009f
:1036c000290037000300240080825100844826002e
:1036d0001301c0008506cc0011f02f00f20f20006e
:1036e0000128e100040035000228e10002003c004e
:1036f000f0ff27001c0037000501780001002800ba
:10370000905224000110e70000000600f1ff27009e
:10371000f0ff27000292b9004f22de00c12add002f
:10372000050272004122dd0001a1b8000700280057
:10373000071bb9000700500003a1b800b7aa20007a
:10374000071bb9000700400003a1b800b70520001f
:10375000071bb9000700500003a1b8002700200094
:10376000071bb900070040000880b9004f0478002b
:103770004400f90000000600010028000000ea00f3
:103780000100e7000080ea0000000600cf80de00b4
:10379000a6030200000000000200200003702400c5
:1037a000ac030200000000000000060000027800e8
:1037b000810278000000e00010003a0002002800ba
:1037c0008101780000002800cf80de000218e700a9
:1037d00000000600f2ff2700000028008000eb0038
:1037e0000218e70000000600f0ff2f00f1ff27009d
:1037f0000001eb000218e70000000600889fbe00f1
:103800008a9fbe008c9fbe0004007800850078006f
:103810001800200001f0a30004003900f8ff2f0079
:1038200001c2b9000040b90081004200881f780041
:10383000809fbe008181cf000300e00004003a00b9
:103840000118e700030120000081cf00830141003f
:10385000e28151007018e10008003c000300e00024
:1038600009003200708111000202de008308dd00d1
:10387000848070000300dd00030037007081510078
:103880008200dd000000eb00831f780005002800a7
:103890000002eb000001520081815a008580410046
:1038a0000414b8000516b8008904460060854e006f
:1038b0008005eb00040eb800890446000a854e001e
:1038c000e0854d00050eb8000a0546008b854e00c8
:1038d0004f48de00c150dd00010370004f50de0094
:1038e000c158dd00810370000214b8000316b8004f
:1038f0008904460060854e008005eb00890446007f
:103900000a854e00e0854d00031eb8000a054600fa
:103910008b854e004f48de00c150dd000101700074
:103920004f50de00c158dd0081017000000028000a
:10393000808041000614b8000716b80089044600cc
:1039400060854e008005eb00060eb8008904460035
:103950000a854e00e0854d00070eb8000a054600b6
:103960008b854e004f48de00c150dd000103700022
:103970004f50de00c158dd00810370000214b80012
:103980000316b8008904460060854e008005eb00f0
:10399000890446000a854e00e0854d00031eb800ec
:1039a0000a0546008b854e004f48de00c150dd0001
:1039b000010170004f50de00c158dd008101700030
:1039c00000002800808041000614b8000716b800e7
:1039d0008904460060854e008005eb00060eb800a5
:1039e000890446000a854e00e0854d00070eb800a8
:1039f0000a0546008b854e004f48de00c150dd00b1
:103a0000010370004f50de00c158dd0081037000db
:103a10000214b8000316b8008904460060854e0001
:103a20008005eb00890446000a854e00e0854d00c4
:103a3000031eb8000a0546008b854e004f48de0085
:103a4000c150dd00010170004f50de00c158dd00a3
:103a50008101700000002800808041000614b80039
:103a60000716b8008904460060854e008005eb000b
:103a7000060eb800890446000a854e00e0854d0018
:103a8000070eb8000a0546008b854e004f48de0041
:103a9000c150dd00010370004f50de00c158dd0051
:103aa000810370000214b8000316b80089044600b0
:103ab00060854e008005eb00890446000a854e00b3
:103ac000e0854d00031eb8000a0546008b854e00b8
:103ad0004f48de00c150dd00010170004f50de0094
:103ae000c158dd0081017000000028008080410085
:103af0000614b8000716b8008904460060854e0019
:103b00008005eb00060eb800890446000a854e00c9
:103b1000e0854d00070eb8000a0546008b854e0073
:103b20004f48de00c150dd00010370004f50de0041
:103b3000c158dd00810370000214b8000316b800fc
:103b40008904460060854e008005eb00890446002c
:103b50000a854e00e0854d00031eb8000a054600a8
:103b60008b854e004f48de00c150dd000101700022
:103b70004f50de00c158dd008101700000002800b8
:103b8000808041000614b8000716b800890446007a
:103b900060854e008005eb00060eb80089044600e3
:103ba0000a854e00e0854d00070eb8000a05460064
:103bb0008b854e004f48de00c150dd0001037000d0
:103bc0004f50de00c158dd00810370000214b800c0
:103bd0000316b8008904460060854e008005eb009e
:103be000890446000a854e00e0854d00031eb8009a
:103bf0000a0546008b854e004f48de00c150dd00af
:103c0000010170004f50de00c158dd0081017000dd
:103c100000002800808041000614b8000716b80094
:103c20008904460060854e008005eb00060eb80052
:103c3000890446000a854e00e0854d00070eb80055
:103c40000a0546008b854e004f48de00c150dd005e
:103c5000010270004f50de00c158dd00810270008b
:103c6000cf017800120020007018e10004003c0031
:103c7000f08011008110de000310dd00030037002a
:103c8000f08051008110dd000000eb004f89de0064
:103c9000820178000404b8000506b80089044600d3
:103ca00060854e00040eb800890446000a854e0067
:103cb000050eb8000a0546000416b8000a054600bd
:103cc000e00546004f02be004e22de00422edd001f
:103cd0000c027200ce2ade00570020000500e00032
:103ce00002003a000720e10005003500070024002b
:103cf00007044400e0844c0060054d00e0854d0061
:103d00004f40de00414add0004007000cf48de0075
:103d10004152dd00848070004f51de00415add00c9
:103d2000040171000200e00002003a0001f0a3006b
:103d300002003900f0ff2f00f1ff27004f04780048
:103d400001c2b9000040b900810042004f06be0028
:103d50004f05be004f04be000000060000027800c0
:103d6000810278000000e00010003a000200280004
:103d700081017800e0ff2f00cf80de000218e7000d
:103d800000000600f2ff270020002000cf80de00a8
:103d90000218e70000000600f0ff2f00f1ff2700e7
:103da0000001eb000218e7000000060004007800a4
:103db00085007800889fbe001800200001f0a30055
:103dc00004003900f8ff2f0001c2b9000040b9001b
:103dd00081004200881f780000017800810178008e
:103de0000300e00014003a00140020000220e1006b
:103df00007003a00f0ff2f00f1ff270001c2b900d1
:103e00000040b900810042004f04be0000000600df
:103e1000240020000220e10007003a00f0ff2f00fc
:103e2000f1ff270001c2b9000040b9008100420043
:103e30004f04be00000006008181cf000300e000b7
:103e400004003a000118e700030120000081cf00c0
:103e500083014100e28151007018e10005003c003f
:103e6000708111000202de008308dd008480700092
:103e700002003700708151008200dd00040028003c
:103e8000810252006118e100830034008a9fbe0065
:103e90008c9fbe000000220006002800050343009e
:103ea0000625b8004f55de00c15ddd000b02750030
:103eb000052db80000054500e0854d004e55de009b
:103ec000c25ddd008b027500e08342000725b8006b
:103ed0006126b9008c8545000b027800052db800dd
:103ee000e1854500c1dade0000002400060028005c
:103ef000850343000725b8004230de000005450079
:103f0000e0854d004f55de00c15ddd000b02750000
:103f1000052db80000e0230000054500e0854d00b8
:103f20004f55de00c15ddd008b0275008503430047
:103f30000725b8004f52de00415cdd000802720028
:103f40004f5cde0000002400052db8000005450090
:103f5000e0854d004f55de00c15ddd008b02750030
:103f600085034300043db80008beb9008c854500b8
:103f70004f52de00415cdd00080272004f5cde0043
:103f8000052db80000054500e0854d004f55de00c9
:103f9000c15ddd008b02750085034300043db80060
:103fa00008beb9008c8545004f52de00415cdd0043
:103fb000080272004f5cde00052db80000054500c8
:103fc000e0854d004f55de00c15ddd008b027500c0
:103fd00085034300043db80008beb9008c85450048
:103fe0004f52de00415cdd0008027200cf5ade0055
:103ff000120020007018e10004003c00f080110065
:104000008110de000310dd0003003700f080510056
:104010008110dd000000eb004f89de008201780096
:104020004fabde00860378000404b8000506b80034
:104030008904460060854e000606b8000a05460061
:10404000040eb800890446000a854e00050eb8002b
:104050000a0546000416b8000a0546008b0546000e
:104060004e40de00424add0004007000ce48de0013
:104070004252dd00848070004f06be004f05be0036
:104080004f04780001c2b9000040b900810042002d
:104090004f04be00000006000300e0007c00340076
:1040a0008a9fbe008c9fbe000000220006002800f0
:1040b000850343000725b8004f55de00c15ddd00d4
:1040c0000b027500052db80000054500e0854d0088
:1040d0004e55de00c25ddd008b027500e0834200bc
:1040e0000725b8006126b9008c8545000b027800d1
:1040f000052cb80006044400e0844c00c1cade0070
:104100004100dd0006002800850343000725b800b4
:104110004f55de00c15ddd000b027500052db800b6
:1041200000054500e0854d004f55de00c15ddd0016
:104130008b027500850343000725b8004f55de004c
:10414000c15ddd000b027500052db80000054500be
:10415000e0854d004f55de00c15ddd008b0275002e
:10416000850343000725b8004f52de00415cdd00a7
:10417000080272004f5cde00052db8000005450006
:10418000e0854d004f55de00c15ddd008b027500fe
:1041900085034300043db80008beb9008c85450086
:1041a0004f52de00415cdd00080272004f5cde0011
:1041b000052db80000054500e0854d004f55de0097
:1041c000c15ddd008b02750085034300043db8002e
:1041d00008beb9008c8545004f52de00415cdd0011
:1041e00008027200cf5ade00120020007018e100b1
:1041f00004003c00f08011008110de000310dd009f
:1042000003003700f08051008110dd000000eb005a
:104210004f89de00820178004fabde008603780014
:104220000404b8000506b8008904460060854e0005
:104230000606b8000a054600040eb80089044600c8
:104240000a854e00050eb8000a0546000416b8009f
:104250000a0546008b0546004e40de00424add005e
:1042600004007000ce48de004252dd008480700001
:104270004f06be004f05be004f04780001c2b900d2
:104280000040b900810042004f04be00000006005b
:104290008a9fbe008c9fbe000000240006002800fc
:1042a000850343000725b8004f55de00c15ddd00e2
:1042b0000b027500052db80000054500e0854d0096
:1042c0004f55de00c15ddd008b02750085034300a4
:1042d0000725b8004f55de00c15ddd000b027500fb
:1042e000052db80000054500e0854d004f55de0066
:1042f000c15ddd008b027500850343000725b80012
:104300004f55de00c15ddd000b027500052db800c4
:1043100000054500e0854d004f55de00c15ddd0024
:104320008b027500850343000725b8004f55de005a
:10433000c15ddd000b027500052db80000054500cc
:10434000e0854d004f55de00c15ddd008b0275003c
:104350000004eb00850343000725b8004f52de0040
:10436000415cdd00080272004f5cde00052db800e4
:1043700000054500e0854d004f55de00c15ddd00c4
:104380008b02750085034300043db80008beb900e8
:104390008c8545004f52de00415cdd000802720052
:1043a0004f5cde00052db80000054500e0854d009e
:1043b0004f55de00c15ddd008b02750085034300b3
:1043c000043db80008beb9008c8545004f52de00a0
:1043d000415cdd0008027200cf5ade0012002000ae
:1043e0007018e10004003c00f08011008110de0034
:1043f0000310dd0003003700f08051008110dd0064
:104400000000eb004f89de00820178004fabde0038
:10441000860378000404b8000506b8008904460045
:1044200060854e000606b8000a054600040eb80076
:10443000890446000a854e00050eb8000a054600ac
:104440000416b8000a0546008b0546004e40de0003
:10445000424add0004007000ce48de004252dd001a
:10446000848070004f06be004f05be004f047800e8
:1044700001c2b9000040b900810042004f04be00f3
:10448000000006000080000000000000f15b00005a
:1044900001000000cdb1000003000000f30a00009d
:1044a0000a000000904c00001b000000e2340000f5
:1044b0004a000000e3b60000c90000000b510000f4
:1044c000240200009f7a0000d2050000be8a00008e
:1044d000d30f00009f3b0000052b000024120000ba
:1044e000f1740000000000002d5e0000a522000015
:1044f000bf0c0000b0040000ba010000a2000000e0
:104500003c0000001600000008000000030000004e
:10451000010000004400f800889fbe008a9fbe0092
:104520008c9fbe004400a80001047800829fbe005a
:104530000100e000050034004103de00cf0bdd0088
:1045400006827300c18ade000400370007002800dd
:1045500001bcb900003ab800850244000580cf00d4
:104560000000e00004003a000500e7000001200020
:104570008480cf000080400062005000f0001000f6
:104580008123de008029dd00838173000021dd00ae
:104590000400280004825100840278000280ca00ce
:1045a0005080c80002f0a7008502e8000500ca009c
:1045b0000000cb004100c800cf12de004121dd0029
:1045c000850271000502780005a3b90006002200eb
:1045d0001381c6000030cb0005bbb9005655210041
:1045e0001381c6000000cb0005bbb9000600210006
:1045f0001381c6000030cb0005bbb900d6cc20002b
:104600001381c6000000cb0005bbb900b6aa20008c
:104610001381c6000030cb0005bbb90056922000c4
:104620001381c6000000cb0005bbb9000680200046
:104630001381c6000030cb0005bbb900c671200055
:104640001381c6000000cb0005bbb90066662000e0
:104650001381c6000030cb0005bbb900165d2000f9
:104660001381c6000000cb004500c8006000e100d7
:104670000e003a000300cc007000c8000200cc001d
:104680000800e00004003400e5622100f42f24005b
:1046900004014100858149004910de00c71add0090
:1046a00005007000c998de002a0137006100e100b2
:1046b00013003a000300cc007000c8000200cc00d8
:1046c0002516200004432e00040151008581590065
:1046d0000800e00005003400e5622100f42f24000a
:1046e00004014100858149004110de004910de00cf
:1046f000c71add0005007000c998de0015013700fb
:104700006200e10012003a000300cc007000c80013
:104710000200cc00552c200004862c00040151001e
:10472000858159000800e00004003400e5622100a2
:10473000f42f240004014100858149004910de0066
:10474000c71add0005007000c998de0001013700be
:104750006300e10012003a000300cc007000c800c2
:104760000200cc008542200004c92a000401510047
:10477000858159000800e00004003400e562210052
:10478000f42f240004014100858149004910de0016
:10479000c71add0005007000c998de00ed00370083
:1047a0006400e10012003a000300cc007000c80071
:1047b0000200cc00b5582000040c2900040151006f
:1047c000858159000800e00004003400e562210002
:1047d000f42f240004014100858149004910de00c6
:1047e000c71add0005007000c998de00d900370047
:1047f0006500e10012003a000300cc007000c80020
:104800000200cc00e56e2000044f27000401510097
:10481000858159000800e00004003400e5622100b1
:10482000f42f240004014100858149004910de0075
:10483000c71add0005007000c998de00c50037000a
:104840006600e10012003a000300cc007000c800ce
:104850000200cc00158520000492250004015100bf
:10486000858159000800e00004003400e562210061
:10487000f42f240004014100858149004910de0025
:10488000c71add0005007000c998de00b1003700ce
:104890006700e10012003a000300cc007000c8007d
:1048a0000200cc00459b2000f4d4230004015100f9
:1048b000858159000800e00004003400e562210011
:1048c000f42f240004014100858149004910de00d5
:1048d000c71add0005007000c998de009d00370092
:1048e0006800e10012003a000300cc007000c8002c
:1048f0000200cc0075b12000e41722000401510031
:10490000858159000800e00004003400e5622100c0
:10491000f42f240004014100858149004910de0084
:10492000c71add0005007000c998de008900370055
:104930006900e10012003a000300cc007000c800da
:104940000200cc00a5c72000f45a20000401510049
:10495000858159000800e00004003400e562210070
:10496000f42f240004014100858149004910de0034
:10497000c71add0005007000c998de007500370019
:104980006a00e10012003a000300cc007000c80089
:104990000200cc00c5dd2000f49d2e000401510072
:1049a000858159000800e00004003400e562210020
:1049b000f42f240004014100858149004910de00e4
:1049c000c71add0005007000c998de0061003700dd
:1049d0006b00e10012003a000300cc007000c80038
:1049e0000200cc00f5f32000f4e02c00040151009b
:1049f000858159000800e00004003400e5622100d0
:104a0000f42f240004014100858149004910de0093
:104a1000c71add0005007000c998de004d003700a0
:104a20006c00e10012003a000300cc007000c800e6
:104a30000200cc00250a2100f4232b0004015100c0
:104a4000858159000800e00004003400e56221007f
:104a5000f42f240004014100858149004910de0043
:104a6000c71add0005007000c998de003900370064
:104a70006d00e10012003a000300cc007000c80095
:104a80000200cc0055202100f466290004015100e9
:104a9000858159000800e00004003400e56221002f
:104aa000f42f240004014100858149004910de00f3
:104ab000c71add0005007000c998de002500370028
:104ac0006e00e10012003a000300cc007000c80044
:104ad0000200cc0085362100f4a927000401510012
:104ae000858159000800e00004003400e5622100df
:104af000f42f240004014100858149004910de00a3
:104b0000c71add0005007000c998de0011003700eb
:104b10000300cc007000c8000200cc00b54c21009e
:104b2000e4ec250004015100858159000800e000f3
:104b300004003400e5622100f42f24000401410048
:104b4000858149004910de00c71add0005007000ac
:104b5000c998de004f02be004f89de004fabde0079
:104b60000404b8000506b8008904460060854e00bc
:104b70000606b8000a054600e0854e008b05460093
:104b8000040eb800890446000a854e00e0854d00f9
:104b9000050eb8000a0546008b854e00060eb800cb
:104ba0008b0546000416b8000a0546008b854e00aa
:104bb0000516b8008b0546000416b8008b054600a4
:104bc0004242de00ce49dd0003047200c24ade002c
:104bd000ce51dd00838472004253de00ce59dd00e9
:104be00003057300c2ddde000bf0a3000f003100ef
:104bf000b5962900f49d2d000802520089825a00c2
:104c000062031d00e0835d0007f0a3001800390077
:104c1000f0ff2f00f1ff27004f06be004f05be003a
:104c20004f04be004400f9000000060034a2210039
:104c3000b5dd2000d6ff2f00f7ff2f00040254003f
:104c400085825c0006035d0087835d0007f0a3009a
:104c5000070039008000eb000000eb004f06be00ab
:104c60004f05be004f04be004400f90000000600de
:104c70004e4ade00c252dd00048272008002eb0068
:104c800004f0a700150020000001eb000590e700ec
:104c90000402ea00849fbe0004aab90009e0a10052
:104ca00009f0a1000003eb00070024000803430003
:104cb00089834b0008007800890078004f89de0066
:104cc0000004b8000106b8008904460060854e0063
:104cd0000206b8000a0546008c854e00000eb8009a
:104ce000890446000a854e00e0854d00010eb8009b
:104cf0000a0546008b854e00020eb8008b05460063
:104d00008b0546000016b8000a0546008b854e004c
:104d10008b0546004e4ade00c254dd00048274005a
:104d2000ce52de00c25cdd008582740008002400e3
:104d30004fa9de008005eb000446b800e004460001
:104d400060854e00e0854d000546b8000a05460026
:104d50008b854e000246b8008b05460002002400f9
:104d60008284440060054d00e0854d004f49de001f
:104d7000c154dd0002817400cf51de00c15cdd0052
:104d8000838174000203430083834b004f89de005c
:104d9000cfa9de000404b8000506b8008904460067
:104da00060854e000306b8000a054600e0854e0007
:104db0000306b8008b054600040eb80089044600bf
:104dc0000a854e00e0854d00050eb8000a05460034
:104dd0008b854e00030eb8008b0546000416b80004
:104de0000a0546008b854e000516b8008b05460067
:104df0000416b8008b054600e184440060054d00b0
:104e0000e0854d004e4ade00c254dd00048274008d
:104e1000ce52de00c25cdd0085827400b3aa2a0097
:104e20000324b800a8aa20000826b8008904460078
:104e300060854e008005eb00032eb8008904460013
:104e40000a854e00e0854d00082eb8000a05460090
:104e50008b854e004fa9de000316b8000a054600f8
:104e60008b854e000816b8008b0546000316b80067
:104e70008b054600080022008884440060054d0030
:104e8000e0854d004e49de00c254dd000281740011
:104e9000ce51de00c25cdd0083817400020343005a
:104ea00083834b004f89de00cfa9de000404b800e5
:104eb0000506b8008904460060854e000306b80068
:104ec0000a054600e0854e000306b8008b05460043
:104ed000040eb800890446000a854e00e0854d00a6
:104ee000050eb8000a0546008b854e00030eb8007b
:104ef0008b0546000416b8000a0546008b854e0057
:104f00000516b8008b0546000416b8008b05460050
:104f1000e184440060054d00e0854d004e4ade000e
:104f2000c254dd0004827400ce52de00c25cdd009b
:104f300085827400b3aa2a000324b800a82a20009e
:104f40000826b8008904460060854e008005eb0005
:104f5000032eb800890446000a854e00e0854d0006
:104f6000082eb8000a0546008b854e004fa9de00ca
:104f70000316b8000a0546008b854e000816b800d7
:104f80008b0546000316b8008b054600080022007a
:104f90008884440060054d00e0854d004e49de00e8
:104fa000c254dd0002817400ce51de00c25cdd001f
:104fb000838174000203430083834b004f89de002a
:104fc000cfa9de000404b8000506b8008904460035
:104fd00060854e000306b8000a054600e0854e00d5
:104fe0000306b8008b054600040eb800890446008d
:104ff0000a854e00e0854d00050eb8000a05460002
:105000008b854e00030eb8008b0546000416b800d1
:105010000a0546008b854e000516b8008b05460034
:105020000416b8008b0546004e4ade00c254dd006f
:1050300004827400ce52de00c25cdd008582740002
:10504000938828000324b800880820000826b800a8
:105050008904460060854e008005eb00032eb800f1
:10506000890446000a854e00e0854d00082eb800f0
:105070000a0546008b854e004fa9de000316b800d6
:105080000a0546008b854e000816b8008b054600c1
:105090000316b8008b0546000800220088844400ef
:1050a00060054d00e0854d004e49de00c254dd0034
:1050b00002817400ce51de00c25cdd008381740089
:1050c0000203430083834b004f89de00cfa9de003b
:1050d0000404b8000506b8008904460060854e0047
:1050e0000306b8000a054600e0854e000306b80036
:1050f0008b054600040eb800890446000a854e0060
:10510000e0854d00050eb8000a0546008b854e006f
:10511000030eb8008b0546000416b8000a054600c9
:105120008b854e000516b8008b0546000416b800a6
:105130008b0546004e4ade00c254dd000482740036
:10514000ce52de00c25cdd0085827400c3162c00e6
:105150000324b800680120000826b800890446002e
:1051600060854e008005eb00032eb80089044600e0
:105170000a854e00e0854d00082eb8000a0546005d
:105180008b854e004fa9de000316b8000a054600c5
:105190008b854e000816b8008b0546000316b80034
:1051a0008b054600080022008884440060054d00fd
:1051b000e0854d004e49de00c254dd0002817400de
:1051c000ce51de00c25cdd00838174000203430027
:1051d00083834b004f89de00cfa9de000404b800b2
:1051e0000506b8008904460060854e000306b80035
:1051f0000a054600e0854e000306b8008b05460010
:10520000040eb800890446000a854e00e0854d0072
:10521000050eb8000a0546008b854e00030eb80047
:105220008b0546000416b8000a0546008b854e0023
:105230000516b8008b0546000416b8008b0546001d
:105240004e4ade00c254dd0004827400ce52de00fd
:10525000c25cdd0085827400430324000324b8008f
:10526000380020000826b8008904460060854e00fa
:105270008005eb00032eb800890446000a854e0025
:10528000e0854d00082eb8000a0546008b854e00cb
:105290004fa9de000316b8000a0546008b854e00b4
:1052a0000816b8008b0546000316b8008b054600ab
:1052b000080022008884440060054d00e0854d0010
:1052c0004e49de00c254dd0002817400ce51de0082
:1052d000c25cdd00838174000203430083834b00c2
:1052e0004f89de00cfa9de000404b8000506b8002f
:1052f0008904460060854e000306b8000a05460092
:10530000e0854e000306b8008b054600040eb80089
:10531000890446000a854e00e0854d00050eb80060
:105320000a0546008b854e00030eb8008b0546002b
:105330000416b8000a0546008b854e000516b80015
:105340008b0546000416b8008b0546004e4ade0069
:10535000c254dd0004827400ce52de00c25cdd0067
:1053600085827400738026000324b8008005eb005a
:10537000032eb800e004460060854e00e0854d0035
:105380004fa9de000316b8000a0546008b854e00c3
:105390000316b8008b0546000800220088844400ec
:1053a00060054d00e0854d004e49de00c254dd0031
:1053b00002817400ce51de00c25cdd008381740086
:1053c0000203430083834b004f89de00cfa9de0038
:1053d0000404b8000506b8008904460060854e0044
:1053e0000306b8000a054600e0854e000306b80033
:1053f0008b054600040eb800890446000a854e005d
:10540000e0854d00050eb8000a0546008b854e006c
:10541000030eb8008b0546000416b8000a054600c6
:105420008b854e000516b8008b0546000416b800a3
:105430008b0546004e4ade00c254dd000482740033
:10544000ce52de00c25cdd0085827400f3b820001d
:105450000324b8008005eb00032eb800e0044600ea
:1054600060854e00e0854d004fa9de000316b800b0
:105470000a0546008b854e000316b8008b054600d2
:10548000080022008884440060054d00e0854d003e
:105490004e49de00c254dd0002817400ce51de00b0
:1054a000c25cdd00838174000203430083834b00f0
:1054b0004f89de00cfa9de000404b8000506b8005d
:1054c0008904460060854e000306b8000a054600c0
:1054d000e0854e000306b8008b054600040eb800b8
:1054e000890446000a854e00e0854d00050eb8008f
:1054f0000a0546008b854e00030eb8008b0546005a
:105500000416b8000a0546008b854e000516b80043
:105510008b0546000416b8008b0546004e4ade0097
:10552000c254dd0004827400ce52de00c25cdd0095
:1055300085827400831220000324b8008005eb00ec
:10554000032eb800e004460060854e00e0854d0063
:105550004fa9de000316b8000a0546008b854e00f1
:105560000316b8008b05460008002200888444001a
:1055700060054d00e0854d004e49de00c254dd005f
:1055800002817400ce51de00c25cdd0083817400b4
:105590000203430083834b004f89de00cfa9de0066
:1055a0000404b8000506b8008904460060854e0072
:1055b0000306b8000a054600e0854e000306b80061
:1055c0008b054600040eb800890446000a854e008b
:1055d000e0854d00050eb8000a0546008b854e009b
:1055e000030eb8008b0546000416b8000a054600f5
:1055f0008b854e000516b8008b0546000416b800d2
:105600008b0546004e4ade00c254dd000482740061
:10561000ce52de00c25cdd0085827400b301200042
:105620000324b8008005eb00032eb800e004460018
:1056300060854e00e0854d004fa9de000316b800de
:105640000a0546008b854e000316b8008b05460000
:10565000080022008884440060054d00e0854d006c
:105660004e49de00c254dd0002817400ce51de00de
:10567000c25cdd00838174000203430083834b001e
:105680004f02be000500e00031003a004222dd007a
:105690000000200090018800212422008480400026
:1056a0003100ba009100ba004f89de00060278008e
:1056b000870278000003eb000404b8000506b80078
:1056c0008904460060854e000606b8000a054600bb
:1056d000e0854e008b054600040eb80089044600a4
:1056e0000a854e00e0854d00050eb8000a0546000b
:1056f0008b854e00060eb8008b0546000416b800d8
:105700000a0546008b854e000516b8008b0546003d
:105710008b054600040021008484440060054d0090
:10572000e0854d00cd4cde004352dd000480740066
:105730004d55de00435add00840075004f06be0063
:105740004f05be004f04be004400f90000000600f3
:105750004122dd0000002000900188002127220066
:10576000848040001100ba000602780087027800a9
:105770000003eb000404b8000506b80089044600e5
:1057800060854e000606b8000a054600e0854e001a
:105790008b0546008b054600ce4cde004252dd00f4
:1057a000048074004e55de00425add00840075000e
:1057b0004f06be004f05be004f04be004400f90076
:1057c00000000600889fbe000004be0005003700f0
:1057d0000000fb008900780019000700e10f40007d
:1057e0000400320038407800e04f5000f8ff3a00e3
:1057f0000000eb004f04be0000000600881f780088
:1058000061a32000efff07000004780061a32000df
:10581000a00020000a000700080078004f0478006c
:10582000000006000000fa0068815700cfb897001a
:1058300060a32000f20007000080fa0000000600cc
:10584000889fbe000104780038029000e2026200e6
:105850008084eb003b003200040378000620b20095
:105860009802900002003a00e08f520035003a00a2
:105870000490a0003404980080047800f90fb2006e
:10588000e08f520002003a00a8029000050c780058
:10589000ea8f540005003a000408b20003003a0001
:1058a00088007800d0002000e5ff07001802900073
:1058b000d8029000850f52000b0032000402e8006d
:1058c0001404980018027800094a7800040ce800d3
:1058d00015c0b30004a52000054a7800ea8f5400e3
:1058e00018003a0005003700880078000940780069
:1058f000be060700800478001200370038029000ce
:105900000410b2000f00320018019000a8009000af
:105910004800900008eb070018029000840f500028
:1059200004003200380290000403b30034049800ed
:105930008084eb000002eb00140498002802900021
:10594000040c7800090078004f04be000000060037
:10595000889fbe008a9fbe000084fb00d4c6b300af
:10596000844f5000220036004b0620001100090031
:105970000b84d80081057800720040004300dd00f0
:10598000098b2000008044006022b800060020003f
:1059900007fe23005001be004000be0042ec07009d
:1059a000aa002000809fbe00110009008a85d8004f
:1059b000800578004f00be00e9854500c35ddd002d
:1059c0008b8544003b02be002b03be0036ec070073
:1059d000809fbe00110009000a84d80001047800ed
:1059e0004f00be004344dd008884440013003700ac
:1059f000ea4f500014003600aa00200011000900f0
:105a00000a84d80000047800010578006904440085
:105a10004344dd00098b2000088444006022b80064
:105a20000600200007fe23003800be002801be004b
:105a30001dec07004355dd008a8444003902be0096
:105a40002903be00080037004344dd00048b20001a
:105a5000080442006022b8000600200007fe230070
:105a60003800be002801be000fec07004f05be0045
:105a70004f04be0000000600889fbe008a9fbe0043
:105a8000d4c6b300e04f500029003d000040ea00ba
:105a90000004fb00844f5000100034004406200036
:105aa000809fbe00110009000404d80001027800a4
:105ab0004f00be00a9002000809fbe001100090019
:105ac0000902d800000278004f00be0069024200bf
:105ad0004322dd000a8b200023003700ea4f5000ec
:105ae00010003400a4002000110009000404d800b4
:105af00001047800690040004300dd00048b2000b1
:105b0000000042004344dd00080242005403be008e
:105b10004402be005001be004000be00e2eb0700a0
:105b2000340037004344dd00048b20002e00370092
:105b30000004fb00844f50001d0034004406200088
:105b4000110009000404d80001027800a900200017
:105b5000110009000902d800000278006902420021
:105b60004322dd000a802000040245005403be00e9
:105b70004402be008b0920008a8545003b00be0020
:105b80002b01be00c8eb0700809fbe00110009007a
:105b90000904d800010478004f00be004344dd0032
:105ba000080545003a02be002a03be00dbff3700ad
:105bb000ea4f50000a003400a4002000811f780042
:105bc000110009000404d80001047800cf00780017
:105bd000690040004300dd0004802000c8ff37005a
:105be0004344dd0004802000080442003800be0069
:105bf0002801be004f05be004f04be000000060095
:105c0000ef05b000889fbe008a9fbe008c9fbe003b
:105c10008e1f780000067800e19f9f0082af9f00f2
:105c20000007eb00e5053700ef9897008100e800da
:105c3000e19f9f0054c2b300844f500006003a0019
:105c4000010378008006eb0007c3b30000c2b30075
:105c5000b1c2b3000e0037003c0290000404b20051
:105c6000040032001c027800004a7800040ee800ac
:105c7000050037000000fb008c007800f0fe0700f4
:105c8000e10f4000cd0532000e07e800cb053700dc
:105c900006027800b6427800d2c2b30082cf52002a
:105ca0000900320005003c0080cf5200080032009d
:105cb00081cf52000c003a000700370087cf520016
:105cc00009003a00060037000d30a000f0ff370051
:105cd0000d00a000eeff37000d10a000ecff370014
:105ce0000d20a000eaff3700628366000100320049
:105cf0000d00a10068836600010032000d20a100a4
:105d00000503fb000603b100e90f53000d003e0040
:105d100084027800070020006a3bb9003502fb00ce
:105d20000403b10086034200050278001503fb005e
:105d30000603b100e90f5300f7ff360097b79f0045
:105d40000a0037000003eb0096b79f00a6c2b3001d
:105d500086cf520005003a008fab970047007800cd
:105d600087af9f0090b79f000402e800e5c2b30030
:105d700094cf120017003a000de0a000e4c25200d8
:105d8000d4cf120003003200840278000700200004
:105d9000090037000fa99700c201780082af9f0069
:105da000d3af9f000402e800c6c6b3000d00370061
:105db0006a38b90080034300050278003503fb0010
:105dc0000603b100e90f5300f9ff3600d7af9f007b
:105dd000f5ff37000dc0a0008002eb00d5af9f009b
:105de000f1ff370084037800b7427800070278009b
:105df00086cf52002d003200e79f9f00c4c6b3003b
:105e000084cf520014003c006842520084cf5200fc
:105e10002400320009003c006c42520084cf520042
:105e20002e0032006b42420084cf520099003200b3
:105e3000e0cf520066053200b600370064c6b300fa
:105e400084cf52001f0032006342420084cf5200d0
:105e5000b0003a001300370034c7b30084cf5200bb
:105e60002200320007003c006442520084cf5200fe
:105e7000170032000442e80084cf5200a5003a0027
