:020000040000fa
:080000000002040000000000f2
:020000040000fa
:10000800600300006003000060030000600300005c
:10001800600300006003000060030000600300004c
:10002800600300006003000060030000600300003c
:10003800600300006003000060030000600300002c
:10004800600300006003000060030000600300001c
:10005800600300006003000060030000600300000c
:1000680060030000600300006003000060030000fc
:10007800d402000060030000600300006003000079
:1000880060030000600300006003000060030000dc
:1000980060030000fc020000600300006003000031
:1000a80060030000600300006003000060030000bc
:1000b80060030000600300006003000060030000ac
:1000c800600300006003000060030000600300009c
:1000d800600300006003000060030000600300008c
:1000e800600300006003000060030000600300007c
:1000f800600300006003000060030000600300006c
:10010800600300006003000060030000600300005b
:100118002203000060030000600300006003000089
:10012800600300006003000060030000600300003b
:10013800600300006003000060030000600300002b
:10014800600300006003000060030000600300001b
:10015800600300006003000060030000600300000b
:1001680060030000600300006003000060030000fb
:1001780060030000600300006003000060030000eb
:1001880060030000600300006003000060030000db
:1001980060030000600300006003000060030000cb
:1001a80060030000600300006003000060030000bb
:1001b80060030000600300006003000060030000ab
:1001c800600300006003000060030000600300009b
:1001d800600300006003000060030000600300008b
:1001e800600300006003000060030000600300007b
:0801f800600300006003000039
:020000040000fa
:10020800600300006003000060030000600300005a
:10021800600300006003000060030000600300004a
:10022800600300006003000060030000600300003a
:10023800600300006003000060030000600300002a
:10024800600300006003000060030000600300001a
:10025800600300006003000060030000600300000a
:1002680060030000600300006003000060030000fa
:10027800d402000060030000600300006003000077
:1002880060030000600300006003000060030000da
:1002980060030000fc02000060030000600300002f
:1002a80060030000600300006003000060030000ba
:1002b80060030000600300006003000060030000aa
:1002c800600300006003000060030000600300009a
:1002d800600300006003000060030000600300008a
:1002e800600300006003000060030000600300007a
:1002f800600300006003000060030000600300006a
:100308006003000060030000600300006003000059
:100318002203000060030000600300006003000087
:100328006003000060030000600300006003000039
:100338006003000060030000600300006003000029
:100348006003000060030000600300006003000019
:100358006003000060030000600300006003000009
:1003680060030000600300006003000060030000f9
:1003780060030000600300006003000060030000e9
:1003880060030000600300006003000060030000d9
:1003980060030000600300006003000060030000c9
:1003a80060030000600300006003000060030000b9
:1003b80060030000600300006003000060030000a9
:1003c8006003000060030000600300006003000099
:1003d8006003000060030000600300006003000089
:1003e8006003000060030000600300006003000079
:0803f800600300006003000037
:020000040000fa
:10040000af3424000e7f24000e018800000000009d
:1004100000012000200288000c00070080ae2200ae
:100420000100200011000700000020000000e00093
:10043000020032000000020000000000143f020031
:10044000000000000040da000000fe004440a90067
:10045000400120000000e000030032000000200006
:10046000a00188004440a800000006009101880017
:10047000800078000000eb0015003700e2804000ab
:1004800032a0b4009101ba00e280400032a0b40072
:100490009102ba00e280400032a0b4000002eb00fa
:1004a000472bde00f507b200602ce10004003a00a3
:1004b0000059eb008301e900fdff3e000400370016
:1004c0006128e100010032000082eb000400070017
:1004d0001101ba000200e000e8ff3a000000060047
:1004e0003159ba008301e9000c0032002159ba00e9
:1004f0008301e900080032000400e00003003a0034
:10050000e280400032a0b400f5ff370011d9ba00f4
:100510008301e900faff3a008100e800e180400031
:1005200032a0b40000000600a04e0400000000004d
:100530002a4f040000000000b0400400000000004a
:100540009c49040000000000364204000000000046
:10055000844c040000000000d04e040000000000a5
:100560003a4f04000000000028430400000000008f
:10057000f04c040000000000b44204000000000041
:10058000144d040000000000323d04000000000093
:10059000384d04000000000092320400000000000a
:1005a0005c4d040000000000841f78000000fa0089
:1005b0000002eb00341a8a00241a82000402e800c8
:1005c000241a8a00241a8200e70f52000200360023
:1005d0000002eb00241a8a00241a82000482ea0036
:1005e0004d22dd00841688008680a9000080fa0074
:1005f0004f02780000400600849fbe000000fa0011
:10060000a51680000420200004826200e00f520042
:1006100008003a00341a82000402e800341a8a0002
:10062000341a8200e90f5200020036000002eb008b
:10063000341a8a0087a0a9000080fa004f02be0089
:10064000004006003600f800809fbe00829fbe007a
:10065000849fbe00869fbe000200fa0084148000c2
:10066000040f7800241a820084007800e029240016
:1006700058240700341a8200040178008000eb003f
:10068000e02924006a2307000e0178008e0078001c
:10069000e0292400842307001e027800c414880087
:1006a0008b80a9000080fa004f03be004f02be00fd
:1006b0004f01be004f00be003600f90000400600aa
:1006c0000040da000000fe000001be004300070009
:1006d0000470a70003f0a1006509b1001600320004
:1006e0000d0035006828e10006003500f0ff2f00fe
:1006f000f1ff27000300e00013003b000100280089
:100700000000050000004000818048008502e900eb
:10071000fcff3a0008003700f88f420002003c005e
:100720008000eb00000005008100d1000080d300b4
:100730008502e800fcff3a000300e00002003b00f5
:1007400060001000e0801800000006006011b80092
:10075000370037000001be00200007000470a7002a
:1007600003f0a10003f8a30013003a006509b100eb
:1007700010003200090035006928e1000200350050
:1007800001002800000005000000400081804800b2
:100790008502e900fcff3a0000000600f88f4200e5
:1007a000050035008100d1000080d3008502e800fb
:1007b000fcff3a00000006008000eb00000005008e
:1007c000f4ff2f00490037000400200047003700e5
:1007d0004f89de00820178005f003700c70ade0023
:1007e000f107b200f50fb20008003200e1cf42007d
:1007f000020032000170a00024000500810f70008b
:10080000010032000408050044000500810f70005b
:1008100002003a00140005008502e90000004000d3
:1008200081c04800fcff3b000170a00024000500cf
:10083000889fbe008a9fbe00008270000402710083
:1008400004827100260032000004be000200be00d7
:100850006011b8006b092000950220000182cf00d2
:100860000a0039000541b1000082cf0007003900bd
:100870000541b1000982cf00040039000541b100f3
:100880000882cf00010039000541b1000542520045
:10089000120032000a003b00828171006101640095
:1008a0008100d1000080d3008984d3000884d30064
:1008b0008b05e8000442e800f7ff3a000700370024
:1008c0000804440089844c000000480081804800ee
:1008d0008b05e9000442e900f9ff3a002e00070009
:1008e0004f05be004f04be0000000600889fbe00fa
:1008f0008a9fbe00841f78004d0007004f007800db
:1009000011003300f0ff2f00838f6c0006003b00c6
:10091000040565000a00a7000800370009f0a600da
:100920001000200008003700820f5400838f5c0005
:10093000030039001000200001003e0000002000ec
:1009400009f0a7000000ea004f05be004f04be00fa
:100950000000e00000000600881f78000304780013
:100960000300e00007003d0060001000e080180078
:1009700060011900e081190002003b0001f02d0028
:1009800003003700aaff070008f0a70001f0a0004d
:100990004f047800000006008100200061805500af
:1009a0000b003d000b00200061fe2f000100e10064
:1009b0001d00340082817100610164008904d1004e
:1009c0000884d3000000e800faff3a00710020001c
:1009d0006100640003007000020060000900320042
:1009e00061044400e0844c000988a5000500320041
:1009f0008b05e8006808e10002003a008904d10094
:100a00000884d300f20f20000258e10005003d00e9
:100a1000c75ddd00f907b200898075000800780025
:100a2000000006000bf827008b007800000005008e
:100a30000004be0069ff07000003be000405be00fd
:100a40000200be0065ff0700844f7500000006002d
:100a500000017800810178000200e00006003a0001
:100a6000110020000118e10003003a000000eb0033
:100a70008000eb0000000600881f78000304780067
:100a80000300e000050034004210de00ce18dd0057
:100a900000817000c299de000400370005002400c8
:100aa00003abb9000229b800830143000002eb0048
:100ab0000380cf000000e00004003a000300e700dc
:100ac000000120008280cf000080400063005000c1
:100ad000f00010000112de008019dd0083017200b9
:100ae0000011dd0004002400048251004e11de00dc
:100af000c222dd00850071008102780005abb900db
:100b00000600280007b1b8008380500005bbb9007b
:100b10006655250007b1b8008380400005bbb900c9
:100b20000600240007b1b8008380500005bbb9005f
:100b30004633230007b1b8008380400005bbb900ed
:100b4000a6aa220007b1b8008380500005bbb900f7
:100b50002649220007b1b8008380400005bbb900d8
:100b60000600220007b1b8008380500005bbb90021
:100b700026c7210007b1b8008380400005bbb9003b
:100b8000a699210007b1b8008380500005bbb900c9
:100b90006674210007b1b80003814000f3ff2f0005
:100ba0006000e10013003a000800e0000300340098
:100bb0002472210004014100eb814900e4f2260087
:100bc0004f98de000413b8000419b80087034100f1
:100bd000608149000400b8000201400004002800c0
:100be0000403430060804b00e00049004f0478009c
:100bf000000006006100e10016003a0024172b00f7
:100c000004015100e08159000800e00003003400b5
:100c10002472210004014100eb814900e4f2260026
:100c20004f98de000413b8000419b8008703410090
:100c3000608149000400b80002014000040028005f
:100c40000403430060804b00e00049004f0478003b
:100c5000000006006200e10016003a00442e260063
:100c600004015100e18159000800e0000300340054
:100c70002472210004014100eb814900e4f22600c6
:100c80004f98de000413b8000419b8008703410030
:100c9000608149000400b8000201400004002800ff
:100ca0000403430060804b00e00049004f047800db
:100cb000000006006300e10016003a0064452100d0
:100cc00004015100e28159000800e00003003400f3
:100cd0002472210004014100eb814900e4f2260066
:100ce0004f98de000413b8000419b80087034100d0
:100cf000608149000400b80002014000040028009f
:100d00000403430060804b00e00049004f0478007a
:100d1000000006006400e10016003a00845c2c002c
:100d200004015100e28159000800e0000300340092
:100d30002472210004014100eb814900e4f2260005
:100d40004f98de000413b8000419b800870341006f
:100d5000608149000400b80002014000040028003e
:100d60000403430060804b00e00049004f0478001a
:100d7000000006006500e10016003a00a473270099
:100d800004015100e38159000800e0000300340031
:100d90002472210004014100eb814900e4f22600a5
:100da0004f98de000413b8000419b800870341000f
:100db000608149000400b8000201400004002800de
:100dc0000403430060804b00e00049004f047800ba
:100dd000000006006600e10016003a00d48a2200f6
:100de00004015100e48159000800e00003003400d0
:100df0002472210004014100eb814900e4f2260045
:100e00004f98de000413b8000419b80087034100ae
:100e1000608149000400b80002014000040028007d
:100e20000403430060804b00e00049004f04780059
:100e3000000006006700e10016003a00f4a12d0052
:100e400004015100e48159000800e000030034006f
:100e50002472210004014100eb814900e4f22600e4
:100e60004f98de000413b8000419b800870341004e
:100e7000608149000400b80002014000040028001d
:100e80000403430060804b00e00049004f047800f9
:100e9000000006006800e10016003a0024b92800ae
:100ea00004015100e58159000800e000030034000e
:100eb0002472210004014100eb814900e4f2260084
:100ec0004f98de000413b8000419b80087034100ee
:100ed000608149000400b8000201400004002800bd
:100ee0000403430060804b00e00049004f04780099
:100ef000000006006900e10016003a0044d023001b
:100f000004015100e68159000800e00003003400ac
:100f10002472210004014100eb814900e4f2260023
:100f20004f98de000413b8000419b800870341008d
:100f3000608149000400b80002014000040028005c
:100f40000403430060804b00e00049004f04780038
:100f5000000006006a00e10016003a0054e72e0087
:100f600004015100e68159000800e000030034004c
:100f70002472210004014100eb814900e4f22600c3
:100f80004f98de000413b8000419b800870341002d
:100f9000608149000400b8000201400004002800fc
:100fa0000403430060804b00e00049004f047800d8
:100fb000000006006b00e10016003a0074fe2900f4
:100fc00004015100e78159000800e00003003400eb
:100fd0002472210004014100eb814900e4f2260063
:100fe0004f98de000413b8000419b80087034100cd
:100ff000608149000400b80002014000040028009c
:101000000403430060804b00e00049004f04780077
:10101000000006006c00e10016003a00941525005f
:1010200004015100e88159000800e0000300340089
:101030002472210004014100eb814900e4f2260002
:101040004f98de000413b8000419b800870341006c
:10105000608149000400b80002014000040028003b
:101060000403430060804b00e00049004f04780017
:10107000000006006d00e10016003a00c42c2000bc
:1010800004015100e98159000800e0000300340028
:101090002472210004014100eb814900e4f22600a2
:1010a0004f98de000413b8000419b800870341000c
:1010b000608149000400b8000201400004002800db
:1010c0000403430060804b00e00049004f047800b7
:1010d000000006006e00e10016003a00e4432b0019
:1010e00004015100e98159000800e00003003400c8
:1010f0002472210004014100eb814900e4f2260042
:101100004f98de000413b8000419b80087034100ab
:10111000608149000400b80002014000040028007a
:101120000403430060804b00e00049004f04780056
:1011300000000600045b260004015100ea8159000a
:101140000800e00003003400247221000401410083
:10115000eb814900e4f226004f98de000413b8004a
:101160000419b80087034100608149000400b800f9
:1011700002014000040028000403430060804b008b
:10118000e00049004f047800000000000000060065
:1011900000017800010028000000eb000110e700ca
:1011a000000006004400f800881f780018002000a6
:1011b0000010e600f8ff2f00100a20004420b700be
:1011c0000890b90012002400030028000280e60005
:1011d00000805100f28b22000200e10023003d005c
:1011e00084482600800278001301c0008206cc00eb
:1011f00050bb2600f1ff27000110e7004400370034
:10120000b0442900110028000110e600400037001a
:101210000293b9004f33de00c13bdd00870173004c
:10122000c119dd000312b9005155250001abb90009
:10123000c1bbde0007005100032ab900414424006d
:1012400001abb900c5bbde0007004000032ab900ae
:101250007180260001abb900054020008583430062
:10126000cbbbde000700500029003700030024003c
:1012700080825100844826001301c0008506cc00fe
:1012800011f02f00f20f20000128e10004003500ca
:101290000228e10002003c00f0ff27001c0037009c
:1012a0000501780001002800905224000110e70099
:1012b00000000600f1ff2700f0ff27000292b900ae
:1012c0004f22de00c12add00050272004122dd004e
:1012d00001a1b80007002800071bb9000700500053
:1012e00003a1b800b7aa2000071bb90007004000ff
:1012f00003a1b800b7052000071bb9000700500084
:1013000003a1b80027002000071bb9000700400018
:101310000880b9004f0478004400f900000006007e
:101320004f0ade008102780001f0a10003f82300db
:101330000118e10004003c00000028000400a600a1
:10134000f0ff270000000600850078000200200062
:1013500003702400f4260200000000006403020071
:1013600000000000000006000100400003003800fb
:10137000000028004200ae00f0ff27000000060039
:101380000000e00006003a00020028000110e10021
:1013900003003a008180ea000080ea0000000600b5
:1013a000f2ff2f000192b9000010b9008100420045
:1013b00000000600889fbe008a9fbe008c9fbe0072
:1013c000cf8bde004f9bde000204b8000306b8009e
:1013d0008904460060854e000606b8000a054600ee
:1013e000e0854e000606b8008b054600020eb800e8
:1013f000890446000a854e00e0854d00030eb800c2
:101400000a0546008b854e00060eb8008b05460087
:10141000023eb8000a0546008b854e00033eb80028
:101420008b054600023eb8008b0546000b00e0002d
:1014300002003a000af0a300150039000af0a600e5
:1014400020003700e18545000b00e0001d003a0058
:1014500005f0a600080037000480440085004d0018
:1014600001f0a600230037004f06be004f05be0066
:101470004f04be00000006000480440085004d00bb
:101480004f06be004f05be004f04be000000060020
:1014900005f0a700f8ff37000480440085004d00e8
:1014a000e0854d000b00e00006003a0001f0a700c7
:1014b000040037004f06be004f05be004f04be00bb
:1014c000000006000bf0a7000a003700f0ff2f0015
:1014d000f1ff27004f06be004f05be004f04be00bf
:1014e000000006004f06be004f05be004f04be00c0
:1014f0000000060000002000010028004f06be008a
:101500004f05be004f04be00000006000002eb00c5
:1015100001f0a30003003900f0ff2f00f1ff2f00be
:10152000000006000490e700050037000498e7007b
:10153000030037000000eb0011002000000006004f
:101540000480e70006003700150020000588e7004a
:10155000030037000000eb0011002000000006002f
:101560000002eb000480e700050037000488e70074
:10157000030037000000eb008000eb0000000600d5
:1015800003f0a600310037000100e000090032003e
:101590006108e10003003a00050028000500e100b1
:1015a00004003900829fbe00750707004f01be008e
:1015b0001a0037000100e0000b003a0005d82e00a9
:1015c0000500e10008003100cf08dd00c102de00a7
:1015d000858070004f00dd00829fbe00fc05070083
:1015e0004f01be000d003700ce08dd00c202de0054
:1015f000858070004e00dd0061004000e080480002
:10160000829fbe00f20507004f01be004100de00d0
:10161000cf0add0005007000c108de000200e00016
:1016200006003a00050028000328e10003003a0004
:101630008381ea000281ea0004003700f6ff2f00f0
:1016400003b2b9000231b900830142000002eb008d
:101650000490e70003003700150020000518e7009c
:10166000000006004400f800889fbe008a9fbe006c
:101670008c9fbe00030678008001eb00809fbe00b7
:101680002d0907004f01be00809fbe000300e0004f
:101690003a033200240020000498e600f9023700e3
:1016a0000300e00003003200044c2d000410e100b0
:1016b000f4023100a405200084874700e4012000e3
:1016c0008483570004f02f00f5ff2f00f607200059
:1016d00009000800020000008413780085137800d8
:1016e000861378008f0378008213780083137800c4
:1016f0000002eb0084137800e4874700829fbe005d
:1017000002007800830078004f89de000004b800f2
:101710000102b8008904420060854a000202b80054
:101720000a054200e0854a008b054200000ab80025
:10173000890442000a854a00e0854d00010ab8008c
:101740000a0542008b854a00020ab8008b05420058
:101750008b0542000012b8000a0542008b854a0042
:101760008b0542000408200004044400e0844c007f
:1017700060054d00e0854d004844de00484add002c
:1017800004007400c84cde004852dd008480740000
:101790004855de00485add000401750080137800ca
:1017a0008113780082137800cf91de000004b80026
:1017b0000102b8008904420060854a000202b800b4
:1017c0000a054200e0854a008b054200000ab80085
:1017d000890442000a854a00e0854d00010ab800ec
:1017e0000a0542008b854a00020ab8008b054200b8
:1017f0008b0542000012b8000a0542008b854a00a2
:101800008b054200040820008484440060054d00dc
:10181000e0854d00c84cde004852dd0004807400b5
:101820004855de00485add008400750048d9de00c6
:10183000801378008113780082137800cf91de0046
:101840000004b8000102b8008904420060854a0023
:101850000202b8000a054200e0854a008b054200fa
:10186000000ab800890442000a854a00e0854d005c
:10187000010ab8000a0542008b854a00020ab80036
:101880008b0542008b0542000012b8000a05420099
:101890008b854a008b0542000408200084844400a4
:1018a00060054d00e0854d00c84cde004852dd006b
:1018b000048074004855de00485add00840075003d
:1018c00048d9de00801378008113780082137800f5
:1018d000cf91de000004b8000102b8008904420084
:1018e00060854a000202b8000a054200e0854a000d
:1018f0008b054200000ab800890442000a854a00ac
:10190000e0854d00010ab8000a0542008b854a00b7
:10191000020ab8008b0542008b0542000012b80095
:101920000a0542008b854a008b054200040820000e
:101930008484440060054d00e0854d00c84cde0005
:101940004852dd00048074004855de00485add002e
:101950008400750048d9de00801378008113780078
:10196000821378004f02be00e48757002600200053
:1019700006a8e600e70137000500e000030032009a
:10198000a62126000620e100e2013100e48747009d
:10199000849fbe00cf91de000004b8000102b800b1
:1019a0008904420060854a000202b8000a0542002c
:1019b000e0854a008b054200000ab8008904420015
:1019c0000a854a00e0854d00010ab8000a05420078
:1019d0008b854a00020ab8008b0542008b05420045
:1019e0000012b8000a0542008b854a008b054200b0
:1019f000040820008484440060054d00e0854d000b
:101a0000c84cde004852dd00048074004855de00fa
:101a1000485add008400750048d9de008013780044
:101a200081137800821378004f02be00e4875700cc
:101a30002600200006a8e600b60137000500e000f9
:101a40000300320096d222000620e100b1013100ed
:101a5000e4874700849fbe00cf91de000004b800f9
:101a60000102b8008904420060854a000202b80001
:101a70000a054200e0854a008b054200000ab800d2
:101a8000890442000a854a00e0854d00010ab80039
:101a90000a0542008b854a00020ab8008b05420005
:101aa0008b0542000012b8000a0542008b854a00ef
:101ab0008b054200040820008484440060054d002a
:101ac000e0854d00c84cde004852dd000480740003
:101ad0004855de00485add008400750048d9de0014
:101ae0008013780081137800821378004f02be00c3
:101af000e48757002600200006a8e600850137008d
:101b00000500e00003003200865a21000620e100b3
:101b100080013100e4874700849fbe00cf91de0042
:101b20000004b8000102b8008904420060854a0040
:101b30000202b8000a054200e0854a008b05420017
:101b4000000ab800890442000a854a00e0854d0079
:101b5000010ab8000a0542008b854a00020ab80053
:101b60008b0542008b0542000012b8000a054200b6
:101b70008b854a008b0542000408200084844400c1
:101b800060054d00e0854d00c84cde004852dd0088
:101b9000048074004855de00485add00840075005a
:101ba00048d9de0080137800811378008213780012
:101bb0004f02be00e48757002600200006a8e6007a
:101bc000540137000500e00003003200d6a92000d0
:101bd0000620e1004f013100e4874700849fbe00ea
:101be000cf91de000004b8000102b8008904420071
:101bf00060854a000202b8000a054200e0854a00fa
:101c00008b054200000ab800890442000a854a0098
:101c1000e0854d00010ab8000a0542008b854a00a4
:101c2000020ab8008b0542008b0542000012b80082
:101c30000a0542008b854a008b05420004082000fb
:101c40008484440060054d00e0854d00c84cde00f2
:101c50004852dd00048074004855de00485add001b
:101c60008400750048d9de00801378008113780065
:101c7000821378004f02be00e48757002600200040
:101c800006a8e600230137000500e000030032004b
:101c90001654200006a0e6001e013700e487470026
:101ca000849fbe00cf91de000004b8000102b8009e
:101cb0008904420060854a000202b8000a05420019
:101cc000e0854a008b054200000ab8008904420002
:101cd0000a854a00e0854d00010ab8000a05420065
:101ce0008b854a00020ab8008b0542008b05420032
:101cf0000012b8000a0542008b854a008b0542009d
:101d0000040820008484440060054d00e0854d00f7
:101d1000c84cde004852dd00048074004855de00e7
:101d2000485add008400750048d9de008013780031
:101d300081137800821378004f02be00e4875700b9
:101d40002600200006a8e600f20037000500e000ab
:101d500003003200d62920000620e100ed0031000a
:101d6000e4874700849fbe00cf91de000004b800e6
:101d70000102b8008904420060854a000202b800ee
:101d80000a054200e0854a008b054200000ab800bf
:101d9000890442000a854a00e0854d00010ab80026
:101da0000a0542008b854a00020ab8008b054200f2
:101db0008b0542000012b8000a0542008b854a00dc
:101dc0008b054200040820008484440060054d0017
:101dd000e0854d00c84cde004852dd0004807400f0
:101de0004855de00485add008400750048d9de0001
:101df0008013780081137800821378004f02be00b0
:101e0000e48757002600200006a8e600c10037003e
:101e10000500e00003003200e61420000620e10087
:101e2000bc003100e4874700849fbe00cf91de00f4
:101e30000004b8000102b8008904420060854a002d
:101e40000202b8000a054200e0854a008b05420004
:101e5000000ab800890442000a854a00e0854d0066
:101e6000010ab8000a0542008b854a00020ab80040
:101e70008b0542008b0542000012b8000a054200a3
:101e80008b854a008b0542000408200084844400ae
:101e900060054d00e0854d00c84cde004852dd0075
:101ea000048074004855de00485add008400750047
:101eb00048d9de00801378008113780082137800ff
:101ec0004f02be00e48757002600200006a8e60067
:101ed000900037000500e00003003200760a200081
:101ee0000620e1008b003100e4874700849fbe009c
:101ef000cf91de000004b8000102b800890442005e
:101f000060854a000202b8000a054200e0854a00e6
:101f10008b054200000ab800890442000a854a0085
:101f2000e0854d00010ab8000a0542008b854a0091
:101f3000020ab8008b0542008b0542000012b8006f
:101f40000a0542008b854a008b05420004082000e8
:101f50008484440060054d00e0854d00c84cde00df
:101f60004852dd00048074004855de00485add0008
:101f70008400750048d9de00801378008113780052
:101f8000821378004f02be00e4875700260020002d
:101f900006a8e6005f0037000500e00003003200fd
:101fa000460520000620e1005a003100e487470082
:101fb000849fbe00cf91de000004b8000102b8008b
:101fc0008904420060854a000202b8000a05420006
:101fd000e0854a008b054200000ab80089044200ef
:101fe0000a854a00e0854d00010ab8000a05420052
:101ff0008b854a00020ab8008b0542008b0542001f
:102000000012b8000a0542008b854a008b05420089
:10201000040820008484440060054d00e0854d00e4
:10202000c84cde004852dd00048074004855de00d4
:10203000485add008400750048d9de00801378001e
:1020400081137800821378004f02be00e4875700a6
:102050002600200006a8e6002e0037000500e0005c
:1020600003003200a60220000620e1002900310012
:10207000e4874700849fbe00cf91de000004b800d3
:102080000102b8008904420060854a000202b800db
:102090000a054200e0854a008b054200000ab800ac
:1020a000890442000a854a00e0854d00010ab80013
:1020b0000a0542008b854a00020ab8008b054200df
:1020c0008b0542000012b8000a0542008b854a00c9
:1020d0008b054200040820008484440060054d0004
:1020e000e0854d00c84cde004852dd0004807400dd
:1020f0004855de00485add008400750048d9de00ee
:102100008013780081137800821378004f02be009c
:10211000e48757008f037800e683530007037800b5
:102120000d0008000c00000027017800a7017800ce
:1021300027027800c814de00c81add00058074008c
:10214000481dde00c822dd008500750048a1de00c4
:102150000013780001137800021378008f037800d1
:102160004405200084855300040020001500200051
:102170000003eb008003eb00ea0020000e000800e3
:102180003e000000e6854500100020000a00dd004a
:102190000c00e10037003c0000065600e8874700cd
:1021a0008c9fbe00e681550023007800a3007800d4
:1021b000230178008a9fbe00cf91de000404b8009e
:1021c0000506b8008904460060854e000606b80082
:1021d0000a054600e0854e000706b8008b0546005c
:1021e000040eb800890446000a854e00e0854d00c3
:1021f000050eb8000a0546008b854e00060eb80095
:102200008b0546000416b8000a0546008b854e0073
:102210000516b8008b0546000416b8008b0546006d
:102220000c0028000c02440060824c00e0024d00cb
:1022300060834d00cfb3de004f05be004f06be00e9
:10224000e88757000700e00004003a000600e000bd
:1022500002003a0005f0a30006003900f4ff2f0049
:10226000f5ff27004560a8000003eb008003eb00aa
:10227000a0023700000000000000000061055500ca
:102280009c0237000200780083007800580120008b
:1022900008e0e6004c012000610456000400200024
:1022a000150020000003eb008003eb000c00e000b1
:1022b00092023200088008002e0000004f89de00e4
:1022c0000404b8000506b8008904460060854e0085
:1022d0000606b8000a054600e0854e000706b8006d
:1022e0008b054600040eb800890446000a854e009e
:1022f000e0854d00050eb8000a0546008b854e00ae
:10230000060eb8008b0546000416b8000a05460004
:102310008b854e000516b8008b0546000416b800e4
:102320008b0546000c0028000c02440060824c0023
:10233000e0024d0060834d00cfb3de000700e000f7
:1023400004003a000600e00002003a0005f0a30095
:1023500008003900f4ff2f00f5ff27004560a800b2
:102360000003eb008003eb00640237000000000074
:10237000000000000000000060023700a4052000fb
:10238000848747008f0378008213780083137800d6
:102390000002eb00841378000200780083007800cc
:1023a0004f89de000004b8000102b8008904420031
:1023b00060854a000202b8000a054200e0854a0032
:1023c0008b054200000ab800890442000a854a00d1
:1023d000e0854d00010ab8000a0542008b854a00dd
:1023e000020ab8008b0542008b0542000012b800bb
:1023f0000a0542008b854a008b05420061044400b7
:10240000e0844c0060054d00e0854d004140de0059
:102410004f4add0004007000c148de004f52dd006d
:10242000848070004151de004f5add0004017100cc
:10243000801378008113780082137800cf91de003a
:102440000004b8000102b8008904420060854a0017
:102450000202b8000a054200e0854a008b054200ee
:10246000000ab800890442000a854a00e0854d0050
:10247000010ab8000a0542008b854a00020ab8002a
:102480008b0542008b0542000012b8000a0542008d
:102490008b854a008b0542000400280084844c0090
:1024a00060054d00e0854d004f48de004152dd00e3
:1024b00004007000cf50de00415add0084807000bf
:1024c0004fd9de00801378008113780082137800e2
:1024d000cf91de000004b8000102b8008904420078
:1024e00060854a000202b8000a054200e0854a0001
:1024f0008b054200000ab800890442000a854a00a0
:10250000e0854d00010ab8000a0542008b854a00ab
:10251000020ab8008b0542008b0542000012b80089
:102520000a0542008b854a008b0542000400280002
:1025300084844c0060054d00e0854d004f48de006e
:102540004152dd0004007000cf50de00415add0032
:10255000848070004fd9de008013780081137800ea
:1025600082137800cf91de000004b8000102b800a9
:102570008904420060854a000202b8000a05420050
:10258000e0854a008b054200000ab8008904420039
:102590000a854a00e0854d00010ab8000a0542009c
:1025a0008b854a00020ab8008b0542008b05420069
:1025b0000012b8000a0542008b854a008b054200d4
:1025c0000400280084844c0060054d00e0854d0027
:1025d0004f48de004152dd0004007000cf50de00a5
:1025e000415add00848070004fd9de0080137800ee
:1025f0008113780082137800cf91de000004b800c8
:102600000102b8008904420060854a000202b80055
:102610000a054200e0854a008b054200000ab80026
:10262000890442000a854a00e0854d00010ab8008d
:102630000a0542008b854a00020ab8008b05420059
:102640008b0542000012b8000a0542008b854a0043
:102650008b0542000400280084844c0060054d0076
:10266000e0854d004f48de004152dd00040070005f
:10267000cf50de00415add00848070004fd9de006b
:10268000801378008113780082137800cf91de00e8
:102690000004b8000102b8008904420060854a00c5
:1026a0000202b8000a054200e0854a008b0542009c
:1026b000000ab800890442000a854a00e0854d00fe
:1026c000010ab8000a0542008b854a00020ab800d8
:1026d0008b0542008b0542000012b8000a0542003b
:1026e0008b854a008b0542000400280084844c003e
:1026f00060054d00e0854d004f48de004152dd0091
:1027000004007000cf50de00415add00848070006c
:102710004fd9de008013780081137800821378008f
:10272000cf91de000004b8000102b8008904420025
:1027300060854a000202b8000a054200e0854a00ae
:102740008b054200000ab800890442000a854a004d
:10275000e0854d00010ab8000a0542008b854a0059
:10276000020ab8008b0542008b0542000012b80037
:102770000a0542008b854a008b05420004002800b0
:1027800084844c0060054d00e0854d004f48de001c
:102790004152dd0004007000cf50de00415add00e0
:1027a000848070004fd9de00801378008113780098
:1027b00082137800cf91de000004b8000102b80057
:1027c0008904420060854a000202b8000a054200fe
:1027d000e0854a008b054200000ab80089044200e7
:1027e0000a854a00e0854d00010ab8000a0542004a
:1027f0008b854a00020ab8008b0542008b05420017
:102800000012b8000a0542008b854a008b05420081
:102810000400280084844c0060054d00e0854d00d4
:102820004f48de004152dd0004007000cf50de0052
:10283000415add00848070004fd9de00801378009b
:102840008113780082137800cf91de000004b80075
:102850000102b8008904420060854a000202b80003
:102860000a054200e0854a008b054200000ab800d4
:10287000890442000a854a00e0854d00010ab8003b
:102880000a0542008b854a00020ab8008b05420007
:102890008b0542000012b8000a0542008b854a00f1
:1028a0008b0542000400280084844c0060054d0024
:1028b000e0854d004f48de004152dd00040070000d
:1028c000cf50de00415add00848070004fd9de0019
:1028d000801378008113780082137800cf91de0096
:1028e0000004b8000102b8008904420060854a0073
:1028f0000202b8000a054200e0854a008b0542004a
:10290000000ab800890442000a854a00e0854d00ab
:10291000010ab8000a0542008b854a00020ab80085
:102920008b0542008b0542000012b8000a054200e8
:102930008b854a008b0542000400280084844c00eb
:1029400060054d00e0854d004f48de004152dd003e
:1029500004007000cf50de00415add00848070001a
:102960004fd9de008013780081137800821378003d
:10297000cf91de000004b8000102b80089044200d3
:1029800060854a000202b8000a054200e0854a005c
:102990008b054200000ab800890442000a854a00fb
:1029a000e0854d00010ab8000a0542008b854a0007
:1029b000020ab8008b0542008b0542000012b800e5
:1029c0000a0542008b854a008b054200040028005e
:1029d00084844c0060054d00e0854d004f48de00ca
:1029e0004152dd0004007000cf50de00415add008e
:1029f000848070004fd9de00801378008113780046
:102a000082137800cf91de000004b8000102b80004
:102a10008904420060854a000202b8000a054200ab
:102a2000e0854a008b054200000ab8008904420094
:102a30000a854a00e0854d00010ab8000a054200f7
:102a40008b854a00020ab8008b0542008b054200c4
:102a50000012b8000a0542008b854a008b0542002f
:102a60000400280084844c0060054d00e0854d0082
:102a70004f48de004152dd0004007000cf50de0000
:102a8000415add00848070004fd9de008013780049
:102a90008113780082137800cf91de000004b80023
:102aa0000102b8008904420060854a000202b800b1
:102ab0000a054200e0854a008b054200000ab80082
:102ac000890442000a854a00e0854d00010ab800e9
:102ad0000a0542008b854a00020ab8008b054200b5
:102ae0008b0542000012b8000a0542008b854a009f
:102af0008b0542000400280084844c0060054d00d2
:102b0000e0854d004f48de004152dd0004007000ba
:102b1000cf50de00415add00848070004fd9de00c6
:102b2000801378008113780082137800cf91de0043
:102b30000004b8000102b8008904420060854a0020
:102b40000202b8000a054200e0854a008b054200f7
:102b5000000ab800890442000a854a00e0854d0059
:102b6000010ab8000a0542008b854a00020ab80033
:102b70008b0542008b0542000012b8000a05420096
:102b80008b854a008b0542000400280084844c0099
:102b900060054d00e0854d004f48de004152dd00ec
:102ba00004007000cf50de00415add0084807000c8
:102bb0004fd9de00801378008113780082137800eb
:102bc0008f037800e6835300070378000d000800a8
:102bd0000c00000027017800a70178002702780088
:102be000cf14de00c11add00058074004f1dde0029
:102bf000c122dd00850075004fa1de0000137800c2
:102c000001137800021378008f0378004405200038
:102c10008485530004002000150020000003eb0011
:102c20008003eb00ea0020000e00080030000000e6
:102c3000e6854500100020000a00dd000c00e100e0
:102c40002b003c0000065600e6815500e88747004f
:102c50008c9fbe0023007800a30078002301780039
:102c60008a9fbe00cf91de000404b8000506b800bc
:102c70008904460060854e000606b8000a05460035
:102c8000e0854e000706b8008b054600040eb8002c
:102c9000890446000a854e00e0854d00050eb80007
:102ca0000a0546008b854e00060eb8008b054600cf
:102cb0000416b8000a0546008b854e000516b800bc
:102cc0008b0546000416b8008b0546000c00280052
:102cd0000c02440060824c00e0024d0060834d0015
:102ce000cfb3de004f05be004f06be00e887570099
:102cf00061055500a2052000828757004f00be00e5
:102d00004f89de000404b8000506b80089044600b7
:102d100060854e000606b8000a054600e0854e00b4
:102d20000706b8008b054600040eb800890446006b
:102d30000a854e00e0854d00050eb8000a054600e4
:102d40008b854e00060eb8008b0546000416b800b1
:102d50000a0546008b854e000516b8008b05460017
:102d60000416b8008b054600040028000404440043
:102d7000e0844c0060054d00e0854d0009007800be
:102d80008a0078000b00e00002003a000af0a3007d
:102d900005003900f0ff2f00f1ff27000200370087
:102da000a2052000828757004f06be004f05be00d7
:102db0004f04be004400f900000006000100280096
:102dc0000000ea000100e7000080ea0000000600c1
:102dd00000027800810278000000e00010003a0054
:102de000020028008101780000002800cf80de006a
:102df0000218e70000000600f2ff2700000028008c
:102e00008000eb000218e70000000600f0ff2f0032
:102e1000f1ff27000001eb000218e70000000600a8
:102e2000889fbe008a9fbe008c9fbe000400780071
:102e3000850078001800200001f0a300040039008c
:102e4000f8ff2f0001c2b9000040b9008100420024
:102e5000881f7800809fbe008181cf000300e000c2
:102e600004003a000118e700030120000081cf00b0
:102e700083014100e28151007018e10008003c002c
:102e80000300e00009003200708111000202de0040
:102e90008308dd00848070000300dd00030037003c
:102ea000708151008200dd000000eb00831f78007c
:102eb000050028000002eb000001520081815a0049
:102ec000858041000414b8000516b8008904460046
:102ed00060854e008005eb00040eb80089044600b2
:102ee0000a854e00e0854d00050eb8000a05460033
:102ef0008b854e004f48de00c150dd00010370009d
:102f00004f50de00c158dd00810370000214b8008c
:102f10000316b8008904460060854e008005eb006a
:102f2000890446000a854e00e0854d00031eb80066
:102f30000a0546008b854e004f48de00c150dd007b
:102f4000010170004f50de00c158dd0081017000aa
:102f500000002800808041000614b8000716b80061
:102f60008904460060854e008005eb00060eb8001f
:102f7000890446000a854e00e0854d00070eb80022
:102f80000a0546008b854e004f48de00c150dd002b
:102f9000010370004f50de00c158dd008103700056
:102fa0000214b8000316b8008904460060854e007c
:102fb0008005eb00890446000a854e00e0854d003f
:102fc000031eb8000a0546008b854e004f48de0000
:102fd000c150dd00010170004f50de00c158dd001e
:102fe0008101700000002800808041000614b800b4
:102ff0000716b8008904460060854e008005eb0086
:10300000060eb800890446000a854e00e0854d0092
:10301000070eb8000a0546008b854e004f48de00bb
:10302000c150dd00010370004f50de00c158dd00cb
:10303000810370000214b8000316b800890446002a
:1030400060854e008005eb00890446000a854e002d
:10305000e0854d00031eb8000a0546008b854e0032
:103060004f48de00c150dd00010170004f50de000e
:10307000c158dd00810170000000280080804100ff
:103080000614b8000716b8008904460060854e0093
:103090008005eb00060eb800890446000a854e0044
:1030a000e0854d00070eb8000a0546008b854e00ee
:1030b0004f48de00c150dd00010370004f50de00bc
:1030c000c158dd00810370000214b8000316b80077
:1030d0008904460060854e008005eb0089044600a7
:1030e0000a854e00e0854d00031eb8000a05460023
:1030f0008b854e004f48de00c150dd00010170009d
:103100004f50de00c158dd00810170000000280032
:10311000808041000614b8000716b80089044600f4
:1031200060854e008005eb00060eb800890446005d
:103130000a854e00e0854d00070eb8000a054600de
:103140008b854e004f48de00c150dd00010370004a
:103150004f50de00c158dd00810370000214b8003a
:103160000316b8008904460060854e008005eb0018
:10317000890446000a854e00e0854d00031eb80014
:103180000a0546008b854e004f48de00c150dd0029
:10319000010170004f50de00c158dd008101700058
:1031a00000002800808041000614b8000716b8000f
:1031b0008904460060854e008005eb00060eb800cd
:1031c000890446000a854e00e0854d00070eb800d0
:1031d0000a0546008b854e004f48de00c150dd00d9
:1031e000010370004f50de00c158dd008103700004
:1031f0000214b8000316b8008904460060854e002a
:103200008005eb00890446000a854e00e0854d00ec
:10321000031eb8000a0546008b854e004f48de00ad
:10322000c150dd00010170004f50de00c158dd00cb
:103230008101700000002800808041000614b80061
:103240000716b8008904460060854e008005eb0033
:10325000060eb800890446000a854e00e0854d0040
:10326000070eb8000a0546008b854e004f48de0069
:10327000c150dd00010270004f50de00c158dd007a
:1032800081027000cf017800120020007018e10068
:1032900004003c00f08011008110de000310dd000e
:1032a00003003700f08051008110dd000000eb00ca
:1032b0004f89de00820178000404b8000506b800da
:1032c0008904460060854e00040eb800890446005b
:1032d0000a854e00050eb8000a0546000416b8001f
:1032e0000a054600e00546004f02be004e22de0001
:1032f000422edd000c027200ce2ade0057002000b4
:103300000500e00002003a000720e100050035005a
:103310000700240007044400e0844c0060054d00d1
:10332000e0854d004f40de00414add0004007000a2
:10333000cf48de004152dd00848070004f51de0036
:10334000415add00040171000200e00002003a0071
:1033500001f0a30002003900f0ff2f00f1ff270069
:103360004f04780001c2b9000040b900810042005a
:103370004f06be004f05be004f04be000000060011
:1033800000027800810278000000e00010003a009e
:103390000200280081017800e0ff2f00cf80de00ce
:1033a0000218e70000000600f2ff270020002000be
:1033b000cf80de000218e70000000600f0ff2f00bb
:1033c000f1ff27000001eb000218e70000000600f3
:1033d0000400780085007800889fbe001800200057
:1033e00001f0a30004003900f8ff2f0001c2b9006a
:1033f0000040b90081004200881f78000001780079
:10340000810178000300e00014003a00140020005d
:103410000220e10007003a00f0ff2f00f1ff270033
:1034200001c2b9000040b900810042004f04be0053
:1034300000000600240020000220e10007003a00fe
:10344000f0ff2f00f1ff270001c2b9000040b900d2
:10345000810042004f04be00000006008181cf00c1
:103460000300e00004003a000118e7000301200017
:103470000081cf0083014100e28151007018e1001a
:1034800005003c00708111000202de008308dd00af
:103490008480700002003700708151008200dd00de
:1034a00004002800810252006118e100830034000a
:1034b0008a9fbe008c9fbe000000220006002800ec
:1034c000050343000625b8004f55de00c15ddd0051
:1034d0000b027500052db80000054500e0854d0084
:1034e0004e55de00c25ddd008b027500e0834200b8
:1034f0000725b8006126b9008c8545000b027800cd
:10350000052db800e1854500c1dade000000240089
:1035100006002800850343000725b8004230de007e
:1035200000054500e0854d004f55de00c15ddd0022
:103530000b027500052db80000e0230000054500d2
:10354000e0854d004f55de00c15ddd008b0275004a
:10355000850343000725b8004f52de00415cdd00c3
:10356000080272004f5cde0000002400052db80048
:1035700000054500e0854d004f55de00c15ddd00d2
:103580008b02750085034300043db80008beb900f6
:103590008c8545004f52de00415cdd000802720060
:1035a0004f5cde00052db80000054500e0854d00ac
:1035b0004f55de00c15ddd008b02750085034300c1
:1035c000043db80008beb9008c8545004f52de00ae
:1035d000415cdd00080272004f5cde00052db80082
:1035e00000054500e0854d004f55de00c15ddd0062
:1035f0008b02750085034300043db80008beb90086
:103600008c8545004f52de00415cdd0008027200ef
:10361000cf5ade00120020007018e10004003c00c8
:10362000f08011008110de000310dd000300370080
:10363000f08051008110dd000000eb004f89de00ba
:10364000820178004fabde00860378000404b800e6
:103650000506b8008904460060854e000606b800dd
:103660000a054600040eb800890446000a854e008b
:10367000050eb8000a0546000416b8000a05460003
:103680008b0546004e40de00424add00040070001b
:10369000ce48de004252dd00848070004f06be003e
:1036a0004f05be004f04780001c2b9000040b900c8
:1036b000810042004f04be00000006000300e0004d
:1036c0007c0034008a9fbe008c9fbe000000220058
:1036d00006002800850343000725b8004f55de008b
:1036e000c15ddd000b027500052db8000005450029
:1036f000e0854d004e55de00c25ddd008b02750099
:10370000e08342000725b8006126b9008c8545009a
:103710000b027800052cb80006044400e0844c003d
:10372000c1cade004100dd00060028008503430019
:103730000725b8004f55de00c15ddd000b027500a6
:10374000052db80000054500e0854d004f55de0011
:10375000c15ddd008b027500850343000725b800bd
:103760004f55de00c15ddd000b027500052db80070
:1037700000054500e0854d004f55de00c15ddd00d0
:103780008b027500850343000725b8004f52de0009
:10379000415cdd00080272004f5cde00052db800c0
:1037a00000054500e0854d004f55de00c15ddd00a0
:1037b0008b02750085034300043db80008beb900c4
:1037c0008c8545004f52de00415cdd00080272002e
:1037d0004f5cde00052db80000054500e0854d007a
:1037e0004f55de00c15ddd008b027500850343008f
:1037f000043db80008beb9008c8545004f52de007c
:10380000415cdd0008027200cf5ade001200200089
:103810007018e10004003c00f08011008110de000f
:103820000310dd0003003700f08051008110dd003f
:103830000000eb004f89de00820178004fabde0014
:10384000860378000404b8000506b8008904460021
:1038500060854e000606b8000a054600040eb80052
:10386000890446000a854e00050eb8000a05460088
:103870000416b8000a0546008b0546004e40de00df
:10388000424add0004007000ce48de004252dd00f6
:10389000848070004f06be004f05be004f047800c4
:1038a00001c2b9000040b900810042004f04be00cf
:1038b000000006008a9fbe008c9fbe00000024000e
:1038c00006002800850343000725b8004f55de0099
:1038d000c15ddd000b027500052db8000005450037
:1038e000e0854d004f55de00c15ddd008b027500a7
:1038f000850343000725b8004f55de00c15ddd009c
:103900000b027500052db80000054500e0854d004f
:103910004f55de00c15ddd008b027500850343005d
:103920000725b8004f55de00c15ddd000b027500b4
:10393000052db80000054500e0854d004f55de001f
:10394000c15ddd008b027500850343000725b800cb
:103950004f55de00c15ddd000b027500052db8007e
:1039600000054500e0854d004f55de00c15ddd00de
:103970008b0275000004eb00850343000725b800a7
:103980004f52de00415cdd00080272004f5cde0039
:10399000052db80000054500e0854d004f55de00bf
:1039a000c15ddd008b02750085034300043db80056
:1039b00008beb9008c8545004f52de00415cdd0039
:1039c000080272004f5cde00052db80000054500be
:1039d000e0854d004f55de00c15ddd008b027500b6
:1039e00085034300043db80008beb9008c8545003e
:1039f0004f52de00415cdd0008027200cf5ade004b
:103a0000120020007018e10004003c00f08011005a
:103a10008110de000310dd0003003700f08051004c
:103a20008110dd000000eb004f89de00820178008c
:103a30004fabde00860378000404b8000506b8002a
:103a40008904460060854e000606b8000a05460057
:103a5000040eb800890446000a854e00050eb80021
:103a60000a0546000416b8000a0546008b05460004
:103a70004e40de00424add0004007000ce48de0009
:103a80004252dd00848070004f06be004f05be002c
:103a90004f04780001c2b9000040b9008100420023
:103aa0004f04be000000060000800000000000007f
:103ab000f15b000001000000cdb100000300000038
:103ac000f30a00000a000000904c00001b000000f8
:103ad000e23400004a000000e3b60000c900000024
:103ae0000b510000240200009f7a0000d205000064
:103af000be8a0000d30f00009f3b0000052b000092
:103b000024120000f1740000000000002d5e00008f
:103b1000a5220000bf0c0000b0040000ba010000a4
:103b2000a20000003c000000160000000800000099
:103b300003000000010000004400f800889fbe0060
:103b40008a9fbe008c9fbe004400a800010478003c
:103b5000829fbe000100e000050034004103de004a
:103b6000cf0bdd0006827300c18ade00040037003f
:103b70000700280001bcb900003ab80085024400e3
:103b80000580cf000000e00004003a000500e700d7
:103b9000000120008480cf000080400062005000bf
:103ba000f00010008123de008029dd008381730096
:103bb0000021dd0004002800048251008402780006
:103bc0000280ca005080c80002f0a7008502e80009
:103bd0000500ca000000cb004100c800cf12de0083
:103be0004121dd00850271000502780005a3b900be
:103bf000060022001381c6000030cb0005bbb900cf
:103c0000565521001381c6000000cb0005bbb9004a
:103c1000060021001381c6000030cb0005bbb900af
:103c2000d6cc20001381c6000000cb0005bbb90034
:103c3000b6aa20001381c6000030cb0005bbb90036
:103c4000569220001381c6000000cb0005bbb900ce
:103c5000068020001381c6000030cb0005bbb900f0
:103c6000c67120001381c6000000cb0005bbb9005f
:103c7000666620001381c6000030cb0005bbb9008a
:103c8000165d20001381c6000000cb004500c8006f
:103c90006000e1000e003a000300cc007000c80094
:103ca0000200cc000800e00004003400e5622100be
:103cb000f42f240004014100858149004910de00f1
:103cc000c71add0005007000c998de002a01370020
:103cd0006100e10013003a000300cc007000c8004e
:103ce0000200cc002516200004432e0004015100e0
:103cf000858159000800e00005003400e5622100dc
:103d0000f42f240004014100858149004110de00a8
:103d10004910de00c71add0005007000c998de00fa
:103d2000150137006200e10012003a000300cc00e8
:103d30007000c8000200cc00552c200004862c0026
:103d400004015100858159000800e000040034009e
:103d5000e5622100f42f240004014100858149001f
:103d60004910de00c71add0005007000c998de00aa
:103d7000010137006300e10012003a000300cc00ab
:103d80007000c8000200cc008542200004c92a004f
:103d900004015100858159000800e000040034004e
:103da000e5622100f42f24000401410085814900cf
:103db0004910de00c71add0005007000c998de005a
:103dc000ed0037006400e10012003a000300cc006f
:103dd0007000c8000200cc00b5582000040c290077
:103de00004015100858159000800e00004003400fe
:103df000e5622100f42f240004014100858149007f
:103e00004910de00c71add0005007000c998de0009
:103e1000d90037006500e10012003a000300cc0031
:103e20007000c8000200cc00e56e2000044f27009f
:103e300004015100858159000800e00004003400ad
:103e4000e5622100f42f240004014100858149002e
:103e50004910de00c71add0005007000c998de00b9
:103e6000c50037006600e10012003a000300cc00f4
:103e70007000c8000200cc001585200004922500c7
:103e800004015100858159000800e000040034005d
:103e9000e5622100f42f24000401410085814900de
:103ea0004910de00c71add0005007000c998de0069
:103eb000b10037006700e10012003a000300cc00b7
:103ec0007000c8000200cc00459b2000f4d4230001
:103ed00004015100858159000800e000040034000d
:103ee000e5622100f42f240004014100858149008e
:103ef0004910de00c71add0005007000c998de0019
:103f00009d0037006800e10012003a000300cc0079
:103f10007000c8000200cc0075b12000e417220038
:103f200004015100858159000800e00004003400bc
:103f3000e5622100f42f240004014100858149003d
:103f40004910de00c71add0005007000c998de00c8
:103f5000890037006900e10012003a000300cc003c
:103f60007000c8000200cc00a5c72000f45a200051
:103f700004015100858159000800e000040034006c
:103f8000e5622100f42f24000401410085814900ed
:103f90004910de00c71add0005007000c998de0078
:103fa000750037006a00e10012003a000300cc00ff
:103fb0007000c8000200cc00c5dd2000f49d2e007a
:103fc00004015100858159000800e000040034001c
:103fd000e5622100f42f240004014100858149009d
:103fe0004910de00c71add0005007000c998de0028
:103ff000610037006b00e10012003a000300cc00c2
:104000007000c8000200cc00f5f32000f4e02c00a2
:1040100004015100858159000800e00004003400cb
:10402000e5622100f42f240004014100858149004c
:104030004910de00c71add0005007000c998de00d7
:104040004d0037006c00e10012003a000300cc0084
:104050007000c8000200cc00250a2100f4232b00c8
:1040600004015100858159000800e000040034007b
:10407000e5622100f42f24000401410085814900fc
:104080004910de00c71add0005007000c998de0087
:10409000390037006d00e10012003a000300cc0047
:1040a0007000c8000200cc0055202100f4662900f1
:1040b00004015100858159000800e000040034002b
:1040c000e5622100f42f24000401410085814900ac
:1040d0004910de00c71add0005007000c998de0037
:1040e000250037006e00e10012003a000300cc000a
:1040f0007000c8000200cc0085362100f4a927001a
:1041000004015100858159000800e00004003400da
:10411000e5622100f42f240004014100858149005b
:104120004910de00c71add0005007000c998de00e6
:10413000110037000300cc007000c8000200cc0062
:10414000b54c2100e4ec25000401510085815900a3
:104150000800e00004003400e5622100f42f240090
:1041600004014100858149004910de00c71add00c5
:1041700005007000c998de004f02be004f89de00c6
:104180004fabde000404b8000506b8008904460001
:1041900060854e000606b8000a054600e0854e0020
:1041a0008b054600040eb800890446000a854e00bf
:1041b000e0854d00050eb8000a0546008b854e00cf
:1041c000060eb8008b0546000416b8000a05460026
:1041d0008b854e000516b8008b0546000416b80006
:1041e0008b0546004242de00ce49dd00030472002a
:1041f000c24ade00ce51dd00838472004253de00ed
:10420000ce59dd0003057300c2ddde000bf0a30014
:104210000f003100b5962900f49d2d0008025200d0
:1042200089825a0062031d00e0835d0007f0a3004d
:1042300018003900f0ff2f00f1ff27004f06be00e5
:104240004f05be004f04be004400f9000000060008
:1042500034a22100b5dd2000d6ff2f00f7ff2f008c
:104260000402540085825c0006035d0087835d00c4
:1042700007f0a300070039008000eb000000eb000e
:104280004f06be004f05be004f04be004400f900bb
:10429000000006004e4ade00c252dd0004827200b9
:1042a0008002eb0004f0a700150020000001eb00e5
:1042b0000590e7000402ea00849fbe0004aab9004a
:1042c00009e0a10009f0a1000003eb0007002400b1
:1042d0000803430089834b000800780089007800b8
:1042e0004f89de000004b8000106b80089044600ca
:1042f00060854e000206b8000a0546008c854e0017
:10430000000eb800890446000a854e00e0854d0085
:10431000010eb8000a0546008b854e00020eb8005b
:104320008b0546008b0546000016b8000a054600be
:104330008b854e008b0546004e4ade00c254dd00e0
:1043400004827400ce52de00c25cdd0085827400ff
:10435000080024004fa9de008005eb000446b800e9
:10436000e004460060854e00e0854d000546b8003b
:104370000a0546008b854e000246b8008b054600b4
:10438000020024008284440060054d00e0854d0059
:104390004f49de00c154dd0002817400cf51de00c0
:1043a000c15cdd00838174000203430083834b0002
:1043b0004f89de00cfa9de000404b8000506b8006e
:1043c0008904460060854e000306b8000a054600d1
:1043d000e0854e000306b8008b054600040eb800c9
:1043e000890446000a854e00e0854d00050eb800a0
:1043f0000a0546008b854e00030eb8008b0546006b
:104400000416b8000a0546008b854e000516b80054
:104410008b0546000416b8008b054600e184440075
:1044200060054d00e0854d004e4ade00c254dd00bf
:1044300004827400ce52de00c25cdd00858274000e
:10444000b3aa2a000324b800a8aa20000826b800ae
:104450008904460060854e008005eb00032eb800fd
:10446000890446000a854e00e0854d00082eb800fc
:104470000a0546008b854e004fa9de000316b800e2
:104480000a0546008b854e000816b8008b054600cd
:104490000316b8008b0546000800220088844400fb
:1044a00060054d00e0854d004e49de00c254dd0040
:1044b00002817400ce51de00c25cdd008381740095
:1044c0000203430083834b004f89de00cfa9de0047
:1044d0000404b8000506b8008904460060854e0053
:1044e0000306b8000a054600e0854e000306b80042
:1044f0008b054600040eb800890446000a854e006c
:10450000e0854d00050eb8000a0546008b854e007b
:10451000030eb8008b0546000416b8000a054600d5
:104520008b854e000516b8008b0546000416b800b2
:104530008b054600e184440060054d00e0854d0098
:104540004e4ade00c254dd0004827400ce52de000a
:10455000c25cdd0085827400b3aa2a000324b8007f
:10456000a82a20000826b8008904460060854e006d
:104570008005eb00032eb800890446000a854e0032
:10458000e0854d00082eb8000a0546008b854e00d8
:104590004fa9de000316b8000a0546008b854e00c1
:1045a0000816b8008b0546000316b8008b054600b8
:1045b000080022008884440060054d00e0854d001d
:1045c0004e49de00c254dd0002817400ce51de008f
:1045d000c25cdd00838174000203430083834b00cf
:1045e0004f89de00cfa9de000404b8000506b8003c
:1045f0008904460060854e000306b8000a0546009f
:10460000e0854e000306b8008b054600040eb80096
:10461000890446000a854e00e0854d00050eb8006d
:104620000a0546008b854e00030eb8008b05460038
:104630000416b8000a0546008b854e000516b80022
:104640008b0546000416b8008b0546004e4ade0076
:10465000c254dd0004827400ce52de00c25cdd0074
:1046600085827400938828000324b80088082000fd
:104670000826b8008904460060854e008005eb00de
:10468000032eb800890446000a854e00e0854d00df
:10469000082eb8000a0546008b854e004fa9de00a3
:1046a0000316b8000a0546008b854e000816b800b0
:1046b0008b0546000316b8008b0546000800220053
:1046c0008884440060054d00e0854d004e49de00c1
:1046d000c254dd0002817400ce51de00c25cdd00f8
:1046e000838174000203430083834b004f89de0003
:1046f000cfa9de000404b8000506b800890446000e
:1047000060854e000306b8000a054600e0854e00ad
:104710000306b8008b054600040eb8008904460065
:104720000a854e00e0854d00050eb8000a054600da
:104730008b854e00030eb8008b0546000416b800aa
:104740000a0546008b854e000516b8008b0546000d
:104750000416b8008b0546004e4ade00c254dd0048
:1047600004827400ce52de00c25cdd0085827400db
:10477000c3162c000324b800680120000826b800e6
:104780008904460060854e008005eb00032eb800ca
:10479000890446000a854e00e0854d00082eb800c9
:1047a0000a0546008b854e004fa9de000316b800af
:1047b0000a0546008b854e000816b8008b0546009a
:1047c0000316b8008b0546000800220088844400c8
:1047d00060054d00e0854d004e49de00c254dd000d
:1047e00002817400ce51de00c25cdd008381740062
:1047f0000203430083834b004f89de00cfa9de0014
:104800000404b8000506b8008904460060854e001f
:104810000306b8000a054600e0854e000306b8000e
:104820008b054600040eb800890446000a854e0038
:10483000e0854d00050eb8000a0546008b854e0048
:10484000030eb8008b0546000416b8000a054600a2
:104850008b854e000516b8008b0546000416b8007f
:104860008b0546004e4ade00c254dd00048274000f
:10487000ce52de00c25cdd0085827400430324005a
:104880000324b800380020000826b8008904460038
:1048900060854e008005eb00032eb80089044600b9
:1048a0000a854e00e0854d00082eb8000a05460036
:1048b0008b854e004fa9de000316b8000a0546009e
:1048c0008b854e000816b8008b0546000316b8000d
:1048d0008b054600080022008884440060054d00d6
:1048e000e0854d004e49de00c254dd0002817400b7
:1048f000ce51de00c25cdd00838174000203430000
:1049000083834b004f89de00cfa9de000404b8008a
:104910000506b8008904460060854e000306b8000d
:104920000a054600e0854e000306b8008b054600e8
:10493000040eb800890446000a854e00e0854d004b
:10494000050eb8000a0546008b854e00030eb80020
:104950008b0546000416b8000a0546008b854e00fc
:104960000516b8008b0546000416b8008b054600f6
:104970004e4ade00c254dd0004827400ce52de00d6
:10498000c25cdd0085827400738026000324b800b9
:104990008005eb00032eb800e004460060854e0061
:1049a000e0854d004fa9de000316b8000a05460059
:1049b0008b854e000316b8008b05460008002200c8
:1049c0008884440060054d00e0854d004e49de00be
:1049d000c254dd0002817400ce51de00c25cdd00f5
:1049e000838174000203430083834b004f89de0000
:1049f000cfa9de000404b8000506b800890446000b
:104a000060854e000306b8000a054600e0854e00aa
:104a10000306b8008b054600040eb8008904460062
:104a20000a854e00e0854d00050eb8000a054600d7
:104a30008b854e00030eb8008b0546000416b800a7
:104a40000a0546008b854e000516b8008b0546000a
:104a50000416b8008b0546004e4ade00c254dd0045
:104a600004827400ce52de00c25cdd0085827400d8
:104a7000f3b820000324b8008005eb00032eb80033
:104a8000e004460060854e00e0854d004fa9de0041
:104a90000316b8000a0546008b854e000316b800c1
:104aa0008b054600080022008884440060054d0004
:104ab000e0854d004e49de00c254dd0002817400e5
:104ac000ce51de00c25cdd0083817400020343002e
:104ad00083834b004f89de00cfa9de000404b800b9
:104ae0000506b8008904460060854e000306b8003c
:104af0000a054600e0854e000306b8008b05460017
:104b0000040eb800890446000a854e00e0854d0079
:104b1000050eb8000a0546008b854e00030eb8004e
:104b20008b0546000416b8000a0546008b854e002a
:104b30000516b8008b0546000416b8008b05460024
:104b40004e4ade00c254dd0004827400ce52de0004
:104b5000c25cdd0085827400831220000324b8004b
:104b60008005eb00032eb800e004460060854e008f
:104b7000e0854d004fa9de000316b8000a05460087
:104b80008b854e000316b8008b05460008002200f6
:104b90008884440060054d00e0854d004e49de00ec
:104ba000c254dd0002817400ce51de00c25cdd0023
:104bb000838174000203430083834b004f89de002e
:104bc000cfa9de000404b8000506b8008904460039
:104bd00060854e000306b8000a054600e0854e00d9
:104be0000306b8008b054600040eb8008904460091
:104bf0000a854e00e0854d00050eb8000a05460006
:104c00008b854e00030eb8008b0546000416b800d5
:104c10000a0546008b854e000516b8008b05460038
:104c20000416b8008b0546004e4ade00c254dd0073
:104c300004827400ce52de00c25cdd008582740006
:104c4000b30120000324b8008005eb00032eb80058
:104c5000e004460060854e00e0854d004fa9de006f
:104c60000316b8000a0546008b854e000316b800ef
:104c70008b054600080022008884440060054d0032
:104c8000e0854d004e49de00c254dd000281740013
:104c9000ce51de00c25cdd0083817400020343005c
:104ca00083834b004f02be000500e00031003a0054
:104cb0004222dd00000020009001880041d5210043
:104cc000848040003100ba009100ba004f89de00b4
:104cd00006027800870278000003eb000404b800a5
:104ce0000506b8008904460060854e000606b80037
:104cf0000a054600e0854e008b054600040eb8000c
:104d0000890446000a854e00e0854d00050eb80076
:104d10000a0546008b854e00060eb8008b0546003e
:104d20000416b8000a0546008b854e000516b8002b
:104d30008b0546008b054600040021008484440056
:104d400060054d00e0854d00cd4cde004352dd0096
:104d5000048074004d55de00435add008400750068
:104d60004f06be004f05be004f04be004400f900d0
:104d7000000006004122dd000000200090018800b4
:104d800041d82100848040001100ba00060278005a
:104d9000870278000003eb000404b8000506b800a1
:104da0008904460060854e000606b8000a054600e4
:104db000e0854e008b0546008b054600ce4cde009c
:104dc0004252dd00048074004e55de00425add0080
:104dd000840075004f06be004f05be004f04be00a4
:104de0004400f90000000600038368000700280063
:104df00007036300470ade000480a100c71ade0033
:104e00000580a100f70f20000720e10042003200da
:104e10000728e10040003200889fbe008a9fbe0044
:104e20008c1f7800f107b200f307b2000400e00025
:104e3000640032000170a0000500e000680032004c
:104e40000370a00085054200eb07b1000204b80022
:104e50000302b8008484440060854a00020ab80056
:104e6000848444000a854a00030ab800040545000a
:104e7000040033000804d0008984d2000a85d200df
:104e80008b05e9006158e1003d003500021020006b
:104e9000090161000308200089816100f7072000f3
:104ea0008783640008867300c84cde00c853dd00a9
:104eb000878474004855de000300e00006003200dd
:104ec00082037600040032008904e80060054d008a
:104ed0000a88a3000c003a00f70f20000758e100f1
:104ee00044003d000a70a100c75ddd000a85750021
:104ef0008a007300090078004f0678004f05be0055
:104f00004f04be00000006000a05d1008984d300ca
:104f10008b05e800f0ff3700881f78000604780052
:104f200025010700070278000001fd008101fd0056
:104f30002101070087027800850372000778a3002b
:104f4000050032000001fd008101fd003401070071
:104f50004f04780000000600850372000748a30094
:104f600003003200f0ff2f00f1ff2700f8ff3700a9
:104f70000000200001f8270088807000f4ff37004f
:104f8000880178004848dd00808171004848de00d3
:104f9000c850dd0001007000c850de000604780033
:104fa0000b0178002701070088807000d2ff3700ce
:104fb0000500e00005003200170020004b0107004b
:104fc0009dff370081037000f9ff3a0086007800ea
:104fd0004f0678004f05be004f04be0000000500dc
:104fe00083037100f9ff3200270020003f01070012
:104ff00094ff370001f8270086807000f4ff370027
:1050000007f82700078361000638e10004003a0032
:10501000f7072000878361008703710001003a00d1
:1050200003f0a200889fbe008a9fbe008c9fbe0036
:10503000470ade000480a100c71ade000580a10037
:10504000070028000785600087856100f70f2000b2
:105050000720e1009e0032000728e1009c0032009a
:10506000010678000400e000b4003200f7072000d9
:10507000878060000170a0000500e000c0003200e1
:10508000f7072000878161000370a0000506520029
:105090000f003a000b50e1000b0032000308e10062
:1050a00002003a000200e1007e00320002045000db
:1050b00083845800040031000001fd008101fd00df
:1050c0008402fd008a05fd006044b800210037001d
:1050d0000520e10005003d000001fd008101fd000b
:1050e0008402fd008a05fd00050652007a60e10099
:1050f000050035000170a1004722dd0084807000aa
:105100008a807000630037006044b800ef026600d8
:1051100007ff2f00070666000500e00006003400c8
:10512000f08312008714dd000511de00071bdd008f
:10513000060171008519de007060e1000500350090
:105140000904780082047800030178008001eb00f4
:10515000700656000b50e10003003a0002004000c8
:10516000838048000400370060041400e0841c00c1
:1051700002005800838058000188a3000600320016
:105180008100d1000080d3008984d3000884d3003b
:105190000402e800270037000178a30025003a0048
:1051a0000100e000030032008186cf0069865600ce
:1051b0000a0037008c0020000000e00004003a00e4
:1051c00009007800880478000004eb0070025200a7
:1051d0008086cf000d0646000c06e9007060e100f5
:1051e0000600350080007800090078008804780007
:1051f0000004eb0070065600700252000c00e00044
:105200000c0034008c08dd00f00316000703de00fc
:10521000868070000c00dd00074bde000600700089
:105220008c4cdd000743de00868474000c44dd00f6
:105230000c0252006120e100200035006101600095
:105240000700280087816400f7ff27008783640038
:10525000070374000300e0000600320082037300bd
:10526000040032000000e800e08048000188a3004c
:105270000e003a00f70f20000720e1004a003d0031
:105280000170a1004722dd00810072008a80700059
:105290000000be004f06be004f05be004f04be001a
:1052a000000006006000b800faff37008100d1005e
:1052b0000080d3000402e800eeff3700040178000c
:1052c000890174005f0007008a807000f1ff3700d9
:1052d00039000700070278000001fd008101fd0090
:1052e0003500070087027800850372000778a30065
:1052f000040032000001fd008101fd0048000700ac
:10530000e4ff3700850362000768a300080032004d
:105310000b50e10003003200f0ff2f00f1ff2700e7
:10532000dcff37000001fd008101fd00d9ff3700df
:105330000468a300d7ff3200faff3700f8ff270008
:10534000888360000b003a000000e00009003a008a
:105350008303640082837300020032000200be00f7
:10536000ccff37000b50e100ceff3a000200be0038
:10537000c8ff370014002000810064003eff3700a2
:10538000f8ff27008883610004003a000200e00073
:1053900002003a008c007800beff370015002000a4
:1053a0008301640039ff370001f827000000200066
:1053b00081007500b7ff37002700200001f0a7002b
:1053c00017002000470bde00f60fb2000400320089
:1053d0000643e8000a0032004702b300000006005e
:1053e00001037800f607b2000603700002003a00dd
:1053f0000703b300000006008702b30000000600a8
:1054000001037800f607b2000603700002003200c4
:105410000770a000000006000760a0000000060062
:105420000478a300040032000578a30003003200d2
:105430000168a30001003a000200be000160a00064
:10544000000006000100e0002600320061011100aa
:105450007810e10023003c006022b8007010e100e9
:105460000400350080027800010078008000eb0025
:10547000700151000200e0000900340070031100c7
:10548000062add00822ade008603dd0087827200a4
:105490000200de00860bdd00070070008208de00df
:1054a00084817100f4ff270004826200848171000e
:1054b00004002800848262006102600005f0a600fa
:1054c0000000060004827100070032000000e800be
:1054d000e0804800000006000002be006000b80046
:1054e000efff37006000b80000000600889fbe0094
:1054f0000004eb006138e10016003a000100e00012
:1055000008003a00c800de004800dd0088002000e6
:105510000100e00003003a00c800de004800dd00a2
:10552000680444008184cf00e984540006003400fc
:105530008908dd00f08314008703de008780700097
:105540000900dd0009044400610214004f04be009c
:10555000000006000300e00008003a00c811de0069
:105560004811dd00880020000300e00003003a003d
:10557000c811de004811dd00680444008384cf00b8
:10558000e9845400060034008919dd00f08314001a
:105590008713de00878171000911dd0009044400d2
:0855a000e1021400e9ff3700ed
:020000040000fa
:1055a80000000000cc0c00009919000066260000dd
:1055b80032330000ff3f0000cc4c00009859000037
:0855c80065660000327300006b
:020000040000fa
:1055d0009e420000a600000000000000000800003d
:1055e000b036000000000000444300000600000048
:1055f000020000000000000000580200b03e000061
:10560000ee0300000200000065000000000a000038
:1056100000000a000000000090010000002c0100c2
:105620000000fa0000000000c80000000096000022
:1056300000006400000000003200000000140000c0
:1056400000000a000000000001000000000a000045
:1056500000006700000000000100000000020000e0
:1056600000006b001b000000000000000095e4003b
:10567000ffff000000010000183afe00ff29c900ea
:10568000000006000000000065000000000a0000a5
:1056900000000a0000000000640000000055000047
:1056a000000046000000000032000000001e000064
:1056b00000001400000000000a00000000050000c7
:1056c000000003000000000001000000000a0000cc
:1056d0000000670000000000010000000002000060
:1056e0000000fd000c000000000000000003f300bb
:1056f000ffff000000010000c11cfe00ff04e600e7
:10570000000006000000000067000000000a000022
:10571000000002000000000053220000000bc20045
:10572000ffff3a001c0000000000010000c711004c
:10573000feffd100ee000000072b00000055b20074
:10574000ffff6300230000000000010000f21300cf
:10575000feffce00ec000000ea35000000af9e0026
:10576000ffff57002c000000000001000060160041
:10577000feff9000ea000000834300000023860043
:10578000ffff86003700000000000100001919002b
:10579000feff1300e80000007d540000007f67005a
:1057a000ffff7c00450000000000010000271c00f6
:1057b000feff5100e5000000a7690000004b41001a
:1057c000ffffe400560000000000010000931f00ee
:1057d000feff4300e20000000384000000b7110058
:1057e000ffff91006c00000000000100006a230030
:1057f000feffe200de000000cca400000089d6001d
:10580000feff8800870000000000010000b62700ae
:10581000feff2700db00000084cd0000000a8d00a1
:10582000feff0400a90000000000010000862c001b
:10583000feff0c00d7000000000001000000000087
:105840000000000000000000000001000000000057
:1058500000000000000000003c00000000670000a5
:1058600000000a0000000000020000000063b00019
:1058700001005400fafeff0076acff00ff000000bc
:1058800001005400fafeff00d95c000000aa8c0061
:1058900001005a00b1feff0039f1ff00ff000000d7
:1058a00001005a00b1feff00e37d000000577200c6
:1058b00001004a0086feff00e52300000000000012
:1058c00001004a0086feff003d960000004663008e
:1058d0000100640070feff00e640000000000000d0
:1058e0000100640070feff002ca4000000c5400011
:1058f0000100ec0043feff005183000000000000a7
:105900000100ec0043feff0016c4000000112d0052
:10591000010066002dfeff003ea90000000000000f
:10592000010066002dfeff0050d60000008a220014
:105930000100150022feff0082bd000000000000f3
:105940000100150022feff000ce0000000191d0000
:1059500001006a001cfeff00fbc700000000000001
:1059600001006a001cfeff0015e500000089170019
:105970000100bd0016feff00b1d2000000000000d3
:105980000100bd0016feff003bea000000fe120011
:105990000100320012feff006fdb0000000000007b
:1059a0000100320012feff006eee0000003c00001d
:1059b0000000650000000000010000000001000080
:1059c0000000f4005000000001000000006700002b
:1059d00000000a0000000000020000000034da00ad
:1059e0000000480072feff00acb60000000000009e
:1059f000010042007dfeff00da9b0000001ae0007b
:105a00000000890067feff009cbb00000000000052
:105a10000100270070feff0055a400000084e5008f
:105a20000000ab005dfeff0024c00000000000008d
:105a30000100560064feff0054ac00000077ea004d
:105a40000000a50054feff0049c400000000000053
:105a50000100b50059feff00d1b3000000fcee00cc
:105a6000000069004cfeff0011c8000000000000ab
:105a70000100280050feff00cbba00000017f30021
:105a80000000ed0044feff0081cb0000000000009c
:105a90000100960047feff0042c1000000d1f60061
:105aa000000021003efeff00a0ce0000000000002c
:105ab0000100e9003ffeff003ac700000032fa0093
