:020000040000fa
:080000000002040000000000f2
:020000040000fa
:10040000af5724000e7f24000e018800000000007a
:100410000c000700e0f0230001002000110007009d
:10042000000020000000e000020032000000020096
:1004300000000000e0360200000000000040da008a
:100440000000fe004440a900202326000000e00038
:100450000300320010002000a00188004440a800e2
:100460000000060091018800800078000000eb0089
:1004700015003700e280400032a0b4009101ba00bc
:10048000e280400032a0b4009102ba00e280400055
:1004900032a0b4000002eb00472bde00f507b200eb
:1004a000602ce10004003a000059eb008301e900f0
:1004b000fdff3e00040037006128e100010032002a
:1004c0000082eb00040007001101ba000200e00006
:1004d000e8ff3a00000006003159ba008301e90044
:1004e0000c0032002159ba008301e90008003200f3
:1004f0000400e00003003a00e280400032a0b400b3
:10050000f5ff370011d9ba008301e900faff3a007c
:100510008100e800e180400032a0b4000000060045
:1005200092400400000000009e4004000000000013
:100530002e39040000000000c03c04000000000050
:100540004a35040000000000ee3c040000000000fa
:1005500080360400000000001c3d04000000000084
:10056000b239040000000000ce3f0400000000008b
:10057000f239040000000000dc3f0400000000002d
:10058000323a040000000000ea3f040000000000ce
:10059000442e040000000000f83f040000000000aa
:1005a000f8320400000000000640040000000000d3
:1005b000c83b0400000000001440040000000000dc
:1005c000723a040000000000224004000000000015
:1005d0008e380400000000003040040000000000dd
:1005e000fe300400000000003e4004000000000057
:1005f0003600f800809fbe00829fbe00849fbe0030
:10060000869fbe002023a90000188000201b8a00be
:1006100027140700201b8200023624002136240004
:10062000ad170700f823ef008de0a9004f03be00cf
:100630004f02be004f01be004f00be003600f90061
:1006400000400600801f7800001b8200b01f880059
:100650008dc0a9004f007800004006000040da007d
:100660000000fe000001be00690007000470a70042
:1006700003f0a1006509b100160032000d0035003d
:100680006828e10006003500f0ff2f00f1ff270089
:100690000300e00013003b000100280000000500fb
:1006a00000004000818048008502e900fcff3a001c
:1006b00008003700f88f420002003c008000eb0089
:1006c000000005008100d1000080d3008502e80011
:1006d000fcff3a000300e00002003b006000100055
:1006e000e080180000000600889fbe008a9fbe00c0
:1006f000010578000100e0000400350008003c001e
:100700000000e0002000320005003700600010000b
:10071000e080180002003b0001f02c001a003700b6
:100720000004be006011b8006b0920000982cf00f0
:10073000020039000882cf000441b0006942520033
:100740000e00320008003b008281710061016400ec
:100750008904d1000884d3008b05e8000442e80036
:10076000f9ff3a00050037000804440089844c0072
:100770008b05e9000442e900fbff3a00390007005d
:100780000af0a70001f0a0004f05be004f04be0014
:10079000000006000001be001d0007000470a70055
:1007a00003f0a10003f8a30013003a006509b100ab
:1007b00010003200090035006928e1000200350010
:1007c0000100280000000500000040008180480072
:1007d0008502e900fcff3a0000000600f88f4200a5
:1007e000050035008100d1000080d3008502e800bb
:1007f000fcff3a00000006008000eb00000005004e
:10080000f4ff2f003d003700040020003b003700bc
:10081000c70ade00f107b200f50fb200080032008f
:10082000e1cf4200020032000170a0002400050068
:10083000810f70000100320004080500440005002b
:10084000810f700002003a00140005008502e900e3
:100850000000400081c04800fcff3b000170a00088
:100860002400050081002000618055000b003d0040
:100870000b00200061fe2f000100e1001d0034008c
:1008800082817100610164008904d1000884d30071
:100890000000e800faff3a007100200061006400e7
:1008a000030070000200600009003200610444008f
:1008b000e0844c000988a500050032008b05e800a3
:1008c0006808e10002003a008904d1000884d300de
:1008d000f20f20000258e10005003d00c75ddd0079
:1008e000f907b20089807500080078000000060052
:1008f0000bf827008b00780000000500889fbe00e1
:100900008a9fbe00841f7800170007004f00780000
:1009100011003300f0ff2f00838f6c0006003b00b6
:10092000040565000a00a7000800370009f0a600ca
:100930001000200008003700820f5400838f5c00f5
:10094000030039001000200001003e0000002000dc
:1009500009f0a7000000ea004f05be004f04be00ea
:100960000000e000000006000004be00a8ff070031
:100970000003be000405be000200be00a4ff070085
:10098000844f7500000006000000e00006003a00f9
:10099000020028000110e10003003a008180ea0013
:1009a0000080ea0000000600f2ff2f000192b9006b
:1009b0000010b9008100420000000600889fbe00c0
:1009c0008a9fbe008c9fbe00cf8bde004f9bde0057
:1009d0000204b8000306b8008904460060854e0092
:1009e0000606b8000a054600e0854e000606b80077
:1009f0008b054600020eb800890446000a854e00a9
:100a0000e0854d00030eb8000a0546008b854e00b8
:100a1000060eb8008b054600023eb8000a054600e7
:100a20008b854e00033eb8008b054600023eb800a1
:100a30008b0546000b00e00002003a000af0a3001c
:100a400006003900f0ff2f00f1ff27004f06be001f
:100a50004f05be004f04be000000060004804400a5
:100a600085004d00e0854d000b00e00002003a00db
:100a700001f0a30006003900f0ff2f00f1ff27006e
:100a80004f06be004f05be004f04be00000006002a
:100a90004f06be004f05be004f04be00000006001a
:100aa0000002eb0001f0a30003003900f0ff2f006b
:100ab000f1ff2f00000006000490e700050037005a
:100ac0000498e700030037000000eb00110020004d
:100ad000000006000480e700060037001500200033
:100ae0000588e700030037000000eb00110020003c
:100af000000006000002eb000480e700050037005c
:100b00000488e700030037000000eb008000eb00e2
:100b10000000060003f0a600310037000100e000ed
:100b2000090032006108e10003003a0005002800d6
:100b30000500e10004003900829fbe00dd090700c6
:100b40004f01be001a0037000100e0000b003a0020
:100b500005d82e000500e10008003100cf08dd00b7
:100b6000c102de00858070004f00dd00829fbe0064
:100b7000640807004f01be000d003700ce08dd00fd
:100b8000c202de00858070004e00dd006100400082
:100b9000e0804800829fbe005a0807004f01be0057
:100ba0004100de00cf0add0005007000c108de0054
:100bb0000200e00006003a00050028000328e100da
:100bc00003003a008381ea000281ea000400370052
:100bd000f6ff2f0003b2b9000231b90083014200d1
:100be0000002eb000490e70003003700150020002e
:100bf0000518e70000000600889fbe008a9fbe001f
:100c00008c9fbe00030678008001eb00809fbe0031
:100c10003c0b07004f01be00809fbe000300e000b8
:100c200048033200240020000498e6000303370044
:100c30000300e00003003200044c2d000410e1002a
:100c4000fe023100a405200084874700e401200053
:100c50008483570004f02f00f5ff2f00f6072000d3
:100c6000ab00200084137800851378008613780089
:100c70008b05e9000b00e000faff3c008f037800d1
:100c800082137800831378000002eb00841378004d
:100c9000e4874700829fbe0002007800830078004e
:100ca0004f89de000004b8000102b8008904420048
:100cb00060854a000202b8000a054200e0854a0049
:100cc0008b054200000ab800890442000a854a00e8
:100cd000e0854d00010ab8000a0542008b854a00f4
:100ce000020ab8008b0542008b0542000012b800d2
:100cf0000a0542008b854a008b054200040820004b
:100d000004044400e0844c0060054d00e0854d0083
:100d10004844de00484add0004007400c84cde0090
:100d20004852dd00848074004855de00485add00da
:100d30000401750080137800811378008213780015
:100d4000cf91de000004b8000102b800890442001f
:100d500060854a000202b8000a054200e0854a00a8
:100d60008b054200000ab800890442000a854a0047
:100d7000e0854d00010ab8000a0542008b854a0053
:100d8000020ab8008b0542008b0542000012b80031
:100d90000a0542008b854a008b05420004082000aa
:100da0008484440060054d00e0854d00c84cde00a1
:100db0004852dd00048074004855de00485add00ca
:100dc0008400750048d9de00801378008113780014
:100dd00082137800cf91de000004b8000102b80051
:100de0008904420060854a000202b8000a054200f8
:100df000e0854a008b054200000ab80089044200e1
:100e00000a854a00e0854d00010ab8000a05420043
:100e10008b854a00020ab8008b0542008b05420010
:100e20000012b8000a0542008b854a008b0542007b
:100e3000040820008484440060054d00e0854d00d6
:100e4000c84cde004852dd00048074004855de00c6
:100e5000485add008400750048d9de008013780010
:100e60008113780082137800cf91de000004b8006f
:100e70000102b8008904420060854a000202b800fd
:100e80000a054200e0854a008b054200000ab800ce
:100e9000890442000a854a00e0854d00010ab80035
:100ea0000a0542008b854a00020ab8008b05420001
:100eb0008b0542000012b8000a0542008b854a00eb
:100ec0008b054200040820008484440060054d0026
:100ed000e0854d00c84cde004852dd0004807400ff
:100ee0004855de00485add008400750048d9de0010
:100ef0008013780081137800821378004f02be00bf
:100f0000e48757002600200006a8e600e701370026
:100f10000500e00003003200a62126000620e100c3
:100f2000e2013100e4874700849fbe00cf91de00dc
:100f30000004b8000102b8008904420060854a003c
:100f40000202b8000a054200e0854a008b05420013
:100f5000000ab800890442000a854a00e0854d0075
:100f6000010ab8000a0542008b854a00020ab8004f
:100f70008b0542008b0542000012b8000a054200b2
:100f80008b854a008b0542000408200084844400bd
:100f900060054d00e0854d00c84cde004852dd0084
:100fa000048074004855de00485add008400750056
:100fb00048d9de008013780081137800821378000e
:100fc0004f02be00e48757002600200006a8e60076
:100fd000b60137000500e0000300320096d222007f
:100fe0000620e100b1013100e4874700849fbe0084
:100ff000cf91de000004b8000102b800890442006d
:1010000060854a000202b8000a054200e0854a00f5
:101010008b054200000ab800890442000a854a0094
:10102000e0854d00010ab8000a0542008b854a00a0
:10103000020ab8008b0542008b0542000012b8007e
:101040000a0542008b854a008b05420004082000f7
:101050008484440060054d00e0854d00c84cde00ee
:101060004852dd00048074004855de00485add0017
:101070008400750048d9de00801378008113780061
:10108000821378004f02be00e4875700260020003c
:1010900006a8e600850137000500e00003003200e5
:1010a000865a21000620e10080013100e4874700d4
:1010b000849fbe00cf91de000004b8000102b8009a
:1010c0008904420060854a000202b8000a05420015
:1010d000e0854a008b054200000ab80089044200fe
:1010e0000a854a00e0854d00010ab8000a05420061
:1010f0008b854a00020ab8008b0542008b0542002e
:101100000012b8000a0542008b854a008b05420098
:10111000040820008484440060054d00e0854d00f3
:10112000c84cde004852dd00048074004855de00e3
:10113000485add008400750048d9de00801378002d
:1011400081137800821378004f02be00e4875700b5
:101150002600200006a8e600540137000500e00044
:1011600003003200d6a920000620e1004f01310023
:10117000e4874700849fbe00cf91de000004b800e2
:101180000102b8008904420060854a000202b800ea
:101190000a054200e0854a008b054200000ab800bb
:1011a000890442000a854a00e0854d00010ab80022
:1011b0000a0542008b854a00020ab8008b054200ee
:1011c0008b0542000012b8000a0542008b854a00d8
:1011d0008b054200040820008484440060054d0013
:1011e000e0854d00c84cde004852dd0004807400ec
:1011f0004855de00485add008400750048d9de00fd
:101200008013780081137800821378004f02be00ab
:10121000e48757002600200006a8e60023013700d7
:101220000500e000030032001654200006a0e6008e
:101230001e013700e4874700849fbe00cf91de0087
:101240000004b8000102b8008904420060854a0029
:101250000202b8000a054200e0854a008b05420000
:10126000000ab800890442000a854a00e0854d0062
:10127000010ab8000a0542008b854a00020ab8003c
:101280008b0542008b0542000012b8000a0542009f
:101290008b854a008b0542000408200084844400aa
:1012a00060054d00e0854d00c84cde004852dd0071
:1012b000048074004855de00485add008400750043
:1012c00048d9de00801378008113780082137800fb
:1012d0004f02be00e48757002600200006a8e60063
:1012e000f20037000500e00003003200d62920009c
:1012f0000620e100ed003100e4874700849fbe0036
:10130000cf91de000004b8000102b8008904420059
:1013100060854a000202b8000a054200e0854a00e2
:101320008b054200000ab800890442000a854a0081
:10133000e0854d00010ab8000a0542008b854a008d
:10134000020ab8008b0542008b0542000012b8006b
:101350000a0542008b854a008b05420004082000e4
:101360008484440060054d00e0854d00c84cde00db
:101370004852dd00048074004855de00485add0004
:101380008400750048d9de0080137800811378004e
:10139000821378004f02be00e48757002600200029
:1013a00006a8e600c10037000500e0000300320097
:1013b000e61420000620e100bc003100e48747006d
:1013c000849fbe00cf91de000004b8000102b80087
:1013d0008904420060854a000202b8000a05420002
:1013e000e0854a008b054200000ab80089044200eb
:1013f0000a854a00e0854d00010ab8000a0542004e
:101400008b854a00020ab8008b0542008b0542001a
:101410000012b8000a0542008b854a008b05420085
:10142000040820008484440060054d00e0854d00e0
:10143000c84cde004852dd00048074004855de00d0
:10144000485add008400750048d9de00801378001a
:1014500081137800821378004f02be00e4875700a2
:101460002600200006a8e600900037000500e000f6
:1014700003003200760a20000620e1008b003100d4
:10148000e4874700849fbe00cf91de000004b800cf
:101490000102b8008904420060854a000202b800d7
:1014a0000a054200e0854a008b054200000ab800a8
:1014b000890442000a854a00e0854d00010ab8000f
:1014c0000a0542008b854a00020ab8008b054200db
:1014d0008b0542000012b8000a0542008b854a00c5
:1014e0008b054200040820008484440060054d0000
:1014f000e0854d00c84cde004852dd0004807400d9
:101500004855de00485add008400750048d9de00e9
:101510008013780081137800821378004f02be0098
:10152000e48757002600200006a8e6005f00370089
:101530000500e00003003200460520000620e1001f
:101540005a003100e4874700849fbe00cf91de003f
:101550000004b8000102b8008904420060854a0016
:101560000202b8000a054200e0854a008b054200ed
:10157000000ab800890442000a854a00e0854d004f
:10158000010ab8000a0542008b854a00020ab80029
:101590008b0542008b0542000012b8000a0542008c
:1015a0008b854a008b054200040820008484440097
:1015b00060054d00e0854d00c84cde004852dd005e
:1015c000048074004855de00485add008400750030
:1015d00048d9de00801378008113780082137800e8
:1015e0004f02be00e48757002600200006a8e60050
:1015f0002e0037000500e00003003200a6022000a4
:101600000620e10029003100e4874700849fbe00e6
:10161000cf91de000004b8000102b8008904420046
:1016200060854a000202b8000a054200e0854a00cf
:101630008b054200000ab800890442000a854a006e
:10164000e0854d00010ab8000a0542008b854a007a
:10165000020ab8008b0542008b0542000012b80058
:101660000a0542008b854a008b05420004082000d1
:101670008484440060054d00e0854d00c84cde00c8
:101680004852dd00048074004855de00485add00f1
:101690008400750048d9de0080137800811378003b
:1016a000821378004f02be00e48757008f03780052
:1016b000e683530007037800eb0020002701780041
:1016c000a701780027027800c814de00c81add00e0
:1016d00005807400481dde00c822dd00850075000d
:1016e00048a1de000013780001137800021378008f
:1016f0008b05e9000b00e000f0ff3c008f03780051
:1017000044052000848553000400200015002000bb
:101710000003eb008003eb00ea002000e4874700b1
:101720008e1f7800fe002000e68545001000200096
:101730000a00dd000c00e10038003c000006560005
:10174000e88747008c9fbe00e681550023007800a3
:10175000a3007800230178008a9fbe00cf91de00ad
:101760000404b8000506b8008904460060854e00f0
:101770000606b8000a054600e0854e000706b800d8
:101780008b054600040eb800890446000a854e0009
:10179000e0854d00050eb8000a0546008b854e0019
:1017a000060eb8008b0546000416b8000a05460070
:1017b0008b854e000516b8008b0546000416b80050
:1017c0008b0546000c0028000c02440060824c008f
:1017d000e0024d0060834d00cfb3de004f05be0038
:1017e0004f06be00e88757000700e00004003a00fb
:1017f0000600e00002003a0005f0a30007003900ef
:10180000f4ff2f00f5ff27000003eb008003eb003f
:101810004f077800e4875700b0023700000000004f
:10182000610555000e07e9000e00e000beff3c0018
:101830004f077800e4875700a802370002007800bd
:10184000830078005801200008e0e6004c012000e9
:101850006104560004002000150020000003eb0086
:101860008003eb000c00e0009e023200e48747009a
:101870008e1f78000807e8004f89de000404b800d6
:101880000506b8008904460060854e000606b800cb
:101890000a054600e0854e000706b8008b054600a5
:1018a000040eb800890446000a854e00e0854d000c
:1018b000050eb8000a0546008b854e00060eb800de
:1018c0008b0546000416b8000a0546008b854e00bd
:1018d0000516b8008b0546000416b8008b054600b7
:1018e0000c0028000c02440060824c00e0024d0015
:1018f00060834d00cfb3de000700e00004003a0033
:101900000600e00002003a0005f0a30007003900dd
:10191000f4ff2f00f5ff27000003eb008003eb002e
:101920004f077800e48757006e0237000e07e90082
:101930000e00e000d0ff3c004f077800e48757001e
:1019400068023700a4052000848747008f037800d1
:1019500082137800831378000002eb008413780070
:1019600002007800830078004f89de000004b80090
:101970000102b8008904420060854a000202b800f2
:101980000a054200e0854a008b054200000ab800c3
:10199000890442000a854a00e0854d00010ab8002a
:1019a0000a0542008b854a00020ab8008b054200f6
:1019b0008b0542000012b8000a0542008b854a00e0
:1019c0008b05420061044400e0844c0060054d003a
:1019d000e0854d004140de004f4add00040070000c
:1019e000c148de004f52dd00848070004151de00ae
:1019f0004f5add00040171008013780081137800d4
:101a000082137800cf91de000004b8000102b80014
:101a10008904420060854a000202b8000a054200bb
:101a2000e0854a008b054200000ab80089044200a4
:101a30000a854a00e0854d00010ab8000a05420007
:101a40008b854a00020ab8008b0542008b054200d4
:101a50000012b8000a0542008b854a008b0542003f
:101a60000400280084844c0060054d00e0854d0092
:101a70004f48de004152dd0004007000cf50de0010
:101a8000415add00848070004fd9de008013780059
:101a90008113780082137800cf91de000004b80033
:101aa0000102b8008904420060854a000202b800c1
:101ab0000a054200e0854a008b054200000ab80092
:101ac000890442000a854a00e0854d00010ab800f9
:101ad0000a0542008b854a00020ab8008b054200c5
:101ae0008b0542000012b8000a0542008b854a00af
:101af0008b0542000400280084844c0060054d00e2
:101b0000e0854d004f48de004152dd0004007000ca
:101b1000cf50de00415add00848070004fd9de00d6
:101b2000801378008113780082137800cf91de0053
:101b30000004b8000102b8008904420060854a0030
:101b40000202b8000a054200e0854a008b05420007
:101b5000000ab800890442000a854a00e0854d0069
:101b6000010ab8000a0542008b854a00020ab80043
:101b70008b0542008b0542000012b8000a054200a6
:101b80008b854a008b0542000400280084844c00a9
:101b900060054d00e0854d004f48de004152dd00fc
:101ba00004007000cf50de00415add0084807000d8
:101bb0004fd9de00801378008113780082137800fb
:101bc000cf91de000004b8000102b8008904420091
:101bd00060854a000202b8000a054200e0854a001a
:101be0008b054200000ab800890442000a854a00b9
:101bf000e0854d00010ab8000a0542008b854a00c5
:101c0000020ab8008b0542008b0542000012b800a2
:101c10000a0542008b854a008b054200040028001b
:101c200084844c0060054d00e0854d004f48de0087
:101c30004152dd0004007000cf50de00415add004b
:101c4000848070004fd9de00801378008113780003
:101c500082137800cf91de000004b8000102b800c2
:101c60008904420060854a000202b8000a05420069
:101c7000e0854a008b054200000ab8008904420052
:101c80000a854a00e0854d00010ab8000a054200b5
:101c90008b854a00020ab8008b0542008b05420082
:101ca0000012b8000a0542008b854a008b054200ed
:101cb0000400280084844c0060054d00e0854d0040
:101cc0004f48de004152dd0004007000cf50de00be
:101cd000415add00848070004fd9de008013780007
:101ce0008113780082137800cf91de000004b800e1
:101cf0000102b8008904420060854a000202b8006f
:101d00000a054200e0854a008b054200000ab8003f
:101d1000890442000a854a00e0854d00010ab800a6
:101d20000a0542008b854a00020ab8008b05420072
:101d30008b0542000012b8000a0542008b854a005c
:101d40008b0542000400280084844c0060054d008f
:101d5000e0854d004f48de004152dd000400700078
:101d6000cf50de00415add00848070004fd9de0084
:101d7000801378008113780082137800cf91de0001
:101d80000004b8000102b8008904420060854a00de
:101d90000202b8000a054200e0854a008b054200b5
:101da000000ab800890442000a854a00e0854d0017
:101db000010ab8000a0542008b854a00020ab800f1
:101dc0008b0542008b0542000012b8000a05420054
:101dd0008b854a008b0542000400280084844c0057
:101de00060054d00e0854d004f48de004152dd00aa
:101df00004007000cf50de00415add008480700086
:101e00004fd9de00801378008113780082137800a8
:101e1000cf91de000004b8000102b800890442003e
:101e200060854a000202b8000a054200e0854a00c7
:101e30008b054200000ab800890442000a854a0066
:101e4000e0854d00010ab8000a0542008b854a0072
:101e5000020ab8008b0542008b0542000012b80050
:101e60000a0542008b854a008b05420004002800c9
:101e700084844c0060054d00e0854d004f48de0035
:101e80004152dd0004007000cf50de00415add00f9
:101e9000848070004fd9de008013780081137800b1
:101ea00082137800cf91de000004b8000102b80070
:101eb0008904420060854a000202b8000a05420017
:101ec000e0854a008b054200000ab8008904420000
:101ed0000a854a00e0854d00010ab8000a05420063
:101ee0008b854a00020ab8008b0542008b05420030
:101ef0000012b8000a0542008b854a008b0542009b
:101f00000400280084844c0060054d00e0854d00ed
:101f10004f48de004152dd0004007000cf50de006b
:101f2000415add00848070004fd9de0080137800b4
:101f30008113780082137800cf91de000004b8008e
:101f40000102b8008904420060854a000202b8001c
:101f50000a054200e0854a008b054200000ab800ed
:101f6000890442000a854a00e0854d00010ab80054
:101f70000a0542008b854a00020ab8008b05420020
:101f80008b0542000012b8000a0542008b854a000a
:101f90008b0542000400280084844c0060054d003d
:101fa000e0854d004f48de004152dd000400700026
:101fb000cf50de00415add00848070004fd9de0032
:101fc000801378008113780082137800cf91de00af
:101fd0000004b8000102b8008904420060854a008c
:101fe0000202b8000a054200e0854a008b05420063
:101ff000000ab800890442000a854a00e0854d00c5
:10200000010ab8000a0542008b854a00020ab8009e
:102010008b0542008b0542000012b8000a05420001
:102020008b854a008b0542000400280084844c0004
:1020300060054d00e0854d004f48de004152dd0057
:1020400004007000cf50de00415add008480700033
:102050004fd9de0080137800811378008213780056
:10206000cf91de000004b8000102b80089044200ec
:1020700060854a000202b8000a054200e0854a0075
:102080008b054200000ab800890442000a854a0014
:10209000e0854d00010ab8000a0542008b854a0020
:1020a000020ab8008b0542008b0542000012b800fe
:1020b0000a0542008b854a008b0542000400280077
:1020c00084844c0060054d00e0854d004f48de00e3
:1020d0004152dd0004007000cf50de00415add00a7
:1020e000848070004fd9de0080137800811378005f
:1020f00082137800cf91de000004b8000102b8001e
:102100008904420060854a000202b8000a054200c4
:10211000e0854a008b054200000ab80089044200ad
:102120000a854a00e0854d00010ab8000a05420010
:102130008b854a00020ab8008b0542008b054200dd
:102140000012b8000a0542008b854a008b05420048
:102150000400280084844c0060054d00e0854d009b
:102160004f48de004152dd0004007000cf50de0019
:10217000415add00848070004fd9de008013780062
:1021800081137800821378008f037800e683530070
:1021900007037800eb00200027017800a7017800f2
:1021a00027027800cf14de00c11add00058074001c
:1021b0004f1dde00c122dd00850075004fa1de004d
:1021c0000013780001137800021378008b05e900f2
:1021d0000b00e000f0ff3c008f0378004405200076
:1021e0008485530004002000150020000003eb004c
:1021f0008003eb00ea002000e48747008e1f780090
:10220000fe002000e6854500100020000a00dd00e9
:102210000c00e1002b003c0000065600e681550052
:10222000e88747008c9fbe0023007800a300780059
:10223000230178008a9fbe00cf91de000404b8001d
:102240000506b8008904460060854e000606b80001
:102250000a054600e0854e000706b8008b054600db
:10226000040eb800890446000a854e00e0854d0042
:10227000050eb8000a0546008b854e00060eb80014
:102280008b0546000416b8000a0546008b854e00f3
:102290000516b8008b0546000416b8008b054600ed
:1022a0000c0028000c02440060824c00e0024d004b
:1022b00060834d00cfb3de004f05be004f06be0069
:1022c000e8875700610555000e07e9000e00e000a1
:1022d000ccff3c004f077800e4875700a2052000a0
:1022e000828757004f00be004f89de000404b8000b
:1022f0000506b8008904460060854e000606b80051
:102300000a054600e0854e000706b8008b0546002a
:10231000040eb800890446000a854e00e0854d0091
:10232000050eb8000a0546008b854e00060eb80063
:102330008b0546000416b8000a0546008b854e0042
:102340000516b8008b0546000416b8008b0546003c
:102350000400280004044400e0844c0060054d00a3
:10236000e0854d00090078008a0078000b00e0004d
:1023700002003a000af0a30005003900f0ff2f0028
:10238000f1ff270002003700a205200082875700d6
:102390004f06be004f05be004f04be000000060001
:1023a0004f0ade008102780001f0a10003f823004b
:1023b0000118e10004003c00000028000400a60011
:1023c000f0ff2700000006008500780002002000d2
:1023d0000370240086250200000000003203020082
:1023e0000000000000000600000178000100280045
:1023f0000000eb000110e70000000600881f7800d5
:10240000180020000010e600f8ff2f000890b90027
:1024100012002400030028000280e6000080510022
:10242000f28b22000200e10028003d0082482600d5
:102430000281b9000400210004014100e08149004b
:102440004d11de00431add00040071000001780028
:1024500050bb2600f1ff27000110e7001a003700eb
:10246000b0442900110028000110e60016003700d2
:102470000293b9004f33de00c13bdd0087017300da
:10248000c119dd000312b9005155250001abb90097
:10249000c1bbde0007005100032ab90041442400fb
:1024a00001abb900c5bbde0007004000032ab9003c
:1024b0007180260001abb9000540200085834300f0
:1024c000cbbbde00070050003100370003002400c2
:1024d00000805100824826000281b90004002100da
:1024e00004014100e08149004d11de00431add0086
:1024f0000400710011f02f00f20f20000100e10034
:10250000230035000200e10002003c00f0ff27003c
:102510001f003700000178000100280090522400bd
:102520000110e7001a003700f1ff2700f0ff270035
:102530000292b9004f22de00c12add0005027200be
:102540004122dd0001a1b80007002800071bb900e7
:102550000700500003a1b80057552500071bb9001c
:10256000c3bbde000700400003a1b80037d822003b
:10257000071bb900c7bbde000700500003a1b8006d
:10258000070d2000071bb900c7bbde000700400095
:102590000880b9004f047800000006000100280000
:1025a0000000ea000100e7000080ea0000000600e9
:1025b0000080400003003800000028004200ae0008
:1025c000f0ff27000000060000017800810178007c
:1025d0000200e00006003a00110020000118e100ae
:1025e00003003a000000eb008000eb000000060052
:1025f000881f7800030478000300e0000500340021
:102600004210de00ce18dd0000817000c299de00ad
:10261000040037000500240003abb9000229b8000c
:10262000830143000380cf000000e00004003a0073
:102630000300e700000120008280cf0000804000fe
:1026400063005000f00010000112de008019dd0070
:10265000830172000011dd00040024000482510097
:102660004e11de00c222dd0085007100810278007b
:1026700005abb9000600280007b1b8008380500000
:1026800005bbb9006655250007b1b800838040003e
:1026900005bbb9000600240007b1b80083805000d4
:1026a00005bbb9004633230007b1b8008380400062
:1026b00005bbb900a6aa220007b1b800838050006c
:1026c00005bbb9002649220007b1b800838040004d
:1026d00005bbb9000600220007b1b8008380500096
:1026e00005bbb90026c7210007b1b80083804000b0
:1026f00005bbb900a699210007b1b800838050003e
:1027000005bbb9006674210007b1b8000381400021
:10271000f3ff2f006000e10013003a000800e00022
:10272000030034002472210004014100eb814900c0
:10273000e4f226004f98de000413b8000419b80034
:1027400087034100608149000400b8000201400095
:10275000040028000403430060804b00e0004900af
:102760004f047800000006006100e10016003a0006
:1027700024172b0004015100e08159000800e000fb
:10278000030034002472210004014100eb81490060
:10279000e4f226004f98de000413b8000419b800d4
:1027a00087034100608149000400b8000201400035
:1027b000040028000403430060804b00e00049004f
:1027c0004f047800000006006200e10016003a00a5
:1027d000442e260004015100e18159000800e00068
:1027e000030034002472210004014100eb81490000
:1027f000e4f226004f98de000413b8000419b80074
:1028000087034100608149000400b80002014000d4
:10281000040028000403430060804b00e0004900ee
:102820004f047800000006006300e10016003a0043
:102830006445210004015100e28159000800e000d4
:10284000030034002472210004014100eb8149009f
:10285000e4f226004f98de000413b8000419b80013
:1028600087034100608149000400b8000201400074
:10287000040028000403430060804b00e00049008e
:102880004f047800000006006400e10016003a00e2
:10289000845c2c0004015100e28159000800e00032
:1028a000030034002472210004014100eb8149003f
:1028b000e4f226004f98de000413b8000419b800b3
:1028c00087034100608149000400b8000201400014
:1028d000040028000403430060804b00e00049002e
:1028e0004f047800000006006500e10016003a0081
:1028f000a473270004015100e38159000800e0009f
:10290000030034002472210004014100eb814900de
:10291000e4f226004f98de000413b8000419b80052
:1029200087034100608149000400b80002014000b3
:10293000040028000403430060804b00e0004900cd
:102940004f047800000006006600e10016003a001f
:10295000d48a220004015100e48159000800e000fb
:10296000030034002472210004014100eb8149007e
:10297000e4f226004f98de000413b8000419b800f2
:1029800087034100608149000400b8000201400053
:10299000040028000403430060804b00e00049006d
:1029a0004f047800000006006700e10016003a00be
:1029b000f4a12d0004015100e48159000800e00059
:1029c000030034002472210004014100eb8149001e
:1029d000e4f226004f98de000413b8000419b80092
:1029e00087034100608149000400b80002014000f3
:1029f000040028000403430060804b00e00049000d
:102a00004f047800000006006800e10016003a005c
:102a100024b9280004015100e58159000800e000b4
:102a2000030034002472210004014100eb814900bd
:102a3000e4f226004f98de000413b8000419b80031
:102a400087034100608149000400b8000201400092
:102a5000040028000403430060804b00e0004900ac
:102a60004f047800000006006900e10016003a00fb
:102a700044d0230004015100e68159000800e00021
:102a8000030034002472210004014100eb8149005d
:102a9000e4f226004f98de000413b8000419b800d1
:102aa00087034100608149000400b8000201400032
:102ab000040028000403430060804b00e00049004c
:102ac0004f047800000006006a00e10016003a009a
:102ad00054e72e0004015100e68159000800e0008f
:102ae000030034002472210004014100eb814900fd
:102af000e4f226004f98de000413b8000419b80071
:102b000087034100608149000400b80002014000d1
:102b1000040028000403430060804b00e0004900eb
:102b20004f047800000006006b00e10016003a0038
:102b300074fe290004015100e78159000800e000fb
:102b4000030034002472210004014100eb8149009c
:102b5000e4f226004f98de000413b8000419b80010
:102b600087034100608149000400b8000201400071
:102b7000040028000403430060804b00e00049008b
:102b80004f047800000006006c00e10016003a00d7
:102b90009415250004015100e88159000800e00067
:102ba000030034002472210004014100eb8149003c
:102bb000e4f226004f98de000413b8000419b800b0
:102bc00087034100608149000400b8000201400011
:102bd000040028000403430060804b00e00049002b
:102be0004f047800000006006d00e10016003a0076
:102bf000c42c200004015100e98159000800e000c4
:102c0000030034002472210004014100eb814900db
:102c1000e4f226004f98de000413b8000419b8004f
:102c200087034100608149000400b80002014000b0
:102c3000040028000403430060804b00e0004900ca
:102c40004f047800000006006e00e10016003a0014
:102c5000e4432b0004015100e98159000800e00021
:102c6000030034002472210004014100eb8149007b
:102c7000e4f226004f98de000413b8000419b800ef
:102c800087034100608149000400b8000201400050
:102c9000040028000403430060804b00e00049006a
:102ca0004f04780000000600045b26000401510078
:102cb000ea8159000800e00003003400247221007a
:102cc00004014100eb814900e4f226004f98de0048
:102cd0000413b8000419b80087034100608149005b
:102ce0000400b8000201400004002800040343006f
:102cf00060804b00e00049004f04780000000000b5
:102d00000000060000027800810278000000e00068
:102d100010003a000200280081017800000028001d
:102d2000cf80de000218e70000000600f2ff270057
:102d3000000028008000eb000218e70000000600f9
:102d4000f0ff2f00f1ff27000001eb000218e70061
:102d500000000600889fbe008a9fbe008c9fbe00b8
:102d600004007800850078001800200001f0a3001e
:102d700004003900f8ff2f0001c2b9000040b9007b
:102d800081004200881f7800809fbe008181cf00b3
:102d90000300e00004003a000118e70003012000ee
:102da0000081cf0083014100e28151007018e100f1
:102db00008003c000300e0000900320070811100af
:102dc0000202de008308dd00848070000300dd0065
:102dd00003003700708151008200dd000000eb002d
:102de000831f7800050028000002eb00000152005c
:102df00081815a00858041000414b8000516b8008e
:102e00008904460060854e008005eb00040eb80082
:102e1000890446000a854e00e0854d00050eb80085
:102e20000a0546008b854e004f48de00c150dd008c
:102e3000010370004f50de00c158dd0081037000b7
:102e40000214b8000316b8008904460060854e00dd
:102e50008005eb00890446000a854e00e0854d00a0
:102e6000031eb8000a0546008b854e004f48de0061
:102e7000c150dd00010170004f50de00c158dd007f
:102e80008101700000002800808041000614b80015
:102e90000716b8008904460060854e008005eb00e7
:102ea000060eb800890446000a854e00e0854d00f4
:102eb000070eb8000a0546008b854e004f48de001d
:102ec000c150dd00010370004f50de00c158dd002d
:102ed000810370000214b8000316b800890446008c
:102ee00060854e008005eb00890446000a854e008f
:102ef000e0854d00031eb8000a0546008b854e0094
:102f00004f48de00c150dd00010170004f50de006f
:102f1000c158dd0081017000000028008080410060
:102f20000614b8000716b8008904460060854e00f4
:102f30008005eb00060eb800890446000a854e00a5
:102f4000e0854d00070eb8000a0546008b854e004f
:102f50004f48de00c150dd00010370004f50de001d
:102f6000c158dd00810370000214b8000316b800d8
:102f70008904460060854e008005eb008904460008
:102f80000a854e00e0854d00031eb8000a05460084
:102f90008b854e004f48de00c150dd0001017000fe
:102fa0004f50de00c158dd00810170000000280094
:102fb000808041000614b8000716b8008904460056
:102fc00060854e008005eb00060eb80089044600bf
:102fd0000a854e00e0854d00070eb8000a05460040
:102fe0008b854e004f48de00c150dd0001037000ac
:102ff0004f50de00c158dd00810370000214b8009c
:103000000316b8008904460060854e008005eb0079
:10301000890446000a854e00e0854d00031eb80075
:103020000a0546008b854e004f48de00c150dd008a
:10303000010170004f50de00c158dd0081017000b9
:1030400000002800808041000614b8000716b80070
:103050008904460060854e008005eb00060eb8002e
:10306000890446000a854e00e0854d00070eb80031
:103070000a0546008b854e004f48de00c150dd003a
:10308000010370004f50de00c158dd008103700065
:103090000214b8000316b8008904460060854e008b
:1030a0008005eb00890446000a854e00e0854d004e
:1030b000031eb8000a0546008b854e004f48de000f
:1030c000c150dd00010170004f50de00c158dd002d
:1030d0008101700000002800808041000614b800c3
:1030e0000716b8008904460060854e008005eb0095
:1030f000060eb800890446000a854e00e0854d00a2
:10310000070eb8000a0546008b854e004f48de00ca
:10311000c150dd00010370004f50de00c158dd00da
:10312000810370000214b8000316b8008904460039
:1031300060854e008005eb00890446000a854e003c
:10314000e0854d00031eb8000a0546008b854e0041
:103150004f48de00c150dd00010170004f50de001d
:10316000c158dd008101700000002800808041000e
:103170000614b8000716b8008904460060854e00a2
:103180008005eb00060eb800890446000a854e0053
:10319000e0854d00070eb8000a0546008b854e00fd
:1031a0004f48de00c150dd00010270004f50de00cc
:1031b000c158dd0081027000cf01780012002000ac
:1031c0007018e10004003c00f08011008110de0066
:1031d0000310dd0003003700f08051008110dd0096
:1031e0000000eb004f89de00820178000404b80083
:1031f0000506b8008904460060854e00040eb8003c
:10320000890446000a854e00050eb8000a054600ee
:103210000416b8000a054600e00546004f02be004d
:103220004e22de00422edd000c027200ce2ade00ad
:10323000570020000500e00002003a000720e100ee
:10324000050035000700240007044400e0844c001a
:1032500060054d00e0854d004f40de00414add0035
:1032600004007000cf48de004152dd008480700011
:103270004f51de00415add00040171000200e00000
:1032800002003a0001f0a30002003900f0ff2f0015
:10329000f1ff27004f04780001c2b9000040b900d7
:1032a000810042004f06be004f05be004f04be0025
:1032b0000000060000027800810278000000e000b3
:1032c00010003a000200280081017800e0ff2f0082
:1032d000cf80de000218e70000000600f2ff2700a2
:1032e00020002000cf80de000218e700000006006a
:1032f000f0ff2f00f1ff27000001eb000218e700ac
:1033000000000600889fbe008a9fbe008c9fbe0002
:1033100004007800850078001800200001f0a30068
:1033200004003900f8ff2f0001c2b9000040b900c5
:1033300081004200881f78008181cf000300e000f7
:1033400004003a000118e700030120000081cf00cb
:10335000830141000002eb00e38151000418e60004
:103360008001eb007018e10006003c007081110044
:103370000202de008308dd00848070000300dd00af
:1033800003003700708151008200dd000000eb0077
:10339000831f7800050024000002eb0000015200aa
:1033a00081815a00858041000414b8000516b800d8
:1033b0008904460060854e008005eb00040eb800cd
:1033c000890446000a854e00e0854d00050eb800d0
:1033d0000a0546008b854e004e48de00c250dd00d7
:1033e000010370004e50de00c258dd008103700002
:1033f0000214b8000316b8008904460060854e0028
:103400008005eb00890446000a854e00e0854d00ea
:10341000031eb8000a0546008b854e004e48de00ac
:10342000c250dd00010170004e50de00c258dd00c8
:103430008101700000002400808041000614b80063
:103440000716b8008904460060854e008005eb0031
:10345000060eb800890446000a854e00e0854d003e
:10346000070eb8000a0546008b854e004e48de0068
:10347000c250dd00010370004e50de00c258dd0076
:10348000810370000214b8000316b80089044600d6
:1034900060854e008005eb00890446000a854e00d9
:1034a000e0854d00031eb8000a0546008b854e00de
:1034b0004e48de00c250dd00010170004e50de00bb
:1034c000c258dd00810170000000240080804100ae
:1034d0000614b8000716b8008904460060854e003f
:1034e0008005eb00060eb800890446000a854e00f0
:1034f000e0854d00070eb8000a0546008b854e009a
:103500004e48de00c250dd00010370004e50de0068
:10351000c258dd00810370000214b8000316b80021
:103520008904460060854e008005eb008904460052
:103530000a854e00e0854d00031eb8000a054600ce
:103540008b854e004e48de00c250dd000101700048
:103550004e50de00c258dd008101700000002400e2
:10356000808041000614b8000716b80089044600a0
:1035700060854e008005eb00060eb8008904460009
:103580000a854e00e0854d00070eb8000a0546008a
:103590008b854e004e48de00c250dd0001037000f6
:1035a0004e50de00c258dd00810370000214b800e6
:1035b0000316b8008904460060854e008005eb00c4
:1035c000890446000a854e00e0854d00031eb800c0
:1035d0000a0546008b854e004e48de00c250dd00d5
:1035e000010170004e50de00c258dd008101700004
:1035f00000002400808041000614b8000716b800bf
:103600008904460060854e008005eb00060eb80078
:10361000890446000a854e00e0854d00070eb8007b
:103620000a0546008b854e004e48de00c250dd0084
:10363000010370004e50de00c258dd0081037000af
:103640000214b8000316b8008904460060854e00d5
:103650008005eb00890446000a854e00e0854d0098
:10366000031eb8000a0546008b854e004e48de005a
:10367000c250dd00010170004e50de00c258dd0076
:103680008101700000002400808041000614b80011
:103690000716b8008904460060854e008005eb00df
:1036a000060eb800890446000a854e00e0854d00ec
:1036b000070eb8000a0546008b854e004e48de0016
:1036c000c250dd00010370004e50de00c258dd0024
:1036d000810370000214b8000316b8008904460084
:1036e00060854e008005eb00890446000a854e0087
:1036f000e0854d00031eb8000a0546008b854e008c
:103700004e48de00c250dd00010170004e50de0068
:10371000c258dd008101700000002400808041005b
:103720000614b8000716b8008904460060854e00ec
:103730008005eb00060eb800890446000a854e009d
:10374000e0854d00070eb8000a0546008b854e0047
:103750004e48de00c250dd00010270004e50de0017
:10376000c258dd0081027000cf01780012002000f5
:103770007018e10004003c00f08011008110de00b0
:103780000310dd0003003700f08051008110dd00e0
:103790000000eb004f89de00cf89de004fabde007a
:1037a000cfabde000404b8000506b800890446006b
:1037b00060854e000606b8000a054600e0854e000a
:1037c0000706b8008b054600040eb80089044600c1
:1037d0000a854e00e0854d00050eb8000a0546003a
:1037e0008b854e00060eb8008b0546000416b80007
:1037f0000a0546008b854e000516b8008b0546006d
:10380000041eb8008b0546004e40de00424add0033
:1038100004007000ce48de004252dd00848070005b
:103820004e51de00425add00040171004f04780061
:103830000200e00003003400f0ff2f00f1ff27003a
:103840000500370001f0a30003003900f0ff2f004e
:10385000f1ff27000000370001c2b9000040b900a5
:10386000810042004f06be004f05be004f04be005f
:10387000000006000080000000000000f15b000076
:1038800001000000cdb1000003000000f30a0000b9
:103890000a000000904c00001b000000e234000011
:1038a0004a000000e3b60000c90000000b51000010
:1038b000240200009f7a0000d2050000be8a0000aa
:1038c000d30f00009f3b0000052b000024120000d6
:1038d000f1740000000000002d5e0000a522000031
:1038e000bf0c0000b0040000ba010000a2000000fc
:1038f0003c0000001600000008000000030000006b
:1039000001000000889fbe008a9fbe008c9fbe0001
:1039100001047800829fbe000001780081017800d8
:103920000300e000050034004112de00cf1add0084
:1039300004817200c199de000400370005002800f0
:1039400003abb9000229b800830143000002eb0079
:103950000380cf000000e00004003a000300e7000d
:10396000000120008280cf000080400062005000f3
:10397000f00010000112de008019dd0083017200ea
:103980000011dd000400280004825100c113de0094
:10399000cf22dd00858073008402780041a2de0022
:1039a0004f11de00c12add008502710005abb900b0
:1039b0000600220007b1b9008280500003025a00bd
:1039c00005bbb9005655210007b1b90082804000ff
:1039d00003024a0005bbb9000600210007b1b90087
:1039e0008280500003025a0005bbb900d6cc2000eb
:1039f00007b1b9008280400003024a0005bbb9004c
:103a0000b6aa200007b1b9008280500003025a0014
:103a100005bbb9005692200007b1b9008280400072
:103a200003024a0005bbb9000680200007b1b900b7
:103a30008280500003025a0005bbb900c671200005
:103a400007b1b9008280400003024a0005bbb900fb
:103a50006666200007b1b9008280500003025a0058
:103a600005bbb900165d200007b1b9008280400097
:103a700003024a00c508de00cb22dd00058170008c
:103a8000c5a1de006000e1000b003a000800e00084
:103a900004003400e5622100f42f240004014100f9
:103aa000858149004910de00c71add00050070005d
:103ab000c998de00fd0037006100e10010003a0007
:103ac0002516200004432e00040151008581590071
:103ad0000800e00005003400e5622100f42f240016
:103ae00004014100858149004110de004910de00db
:103af000c71add0005007000c998de00eb00370032
:103b00006200e1000f003a00552c200004862c00d2
:103b100004015100858159000800e00004003400d0
:103b2000e5622100f42f2400040141008581490051
:103b30004910de00c71add0005007000c998de00dc
:103b4000da0037006300e1000f003a0085422000f0
:103b500004c92a0004015100858159000800e000d1
:103b600004003400e5622100f42f24000401410028
:103b7000858149004910de00c71add00050070008c
:103b8000c998de00c90037006400e1000f003a0068
:103b9000b5582000040c290004015100858159000a
:103ba0000800e00004003400e5622100f42f240046
:103bb00004014100858149004910de00c71add007b
:103bc00005007000c998de00b80037006500e1000c
:103bd0000f003a00e56e2000044f27000401510059
:103be000858159000800e00004003400e5622100ee
:103bf000f42f240004014100858149004910de00b2
:103c0000c71add0005007000c998de00a700370064
:103c10006600e1000f003a0015852000049225009f
:103c200004015100858159000800e00004003400bf
:103c3000e5622100f42f2400040141008581490040
:103c40004910de00c71add0005007000c998de00cb
:103c5000960037006700e1000f003a00459b200006
:103c6000f4d4230004015100858159000800e000cc
:103c700004003400e5622100f42f24000401410017
:103c8000858149004910de00c71add00050070007b
:103c9000c998de00850037006800e1000f003a0097
:103ca00075b12000e41722000401510085815900fc
:103cb0000800e00004003400e5622100f42f240035
:103cc00004014100858149004910de00c71add006a
:103cd00005007000c998de00740037006900e1003b
:103ce0000f003a00a5c72000f45a2000040151003b
:103cf000858159000800e00004003400e5622100dd
:103d0000f42f240004014100858149004910de00a0
:103d1000c71add0005007000c998de006300370097
:103d20006a00e1000f003a00c5dd2000f49d2e007e
:103d300004015100858159000800e00004003400ae
:103d4000e5622100f42f240004014100858149002f
:103d50004910de00c71add0005007000c998de00ba
:103d6000520037006b00e1000f003a00f5f320002d
:103d7000f4e02c0004015100858159000800e000a6
:103d800004003400e5622100f42f24000401410006
:103d9000858149004910de00c71add00050070006a
:103da000c998de00410037006c00e1000f003a00c6
:103db000250a2100f4232b000401510085815900bc
:103dc0000800e00004003400e5622100f42f240024
:103dd00004014100858149004910de00c71add0059
:103de00005007000c998de00300037006d00e1006a
:103df0000f003a0055202100f4662900040151000b
:103e0000858159000800e00004003400e5622100cb
:103e1000f42f240004014100858149004910de008f
:103e2000c71add0005007000c998de001f003700ca
:103e30006e00e1000f003a0085362100f4a927004a
:103e400004015100858159000800e000040034009d
:103e5000e5622100f42f240004014100858149001e
:103e60004910de00c71add0005007000c998de00a9
:103e70000e003700b54c2100e4ec25000401510090
:103e8000858159000800e00004003400e56221004b
:103e9000f42f240004014100858149004910de000f
:103ea000c71add0005007000c998de004f02be0091
:103eb0004f89de004fabde000404b8000506b800f1
:103ec0008904460060854e000606b8000a054600d3
:103ed000e0854e008b054600040eb80089044600bc
:103ee0000a854e00e0854d00050eb8000a05460023
:103ef0008b854e00060eb8008b0546000416b800f0
:103f00000a0546008b854e000516b8008b05460055
:103f10000416b8008b0546004242de00ce49dd00a3
:103f200003047200c24ade00ce51dd0083847200b9
:103f30004253de00ce59dd0003057300c2ddde0012
:103f40000bf0a3000e003100b5962900f49d2d0062
:103f50000802520089825a0062031d00e0835d005e
:103f600007f0a30016003900f0ff2f00f1ff270033
:103f70004f06be004f05be004f04be000000060005
:103f800034a22100b5dd2000d6ff2f00f7ff2f005f
:103f90000402540085825c0006035d0087835d0097
:103fa00007f0a300060039008000eb000000eb00e2
:103fb0004f06be004f05be004f04be0000000600c5
:103fc0004e4ade00c252dd00048272008002eb0025
:103fd00004f0a700150020000001eb000590e700a9
:103fe0000402ea00849fbe0004aab90009e0a1000f
:103ff00009f0a1000003eb000700240008034300c0
:1040000089834b0008007800890078004f89de0022
:104010000004b8000106b8008904460060854e001f
:104020000206b8000a0546008c854e00000eb80056
:10403000890446000a854e00e0854d00010eb80057
:104040000a0546008b854e00020eb8008b0546001f
:104050008b0546000016b8000a0546008b854e0009
:104060008b0546004e4ade00c254dd000482740017
:10407000ce52de00c25cdd008582740008002400a0
:104080004fa9de008005eb000446b800e0044600be
:1040900060854e00e0854d000546b8000a054600e3
:1040a0008b854e000246b8008b05460002002400b6
:1040b0008284440060054d00e0854d004f49de00dc
:1040c000c154dd0002817400cf51de00c15cdd000f
:1040d000838174000203430083834b004f89de0019
:1040e000cfa9de000404b8000506b8008904460024
:1040f00060854e000306b8000a054600e0854e00c4
:104100000306b8008b054600040eb800890446007b
:104110000a854e00e0854d00050eb8000a054600f0
:104120008b854e00030eb8008b0546000416b800c0
:104130000a0546008b854e000516b8008b05460023
:104140000416b8008b054600e184440060054d006c
:10415000e0854d004e4ade00c254dd00048274004a
:10416000ce52de00c25cdd0085827400b3aa2a0054
:104170000324b800a8aa20000826b8008904460035
:1041800060854e008005eb00032eb80089044600d0
:104190000a854e00e0854d00082eb8000a0546004d
:1041a0008b854e004fa9de000316b8000a054600b5
:1041b0008b854e000816b8008b0546000316b80024
:1041c0008b054600080022008884440060054d00ed
:1041d000e0854d004e49de00c254dd0002817400ce
:1041e000ce51de00c25cdd00838174000203430017
:1041f00083834b004f89de00cfa9de000404b800a2
:104200000506b8008904460060854e000306b80024
:104210000a054600e0854e000306b8008b054600ff
:10422000040eb800890446000a854e00e0854d0062
:10423000050eb8000a0546008b854e00030eb80037
:104240008b0546000416b8000a0546008b854e0013
:104250000516b8008b0546000416b8008b0546000d
:10426000e184440060054d00e0854d004e4ade00cb
:10427000c254dd0004827400ce52de00c25cdd0058
:1042800085827400b3aa2a000324b800a82a20005b
:104290000826b8008904460060854e008005eb00c2
:1042a000032eb800890446000a854e00e0854d00c3
:1042b000082eb8000a0546008b854e004fa9de0087
:1042c0000316b8000a0546008b854e000816b80094
:1042d0008b0546000316b8008b0546000800220037
:1042e0008884440060054d00e0854d004e49de00a5
:1042f000c254dd0002817400ce51de00c25cdd00dc
:10430000838174000203430083834b004f89de00e6
:10431000cfa9de000404b8000506b80089044600f1
:1043200060854e000306b8000a054600e0854e0091
:104330000306b8008b054600040eb8008904460049
:104340000a854e00e0854d00050eb8000a054600be
:104350008b854e00030eb8008b0546000416b8008e
:104360000a0546008b854e000516b8008b054600f1
:104370000416b8008b0546004e4ade00c254dd002c
:1043800004827400ce52de00c25cdd0085827400bf
:10439000938828000324b800880820000826b80065
:1043a0008904460060854e008005eb00032eb800ae
:1043b000890446000a854e00e0854d00082eb800ad
:1043c0000a0546008b854e004fa9de000316b80093
:1043d0000a0546008b854e000816b8008b0546007e
:1043e0000316b8008b0546000800220088844400ac
:1043f00060054d00e0854d004e49de00c254dd00f1
:1044000002817400ce51de00c25cdd008381740045
:104410000203430083834b004f89de00cfa9de00f7
:104420000404b8000506b8008904460060854e0003
:104430000306b8000a054600e0854e000306b800f2
:104440008b054600040eb800890446000a854e001c
:10445000e0854d00050eb8000a0546008b854e002c
:10446000030eb8008b0546000416b8000a05460086
:104470008b854e000516b8008b0546000416b80063
:104480008b0546004e4ade00c254dd0004827400f3
:10449000ce52de00c25cdd0085827400c3162c00a3
:1044a0000324b800680120000826b80089044600eb
:1044b00060854e008005eb00032eb800890446009d
:1044c0000a854e00e0854d00082eb8000a0546001a
:1044d0008b854e004fa9de000316b8000a05460082
:1044e0008b854e000816b8008b0546000316b800f1
:1044f0008b054600080022008884440060054d00ba
:10450000e0854d004e49de00c254dd00028174009a
:10451000ce51de00c25cdd008381740002034300e3
:1045200083834b004f89de00cfa9de000404b8006e
:104530000506b8008904460060854e000306b800f1
:104540000a054600e0854e000306b8008b054600cc
:10455000040eb800890446000a854e00e0854d002f
:10456000050eb8000a0546008b854e00030eb80004
:104570008b0546000416b8000a0546008b854e00e0
:104580000516b8008b0546000416b8008b054600da
:104590004e4ade00c254dd0004827400ce52de00ba
:1045a000c25cdd0085827400430324000324b8004c
:1045b000380020000826b8008904460060854e00b7
:1045c0008005eb00032eb800890446000a854e00e2
:1045d000e0854d00082eb8000a0546008b854e0088
:1045e0004fa9de000316b8000a0546008b854e0071
:1045f0000816b8008b0546000316b8008b05460068
:10460000080022008884440060054d00e0854d00cc
:104610004e49de00c254dd0002817400ce51de003e
:10462000c25cdd00838174000203430083834b007e
:104630004f89de00cfa9de000404b8000506b800eb
:104640008904460060854e000306b8000a0546004e
:10465000e0854e000306b8008b054600040eb80046
:10466000890446000a854e00e0854d00050eb8001d
:104670000a0546008b854e00030eb8008b054600e8
:104680000416b8000a0546008b854e000516b800d2
:104690008b0546000416b8008b0546004e4ade0026
:1046a000c254dd0004827400ce52de00c25cdd0024
:1046b00085827400738026000324b8008005eb0017
:1046c000032eb800e004460060854e00e0854d00f2
:1046d0004fa9de000316b8000a0546008b854e0080
:1046e0000316b8008b0546000800220088844400a9
:1046f00060054d00e0854d004e49de00c254dd00ee
:1047000002817400ce51de00c25cdd008381740042
:104710000203430083834b004f89de00cfa9de00f4
:104720000404b8000506b8008904460060854e0000
:104730000306b8000a054600e0854e000306b800ef
:104740008b054600040eb800890446000a854e0019
:10475000e0854d00050eb8000a0546008b854e0029
:10476000030eb8008b0546000416b8000a05460083
:104770008b854e000516b8008b0546000416b80060
:104780008b0546004e4ade00c254dd0004827400f0
:10479000ce52de00c25cdd0085827400f3b82000da
:1047a0000324b8008005eb00032eb800e0044600a7
:1047b00060854e00e0854d004fa9de000316b8006d
:1047c0000a0546008b854e000316b8008b0546008f
:1047d000080022008884440060054d00e0854d00fb
:1047e0004e49de00c254dd0002817400ce51de006d
:1047f000c25cdd00838174000203430083834b00ad
:104800004f89de00cfa9de000404b8000506b80019
:104810008904460060854e000306b8000a0546007c
:10482000e0854e000306b8008b054600040eb80074
:10483000890446000a854e00e0854d00050eb8004b
:104840000a0546008b854e00030eb8008b05460016
:104850000416b8000a0546008b854e000516b80000
:104860008b0546000416b8008b0546004e4ade0054
:10487000c254dd0004827400ce52de00c25cdd0052
:1048800085827400831220000324b8008005eb00a9
:10489000032eb800e004460060854e00e0854d0020
:1048a0004fa9de000316b8000a0546008b854e00ae
:1048b0000316b8008b0546000800220088844400d7
:1048c00060054d00e0854d004e49de00c254dd001c
:1048d00002817400ce51de00c25cdd008381740071
:1048e0000203430083834b004f89de00cfa9de0023
:1048f0000404b8000506b8008904460060854e002f
:104900000306b8000a054600e0854e000306b8001d
:104910008b054600040eb800890446000a854e0047
:10492000e0854d00050eb8000a0546008b854e0057
:10493000030eb8008b0546000416b8000a054600b1
:104940008b854e000516b8008b0546000416b8008e
:104950008b0546004e4ade00c254dd00048274001e
:10496000ce52de00c25cdd0085827400b3012000ff
:104970000324b8008005eb00032eb800e0044600d5
:1049800060854e00e0854d004fa9de000316b8009b
:104990000a0546008b854e000316b8008b054600bd
:1049a000080022008884440060054d00e0854d0029
:1049b0004e49de00c254dd0002817400ce51de009b
:1049c000c25cdd00838174000203430083834b00db
:1049d0004f02be000500e00030003a004222dd0038
:1049e0000000200090018800a1c3210084804000c5
:1049f0003100ba009100ba004f89de00060278004b
:104a0000870278000003eb000404b8000506b80034
:104a10008904460060854e000606b8000a05460077
:104a2000e0854e008b054600040eb8008904460060
:104a30000a854e00e0854d00050eb8000a054600c7
:104a40008b854e00060eb8008b0546000416b80094
:104a50000a0546008b854e000516b8008b054600fa
:104a60008b054600040021008484440060054d004d
:104a7000e0854d00cd4cde004352dd000480740023
:104a80004d55de00435add00840075004f06be0020
:104a90004f05be004f04be00000006004122dd00ad
:104aa0000000200090018800a1c621008480400001
:104ab0001100ba0006027800870278000003eb00bc
:104ac0000404b8000506b8008904460060854e005d
:104ad0000606b8000a054600e0854e008b05460034
:104ae0008b054600ce4cde004252dd00048074008f
:104af0004e55de00425add00840075004f06be00b0
:104b00004f05be004f04be0000000600038368008e
:104b10000700280007036300470ade000480a100a5
:104b2000c71ade000580a100f70f20000720e10072
:104b3000420032000728e10040003200889fbe009a
:104b40008a9fbe008c1f7800f107b200f307b20005
:104b50000400e000640032000170a0000500e000e5
:104b6000680032000370a00085054200eb07b10029
:104b70000204b8000302b8008484440060854a003f
:104b8000020ab800848444000a854a00030ab80077
:104b900004054500040033000804d0008984d200d5
:104ba0000a85d2008b05e9006158e1003d0035001f
:104bb00002102000090161000308200089816100c2
:104bc000f70720008783640008867300c84cde0066
:104bd000c853dd00878474004855de000300e00000
:104be0000600320082037600040032008904e800e7
:104bf00060054d000a88a3000c003a00f70f200062
:104c00000758e10044003d000a70a100c75ddd00c7
:104c10000a8575008a007300090078004f06780045
:104c20004f05be004f04be00000006000a05d1007b
:104c30008984d3008b05e800f0ff3700881f7800d7
:104c40000604780025010700070278000001fd0036
:104c50008101fd00210107008702780085037200b1
:104c60000778a300050032000001fd008101fd006e
:104c7000340107004f04780000000600850372002d
:104c80000748a30003003200f0ff2f00f1ff2700c8
:104c9000f8ff37000000200001f82700888070002e
:104ca000f4ff3700880178004848dd0080817100fa
:104cb0004848de00c850dd0001007000c850de002a
:104cc000060478000b017800270107008880700037
:104cd000d2ff37000500e000050032001700200079
:104ce0004b0107009dff370081037000f9ff3a0078
:104cf000860078004f0678004f05be004f04be00c6
:104d00000000050083037100f9ff32002700200036
:104d10003f01070094ff370001f8270086807000ec
:104d2000f4ff370007f82700078361000638e10029
:104d300004003a00f70720008783610087037100b1
:104d400001003a0003f0a200889fbe008a9fbe00c7
:104d50008c9fbe00470ade000480a100c71ade0057
:104d60000580a10007002800078560008785610095
:104d7000f70f20000720e1009e0032000728e10025
:104d80009c003200010678000400e000b40032000c
:104d9000f7072000878060000170a0000500e00098
:104da000c0003200f7072000878161000370a00077
:104db000050652000f003a000b50e1000b003200d4
:104dc0000308e10002003a000200e1007e00320028
:104dd0000204500083845800040031000001fd00eb
:104de0008101fd008402fd008a05fd006044b800d9
:104df000210037000520e10005003d000001fd0015
:104e00008101fd008402fd008a05fd0005065200b7
:104e10007a60e100050035000170a1004722dd0045
:104e2000848070008a807000630037006044b8009e
:104e3000ef02660007ff2f00070666000500e0008e
:104e400006003400f08312008714dd000511de0037
:104e5000071bdd00060171008519de007060e100ae
:104e60000500350009047800820478000301780009
:104e70008001eb00700656000b50e10003003a0081
:104e800002004000838048000400370060041400e2
:104e9000e0841c0002005800838058000188a300b1
:104ea000060032008100d1000080d3008984d30045
:104eb0000884d3000402e800270037000178a3002b
:104ec00025003a000100e000030032008186cf0097
:104ed000698656000a0037008c0020000000e000c0
:104ee00004003a0009007800880478000004eb0010
:104ef000700252008086cf000d0646000c06e900c5
:104f00007060e1000600350080007800090078003c
:104f1000880478000004eb0070065600700252000e
:104f20000c00e0000c0034008c08dd00f0031600db
:104f30000703de00868070000c00dd00074bde00fa
:104f4000060070008c4cdd000743de008684740090
:104f50000c44dd000c0252006120e100200035000d
:104f6000610160000700280087816400f7ff2700c7
:104f700087836400070374000300e000060032002a
:104f800082037300040032000000e800e080480063
:104f90000188a3000e003a00f70f20000720e1006f
:104fa0004a003d000170a1004722dd00810072002f
:104fb0008a8070000000be004f06be004f05be0094
:104fc0004f04be00000006006000b800faff370082
:104fd0008100d1000080d3000402e800eeff37001a
:104fe00004017800890174005f0007008a80700066
:104ff000f1ff370039000700070278000001fd00cb
:105000008101fd00350007008702780085037200ea
:105010000778a300040032000001fd008101fd00bb
:1050200048000700e4ff3700850362000768a3001b
:10503000080032000b50e10003003200f0ff2f00a7
:10504000f1ff2700dcff37000001fd008101fd00ba
:10505000d9ff37000468a300d7ff3200faff3700fa
:10506000f8ff2700888360000b003a000000e00092
:1050700009003a0083036400828373000200320057
:105080000200be00ccff37000b50e100ceff3a001b
:105090000200be00c8ff3700140020008100640039
:1050a0003eff3700f8ff27008883610004003a00c4
:1050b0000200e00002003a008c007800beff3700da
:1050c000150020008301640039ff370001f8270034
:1050d0000000200081007500b7ff37002700200086
:1050e00001f0a70017002000470bde00f60fb2000a
:1050f000040032000643e8000a0032004702b30011
:105100000000060001037800f607b20006037000f5
:1051100002003a000703b300000006008702b30054
:105120000000060001037800f607b20006037000d5
:10513000020032000770a000000006000760a00017
:10514000000006000478a300040032000578a300e4
:10515000030032000168a30001003a000200be0013
:105160000160a000000006000100e00026003200ff
:10517000610111007810e10023003c006022b800ba
:105180007010e10004003500800278000100780012
:105190008000eb00700151000200e00009003400c3
:1051a00070031100062add00822ade008603dd007e
:1051b000878272000200de00860bdd0007007000af
:1051c0008208de0084817100f4ff270004826200ff
:1051d0008481710004002800848262006102600002
:1051e00005f0a600000006000482710007003200ee
:1051f0000000e800e0804800000006000002be0059
:105200006000b800efff37006000b8000000060043
:10521000889fbe000004eb006138e10016003a00f0
:105220000100e00008003a00c800de004800dd0090
:10523000880020000100e00003003a00c800de0002
:105240004800dd00680444008184cf00e9845400f4
:10525000060034008908dd00f08314008703de00b7
:10526000878070000900dd00090444006102140019
:105270004f04be00000006000300e00008003a00f2
:10528000c811de004811dd00880020000300e000a6
:1052900003003a00c811de004811dd006804440034
:1052a0008384cf00e9845400060034008919dd00ae
:1052b000f08314008713de00878171000911dd007f
:0c52c00009044400e1021400e9ff37007b
:020000040000fa
:0200000401f009
:04000800ffff0000f6
:020000040000fa
:0200000401f009
:04000c00f8ff0000f9
:020000040000fa
:0200000401f009
:040010007bff000072
:020000040000fa
:0200000401f009
:040014007fff00006a
:020000040000fa
:100008002e0300002e0300002e0300002e03000024
:100018002e0300002e0300002e0300002e03000014
:100028002e0300002e0300002e0300002e03000004
:100038002e0300002e0300002e0300002e030000f4
:100048002e0300002e0300002e0300002e030000e4
:100058002e0300002e0300002e0300002e030000d4
:100068002e0300002e0300002e0300002e030000c4
:100078002e0300002e0300002e0300002e030000b4
:100088002e0300002e0300002e0300002e030000a4
:100098002e0300002e0300002e0300002e03000094
:1000a8002e0300002e0300002e0300002e03000084
:1000b8002e0300002e0300002e0300002e03000074
:1000c8002e0300002e0300002e0300002e03000064
:1000d8002e0300002e0300002e0300002e03000054
:1000e8002e0300002e0300002e0300002e03000044
:1000f8002e0300002e0300002e0300002e03000034
:100108002e0300002e0300002e0300002e03000023
:100118002e0300002e0300002e0300002e03000013
:100128002e0300002e0300002e0300002e03000003
:100138002e0300002e0300002e0300002e030000f3
:100148002e0300002e0300002e0300002e030000e3
:100158002e0300002e03000022030000f802000016
:100168002e0300002e0300002e0300002e030000c3
:100178002e0300002e0300002e0300002e030000b3
:100188002e0300002e0300002e0300002e030000a3
:100198002e0300002e0300002e0300002e03000093
:1001a8002e0300002e0300002e0300002e03000083
:1001b8002e0300002e0300002e0300002e03000073
:1001c8002e0300002e0300002e0300002e03000063
:1001d8002e0300002e0300002e0300002e03000053
:1001e8002e0300002e0300002e0300002e03000043
:0801f8002e0300002e0300009d
:020000040000fa
:100208002e0300002e0300002e0300002e03000022
:100218002e0300002e0300002e0300002e03000012
:100228002e0300002e0300002e0300002e03000002
:100238002e0300002e0300002e0300002e030000f2
:100248002e0300002e0300002e0300002e030000e2
:100258002e0300002e0300002e0300002e030000d2
:100268002e0300002e0300002e0300002e030000c2
:100278002e0300002e0300002e0300002e030000b2
:100288002e0300002e0300002e0300002e030000a2
:100298002e0300002e0300002e0300002e03000092
:1002a8002e0300002e0300002e0300002e03000082
:1002b8002e0300002e0300002e0300002e03000072
:1002c8002e0300002e0300002e0300002e03000062
:1002d8002e0300002e0300002e0300002e03000052
:1002e8002e0300002e0300002e0300002e03000042
:1002f8002e0300002e0300002e0300002e03000032
:100308002e0300002e0300002e0300002e03000021
:100318002e0300002e0300002e0300002e03000011
:100328002e0300002e0300002e0300002e03000001
:100338002e0300002e0300002e0300002e030000f1
:100348002e0300002e0300002e0300002e030000e1
:100358002e0300002e03000022030000f802000014
:100368002e0300002e0300002e0300002e030000c1
:100378002e0300002e0300002e0300002e030000b1
:100388002e0300002e0300002e0300002e030000a1
:100398002e0300002e0300002e0300002e03000091
:1003a8002e0300002e0300002e0300002e03000081
:1003b8002e0300002e0300002e0300002e03000071
:1003c8002e0300002e0300002e0300002e03000061
:1003d8002e0300002e0300002e0300002e03000051
:1003e8002e0300002e0300002e0300002e03000041
:0803f8002e0300002e0300009b
:020000040000fa
:020000040001f9
:100000006500000001000000b80b000005040000be
:100010000a080000100c0000151000001b1400005e
:1000200020180000251c00002b20000030240000b8
:10003000352800003a2c00003f3000004534000015
:100040004a3800004f3c0000534000005844000074
:100050005d480000624c0000665000006b540000d8
:100060006f580000735c0000786000007c64000042
:1000700080680000836c0000877000008b740000b3
:100080008e780000927c000095000000980400002b
:100090009b0800009e0c0000a0100000a3140000ac
:1000a000a5180000a71c0000a9200000ab24000038
:1000b000ac280000ad2c0000af300000b0340000d0
:1000c000b0380000b13c0000b1400000b144000075
:1000d000b1480000b14c0000b0500000b054000026
:1000e000af580000ad5c0000ac600000aa640000e6
:1000f000a8680000a66c0000a3700000a0740000b7
:100100009d7800009a7c0000960000009204000098
:100110008e0800008a0c000085100000801400008a
:100120007a180000741c00006e2000006824000093
:10013000612800005a2c0000533000004b340000ae
:10014000433800003a3c00003240000029440000df
:100150001f480000154c00000b5000000054000028
:10016000f5570000ea5b0000de5f0000d26300008c
:10017000c5670000b86b0000ab6f00009d73000006
:100180008f770000807b0000717f0000610300001a
:1001900051070000410b0000300f00001f1300004a
:1001a0000d170000fb1a0000e81e0000d522000019
:1001b000c2260000ae2a0000992e00008432000002
:1001c0006f360000593a0000423e00002b4200000a
:1001d00013460000fb490000e34d0000ca51000037
:1001e000b0550000965900007c5d00006061000081
:1001f00045650000286900000c6d0000ee700000ed
:10020000d0740000b2780000937c000073000000fe
:100210005304000032080000110c0000ef0f000032
:10022000cc130000a9170000851b0000611f00000f
:100230003c23000017270000f02a0000ca2e00000f
:10024000a23200007a360000513a0000283e000039
:10025000fe410000d3450000a84900007c4d00008d
:100260005051000022550000f4580000c65c000008
:10027000966000006664000036680000046c0000b0
:10028000d26f0000a07300006c770000387b000084
:10029000037f0000cd02000097060000600a000006
:1002a000280e0000f0110000b61500007c190000b7
:1002b000421d000006210000ca2400008d28000015
:1002c0004f2c000011300000d133000091370000a6
:1002d000503b00000f3f0000cc4200008946000068
:1002e000454a0000004e0000ba510000745500005d
:1002f0002d590000e45c00009b6000005264000087
:1003000007680000bc6b00006f6f000022730000e4
:10031000d4760000867a0000367e0000e5010000f9
:100320009405000042090000ef0c00009b10000043
:1003300046140000f0170000991b0000421f000047
:10034000e922000090260000362a0000db2d000084
:100350007f31000022350000c4380000653c0000f9
:1003600005400000a443000043470000e04a0000ad
:100370007d4e000018520000b35500004c5900009b
:10038000e55c00007c60000013640000a9670000c9
:100390003e6b0000d16e000064720000f675000034
:1003a00087790000177d0000a500000033040000dd
:1003b000c00700004c0b0000d60e000060120000c9
:1003c000e915000070190000f71c00007d200000f6
:1003d0000124000085270000072b0000892e000063
:1003e000093200008835000006390000833c000017
:1003f000004000007a430000f44600006d4a00000f
:10040000e54d00005c510000d1540000455800004b
:10041000b95b00002b5f00009c6200000c660000ce
:100420007b690000e96c000055700000c17300009a
:100430002b770000947a0000fc7d0000630100002f
:10044000c90400002e080000910b0000f30e00000c
:1004500055120000b415000013190000711c0000b3
:10046000cd1f00002823000083260000db290000a8
:10047000332d000089300000df33000033370000e7
:10048000863a0000d73d0000284100007744000074
:10049000c5470000114b00005d4e0000a751000051
:1004a000f0540000385800007e5b0000c45e00007d
:1004b000086200004a6500008c680000cc6b0000f8
:1004c0000b6f00004872000085750000c0780000c6
:1004d000fa7b0000327f0000690200009f050000e7
:1004e000d4080000070c0000390f00006a12000059
:1004f0009a150000c8180000f41b0000201f00001f
:100500004a220000732500009a280000c02b00003a
:10051000e52e0000083200002a3500004b380000ac
:100520006a3b0000883e0000a5410000c044000076
:10053000da470000f34a00000a4e00002051000094
:100540003454000047570000585a0000695d00000d
:100550007760000085630000916600009b690000e1
:10056000a56c0000ac6f0000b3720000b87500000d
:10057000bb780000bd7b0000be7e0000bd01000016
:10058000bb040000b7070000b20a0000ab0d00007a
:10059000a31000009a1300008f16000082190000bb
:1005a000741c0000651f000054220000422500005a
:1005b0002e280000192b0000022e0000ea30000057
:1005c000d0330000b5360000983900007a3c0000b6
:1005d0005a3f00003942000016450000f247000073
:1005e000cc4a0000a54d00007c5000005153000093
:1005f00026560000f8580000c95b0000995e000014
:100600006761000033640000fe660000c7690000f7
:100610008f6c0000556f00001a720000dd7400003e
:100620009e7700005e7a00001c7d0000d97f0000ec
:10063000940200004e05000006080000bc0a0000fd
:10064000710d000024100000d61200008615000075
:1006500034180000e11a00008d1d00003620000053
:10066000de2200008425000029280000cc2a00009a
:100670006e2d00000e300000ac3200004835000046
:10068000e33700007d3a0000143d0000aa3f00005f
:100690003e420000d144000062470000f2490000e1
:1006a0007f4c00000b4f0000965100001e540000cc
:1006b000a55600002b590000ae5b0000305e000024
:1006c000b16000002f630000ac65000027680000e7
:1006d000a16a0000186d00008f6f00000372000017
:1006e00076740000e776000056790000c37b0000b6
:1006f0002f7e000099000000020300006805000042
:10070000cd070000300a0000920c0000f20e00003d
:1007100050110000ac130000061600005f18000026
:10072000b61a00000b1d00005f1f0000b021000082
:10073000002400004e2600009b280000e52a00004f
:100740002e2d0000752f0000bb310000fe3300008d
:100750004036000080380000be3a0000fa3c00003d
:10076000353f00006e410000a5430000da4500005f
:100770000d4800003f4a00006f4c00009d4e0000f5
:10078000c9500000f35200001c5500004257000001
:10079000675900008a5b0000ab5d0000cb5f000082
