:020000040000fa
:080000000002040000000000f2
:020000040000fa
:100400008f2d2400007f24000001880000000000e0
:100410000c000700605a27000100200011000700af
:10042000000020000000e000020032000000020096
:1004300000000000ec740200000000000040da0040
:100440000000fe004440a900e00a26000000e00091
:100450000300320000002000a00188004440a800f2
:100460000000060091018800800078000000eb0089
:1004700015003700e280400032a0b4009101ba00bc
:10048000e280400032a0b4009102ba00e280400055
:1004900032a0b4000002eb00472bde00f507b200eb
:1004a000602ce10004003a000059eb008301e900f0
:1004b000fdff3e00040037006128e100010032002a
:1004c0000082eb00040007001101ba000200e00006
:1004d000e8ff3a00000006003159ba008301e90044
:1004e0000c0032002159ba008301e90008003200f3
:1004f0000400e00003003a00e280400032a0b400b3
:10050000f5ff370011d9ba008301e900faff3a007c
:100510008100e800e180400032a0b4000000060045
:10052000889fbe008a9fbe008c1f78005100070084
:100530005800330003866c006450e1002400320050
:100540006420e100270032006150e1002200320007
:100550006120e100210032008b854200eb07b100f1
:100560000134b800003ab8000804420089844a0007
:10057000013ab8000030b8008880400009014a0004
:10058000040033000000400081804800020149005f
:100590008b05e900c909dd0083017000010032000c
:1005a00013002000c814de004814dd004709de00f7
:1005b0001200b200c808de00088470004500070081
:1005c00001f0a1000cf0a70001f0a0003a003700f4
:1005d0006120e1003c0032000801be000200be00c4
:1005e000f7ff37006150e100fcff3a0036003700aa
:1005f0000001be005d0007000470a70003f0a10029
:100600006509b100160032000d0035006828e100d0
:1006100006003500f0ff2f00f1ff27000300e00087
:1006200013003b000100280000000500000040000e
:10063000818048008502e900fcff3a00080037008d
:10064000f88f420002003c008000eb000000050033
:100650008100d1000080d3008502e800fcff3a0051
:100660000300e00002003b0060001000e080180082
:10067000000006000004be003c0007000003be00ae
:100680000405be000200be0038000700844f75005c
:10069000000006000200be006450e10005003600c4
:1006a0006420e100020036000968a30001003a005e
:1006b0000800be000160a0004f0678004f05be0094
:1006c0004f04be0000000600f0ff2f00f1ff2700de
:1006d000f9ff370081002000618055000b003d00cc
:1006e0000b00200061fe2f000100e1001d0034001e
:1006f00082817100610164008904d1000884d30003
:100700000000e800faff3a00710020006100640078
:100710000300700002006000090032006104440020
:10072000e0844c000988a500050032008b05e80034
:100730006808e10002003a008904d1000884d3006f
:10074000f20f20000258e10005003d00c75ddd000a
:10075000f907b200898075000800780000000600e3
:100760000bf827008b00780000000500c70ade00a8
:10077000f107b200f50fb20008003200e1cf4200ed
:10078000020032000170a00024000500810f7000fb
:10079000010032000408050044000500810f7000cc
:1007a00002003a00140005008502e9000000400044
:1007b00081c04800fcff3b000170a0002400050040
:020000040000fa
:0200000401f009
:04000800ffff0000f6
:020000040000fa
:0200000401f009
:04000c00f8ff0000f9
:020000040000fa
:0200000401f009
:040010007bff000072
:020000040000fa
:0200000401f009
:040014007fff00006a
:020000040000fa
:1000080016760000167600001676000016760000b8
:1000180016760000167600001676000016760000a8
:100028001676000016760000167600001676000098
:100038001676000016760000167600001676000088
:100048001676000016760000167600001676000078
:100058001676000016760000167600001676000068
:100068001676000016760000167600001676000058
:100078001676000016760000167600001676000048
:100088001676000016760000167600001676000038
:100098001676000016760000167600001676000028
:1000a8001676000016760000167600001676000018
:1000b8001676000016760000167600001676000008
:1000c80016760000167600001676000016760000f8
:1000d80016760000167600001676000016760000e8
:1000e80016760000167600001676000016760000d8
:1000f80016760000167600001676000016760000c8
:1001080016760000167600001676000016760000b7
:1001180016760000167600001676000016760000a7
:100128001676000016760000167600001676000097
:100138001676000016760000167600001676000087
:100148001676000016760000167600001676000077
:100158001676000016760000e0740000b074000007
:100168001676000016760000167600001676000057
:100178001676000016760000167600001676000047
:100188001676000016760000167600001676000037
:100198001676000016760000167600001676000027
:1001a8001676000016760000167600001676000017
:1001b8001676000016760000167600001676000007
:1001c80016760000167600001676000016760000f7
:1001d80016760000167600001676000016760000e7
:1001e80016760000167600001676000016760000d7
:0801f8001676000016760000e7
:020000040000fa
:1002080016760000167600001676000016760000b6
:1002180016760000167600001676000016760000a6
:100228001676000016760000167600001676000096
:100238001676000016760000167600001676000086
:100248001676000016760000167600001676000076
:100258001676000016760000167600001676000066
:100268001676000016760000167600001676000056
:100278001676000016760000167600001676000046
:100288001676000016760000167600001676000036
:100298001676000016760000167600001676000026
:1002a8001676000016760000167600001676000016
:1002b8001676000016760000167600001676000006
:1002c80016760000167600001676000016760000f6
:1002d80016760000167600001676000016760000e6
:1002e80016760000167600001676000016760000d6
:1002f80016760000167600001676000016760000c6
:1003080016760000167600001676000016760000b5
:1003180016760000167600001676000016760000a5
:100328001676000016760000167600001676000095
:100338001676000016760000167600001676000085
:100348001676000016760000167600001676000075
:100358001676000016760000e0740000b074000005
:100368001676000016760000167600001676000055
:100378001676000016760000167600001676000045
:100388001676000016760000167600001676000035
:100398001676000016760000167600001676000025
:1003a8001676000016760000167600001676000015
:1003b8001676000016760000167600001676000005
:1003c80016760000167600001676000016760000f5
:1003d80016760000167600001676000016760000e5
:1003e80016760000167600001676000016760000d5
:0803f8001676000016760000e5
:020000040000fa
:1007c00000000000cc0c0000991900006626000013
:1007d00032330000ff3f0000cc4c0000985900006d
:1007e0006566000032730000000000000000000099
:1007f00000000000000000000000000000000000f9
:1008000000000000000000000000000000000000e8
:1008100000000000000000000000000000000000d8
:1008200000000000010000000100000001000000c5
:1008300001000000010000000100000001000000b4
:1008400001000000010000000100000001000000a4
:100850000100000001000000010000000100000094
:100860000100000002000000020000000200000081
:100870000200000002000000020000000200000070
:100880000200000002000000020000000200000060
:100890000200000002000000020000000200000050
:1008a000020000000300000003000000030000003d
:1008b000030000000300000003000000030000002c
:1008c000030000000300000003000000030000001c
:1008d000030000000300000003000000030000000c
:1008e00003000000040000000400000004000000f9
:1008f00004000000040000000400000004000000e8
:1009000004000000040000000400000004000000d7
:1009100004000000040000000400000004000000c7
:1009200004000000050000000500000005000000b4
:1009300005000000050000000500000005000000a3
:100940000500000005000000050000000500000093
:100950000500000005000000050000000500000083
:100960000500000005000000060000000600000071
:10097000060000000600000006000000060000005f
:10098000060000000600000006000000060000004f
:10099000060000000600000006000000060000003f
:1009a000060000000600000007000000070000002d
:1009b000070000000700000007000000070000001b
:1009c000070000000700000007000000070000000b
:1009d00007000000070000000700000007000000fb
:1009e00007000000070000000800000008000000e9
:1009f00008000000080000000800000008000000d7
:100a000008000000080000000800000008000000c6
:100a100008000000080000000800000008000000b6
:100a200008000000080000000800000009000000a5
:100a30000900000009000000090000000900000092
:100a40000900000009000000090000000900000082
:100a50000900000009000000090000000900000072
:100a60000900000009000000090000000900000062
:100a70000a0000000a0000000a0000000a0000004e
:100a80000a0000000a0000000a0000000a0000003e
:100a90000a0000000a0000000a0000000a0000002e
:100aa0000a0000000a0000000a0000000a0000001e
:100ab0000a0000000b0000000b0000000b0000000b
:100ac0000b0000000b0000000b0000000b000000fa
:100ad0000b0000000b0000000b0000000b000000ea
:100ae0000b0000000b0000000b0000000b000000da
:100af0000b0000000b0000000c0000000c000000c8
:100b00000c0000000c0000000c0000000c000000b5
:100b10000c0000000c0000000c0000000c000000a5
:100b20000c0000000c0000000c0000000c00000095
:100b30000c0000000c0000000c0000000c00000085
:100b40000d0000000d0000000d0000000d00000071
:100b50000d0000000d0000000d0000000d00000061
:100b60000d0000000d0000000d0000000d00000051
:100b70000d0000000d0000000d0000000d00000041
:100b80000d0000000e0000000e0000000e0000002e
:100b90000e0000000e0000000e0000000e0000001d
:100ba0000e0000000e0000000e0000000e0000000d
:100bb0000e0000000e0000000e0000000e000000fd
:100bc0000e0000000e0000000e0000000e000000ed
:100bd0000f0000000f0000000f0000000f000000d9
:100be0000f0000000f0000000f0000000f000000c9
:100bf0000f0000000f0000000f0000000f000000b9
:100c00000f0000000f0000000f0000000f000000a8
:100c10000f0000000f000000100000001000000096
:100c20001000000010000000100000001000000084
:100c30001000000010000000100000001000000074
:100c40001000000010000000100000001000000064
:100c50001000000010000000100000001000000054
:100c60001000000011000000110000001100000041
:100c70001100000011000000110000001100000030
:100c80001100000011000000110000001100000020
:100c90001100000011000000110000001100000010
:100ca0001100000011000000110000001100000000
:100cb00011000000120000001200000012000000ed
:100cc00012000000120000001200000012000000dc
:100cd00012000000120000001200000012000000cc
:100ce00012000000120000001200000012000000bc
:100cf00012000000120000001200000012000000ac
:100d00001200000013000000130000001300000098
:100d10001300000013000000130000001300000087
:100d20001300000013000000130000001300000077
:100d30001300000013000000130000001300000067
:100d40001300000013000000130000001300000057
:100d50001300000013000000140000001400000045
:100d60001400000014000000140000001400000033
:100d70001400000014000000140000001400000023
:100d80001400000014000000140000001400000013
:100d90001400000014000000140000001400000003
:100da00014000000140000001400000014000000f3
:100db00015000000150000001500000015000000df
:100dc00015000000150000001500000015000000cf
:100dd00015000000150000001500000015000000bf
:100de00015000000150000001500000015000000af
:100df000150000001500000015000000150000009f
:100e0000150000001500000015000000160000008d
:100e1000160000001600000016000000160000007a
:100e2000160000001600000016000000160000006a
:100e3000160000001600000016000000160000005a
:100e4000160000001600000016000000160000004a
:100e5000160000001600000016000000160000003a
:100e60001600000016000000160000001700000029
:100e70001700000017000000170000001700000016
:100e80001700000017000000170000001700000006
:100e900017000000170000001700000017000000f6
:100ea00017000000170000001700000017000000e6
:100eb00017000000170000001700000017000000d6
:100ec00017000000170000001700000017000000c6
:100ed00018000000180000001800000018000000b2
:100ee00018000000180000001800000018000000a2
:100ef0001800000018000000180000001800000092
:100f00001800000018000000180000001800000081
:100f10001800000018000000180000001800000071
:100f20001800000018000000180000001800000061
:100f30001800000018000000180000001800000051
:100f4000190000001900000019000000190000003d
:100f5000190000001900000019000000190000002d
:100f6000190000001900000019000000190000001d
:100f7000190000001900000019000000190000000d
:100f800019000000190000001900000019000000fd
:100f900019000000190000001900000019000000ed
:100fa00019000000190000001900000019000000dd
:100fb00019000000190000001a0000001a000000cb
:100fc0001a0000001a0000001a0000001a000000b9
:100fd0001a0000001a0000001a0000001a000000a9
:100fe0001a0000001a0000001a0000001a00000099
:100ff0001a0000001a0000001a0000001a00000089
:101650001c0000001c0000001c0000001b0000001b
:101660001b0000001b0000001b0000001b0000000e
:101670001b0000001b0000001b0000001b000000fe
:101680001b0000001b0000001b0000001b000000ee
:101690001b0000001b0000001b0000001b000000de
:1016a0001b0000001b0000001b0000001b000000ce
:1016b0001b0000001b0000001b0000001b000000be
:1016c0001b0000001b0000001b0000001b000000ae
:1016d0001b0000001b0000001b0000001b0000009e
:1016e0001b0000001b0000001b0000001b0000008e
:1016f0001b0000001b0000001b0000001a0000007f
:101700001a0000001a0000001a0000001a00000071
:101710001a0000001a0000001a0000001a00000061
:101720001a0000001a0000001a0000001a00000051
:101730001a0000001a0000001a0000001a00000041
:101740001a0000001a0000001a0000001a00000031
:101750001a0000001a0000001a0000001a00000021
:101760001a0000001a0000001a0000001a00000011
:101770001a0000001a0000001a0000001a00000001
:101780001a000000190000001900000019000000f4
:1017900019000000190000001900000019000000e5
:1017a00019000000190000001900000019000000d5
:1017b00019000000190000001900000019000000c5
:1017c00019000000190000001900000019000000b5
:1017d00019000000190000001900000019000000a5
:1017e0001900000019000000190000001900000095
:1017f0001900000019000000190000001900000085
:101800001800000018000000180000001800000078
:101810001800000018000000180000001800000068
:101820001800000018000000180000001800000058
:101830001800000018000000180000001800000048
:101840001800000018000000180000001800000038
:101850001800000018000000180000001800000028
:101860001800000018000000180000001700000019
:10187000170000001700000017000000170000000c
:1018800017000000170000001700000017000000fc
:1018900017000000170000001700000017000000ec
:1018a00017000000170000001700000017000000dc
:1018b00017000000170000001700000017000000cc
:1018c00017000000170000001700000017000000bc
:1018d00017000000160000001600000016000000af
:1018e00016000000160000001600000016000000a0
:1018f0001600000016000000160000001600000090
:10190000160000001600000016000000160000007f
:10191000160000001600000016000000160000006f
:10192000160000001600000016000000160000005f
:101930001600000015000000150000001500000052
:101940001500000015000000150000001500000043
:101950001500000015000000150000001500000033
:101960001500000015000000150000001500000023
:101970001500000015000000150000001500000013
:101980001500000015000000150000001500000003
:1019900014000000140000001400000014000000f7
:1019a00014000000140000001400000014000000e7
:1019b00014000000140000001400000014000000d7
:1019c00014000000140000001400000014000000c7
:1019d00014000000140000001400000014000000b7
:1019e00014000000140000001300000013000000a9
:1019f000130000001300000013000000130000009b
:101a0000130000001300000013000000130000008a
:101a1000130000001300000013000000130000007a
:101a2000130000001300000013000000130000006a
:101a3000130000001300000013000000120000005b
:101a4000120000001200000012000000120000004e
:101a5000120000001200000012000000120000003e
:101a6000120000001200000012000000120000002e
:101a7000120000001200000012000000120000001e
:101a8000120000001200000012000000110000000f
:101a90001100000011000000110000001100000002
:101aa00011000000110000001100000011000000f2
:101ab00011000000110000001100000011000000e2
:101ac00011000000110000001100000011000000d2
:101ad00011000000110000001000000010000000c4
:101ae00010000000100000001000000010000000b6
:101af00010000000100000001000000010000000a6
:101b00001000000010000000100000001000000095
:101b10001000000010000000100000001000000085
:101b200010000000100000000f0000000f00000077
:101b30000f0000000f0000000f0000000f00000069
:101b40000f0000000f0000000f0000000f00000059
:101b50000f0000000f0000000f0000000f00000049
:101b60000f0000000f0000000f0000000f00000039
:101b70000e0000000e0000000e0000000e0000002d
:101b80000e0000000e0000000e0000000e0000001d
:101b90000e0000000e0000000e0000000e0000000d
:101ba0000e0000000e0000000e0000000e000000fd
:101bb0000e0000000e0000000d0000000d000000ef
:101bc0000d0000000d0000000d0000000d000000e1
:101bd0000d0000000d0000000d0000000d000000d1
:101be0000d0000000d0000000d0000000d000000c1
:101bf0000d0000000d0000000d0000000d000000b1
:101c00000c0000000c0000000c0000000c000000a4
:101c10000c0000000c0000000c0000000c00000094
:101c20000c0000000c0000000c0000000c00000084
:101c30000c0000000c0000000c0000000c00000074
:101c40000c0000000c0000000b0000000b00000066
:101c50000b0000000b0000000b0000000b00000058
:101c60000b0000000b0000000b0000000b00000048
:101c70000b0000000b0000000b0000000b00000038
:101c80000b0000000b0000000b0000000a00000029
:101c90000a0000000a0000000a0000000a0000001c
:101ca0000a0000000a0000000a0000000a0000000c
:101cb0000a0000000a0000000a0000000a000000fc
:101cc0000a0000000a0000000a0000000a000000ec
:101cd00009000000090000000900000009000000e0
:101ce00009000000090000000900000009000000d0
:101cf00009000000090000000900000009000000c0
:101d000009000000090000000900000009000000af
:101d100009000000080000000800000008000000a2
:101d20000800000008000000080000000800000093
:101d30000800000008000000080000000800000083
:101d40000800000008000000080000000800000073
:101d50000800000007000000070000000700000066
:101d60000700000007000000070000000700000057
:101d70000700000007000000070000000700000047
:101d80000700000007000000070000000700000037
:101d90000700000007000000060000000600000029
:101da000060000000600000006000000060000001b
:101db000060000000600000006000000060000000b
:101dc00006000000060000000600000006000000fb
:101dd00006000000060000000500000005000000ed
:101de00005000000050000000500000005000000df
:101df00005000000050000000500000005000000cf
:101e000005000000050000000500000005000000be
:101e100005000000050000000400000004000000b0
:101e200004000000040000000400000004000000a2
:101e30000400000004000000040000000400000092
:101e40000400000004000000040000000400000082
:101e50000400000004000000030000000300000074
:101e60000300000003000000030000000300000066
:101e70000300000003000000030000000300000056
:101e80000300000003000000030000000300000046
:101e90000300000003000000020000000200000038
:101ea000020000000200000002000000020000002a
:101eb000020000000200000002000000020000001a
:101ec000020000000200000002000000020000000a
:101ed00002000000020000000100000001000000fc
:101ee00001000000010000000100000001000000ee
:101ef00001000000010000000100000001000000de
:101f000001000000010000000100000001000000cd
:101f100001000000010000000000000000000000bf
:101f200000000000000000000000000000000000b1
:101f300000000000000000000000000000000000a1
:101f40000000000000000000000000000000000091
:101f50000000000000000000000000000000000081
:101f60000000000000000000000000000000000071
:101f70000000000000000000000000000000000061
:101f80000000000000000000000000000000000051
:101f90000000000000000000ffff0000ffff000045
:101fa000ffff0000ffff0000ffff0000ffff000039
:101fb000ffff0000ffff0000ffff0000ffff000029
:101fc000ffff0000ffff0000ffff0000ffff000019
:101fd000ffff0000ffff0000feff0000feff00000b
:101fe000feff0000feff0000feff0000feff0000fd
:101ff000feff0000feff0000feff0000feff0000ed
:10200000feff0000feff0000feff0000feff0000dc
:10201000feff0000feff0000fdff0000fdff0000ce
:10202000fdff0000fdff0000fdff0000fdff0000c0
:10203000fdff0000fdff0000fdff0000fdff0000b0
:10204000fdff0000fdff0000fdff0000fdff0000a0
:10205000fdff0000fdff0000fcff0000fcff000092
:10206000fcff0000fcff0000fcff0000fcff000084
:10207000fcff0000fcff0000fcff0000fcff000074
:10208000fcff0000fcff0000fcff0000fcff000064
:10209000fcff0000fcff0000fbff0000fbff000056
:1020a000fbff0000fbff0000fbff0000fbff000048
:1020b000fbff0000fbff0000fbff0000fbff000038
:1020c000fbff0000fbff0000fbff0000fbff000028
:1020d000fbff0000fbff0000faff0000faff00001a
:1020e000faff0000faff0000faff0000faff00000c
:1020f000faff0000faff0000faff0000faff0000fc
:10210000faff0000faff0000faff0000faff0000eb
:10211000faff0000faff0000faff0000f9ff0000dc
:10212000f9ff0000f9ff0000f9ff0000f9ff0000cf
:10213000f9ff0000f9ff0000f9ff0000f9ff0000bf
:10214000f9ff0000f9ff0000f9ff0000f9ff0000af
:10215000f9ff0000f9ff0000f9ff0000f8ff0000a0
:10216000f8ff0000f8ff0000f8ff0000f8ff000093
:10217000f8ff0000f8ff0000f8ff0000f8ff000083
:10218000f8ff0000f8ff0000f8ff0000f8ff000073
:10219000f8ff0000f8ff0000f8ff0000f8ff000063
:1021a000f7ff0000f7ff0000f7ff0000f7ff000057
:1021b000f7ff0000f7ff0000f7ff0000f7ff000047
:1021c000f7ff0000f7ff0000f7ff0000f7ff000037
:1021d000f7ff0000f7ff0000f7ff0000f7ff000027
:1021e000f7ff0000f6ff0000f6ff0000f6ff00001a
:1021f000f6ff0000f6ff0000f6ff0000f6ff00000b
:10220000f6ff0000f6ff0000f6ff0000f6ff0000fa
:10221000f6ff0000f6ff0000f6ff0000f6ff0000ea
:10222000f6ff0000f6ff0000f5ff0000f5ff0000dc
:10223000f5ff0000f5ff0000f5ff0000f5ff0000ce
:10224000f5ff0000f5ff0000f5ff0000f5ff0000be
:10225000f5ff0000f5ff0000f5ff0000f5ff0000ae
:10226000f5ff0000f5ff0000f5ff0000f4ff00009f
:10227000f4ff0000f4ff0000f4ff0000f4ff000092
:10228000f4ff0000f4ff0000f4ff0000f4ff000082
:10229000f4ff0000f4ff0000f4ff0000f4ff000072
:1022a000f4ff0000f4ff0000f4ff0000f4ff000062
:1022b000f3ff0000f3ff0000f3ff0000f3ff000056
:1022c000f3ff0000f3ff0000f3ff0000f3ff000046
:1022d000f3ff0000f3ff0000f3ff0000f3ff000036
:1022e000f3ff0000f3ff0000f3ff0000f3ff000026
:1022f000f3ff0000f3ff0000f2ff0000f2ff000018
:10230000f2ff0000f2ff0000f2ff0000f2ff000009
:10231000f2ff0000f2ff0000f2ff0000f2ff0000f9
:10232000f2ff0000f2ff0000f2ff0000f2ff0000e9
:10233000f2ff0000f2ff0000f2ff0000f2ff0000d9
:10234000f1ff0000f1ff0000f1ff0000f1ff0000cd
:10235000f1ff0000f1ff0000f1ff0000f1ff0000bd
:10236000f1ff0000f1ff0000f1ff0000f1ff0000ad
:10237000f1ff0000f1ff0000f1ff0000f1ff00009d
:10238000f1ff0000f1ff0000f1ff0000f0ff00008e
:10239000f0ff0000f0ff0000f0ff0000f0ff000081
:1023a000f0ff0000f0ff0000f0ff0000f0ff000071
:1023b000f0ff0000f0ff0000f0ff0000f0ff000061
:1023c000f0ff0000f0ff0000f0ff0000f0ff000051
:1023d000f0ff0000f0ff0000efff0000efff000043
:1023e000efff0000efff0000efff0000efff000035
:1023f000efff0000efff0000efff0000efff000025
:10240000efff0000efff0000efff0000efff000014
:10241000efff0000efff0000efff0000efff000004
:10242000efff0000efff0000eeff0000eeff0000f6
:10243000eeff0000eeff0000eeff0000eeff0000e8
:10244000eeff0000eeff0000eeff0000eeff0000d8
:10245000eeff0000eeff0000eeff0000eeff0000c8
:10246000eeff0000eeff0000eeff0000eeff0000b8
:10247000eeff0000eeff0000edff0000edff0000aa
:10248000edff0000edff0000edff0000edff00009c
:10249000edff0000edff0000edff0000edff00008c
:1024a000edff0000edff0000edff0000edff00007c
:1024b000edff0000edff0000edff0000edff00006c
:1024c000edff0000edff0000edff0000ecff00005d
:1024d000ecff0000ecff0000ecff0000ecff000050
:1024e000ecff0000ecff0000ecff0000ecff000040
:1024f000ecff0000ecff0000ecff0000ecff000030
:10250000ecff0000ecff0000ecff0000ecff00001f
:10251000ecff0000ecff0000ecff0000ecff00000f
:10252000ecff0000ebff0000ebff0000ebff000002
:10253000ebff0000ebff0000ebff0000ebff0000f3
:10254000ebff0000ebff0000ebff0000ebff0000e3
:10255000ebff0000ebff0000ebff0000ebff0000d3
:10256000ebff0000ebff0000ebff0000ebff0000c3
:10257000ebff0000ebff0000ebff0000ebff0000b3
:10258000eaff0000eaff0000eaff0000eaff0000a7
:10259000eaff0000eaff0000eaff0000eaff000097
:1025a000eaff0000eaff0000eaff0000eaff000087
:1025b000eaff0000eaff0000eaff0000eaff000077
:1025c000eaff0000eaff0000eaff0000eaff000067
:1025d000eaff0000eaff0000eaff0000eaff000057
:1025e000e9ff0000e9ff0000e9ff0000e9ff00004b
:1025f000e9ff0000e9ff0000e9ff0000e9ff00003b
:10260000e9ff0000e9ff0000e9ff0000e9ff00002a
:10261000e9ff0000e9ff0000e9ff0000e9ff00001a
:10262000e9ff0000e9ff0000e9ff0000e9ff00000a
:10263000e9ff0000e9ff0000e9ff0000e9ff0000fa
:10264000e9ff0000e8ff0000e8ff0000e8ff0000ed
:10265000e8ff0000e8ff0000e8ff0000e8ff0000de
:10266000e8ff0000e8ff0000e8ff0000e8ff0000ce
:10267000e8ff0000e8ff0000e8ff0000e8ff0000be
:10268000e8ff0000e8ff0000e8ff0000e8ff0000ae
:10269000e8ff0000e8ff0000e8ff0000e8ff00009e
:1026a000e8ff0000e8ff0000e8ff0000e8ff00008e
:1026b000e8ff0000e7ff0000e7ff0000e7ff000081
:1026c000e7ff0000e7ff0000e7ff0000e7ff000072
:1026d000e7ff0000e7ff0000e7ff0000e7ff000062
:1026e000e7ff0000e7ff0000e7ff0000e7ff000052
:1026f000e7ff0000e7ff0000e7ff0000e7ff000042
:10270000e7ff0000e7ff0000e7ff0000e7ff000031
:10271000e7ff0000e7ff0000e7ff0000e7ff000021
:10272000e7ff0000e7ff0000e7ff0000e6ff000012
:10273000e6ff0000e6ff0000e6ff0000e6ff000005
:10274000e6ff0000e6ff0000e6ff0000e6ff0000f5
:10275000e6ff0000e6ff0000e6ff0000e6ff0000e5
:10276000e6ff0000e6ff0000e6ff0000e6ff0000d5
:10277000e6ff0000e6ff0000e6ff0000e6ff0000c5
:10278000e6ff0000e6ff0000e6ff0000e6ff0000b5
:10279000e6ff0000e6ff0000e6ff0000e6ff0000a5
:1027a000e6ff0000e6ff0000e6ff0000e6ff000095
:1027b000e6ff0000e5ff0000e5ff0000e5ff000088
:1027c000e5ff0000e5ff0000e5ff0000e5ff000079
:1027d000e5ff0000e5ff0000e5ff0000e5ff000069
:1027e000e5ff0000e5ff0000e5ff0000e5ff000059
:1027f000e5ff0000e5ff0000e5ff0000e5ff000049
:10280000e5ff0000e5ff0000e5ff0000e5ff000038
:10281000e5ff0000e5ff0000e5ff0000e5ff000028
:10282000e5ff0000e5ff0000e5ff0000e5ff000018
:10283000e5ff0000e5ff0000e5ff0000e5ff000008
:10284000e5ff0000e5ff0000e5ff0000e5ff0000f8
:10285000e5ff0000e4ff0000e4ff0000e4ff0000eb
:10286000e4ff0000e4ff0000e4ff0000e4ff0000dc
:10287000e4ff0000e4ff0000e4ff0000e4ff0000cc
:10288000e4ff0000e4ff0000e4ff0000e4ff0000bc
:10289000e4ff0000e4ff0000e4ff0000e4ff0000ac
:1028a000e4ff0000e4ff0000e4ff0000e4ff00009c
:1028b000e4ff0000e4ff0000e4ff0000e4ff00008c
:1028c000e4ff0000e4ff0000e4ff0000e4ff00007c
:1028d000e4ff0000e4ff0000e4ff0000e4ff00006c
:1028e000e4ff0000e4ff0000e4ff0000e4ff00005c
:1028f000e4ff0000e4ff0000e4ff0000e4ff00004c
:10290000e4ff0000e4ff0000e4ff0000e4ff00003b
:10291000e4ff0000e4ff0000e4ff0000e4ff00002b
:10292000e4ff0000e3ff0000e3ff0000e3ff00001e
:10293000e3ff0000e3ff0000e3ff0000e3ff00000f
:10294000e3ff0000e3ff0000e3ff0000e3ff0000ff
:10295000e3ff0000e3ff0000e3ff0000e3ff0000ef
:10296000e3ff0000e3ff0000e3ff0000e3ff0000df
:102ef000e6ff0000e6ff0000e7ff0000e7ff00003c
:102f0000e7ff0000e7ff0000e7ff0000e7ff000029
:102f1000e7ff0000e7ff0000e7ff0000e7ff000019
:102f2000e7ff0000e7ff0000e7ff0000e7ff000009
:102f3000e7ff0000e7ff0000e7ff0000e7ff0000f9
:102f4000e7ff0000e7ff0000e7ff0000e7ff0000e9
:102f5000e7ff0000e7ff0000e7ff0000e7ff0000d9
:102f6000e7ff0000e7ff0000e7ff0000e7ff0000c9
:102f7000e8ff0000e8ff0000e8ff0000e8ff0000b5
:102f8000e8ff0000e8ff0000e8ff0000e8ff0000a5
:102f9000e8ff0000e8ff0000e8ff0000e8ff000095
:102fa000e8ff0000e8ff0000e8ff0000e8ff000085
:102fb000e8ff0000e8ff0000e8ff0000e8ff000075
:102fc000e8ff0000e8ff0000e8ff0000e8ff000065
:102fd000e8ff0000e8ff0000e8ff0000e8ff000055
:102fe000e9ff0000e9ff0000e9ff0000e9ff000041
:102ff000e9ff0000e9ff0000e9ff0000e9ff000031
:10300000e9ff0000e9ff0000e9ff0000e9ff000020
:10301000e9ff0000e9ff0000e9ff0000e9ff000010
:10302000e9ff0000e9ff0000e9ff0000e9ff000000
:10303000e9ff0000e9ff0000e9ff0000e9ff0000f0
:10304000e9ff0000e9ff0000eaff0000eaff0000de
:10305000eaff0000eaff0000eaff0000eaff0000cc
:10306000eaff0000eaff0000eaff0000eaff0000bc
:10307000eaff0000eaff0000eaff0000eaff0000ac
:10308000eaff0000eaff0000eaff0000eaff00009c
:10309000eaff0000eaff0000eaff0000eaff00008c
:1030a000eaff0000eaff0000ebff0000ebff00007a
:1030b000ebff0000ebff0000ebff0000ebff000068
:1030c000ebff0000ebff0000ebff0000ebff000058
:1030d000ebff0000ebff0000ebff0000ebff000048
:1030e000ebff0000ebff0000ebff0000ebff000038
:1030f000ebff0000ebff0000ebff0000ebff000028
:10310000ebff0000ecff0000ecff0000ecff000014
:10311000ecff0000ecff0000ecff0000ecff000003
:10312000ecff0000ecff0000ecff0000ecff0000f3
:10313000ecff0000ecff0000ecff0000ecff0000e3
:10314000ecff0000ecff0000ecff0000ecff0000d3
:10315000ecff0000ecff0000edff0000edff0000c1
:10316000edff0000edff0000edff0000edff0000af
:10317000edff0000edff0000edff0000edff00009f
:10318000edff0000edff0000edff0000edff00008f
:10319000edff0000edff0000edff0000edff00007f
:1031a000edff0000edff0000edff0000eeff00006e
:1031b000eeff0000eeff0000eeff0000eeff00005b
:1031c000eeff0000eeff0000eeff0000eeff00004b
:1031d000eeff0000eeff0000eeff0000eeff00003b
:1031e000eeff0000eeff0000eeff0000eeff00002b
:1031f000eeff0000eeff0000eeff0000eeff00001b
:10320000efff0000efff0000efff0000efff000006
:10321000efff0000efff0000efff0000efff0000f6
:10322000efff0000efff0000efff0000efff0000e6
:10323000efff0000efff0000efff0000efff0000d6
:10324000efff0000efff0000efff0000f0ff0000c5
:10325000f0ff0000f0ff0000f0ff0000f0ff0000b2
:10326000f0ff0000f0ff0000f0ff0000f0ff0000a2
:10327000f0ff0000f0ff0000f0ff0000f0ff000092
:10328000f0ff0000f0ff0000f0ff0000f0ff000082
:10329000f0ff0000f0ff0000f1ff0000f1ff000070
:1032a000f1ff0000f1ff0000f1ff0000f1ff00005e
:1032b000f1ff0000f1ff0000f1ff0000f1ff00004e
:1032c000f1ff0000f1ff0000f1ff0000f1ff00003e
:1032d000f1ff0000f1ff0000f1ff0000f1ff00002e
:1032e000f1ff0000f2ff0000f2ff0000f2ff00001b
:1032f000f2ff0000f2ff0000f2ff0000f2ff00000a
:10330000f2ff0000f2ff0000f2ff0000f2ff0000f9
:10331000f2ff0000f2ff0000f2ff0000f2ff0000e9
:10332000f2ff0000f2ff0000f2ff0000f3ff0000d8
:10333000f3ff0000f3ff0000f3ff0000f3ff0000c5
:10334000f3ff0000f3ff0000f3ff0000f3ff0000b5
:10335000f3ff0000f3ff0000f3ff0000f3ff0000a5
:10336000f3ff0000f3ff0000f3ff0000f3ff000095
:10337000f3ff0000f4ff0000f4ff0000f4ff000082
:10338000f4ff0000f4ff0000f4ff0000f4ff000071
:10339000f4ff0000f4ff0000f4ff0000f4ff000061
:1033a000f4ff0000f4ff0000f4ff0000f4ff000051
:1033b000f4ff0000f4ff0000f5ff0000f5ff00003f
:1033c000f5ff0000f5ff0000f5ff0000f5ff00002d
:1033d000f5ff0000f5ff0000f5ff0000f5ff00001d
:1033e000f5ff0000f5ff0000f5ff0000f5ff00000d
:1033f000f5ff0000f5ff0000f5ff0000f5ff0000fd
:10340000f6ff0000f6ff0000f6ff0000f6ff0000e8
:10341000f6ff0000f6ff0000f6ff0000f6ff0000d8
:10342000f6ff0000f6ff0000f6ff0000f6ff0000c8
:10343000f6ff0000f6ff0000f6ff0000f6ff0000b8
:10344000f6ff0000f7ff0000f7ff0000f7ff0000a5
:10345000f7ff0000f7ff0000f7ff0000f7ff000094
:10346000f7ff0000f7ff0000f7ff0000f7ff000084
:10347000f7ff0000f7ff0000f7ff0000f7ff000074
:10348000f7ff0000f8ff0000f8ff0000f8ff000061
:10349000f8ff0000f8ff0000f8ff0000f8ff000050
:1034a000f8ff0000f8ff0000f8ff0000f8ff000040
:1034b000f8ff0000f8ff0000f8ff0000f8ff000030
:1034c000f8ff0000f8ff0000f9ff0000f9ff00001e
:1034d000f9ff0000f9ff0000f9ff0000f9ff00000c
:1034e000f9ff0000f9ff0000f9ff0000f9ff0000fc
:1034f000f9ff0000f9ff0000f9ff0000f9ff0000ec
:10350000f9ff0000f9ff0000f9ff0000faff0000da
:10351000faff0000faff0000faff0000faff0000c7
:10352000faff0000faff0000faff0000faff0000b7
:10353000faff0000faff0000faff0000faff0000a7
:10354000faff0000faff0000faff0000fbff000096
:10355000fbff0000fbff0000fbff0000fbff000083
:10356000fbff0000fbff0000fbff0000fbff000073
:10357000fbff0000fbff0000fbff0000fbff000063
:10358000fbff0000fbff0000fbff0000fcff000052
:10359000fcff0000fcff0000fcff0000fcff00003f
:1035a000fcff0000fcff0000fcff0000fcff00002f
:1035b000fcff0000fcff0000fcff0000fcff00001f
:1035c000fcff0000fcff0000fcff0000fdff00000e
:1035d000fdff0000fdff0000fdff0000fdff0000fb
:1035e000fdff0000fdff0000fdff0000fdff0000eb
:1035f000fdff0000fdff0000fdff0000fdff0000db
:10360000fdff0000fdff0000fdff0000feff0000c9
:10361000feff0000feff0000feff0000feff0000b6
:10362000feff0000feff0000feff0000feff0000a6
:10363000feff0000feff0000feff0000feff000096
:10364000feff0000feff0000feff0000ffff000085
:10365000ffff0000ffff0000ffff0000ffff000072
:10366000ffff0000ffff0000ffff0000ffff000062
:10367000ffff0000ffff0000ffff0000ffff000052
:10368000ffff0000ffff0000ffff00000000000040
:10369000000000000000000000000000000000002a
:1036a000000000000000000000000000000000001a
:1036b000000000000000000000000000000000000a
:1036c00000000000000000000908000013100000c6
:1036d0001d18000027200000302800003a300000ac
:1036e000443800004d400000574800006050000082
:1036f0006a580000736000007c680000857000005c
:103700008e780000970000009f080000a8100000bd
:10371000b0180000b8200000c0280000c830000029
:10372000cf380000d7400000de480000e550000020
:10373000eb580000f2600000f8680000fe70000026
:1037400003790000090100000e09000013110000b8
:10375000171900001b2100001f2900002331000061
:1037600026390000294100002b4900002d5100009e
:103770002f590000306100003169000031710000f4
:103780003279000031010000300900002f110000e3
:103790002e1900002b2100002929000026310000ed
:1037a000223900001e4100001a4900001551000096
:1037b0000f5900000961000002690000fb70000061
:1037c000f3780000eb000000e2080000d9100000d0
:1037d000cf180000c4200000b9280000ad30000060
:1037e000a03800009340000085480000775000009a
:1037f00068580000586000004768000036700000fc
:103800002478000012000000fe070000ea0f00000c
:10381000d5170000c01f0000aa270000932f00004a
:103820007b370000623f0000494700002f4f000037
:1038300014570000f85e0000db660000be6e00005a
:103840009f760000807e0000600600003f0e0000b2
:103850001e160000fb1d0000d7250000b32d000040
:103860008e350000673d000040450000184d000007
:10387000ef540000c55c00009a6400006e6c00000c
:1038800041740000137c0000e4030000b40b00004e
:1038900083130000511b00001e230000ea2a0000d1
:1038a000b53200007e3a0000474200000f4a000097
:1038b000d55100009b5900005f61000022690000a3
:1038c000e4700000a57800006500000024080000f6
:1038d000e10f00009e170000591f00001327000091
:1038e000cc2e0000833600003a3e0000ef45000079
:1038f000a34d000055550000075d0000b7640000af
:10390000666c000014740000c07b00006b030000b4
:10391000150b0000be120000651a00000b2200000b
:10392000af29000052310000f4380000954000003b
:1039300034480000d24f00006e570000095f0000bd
:10394000a36600003b6e0000d2750000677d00009a
:10395000fb0400008d0c00001e140000ae1b0000d4
:103960003c230000c92a000054320000dd39000069
:1039700066410000ec48000071500000f55700005f
:10398000775f0000f8660000766e0000f4750000b6
:10399000707d0000ea040000630c0000da130000f0
:1039a0004f1b0000c3220000352a0000a631000092
:1039b0001539000082400000ee470000584f00001b
:1039c000c0560000275e00008c650000ef6c000010
:1039d00051740000b17b00000f0300006b0a00006f
:1039e000c61100001f19000076200000cc2700003f
:1039f000202f000071360000c23d0000104500007d
:103a00005c4c0000a7530000f05a00003762000031
:103a10007c690000c070000001780000417f000058
:103a20007f060000bb0d0000f51400002d1c0000f7
:103a300064230000982a0000ca310000fb3800000f
:103a40002a40000056470000814e0000aa550000a1
:103a5000d15c0000f6630000186b000039720000b2
:103a6000587900007500000090070000a90e0000c2
:103a7000c0150000d41c0000e7230000f82a000055
:103a800007320000133900001e40000026470000e6
:103a90002c4e000031550000335c00003363000001
:103aa000316a00002c710000267800001e7f0000a3
:103ab00013060000060d0000f7130000e61a0000d0
:103ac000d2210000bd280000a52f00008b36000089
:103ad0006f3d000051440000304b00000d520000cb
:103ae000e8580000c15f0000976600006b6d0000a1
:103af0003d7400000d7b0000da010000a508000005
:103b00006d0f000034160000f81c0000b9230000ff
:103b1000792a000036310000f0370000a93e00008d
:103b20005f450000124c0000c352000072590000b3
:103b30001e600000c8660000706d00001574000073
:103b4000b87a000058010000f6070000910e00004e
:103b50002a150000c11b000055220000e6280000c5
:103b6000752f0000023600008c3c0000134300005b
:103b7000984900001b5000009a560000185d000094
:103b8000936300000b6a000081700000f47600006f
:103b9000657d0000d30300003e0a0000a71000006e
:103ba0000d170000711d0000d2230000302a000014
:103bb0008c300000e53600003b3d00008f430000e4
:103bc000e04900002f5000007b560000c45c00005c
:103bd0000a6300004e6900008f6f0000cd75000081
:103be000097c00004202000078080000ab0e0000d3
:103bf000dc1400000a1b0000352100005d270000d6
:103c0000832d0000a6330000c6390000e33f00000a
:103c1000fe450000154c00002a5200003c580000f0
:103c20004b5e000058640000616a0000687000008c
:103c30006c7600006d7c00006b02000066080000de
:103c40005e0e000054140000461a000036200000ea
:103c5000232600000d2c0000f4310000d8370000ae
:103c6000b93d000097430000724900004a4f000030
:103c70001f550000f25a0000c16000008d66000070
:103c8000576c00001d720000e0770000a17d00006d
:103c90005e03000018090000cf0e0000841400002d
:103ca000351a0000e31f00008e250000362b0000af
:103cb000db3000007d3600001c3c0000b8410000f5
:103cc00050470000e64c0000785200000858000001
:103cd000945d00001d630000a3680000266e0000d4
:103ce000a6730000227900009c7e000012040000f0
:103cf00085090000f50e000062140000cc190000d8
:103d0000321f000095240000f5290000522f00000a
:103d1000ac340000023a0000553f0000a54400000a
:103d2000f24900003b4f000081540000c4590000dc
:103d3000045f00004064000079690000af6e00007d
:103d4000e2730000117900003d7e00006603000070
:103d50008b080000ad0d0000cc120000e817000039
:103d6000001d00001422000026270000342c000053
:103d70003f310000463600004a3b00004b40000047
:103d800048450000424a0000384f00002b54000014
:103d90001b590000075e0000f0620000d6670000bb
:103da000b86c000097710000727600004a7b00003a
:103db0001e000000ef040000bc090000860e000099
:103dc0004d13000010180000cf1c00008b210000d4
:103dd00044260000f92a0000ab2f000059340000ef
:103de00004390000ab3d00004e420000ee460000ea
:103df0008b4b000024500000b95400004b590000c8
:103e0000da5d000065620000ec660000706b000087
:103e1000f06f00006c740000e57800005b7d00002e
:103e2000cd0100003b060000a60a00000d0f0000b7
:103e300070130000d01700002c1c0000852000002b
:103e4000da2400002b290000792d0000c331000086
:103e5000093600004c3a00008b3e0000c7420000cb
:103e6000fe460000334b0000634f000090530000fb
:103e7000b9570000de5b0000006000001e64000017
:103e8000386800004f6c0000627000007174000020
:103e90007c780000847c000088000000880400001a
:103ea000850800007e0c0000731000006414000000
:103eb000511800003b1c00002120000003240000da
:103ec000e2270000bd2b0000932f000067330000a5
:103ed00036370000013b0000c93e00008d42000063
:103ee0004d460000094a0000c24d00007751000015
:103ef00027550000d45800007e5c000023600000bd
:103f0000c463000062670000fc6a0000926e00005b
:103f100024720000b27500003d790000c37c0000ef
:103f200046000000c40300003f070000b60a00007e
:103f3000290e000099110000041500006b18000004
:103f4000cf1b00002e1f00008a220000e225000087
:103f500036290000862c0000d22f00001a33000002
:103f60005e3600009e390000da3c0000124000007e
:103f70004743000077460000a4490000cc4c0000f5
:103f8000f14f0000115300002e560000465900006a
:103f90005b5c00006c5f00007862000081650000df
:103fa00086680000866b0000836e00007c71000054
:103fb00070740000617700004e7a0000377d0000c9
:103fc0001b000000fc020000d8050000b108000042
:103fd000850b0000560e000022110000eb130000bc
:103fe000af160000701900002c1c0000e41e000039
:103ff0009821000048240000f52600009d290000bb
:10400000402c0000e02e00007c3100001434000041
:10401000a736000037390000c33b00004a3e0000cd
:10402000cd4000004c430000c74500003e48000062
:10403000b14a0000204d00008b4f0000f1510000fc
:1040400054540000b25600000d590000635b00009c
:10405000b55d0000026000004c6200009264000048
:10406000d3660000116900004a6b00007f6d0000fc
:10407000b06f0000dd710000057400002a760000ba
:104080004a780000667a00007e7c0000927e000084
:10409000a2000000ad020000b5040000b806000058
:1040a000b7080000b20a0000a80c00009b0e000038
:1040b0008910000073120000591400003b16000024
:1040c00018180000f2190000c71b0000981d00001e
:1040d000651f00002d210000f2220000b224000024
:1040e0006e26000026280000d9290000882b000039
:1040f000342d0000da2e00007d3000001c3200005c
:10410000b63300004c350000de3600006b3800008e
:10411000f53900007a3b0000fb3c0000773e0000d0
:10412000f03f000064410000d44200004044000021
:10413000a74500000a47000069480000c449000084
:104140001b4b00006d4c0000bb4d0000054f0000f4
:104150004a5000008b510000c8520000015400007a
:10416000365500006656000092570000b95800000e
:10417000dd590000fc5a0000175c00002e5d0000b5
:10418000405e00004e5f0000586000005d6100006e
:104190005f6200005c630000546400004965000039
:1041a00039660000256700000d680000f068000017
:1041b000cf690000aa6a0000806b0000526c00000a
:1041c000206d0000ea6d0000af6e0000706f00000f
:1041d0002d700000e57000009a7100004a72000026
:1041e000f57200009c7300003f740000de74000054
:1041f000797500000f760000a17600002e77000090
:10420000b77700003c780000bd78000039790000e5
:10421000b1790000257a0000947a0000007b00004c
:10422000667b0000c97b0000277c0000817c0000c9
:10423000d77c0000287d0000757d0000be7d000059
:10424000027e0000427e00007e7e0000b57e0000ff
:10425000e97e0000177f0000427f0000687f0000b9
:104260008a7f0000a87f0000c17f0000d67f000089
:10427000e77f0000f37f0000fb7f0000ff7f00006e
:10428000ff7f0000fa7f0000f17f0000e37f000065
:10429000d27f0000bb7f0000a17f0000827f000072
:1042a0005f7f0000387f00000d7f0000dd7e000092
:1042b000a97e0000707e0000337e0000f27d0000c9
:1042c000ad7d0000637d0000157d0000c37c000013
:1042d0006c7c0000117c0000b27b00004e7b000073
:1042e000e67a00007a7a00000a7a000095790000e8
:1042f0001c7900009e7800001d7800009777000070
:104300000d7700007e760000eb750000547500000c
:10431000b97400001974000075730000cc720000bd
:10432000207200006f710000ba7000000070000081
:10433000426f0000806e0000ba6d0000ef6c00005c
:10434000206c00004d6b0000766a00009a69000046
:10435000ba680000d6670000ed6600000066000045
:104360000f65000019640000206300002262000055
:104370001f610000196000000e5f0000ff5d00007b
:10438000eb5c0000d45b0000b85a000098590000b4
:10439000735800004a5700001d560000ec540000fe
:1043a000b75300007d5200003f510000fd4f000058
:1043b000b64e00006b4d00001c4c0000c94a0000c6
:1043c0007249000016480000b64600005245000041
:1043d000e94300007c4200000b410000963f0000d2
:1043e0001d3e00009f3c00001d3b0000973900006f
:1043f0000d3800007e360000eb340000543300001e
:10440000b931000019300000762e0000ce2c0000db
:10441000222b000071290000bd27000004260000a7
:104420004724000086220000c0200000f71e000084
:10443000291d0000571b000081190000a71700006c
:10444000c8150000e5130000fe1100001310000065
:10445000240e0000300c0000390a00003d08000066
:104460003d06000039040000300200002400000076
:10447000137e0000fe7b0000e5790000c877000095
:10448000a775000081730000587100002a6f0000ba
:10449000f86c0000c26a0000886800004a660000ec
:1044a00007640000c1610000765f0000275d000026
:1044b000d45a00007d58000022560000c25300006c
:1044c0005f510000f74e00008c4c00001c4a0000b9
:1044d000a847000030450000b4420000344000000e
:1044e000af3d0000273b00009b3800000a3600006b
:1044f00075330000dd300000402e00009f2b0000cf
:10450000fa28000051260000a4230000f320000038
:104510003e1e0000851b0000c818000006160000a3
:104520004113000077100000aa0d0000d90a000016
:10453000030800002a0500004c0200006a7f00000a
:10454000857c00009b790000ae760000bc73000003
:10455000c6700000cd6d0000cf6a0000cd6700007e
:10456000c8640000be610000b05e00009f5b0000f8
:10457000895800007055000052520000314f000071
:104580000b4c0000e2480000b445000083420000ec
:104590004e3f0000143c0000d73800009635000064
:1045a00051320000082f0000bb2b00006a280000d9
:1045b00015250000bd210000601e0000001b00004a
:1045c0009b17000033140000c7100000560d0000b8
:1045d000e20900006b060000ef0200006f7f0000a0
:1045e000ec7b000064780000d97400004a71000080
:1045f000b76d0000206a000085660000e7620000d9
:10460000445f00009e5b0000f45700004654000029
:1046100094500000de4c0000254900006845000071
:10462000a7410000e23d0000193a00004d360000ad
:104630007d320000a92e0000d12a0000f5260000de
:1046400016230000331f00004c1b00006117000000
:1046500073130000810f00008b0b00009107000016
:1046600094030000937f00008e7b0000857700009c
:1046700079730000696f0000556b00003d67000012
:1046800022630000035f0000e15a0000ba560000f8
:1046900090520000634e0000314a0000fc450000cb
:1046a000c4410000873d0000473900000435000088
:1046b000bd300000722c000023280000d123000030
:1046c0007b1f0000211b0000c416000064120000c4
:1046d000ff0d0000970900002c050000bd00000040
:1046e0004a7c0000d47700005a730000dd6e0000a1
:1046f0005c6a0000d76500004f610000c35c0000e9
:1047000034580000a15300000b4f0000714a000014
:10471000d3450000334100008e3c0000e637000026
:104720003b3300008c2e0000d92900002325000017
:104730006a200000ad1b0000ec16000029120000ea
:10474000610d000096080000c8030000f67e00001e
:10475000217a0000497500006d7000008d6b00002b
:10476000aa660000c4610000da5c0000ed5700009a
:10477000fd520000094e00001149000017440000de
:10478000193f0000173a0000123500000a300000ff
:10479000ff2a0000f0250000de200000c81b0000fa
:1047a000af16000093110000730c000050070000ca
:1047b0002a020000017d0000d4770000a4720000ee
:1047c000716d00003a68000000630000c35d0000e6
:1047d000825800003f530000f84d0000ad48000033
:1047e000604300000f3e0000bb380000643300004f
:1047f0000a2e0000ac2800004c230000e81d000039
:104800008018000016130000a90d000038080000f1
:10481000c40200004d7d0000d377000055720000f7
:10482000d56c000051670000cb610000415c0000c6
:10483000b456000024510000904b0000fa450000df
:1048400061400000c43a000025350000822f0000be
:10485000dc29000033240000881e0000d918000065
:1048600027130000720d0000ba070000ff010000ce
:10487000417c000080760000bc700000f56a0000fa
:104880002a6500005d5f00008d590000ba530000ea
:10489000e44d00000c48000030420000513c000094
:1048a0006f3600008a300000a32a0000b824000000
:1048b000cb1e0000db180000e7120000f10c000026
:1048c000f8060000fc000000fd7a0000fc74000007
:1048d000f76e0000f0680000e6620000d95c00009e
:1048e000c9560000b6500000a14a000088440000ec
:1048f0006d3e00004f3800002f3200000b2c0000ee
:10490000e5250000bc1f00009019000061130000a5
:10491000300d0000fc060000c50000008c7a00008d
:104920004f740000106e0000cf6700008a61000025
:10493000435b0000f9540000ad4e00005e480000eb
:104940000c420000b83b000060350000072f00005b
:10495000aa2800004b220000ea1b00008515000079
:104960001f0f0000b508000049020000da7b0000bc
:1049700069750000f56e00007f68000006620000a7
:104980008b5b00000d5500008c4e000009480000b4
:1049900084410000fb3a000071340000e42d000067
:1049a00054270000c22000002d1a000096130000ba
:1049b000fd0c000061060000c27f000022790000ab
:1049c0007e720000d96b000031650000865e000039
:1049d000d95700002a510000784a0000c443000063
:1049e0000d3d000055360000992f0000dc28000026
:1049f0001c2200005a1b000095140000ce0d000080
:104a000005070000390000006c7900009c7200006e
:104a1000c96b0000f56400001e5e000044570000f2
:104a2000695000008b490000ab420000c93b000008
:104a3000e5340000fe2d0000162700002b200000aa
:104a40003e1900004e1200005d0b000069040000da
:104a5000737d00007b760000816f00008568000098
:104a600086610000865a0000835300007e4c0000df
:104a7000784500006f3e00006437000057300000aa
:104a80004729000036220000231b00000e140000fe
:104a9000f60c0000dd050000c27e0000a4770000d7
:104aa0008570000064690000406200001b5b00002c
:104ab000f4530000ca4c00009f450000723e000005
:104ac0004337000012300000df280000aa21000058
:104ad000731a00003b130000000c0000c404000027
:104ae000867d000045760000036f0000bf67000070
:104af0007a60000032590000e95100009e4a00002f
:104b000051430000023c0000b13400005f2d000062
:104b10000b260000b51e00005d1700000410000009
:104b2000a90800004c010000ed7900008d72000022
:104b30002b6b0000c7630000625c0000fb540000a8
:104b4000924d000028460000bc3e00004e37000099
:104b5000df2f00006e280000fb20000087190000f6
:104b600011120000990a000020030000a67b00003b
:104b700029740000ac6c00002c650000ab5d0000e7
:104b800029560000a54e000020470000993f000074
:104b90001038000086300000fb2800006e21000065
:104ba000df1900004f120000be0a00002b030000b6
:104bb000977b0000017400006a6c0000d164000063
:104bc000385d00009c550000ff4d0000614600006c
:104bd000c23e0000213700007f2f0000db270000cd
:104be0003620000090180000e91000004009000085
:104bf00096010000ea7900003e720000906a000011
:104c0000e0620000305b00007e530000cb4b0000f0
:104c100017440000613c0000ab340000f32c00009e
:104c20003a250000801d0000c4150000070e00009a
:104c30004a0600008b7e0000cb760000096f000062
:104c400047670000835f0000bf570000f94f000076
:104c5000324800006a400000a2380000d73000004f
:104c60000c2900004021000073190000a51100006c
:104c7000d609000005020000347a000062720000cc
:104c80008f6a0000ba620000e55a00000f5300006e
:104c9000384b000060430000873b0000ad3300004c
:104ca000d22b0000f6230000191c00003c14000069
:104cb0005d0c00007e0400009e7c0000bd740000be
:104cc000db6c0000f8640000155d0000305500004a
:104cd0004b4d0000654500007e3d0000973500000b
:104ce000ae2d0000c5250000db1d0000f115000001
:104cf000050e0000190600002c7e00003f76000023
:104d0000506e000061660000725e00008156000077
:104d1000904e00009f460000ac3e0000b9360000f7
:104d2000c62e0000d2260000dd1e0000e71600009f
:104d3000f10e0000fa060000037f00000b77000070
:104d4000136f00001a670000215f00002757000062
:104d50002c4f000031470000353f0000393700007c
:104d60003d2f000040270000421f000044170000b4
:104d7000460f000047070000487f0000487700000a
:104d8000486f000047670000465f0000455700007d
:104d9000434f0000414700003e3f00003b3700000a
:104da000382f000034270000301f00002c170000af
:104db000280f0000230700001e7f00001877000066
:104dc000136f00000d670000065f00000057000031
:104dd000f94e0000f2460000eb3e0000e436000011
:104de000dc2e0000d4260000cc1e0000c4160000fb
:104df000bc0e0000b3060000ab7e0000a2760000ef
:104e0000996e000090660000875e00007e560000ec
:104e1000744e00006b460000613e000058360000f2
:104e20004e2e0000442600003b1e000031160000fc
:104e3000270e00001d06000014fe00000af6000008
:104e400001ee0000f7e50000eddd0000e3d5000015
:104e5000dacd0000d0c50000c7bd0000bdb5000020
:104e6000b4ad0000aaa50000a19d00009895000027
:104e70008f8d0000868500007dfd000075f5000027
:104e80006ced000064e500005cdd000054d500001e
:104e90004dcd000045c500003ebd000037b5000007
:104ea00030ad000029a50000239d00001d950000e5
:104eb000178d0000118500000cfd000007f50000b3
:104ec00002ed0000fee40000fadc0000f6d4000071
:104ed000f3cc0000f0c40000edbc0000ebb4000017
:104ee000e9ac0000e7a40000e69c0000e5940000a7
:104ef000e58c0000e5840000e5fc0000e6f400001d
:104f0000e7ec0000e9e40000ebdc0000eed4000078
:104f1000f1cc0000f5c40000f9bc0000feb40000b4
:104f200003ad000009a500000f9d000016950000cc
:104f30001d8d0000258500002dfd000036f50000c8
:104f400040ed00004ae5000055dd000060d500009e
:104f50006ccd000079c5000086bd000094b500004e
:104f6000a3ad0000b2a50000c29d0000d3950000d3
:104f7000e48d0000f685000009fe00001df600002b
:104f800031ee000046e600005cde000072d6000054
:104f900089ce0000a1c60000babe0000d4b6000051
:104fa000eeae000009a70000259f00004297000018
:104fb000608f00007e8700009eff0000bef70000ab
:104fc000dfef000001e8000024e0000047d8000007
:104fd0006cd0000092c80000b8c00000e0b800002b
:104fe00008b1000031a900005ca100008799000011
:104ff000b3910000e08900000e8200003efa00003c
:105000006ef200009fea0000d1e2000005db000024
:1050100039d300006fcb0000a5c30000ddbb00004a
:1050200015b400004fac00008aa40000c69c00002c
:1050300003950000418d000080850000c1fd000047
:1050400002f6000045ee000089e60000cede00001a
:1050500014d700005ccf0000a4c70000eebf000022
:1050600039b8000086b00000d3a8000022a10000db
:1050700072990000c4910000168a00006a82000044
:10508000bffa000016f300006eeb0000c7e300005b
:1050900021dc00007dd40000dacc000039c500001e
:1050a00098bd0000fab500005cae0000c0a600008c
:1050b000259f00008c970000f48f00005e880000a0
:1050c000c980000035f90000a3f1000013ea0000d8
:1050d00083e20000f6da000069d30000dfcb0000b5
:1050e00055c40000cdbc000047b50000c2ad0000b3
:1050f0003fa60000be9e00003d970000bf8f00004d
:1051000042880000c68000004cf90000d4f1000085
:105110005dea0000e8e2000075db000003d4000057
:1051200093cc000024c50000b7bd00004cb60000c1
:10513000e2ae00007aa7000014a00000af980000c3
:105140004d910000eb8900008c8200002efb0000d6
:10515000d2f3000078ec00001fe50000c8dd00007d
:1051600073d6000020cf0000cfc700007fc0000032
:1051700031b90000e5b100009baa000052a3000075
:105180000b9c0000c7940000848d00004386000043
:1051900003ff0000c6f700008af0000051e900009c
:1051a00019e20000e3da0000afd300007dcc00007c
:1051b0004dc500001fbe0000f3b60000c8af0000e0
:1051c000a0a800007aa10000559a000033930000c7
:1051d000138c0000f4840000d8fd0000bdf6000030
:1051e000a5ef00008fe800007ae1000068da000017
:1051f00058d300004acc00003ec5000034be000079
:105200002cb7000026b0000022a9000020a2000058
:10521000219b000024940000288d00002f860000b0
:1052200038ff000043f8000051f1000060ea000080
:1052300072e3000086dc00009cd50000b4ce0000c4
:10524000cfc70000ebc000000aba00002cb300007a
:105250004fac000075a500009c9e0000c7970000a1
:10526000f3900000228a00005383000086fc0000b7
:10527000bcf50000f4ee00002ee800006ae100003a
:10528000a9da0000ead300002ecd000074c60000a9
:10529000bcbf000007b9000054b20000a3ab00007f
:1052a000f5a40000499e0000a0970000f9900000be
:1052b000548a0000b283000013fd000075f6000060
:1052c000dbef000042e90000ace2000019dc000066
:1052d00088d50000face00006ec80000e4c10000ce
:1052e0005dbb0000d9b4000057ae0000d8a7000095
:1052f0005ba10000e19a000069940000f48d0000b9
:105300008187000012810000a4fa000039f4000037
:10531000d1ed00006be7000008e10000a8da000012
:105320004ad40000efcd000097c7000041c1000043
:10533000eeba00009db400004fae000004a80000cb
:10534000bca10000769b000033950000f38e0000a6
:10535000b58800007a82000042fc00000cf60000d4
:10536000d9ef0000a9e900007ce3000052dd000055
:105370002ad7000005d10000e3ca0000c3c4000022
:10538000a7be00008db8000076b2000062ac00003d
:1053900050a6000042a00000369a00002d940000a4
:1053a000278e0000248800002482000027fc0000d3
:1053b0002cf6000034f0000040ea00004ee400004b
:1053c0005fde000073d800008ad20000a3cc00008a
:1053d000c0c60000e0c0000002bb000028b500000d
:1053e00050af00007ca90000aaa30000dc9d0000d3
:1053f0001098000048920000828c0000bf860000d8
:105400000081000043fb00008af50000d3ef00009c
:105410001fea00006fe40000c2de000017d90000a0
:1054200070d30000cccd00002ac800008cc2000060
:10543000f1bc000059b70000c5b1000033ac00005a
:10544000a4a6000019a10000909b00000b9600008c
:10545000899000000a8b00008e85000015800000f6
:10546000a0fa00002ef50000beef000052ea000096
:10547000eae4000084df000021da0000c2d400006a
:1054800066cf00000dca0000b8c4000065bf000070
:1054900016ba0000cab4000082af00003caa0000a7
:1054a000faa40000bb9f0000809a0000479500000e
:1054b00012900000e08a0000b285000087800000a2
:1054c0005ffb00003af6000019f10000fbeb000062
:1054d000e0e60000c9e10000b5dc0000a4d7000050
:1054e00097d200008dcd000087c8000083c3000064
:1054f00084be000087b900008eb4000098af0000a1
:10550000a6aa0000b7a50000cca00000e49b000004
:10551000ff9600001e920000408d0000658800008c
:105520008e830000bbfe0000ebf900001ef50000ba
:1055300055f000008feb0000cde600000ee2000009
:1055400053dd00009bd80000e7d3000036cf0000f9
:1055500089ca0000dfc5000039c1000096bc000008
:10556000f7b700005bb30000c3ae00002eaa000036
:105570009da5000010a10000869c0000ff97000080
:105580007c930000fd8e0000818a000009860000e7
:105590009581000024fd0000b6f800004df40000e5
:1055a000e6ef000084eb000025e70000c9e2000000
:1055b00072de00001eda0000cdd5000080d10000b0
:1055c00037cd0000f2c80000b0c4000071c0000078
:1055d00037bc000000b80000cdb300009daf000054
:1055e00071ab000049a7000024a30000049f000045
:1055f000e79a0000cd960000b7920000a58e00004b
:10560000978a00008d8600008682000083fe0000dd
:1056100083fa000088f6000090f200009cee000083
:10562000abea0000bfe60000d6e20000f1de0000b9
:105630000fdb000032d7000058d3000082cf0000fb
:10564000b0cb0000e1c7000017c4000050c000004c
:105650008dbc0000ceb8000012b500005bb10000a8
:10566000a7ad0000f7a900004ba60000a3a2000010
:10567000fe9e00005e9b0000c19700002894000081
:1056800093900000028d000075890000eb850000fa
:1056900066820000e4fe000066fb0000ecf70000fc
:1056a00076f4000004f1000096ed00002bea000003
:1056b000c5e6000062e3000004e00000a9dc000091
:1056c00052d90000ffd50000b0d2000065cf000025
:1056d0001ecc0000dbc800009cc5000060c20000ba
:1056e00029bf0000f6bb0000c6b800009bb5000053
:1056f00073b2000050af000030ac000014a90000ed
:10570000fda50000e9a20000d99f0000ce9c00008a
:10571000c6990000c2960000c2930000c790000026
:10572000cf8d0000db8a0000eb87000000850000c1
:105730001882000034ff000055fc000079f90000d9
:10574000a1f60000cef30000fef0000033ee0000f2
:105750006beb0000a8e80000e9e500002de3000085
:1057600076e00000c3dd000014db000068d8000014
:10577000c1d500001ed3000080d00000e5cd0000a0
:105780004ecb0000bbc800002dc60000a2c3000025
:105790001cc100009abe00001bbc0000a1b90000a3
:1057a0002bb70000b9b400004bb20000e2af00001c
:1057b0007cad00001bab0000bda8000064a600008b
:1057c0000fa40000bea10000719f0000289d0000f2
:1057d000e49a0000a3980000679600002f94000050
:1057e000fb910000cb8f00009f8d0000778b0000a5
:1057f00054890000348700001985000002830000ee
:10580000ef800000e1fe0000d6fc0000d0fa0000ae
:10581000cef80000d0f60000d6f40000e0f2000060
:10582000eff0000001ef000018ed000033eb000086
:1058300053e9000076e700009ee50000c9e30000a0
:10584000fae100002ee0000066de0000a3dc0000ac
:10585000e4da000029d9000072d70000bfd50000ab
:1058600011d4000067d20000c1d000001fcf00009b
:1058700082cd0000e9cb000054ca0000c3c800007c
:1058800036c70000aec500002ac40000aac200004e
:105890002ec10000b7bf000044be0000d5bc000010
:1058a0006abb000003ba0000a1b8000043b70000c3
:1058b000eab5000094b4000043b30000f6b1000064
:1058c000adb0000069af000028ae0000ecac0000f5
:1058d000b5ab000081aa000052a9000027a8000073
:1058e00000a70000dea50000c0a40000a6a30000e1
:1058f00090a200007fa1000072a00000699f00003c
:10590000659e0000649d0000689c0000719b000083
:105910007d9a00008e990000a3980000bd970000ba
:10592000da960000fc950000239500004d940000dd
:105930007c930000af920000e791000022910000ec
:1059400062900000a68f0000ef8e00003c8e0000e9
:105950008d8d0000e28c00003c8c00009a8b0000d2
:10596000fd8a0000638a0000ce8900003d890000a6
:10597000b188000029880000a58700002587000065
:10598000aa86000033860000c08500005285000012
:10599000e88400008284000020840000c3830000ab
:1059a0006a83000016830000c5820000798200002f
:1059b00032820000ee810000af810000748100009f
:1059c0003e8100000c810000de800000b4800000f9
:1059d0008f8000006e80000052800000398000003f
:1059e00025800000168000000a800000038000006f
:1059f000018000000280000008800000128000008a
:105a000021800000338000004a8000006680000092
:105a100086800000aa800000d2800000fe80000086
:105a20002f810000658100009e810000dc81000064
:105a30001e82000065820000af820000fe8200002e
:105a400052830000a98300000584000066840000e2
:105a5000ca84000033850000a08500001286000083
:105a6000888600000287000080870000038800000d
:105a70008a88000015890000a5890000398a000085
:105a8000d18a00006d8b00000e8c0000b38c0000ea
:105a90005c8d00000a8e0000bc8e0000728f00003a
:105aa0002d900000ec900000af9100007692000075
:105ab0004293000012940000e6940000be9500009e
:105ac0009b9600007c970000629800004b990000b4
:105ad000399a00002c9b0000229c00001d9d0000b4
:105ae0001c9e00001f9f000027a0000033a10000a3
:105af00043a2000057a3000070a400008da5000081
:105b0000aea60000d3a70000fda800002baa00004d
:105b10005dab000094ac0000cfad00000eaf000004
:105b200051b0000099b10000e4b2000034b40000ac
:105b300089b50000e1b600003eb800009fb9000042
:105b400004bb00006ebc0000dbbd00004dbf0000c8
:105b5000c4c000003ec20000bdc3000040c500003c
:105b6000c7c6000052c80000e2c9000076cb0000a2
:105b70000ecd0000aace00004bd00000efd10000f7
:105b800098d3000045d50000f7d60000acd800003f
:105b900066da000024dc0000e6dd0000addf000076
:105ba00077e1000046e3000019e50000f0e60000a0
:105bb000cce80000abea00008fec000077ee0000bc
:105bc00063f0000053f2000048f4000040f60000cb
:105bd0003df800003efa000043fc00004dfe0000ce
:105be0005a8000006c820000828400009c860000c5
:105bf000ba880000dc8a0000038d00002d8f0000b1
:105c00005c9100008f930000c69500000198000091
:105c1000409a0000849c0000cb9e000017a1000069
:105c200067a30000bba5000013a800006faa000036
:105c3000d0ac000034af00009db1000009b40000fa
:105c40007ab60000efb8000068bb0000e5bd0000b8
:105c500066c00000ebc2000075c5000002c800006d
:105c600094ca000029cd0000c3cf000061d200001b
:105c700002d50000a8d7000052da000000dd0000c5
:105c8000b2df000068e2000023e50000e1e7000069
:105c9000a3ea000069ed000034f0000002f3000008
:105ca000d5f50000abf8000086fb000064fe0000a4
:105cb000478100002d84000018870000068a00003c
:105cc000f98c0000f08f0000ea920000e9950000d6
:105cd000eb980000f29b0000fd9e00000ba200006c
:105ce0001ea5000034a800004fab00006dae000000
:105cf00090b10000b6b40000e1b700000fbb000097
:105d000041be000077c10000b2c40000f0c700002f
:105d100032cb000078ce0000c2d1000010d50000c8
:105d200061d80000b7db000011df00006ee2000068
:105d3000d0e5000035e900009eec00000cf000000a
:105d40007df30000f2f600006afa0000e7fd0000b3
:105d500068810000ec84000075880000018c000060
:105d6000918f000025930000bd960000589a000016
:105d7000f89d00009ba1000042a50000eda80000d6
:105d80009cac00004fb0000005b40000bfb700009d
:105d90007ebb000040bf000005c30000cfc600006e
:105da0009cca00006dce000042d200001bd600004d
:105db000f7d90000d8dd0000bce10000a4e5000038
:105dc0008fe900007eed000071f1000068f5000031
:105dd00063f9000061fd0000638100006985000037
:105de00073890000808d000091910000a59500004e
:105df000be990000da9d0000faa100001da6000077
:105e000044aa00006fae00009eb20000d0b60000b1
:105e100006bb00003fbf00007cc30000bdc7000000
:105e200002cc00004ad0000096d40000e5d8000063
:105e300038dd00008fe10000e9e5000047ea0000de
:105e4000a9ee00000ef3000077f70000e3fb00006e
:105e500053800000c78400003e890000b98d000017
:105e600037920000b99600003e9b0000c79f0000db
:105e700054a40000e4a8000078ad00000fb20000b8
:105e8000a9b6000048bb0000e9bf00008fc40000b5
:105e900037c90000e4cd000094d2000047d70000cd
:105ea000fedb0000b8e0000076e5000037ea000005
:105eb000fcee0000c4f3000090f800005ffd00005d
:105ec0003182000007870000e18b0000bd900000d8
:105ed0009e950000819a0000689f000053a4000076
:105ee00041a9000032ae000027b300001fb8000037
:105ef0001bbd00001ac200001cc7000021cc00001e
:105f00002ad1000037d6000046db000059e000002f
:105f100070e5000089ea0000a7ef0000c7f4000068
:105f2000ebf9000011ff00003c84000069890000cb
:105f30009a8e0000ce93000006990000409e00005b
:105f40007ea30000c0a8000004ae00004cb3000017
:105f500097b80000e5bd000037c300008bc8000003
:105f6000e3cd00003ed300009dd80000fedd000020
:105f700063e30000cbe8000036ee0000a4f300006d
:105f800016f900008afe0000028400007d890000ee
:105f9000fb8e00007c940000019a0000889f0000a6
:105fa00013a50000a1aa000031b00000c5b5000093
:105fb0005dbb0000f7c0000094c6000034cc0000b8
:105fc000d8d100007ed7000028dd0000d4e2000018
:105fd00084e8000036ee0000ecf30000a5f90000b4
:105fe00061ff00001f850000e18a0000a69000000c
:105ff0006e960000389c000006a20000d7a70000a3
:10600000abad000081b300005bb9000037bf0000fa
:1060100017c50000f9ca0000dfd00000c7d6000095
:10602000b2dc0000a0e2000092e8000085ee000073
:106030007cf4000076fa0000738000007286000095
:10604000748c00007a920000829800008c9e000000
:106050009aa40000abaa0000beb00000d4b60000b5
:10606000edbc000009c3000028c9000049cf0000b2
:106070006dd5000094db0000bee10000eae70000ff
:106080001aee00004cf4000080fa0000b880000016
:10609000f28600002f8d00006f930000b199000080
:1060a000f69f00003ea6000088ac0000d5b20000bc
:1060b00025b9000077bf0000ccc5000024cc00004b
:1060c0007ed20000dbd800003bdf00009de5000031
:1060d00002ec00006af20000d4f8000040ff00006b
:1060e000b0850000228c0000969200000d990000ff
:1060f000869f000003a6000081ac000002b30000f0
:1061000086b900000cc0000095c6000020cd00003c
:10611000aed300003eda0000d1e0000066e70000e8
:10612000fded000098f4000034fb0000d381000076
:1061300075880000188f0000bf950000679c000064
:1061400013a30000c0a9000070b0000022b7000037
:10615000d7bd00008ec4000047cb000003d2000072
:10616000c1d8000082df000045e600000aed000013
:10617000d1f300009bfa0000678100003588000021
:10618000068f0000d9950000ae9c000085a300009a
:106190005faa00003bb1000019b80000fabe000081
:1061a000dcc50000c1cc0000a8d3000092da0000da
:1061b0007de100006be800005bef00004df60000a1
:1061c00041fd000037840000308b00002b9200005e
:1061d0002799000026a0000027a700002aae000093
:1061e00030b5000037bc000040c300004cca0000be
:1061f00059d1000069d800007bdf00008ee6000066
:10620000a4ed0000bcf40000d6fb0000f282000008
:10621000108a00002f91000051980000759f000027
:106220009ba60000c3ad0000ecb4000018bc000049
:1062300046c3000075ca0000a7d10000dad80000ec
:106240000fe0000047e7000080ee0000bbf5000013
:10625000f8fc000036840000778b0000b992000043
:10626000fe99000044a100008ca80000d6af0000f9
:1062700021b700006fbe0000bec500000fcd0000ba
:1062800061d40000b6db00000ce3000064ea00000b
:10629000bef100001af9000077800000d6870000e8
:1062a000378f000099960000fd9d000063a5000057
:1062b000cbac000034b400009fbb00000bc3000057
:1062c00079ca0000e9d100005ad90000cde00000f1
:1062d00042e80000b8ef000030f70000aafe00001e
:1062e00025860000a18d00001f9500009f9c0000e6
:1062f00020a40000a3ab000027b30000adba00004b
:1063000035c20000bdc9000048d10000d4d800004b
:1063100061e00000f0e7000080ef000012f70000ed
:10632000a5fe00003a860000d08d000067950000b1
:10633000009d00009aa4000036ac0000d3b300001a
:1063400071bb000011c30000b2ca000055d20000aa
:10635000f9d900009ee1000044e90000ecf00000e3
:1063600095f8000040800000eb870000988f000047
:1063700047970000f69e0000a7a6000059ae000057
:106380000cb60000c1bd000077c500002ecd000096
:10639000e6d400009fdc00005ae4000016ec000088
:1063a000d2f3000091fb000050830000108b00002e
:1063b000d2920000949a000058a200001daa00008a
:1063c000e3b10000aab9000072c100003bc900009f
:1063d00006d10000d1d800009de000006be800006d
:1063e00039f0000009f80000d9ff0000ab87000079
:1063f0007d8f000051970000259f0000fba6000044
:10640000d1ae0000a8b6000081be00005ac6000050
:1064100034ce00000fd60000ebdd0000c8e5000020
:10642000a6ed000085f5000064fd00004485000035
:10643000268d000008950000eb9c0000cfa4000012
:10644000b3ac000098b400007fbc000066c400003c
:106450004dcc000036d400001fdc000009e4000031
:10646000f4eb0000e0f30000ccfb0000b983000077
:10647000a78b000095930000849b000074a300008c
:1064800065ab000056b3000048bb00003ac30000f3
:106490002dcb000021d3000016db00000be3000031
:1064a00000eb0000f6f20000edfa0000e5820000cb
:1064b000dd8a0000d5920000ce9a0000c8a200003c
:1064c000c2aa0000bdb20000b8ba0000b3c200000a
:1064d000b0ca0000acd20000a9da0000a7e20000b8
:1064e000a5ea0000a4f20000a3fa0000a2820000c6
:1064f000a28a0000a2920000a39a0000a4a20000b9
:10650000a6aa0000a8b20000aaba0000acc200000f
:10651000afca0000b3d20000b6da0000bae2000051
:10652000bfea0000c3f20000c8fa0000cd820000fc
:10653000d38a0000d9920000df9a0000e5a2000093
:10654000ebaa0000f2b20000f9ba000001c300009b
:1065500008cb000010d3000017db00001fe3000091
:1065600028eb000030f3000039fb000041830000fd
:106570004a8b0000539300005c9b000065a3000061
:106580006eab000078b3000081bb00008bc300003d
:1065900094cb00009ed30000a8db0000b2e3000013
:1065a000bbeb0000c5f30000b2000000b200000029
:1065b000b1000000b1000000b0000000b000000019
:1065c000b0000000af000000af000000ae0000000f
:1065d000ae000000ad000000ad000000ac00000007
:1065e000ac000000ab000000ab000000aa000000ff
:1065f000aa000000a9000000a9000000a8000000f7
:10660000a8000000a7000000a7000000a6000000ee
:10661000a6000000a5000000a5000000a4000000e6
:10662000a4000000a3000000a3000000a2000000de
:10663000a2000000a1000000a1000000a0000000d6
:10664000a00000009f0000009f0000009e000000ce
