:020000040000fa
:080000000002040000000000f2
:020000040000fa
:100400002fc32300007f24000001880000000000ab
:100410000c000700002b290001002000110007003c
:10042000000020000000e000020032000000020096
:1004300000000000fa910200000000000040da0015
:100440000000fe004440a900201b26000000e00040
:100450000300320000002000a00188004440a800f2
:100460000000060091018800800078000000eb0089
:1004700015003700e280400032a0b4009101ba00bc
:10048000e280400032a0b4009102ba00e280400055
:1004900032a0b4000002eb00472bde00f507b200eb
:1004a000602ce10004003a000059eb008301e900f0
:1004b000fdff3e00040037006128e100010032002a
:1004c0000082eb00040007001101ba000200e00006
:1004d000e8ff3a00000006003159ba008301e90044
:1004e0000c0032002159ba008301e90008003200f3
:1004f0000400e00003003a00e280400032a0b400b3
:10050000f5ff370011d9ba008301e900faff3a007c
:100510008100e800e180400032a0b4000000060045
:10052000889fbe008a9fbe008c1f78005100070084
:100530005800330003866c006450e1002400320050
:100540006420e100270032006150e1002200320007
:100550006120e100210032008b854200eb07b100f1
:100560000134b800003ab8000804420089844a0007
:10057000013ab8000030b8008880400009014a0004
:10058000040033000000400081804800020149005f
:100590008b05e900c909dd0083017000010032000c
:1005a00013002000c814de004814dd004709de00f7
:1005b0001200b200c808de00088470004500070081
:1005c00001f0a1000cf0a70001f0a0003a003700f4
:1005d0006120e1003c0032000801be000200be00c4
:1005e000f7ff37006150e100fcff3a0036003700aa
:1005f0000001be005d0007000470a70003f0a10029
:100600006509b100160032000d0035006828e100d0
:1006100006003500f0ff2f00f1ff27000300e00087
:1006200013003b000100280000000500000040000e
:10063000818048008502e900fcff3a00080037008d
:10064000f88f420002003c008000eb000000050033
:100650008100d1000080d3008502e800fcff3a0051
:100660000300e00002003b0060001000e080180082
:10067000000006000004be003c0007000003be00ae
:100680000405be000200be0038000700844f75005c
:10069000000006000200be006450e10005003600c4
:1006a0006420e100020036000968a30001003a005e
:1006b0000800be000160a0004f0678004f05be0094
:1006c0004f04be0000000600f0ff2f00f1ff2700de
:1006d000f9ff370081002000618055000b003d00cc
:1006e0000b00200061fe2f000100e1001d0034001e
:1006f00082817100610164008904d1000884d30003
:100700000000e800faff3a00710020006100640078
:100710000300700002006000090032006104440020
:10072000e0844c000988a500050032008b05e80034
:100730006808e10002003a008904d1000884d3006f
:10074000f20f20000258e10005003d00c75ddd000a
:10075000f907b200898075000800780000000600e3
:100760000bf827008b00780000000500c70ade00a8
:10077000f107b200f50fb20008003200e1cf4200ed
:10078000020032000170a00024000500810f7000fb
:10079000010032000408050044000500810f7000cc
:1007a00002003a00140005008502e9000000400044
:1007b00081c04800fcff3b000170a0002400050040
:020000040000fa
:0200000401f009
:04000800ffff0000f6
:020000040000fa
:0200000401f009
:04000c00f8ff0000f9
:020000040000fa
:0200000401f009
:040010007bff000072
:020000040000fa
:0200000401f009
:040014007fff00006a
:020000040000fa
:100008002293000022930000229300002293000014
:100018002293000022930000229300002293000004
:1000280022930000229300002293000022930000f4
:1000380022930000229300002293000022930000e4
:1000480022930000229300002293000022930000d4
:1000580022930000229300002293000022930000c4
:1000680022930000229300002293000022930000b4
:1000780022930000229300002293000022930000a4
:100088002293000022930000229300002293000094
:100098002293000022930000229300002293000084
:1000a8002293000022930000229300002293000074
:1000b8002293000022930000229300002293000064
:1000c8002293000022930000229300002293000054
:1000d8002293000022930000229300002293000044
:1000e8002293000022930000229300002293000034
:1000f8002293000022930000229300002293000024
:100108002293000022930000229300002293000013
:100118002293000022930000229300002293000003
:1001280022930000229300002293000022930000f3
:1001380022930000229300002293000022930000e3
:1001480022930000229300002293000022930000d3
:100158002293000022930000ee910000be9100005f
:1001680022930000229300002293000022930000b3
:1001780022930000229300002293000022930000a3
:100188002293000022930000229300002293000093
:100198002293000022930000229300002293000083
:1001a8002293000022930000229300002293000073
:1001b8002293000022930000229300002293000063
:1001c8002293000022930000229300002293000053
:1001d8002293000022930000229300002293000043
:1001e8002293000022930000229300002293000033
:0801f800229300002293000095
:020000040000fa
:100208002293000022930000229300002293000012
:100218002293000022930000229300002293000002
:1002280022930000229300002293000022930000f2
:1002380022930000229300002293000022930000e2
:1002480022930000229300002293000022930000d2
:1002580022930000229300002293000022930000c2
:1002680022930000229300002293000022930000b2
:1002780022930000229300002293000022930000a2
:100288002293000022930000229300002293000092
:100298002293000022930000229300002293000082
:1002a8002293000022930000229300002293000072
:1002b8002293000022930000229300002293000062
:1002c8002293000022930000229300002293000052
:1002d8002293000022930000229300002293000042
:1002e8002293000022930000229300002293000032
:1002f8002293000022930000229300002293000022
:100308002293000022930000229300002293000011
:100318002293000022930000229300002293000001
:1003280022930000229300002293000022930000f1
:1003380022930000229300002293000022930000e1
:1003480022930000229300002293000022930000d1
:100358002293000022930000ee910000be9100005d
:1003680022930000229300002293000022930000b1
:1003780022930000229300002293000022930000a1
:100388002293000022930000229300002293000091
:100398002293000022930000229300002293000081
:1003a8002293000022930000229300002293000071
:1003b8002293000022930000229300002293000061
:1003c8002293000022930000229300002293000051
:1003d8002293000022930000229300002293000041
:1003e8002293000022930000229300002293000031
:0803f800229300002293000093
:020000040000fa
:1007c00000000000cc0c0000991900006626000013
:1007d00032330000ff3f0000cc4c0000985900006d
:1007e0006566000032730000004000000020000039
:1007f0009919000000e0000033130000ecf1000044
:10080000f1050000930b0000130f0000701d0000a5
:10081000c21500008a15000065010000810000007b
:10082000662600006626000066260000701700009d
:100830000040000000400000701700000f000000a2
:100840000f0000000f0000000f0000000f0000006c
:100850000f0000000f0000000f0000000f0000005c
:100860000f0000000f0000000f0000000f0000004c
:100870000f0000000f0000000f0000000f0000003c
:100880000f0000000f0000000f0000000f0000002c
:100890000f0000000f0000000f0000000f0000001c
:1008a0000f0000000f0000000f0000000f0000000c
:1008b0000f0000000f0000001000000010000000fa
:1008c00010000000100000001000000010000000e8
:1008d00010000000100000001000000010000000d8
:1008e00010000000100000001000000010000000c8
:1008f00010000000100000001000000010000000b8
:1009000010000000100000001000000010000000a7
:100910001000000010000000100000001000000097
:100920001000000010000000100000001000000087
:100930001000000010000000110000001100000075
:100940001100000011000000110000001100000063
:100950001100000011000000110000001100000053
:100960001100000011000000110000001100000043
:100970001100000011000000110000001100000033
:100980001100000011000000110000001100000023
:100990001100000011000000110000001100000013
:1009a0001100000011000000110000001100000003
:1009b00011000000110000001100000012000000f2
:1009c00012000000120000001200000012000000df
:1009d00012000000120000001200000012000000cf
:1009e00012000000120000001200000012000000bf
:1009f00012000000120000001200000012000000af
:100a0000120000001200000012000000120000009e
:100a1000120000001200000012000000120000008e
:100a2000120000001200000012000000120000007e
:100a3000120000001200000012000000130000006d
:100a4000130000001300000013000000130000005a
:100a5000130000001300000013000000130000004a
:100a6000130000001300000013000000130000003a
:100a7000130000001300000013000000130000002a
:100a8000130000001300000013000000130000001a
:100a9000130000001300000013000000130000000a
:100aa00013000000130000001300000013000000fa
:100ab00013000000130000001300000013000000ea
:100ac00013000000140000001400000014000000d7
:100ad00014000000140000001400000014000000c6
:100ae00014000000140000001400000014000000b6
:100af00014000000140000001400000014000000a6
:100b00001400000014000000140000001400000095
:100b10001400000014000000140000001400000085
:100b20001400000014000000140000001400000075
:100b30001400000014000000140000001400000065
:100b40001400000014000000140000001500000054
:100b50001500000015000000150000001500000041
:100b60001500000015000000150000001500000031
:100b70001500000015000000150000001500000021
:100b80001500000015000000150000001500000011
:100b90001500000015000000150000001500000001
:100ba00015000000150000001500000015000000f1
:100bb00015000000150000001500000015000000e1
:100bc00015000000150000001500000015000000d1
:100bd00015000000150000001600000016000000bf
:100be00016000000160000001600000016000000ad
:100bf000160000001600000016000000160000009d
:100c0000160000001600000016000000160000008c
:100c1000160000001600000016000000160000007c
:100c2000160000001600000016000000160000006c
:100c3000160000001600000016000000160000005c
:100c4000160000001600000016000000160000004c
:100c5000160000001600000016000000160000003c
:100c6000160000001600000016000000170000002b
:100c70001700000017000000170000001700000018
:100c80001700000017000000170000001700000008
:100c900017000000170000001700000017000000f8
:100ca00017000000170000001700000017000000e8
:100cb00017000000170000001700000017000000d8
:100cc00017000000170000001700000017000000c8
:100cd00017000000170000001700000017000000b8
:100ce00017000000170000001700000017000000a8
:100cf0001700000017000000170000001700000098
:100d00001700000017000000180000001800000085
:100d10001800000018000000180000001800000073
:100d20001800000018000000180000001800000063
:100d30001800000018000000180000001800000053
:100d40001800000018000000180000001800000043
:100d50001800000018000000180000001800000033
:100d60001800000018000000180000001800000023
:100d70001800000018000000180000001800000013
:100d80001800000018000000180000001800000003
:100d900018000000180000001800000018000000f3
:100da00018000000180000001800000019000000e2
:100db00019000000190000001900000019000000cf
:100dc00019000000190000001900000019000000bf
:100dd00019000000190000001900000019000000af
:100de000190000001900000019000000190000009f
:100df000190000001900000019000000190000008f
:100e0000190000001900000019000000190000007e
:100e1000190000001900000019000000190000006e
:100e2000190000001900000019000000190000005e
:100e3000190000001900000019000000190000004e
:100e4000190000001900000019000000190000003e
:100e5000190000001900000019000000190000002e
:100e60001a0000001a0000001a0000001a0000001a
:100e70001a0000001a0000001a0000001a0000000a
:100e80001a0000001a0000001a0000001a000000fa
:100e90001a0000001a0000001a0000001a000000ea
:100ea0001a0000001a0000001a0000001a000000da
:100eb0001a0000001a0000001a0000001a000000ca
:100ec0001a0000001a0000001a0000001a000000ba
:100ed0001a0000001a0000001a0000001a000000aa
:100ee0001a0000001a0000001a0000001a0000009a
:100ef0001a0000001a0000001a0000001a0000008a
:100f00001a0000001a0000001a0000001a00000079
:100f10001a0000001a0000001a0000001a00000069
:100f20001a0000001b0000001b0000001b00000056
:100f30001b0000001b0000001b0000001b00000045
:100f40001b0000001b0000001b0000001b00000035
:100f50001b0000001b0000001b0000001b00000025
:100f60001b0000001b0000001b0000001b00000015
:100f70001b0000001b0000001b0000001b00000005
:100f80001b0000001b0000001b0000001b000000f5
:100f90001b0000001b0000001b0000001b000000e5
:100fa0001b0000001b0000001b0000001b000000d5
:100fb0001b0000001b0000001b0000001b000000c5
:100fc0001b0000001b0000001b0000001b000000b5
:100fd0001b0000001b0000001b0000001b000000a5
:100fe0001b0000001b0000001b0000001b00000095
:100ff0001b0000001b0000001b0000001b00000085
:101000001b0000001b0000001b0000001c00000073
:101010001c0000001c0000001c0000001c00000060
:101020001c0000001c0000001c0000001c00000050
:101030001c0000001c0000001c0000001c00000040
:101040001c0000001c0000001c0000001c00000030
:101050001c0000001c0000001c0000001c00000020
:101060001c0000001c0000001c0000001c00000010
:101070001c0000001c0000001c0000001c00000000
:101080001c0000001c0000001c0000001c000000f0
:101090001c0000001c0000001c0000001c000000e0
:1010a0001c0000001c0000001c0000001c000000d0
:1010b0001c0000001c0000001c0000001c000000c0
:1010c0001c0000001c0000001c0000001c000000b0
:1010d0001c0000001c0000001c0000001c000000a0
:1010e0001c0000001c0000001c0000001c00000090
:1010f0001c0000001c0000001c0000001c00000080
:101100001c0000001c0000001c0000001c0000006f
:101110001c0000001c0000001c0000001c0000005f
:101120001c0000001c0000001c0000001c0000004f
:101130001c0000001d0000001d0000001d0000003c
:101140001d0000001d0000001d0000001d0000002b
:101150001d0000001d0000001d0000001d0000001b
:101160001d0000001d0000001d0000001d0000000b
:101170001d0000001d0000001d0000001d000000fb
:1017d0001c0000001c0000001b0000001b0000009b
:1017e0001b0000001b0000001b0000001b0000008d
:1017f0001b0000001b0000001b0000001b0000007d
:101800001b0000001b0000001b0000001b0000006c
:101810001b0000001b0000001b0000001b0000005c
:101820001b0000001b0000001b0000001b0000004c
:101830001b0000001b0000001b0000001b0000003c
:101840001b0000001b0000001b0000001b0000002c
:101850001b0000001b0000001b0000001b0000001c
:101860001b0000001b0000001b0000001b0000000c
:101870001b0000001b0000001b0000001b000000fc
:101880001b0000001b0000001b0000001b000000ec
:101890001b0000001b0000001b0000001b000000dc
:1018a0001b0000001b0000001b0000001b000000cc
:1018b0001b0000001b0000001b0000001b000000bc
:1018c0001a0000001a0000001a0000001a000000b0
:1018d0001a0000001a0000001a0000001a000000a0
:1018e0001a0000001a0000001a0000001a00000090
:1018f0001a0000001a0000001a0000001a00000080
:101900001a0000001a0000001a0000001a0000006f
:101910001a0000001a0000001a0000001a0000005f
:101920001a0000001a0000001a0000001a0000004f
:101930001a0000001a0000001a0000001a0000003f
:101940001a0000001a0000001a0000001a0000002f
:101950001a0000001a0000001a0000001a0000001f
:101960001a0000001a0000001a0000001a0000000f
:101970001a0000001a0000001a0000001a000000ff
:101980001a0000001a0000001900000019000000f1
:1019900019000000190000001900000019000000e3
:1019a00019000000190000001900000019000000d3
:1019b00019000000190000001900000019000000c3
:1019c00019000000190000001900000019000000b3
:1019d00019000000190000001900000019000000a3
:1019e0001900000019000000190000001900000093
:1019f0001900000019000000190000001900000083
:101a00001900000019000000190000001900000072
:101a10001900000019000000190000001900000062
:101a20001900000019000000190000001900000052
:101a30001900000019000000190000001800000043
:101a40001800000018000000180000001800000036
:101a50001800000018000000180000001800000026
:101a60001800000018000000180000001800000016
:101a70001800000018000000180000001800000006
:101a800018000000180000001800000018000000f6
:101a900018000000180000001800000018000000e6
:101aa00018000000180000001800000018000000d6
:101ab00018000000180000001800000018000000c6
:101ac00018000000180000001800000018000000b6
:101ad00018000000180000001800000018000000a6
:101ae000170000001700000017000000170000009a
:101af000170000001700000017000000170000008a
:101b00001700000017000000170000001700000079
:101b10001700000017000000170000001700000069
:101b20001700000017000000170000001700000059
:101b30001700000017000000170000001700000049
:101b40001700000017000000170000001700000039
:101b50001700000017000000170000001700000029
:101b60001700000017000000170000001700000019
:101b7000170000001700000017000000160000000a
:101b800016000000160000001600000016000000fd
:101b900016000000160000001600000016000000ed
:101ba00016000000160000001600000016000000dd
:101bb00016000000160000001600000016000000cd
:101bc00016000000160000001600000016000000bd
:101bd00016000000160000001600000016000000ad
:101be000160000001600000016000000160000009d
:101bf000160000001600000016000000160000008d
:101c0000160000001600000016000000150000007d
:101c10001500000015000000150000001500000070
:101c20001500000015000000150000001500000060
:101c30001500000015000000150000001500000050
:101c40001500000015000000150000001500000040
:101c50001500000015000000150000001500000030
:101c60001500000015000000150000001500000020
:101c70001500000015000000150000001500000010
:101c80001500000015000000150000001500000000
:101c900015000000150000001500000014000000f1
:101ca00014000000140000001400000014000000e4
:101cb00014000000140000001400000014000000d4
:101cc00014000000140000001400000014000000c4
:101cd00014000000140000001400000014000000b4
:101ce00014000000140000001400000014000000a4
:101cf0001400000014000000140000001400000094
:101d00001400000014000000140000001400000083
:101d10001400000014000000140000001400000073
:101d20001400000013000000130000001300000066
:101d30001300000013000000130000001300000057
:101d40001300000013000000130000001300000047
:101d50001300000013000000130000001300000037
:101d60001300000013000000130000001300000027
:101d70001300000013000000130000001300000017
:101d80001300000013000000130000001300000007
:101d900013000000130000001300000013000000f7
:101da00013000000130000001200000012000000e9
:101db00012000000120000001200000012000000db
:101dc00012000000120000001200000012000000cb
:101dd00012000000120000001200000012000000bb
:101de00012000000120000001200000012000000ab
:101df000120000001200000012000000120000009b
:101e0000120000001200000012000000120000008a
:101e1000120000001200000012000000120000007a
:101e2000120000001200000012000000110000006b
:101e3000110000001100000011000000110000005e
:101e4000110000001100000011000000110000004e
:101e5000110000001100000011000000110000003e
:101e6000110000001100000011000000110000002e
:101e7000110000001100000011000000110000001e
:101e8000110000001100000011000000110000000e
:101e900011000000110000001100000011000000fe
:101ea00011000000110000001100000010000000ef
:101eb00010000000100000001000000010000000e2
:101ec00010000000100000001000000010000000d2
:101ed00010000000100000001000000010000000c2
:101ee00010000000100000001000000010000000b2
:101ef00010000000100000001000000010000000a2
:101f00001000000010000000100000001000000091
:101f10001000000010000000100000001000000081
:101f20001000000010000000100000000f00000072
:101f30000f0000000f0000000f0000000f00000065
:101f40000f0000000f0000000f0000000f00000055
:101f50000f0000000f0000000f0000000f00000045
:101f60000f0000000f0000000f0000000f00000035
:101f70000f0000000f0000000f0000000f00000025
:101f80000f0000000f0000000f0000000f00000015
:101f90000f0000000f0000000f0000000f00000005
:101fa0000f0000000f0000000f0000000e000000f6
:101fb0000e0000000e0000000e0000000e000000e9
:101fc0000e0000000e0000000e0000000e000000d9
:101fd0000e0000000e0000000e0000000e000000c9
:101fe0000e0000000e0000000e0000000e000000b9
:101ff0000e0000000e0000000e0000000e000000a9
:102000000e0000000e0000000e0000000e00000098
:102010000e0000000e0000000e0000000e00000088
:102020000e0000000e0000000e0000000d00000079
:102030000d0000000d0000000d0000000d0000006c
:102040000d0000000d0000000d0000000d0000005c
:102050000d0000000d0000000d0000000d0000004c
:102060000d0000000d0000000d0000000d0000003c
:102070000d0000000d0000000d0000000d0000002c
:102080000d0000000d0000000d0000000d0000001c
:102090000d0000000d0000000d0000000d0000000c
:1020a0000d0000000d0000000d0000000c000000fd
:1020b0000c0000000c0000000c0000000c000000f0
:1020c0000c0000000c0000000c0000000c000000e0
:1020d0000c0000000c0000000c0000000c000000d0
:1020e0000c0000000c0000000c0000000c000000c0
:1020f0000c0000000c0000000c0000000c000000b0
:102100000c0000000c0000000c0000000c0000009f
:102110000c0000000c0000000c0000000c0000008f
:102120000c0000000c0000000c0000000b00000080
:102130000b0000000b0000000b0000000b00000073
:102140000b0000000b0000000b0000000b00000063
:102150000b0000000b0000000b0000000b00000053
:102160000b0000000b0000000b0000000b00000043
:102170000b0000000b0000000b0000000b00000033
:102180000b0000000b0000000b0000000b00000023
:102190000b0000000b0000000b0000000b00000013
:1021a0000b0000000b0000000b0000000b00000003
:1021b0000a0000000a0000000a0000000a000000f7
:1021c0000a0000000a0000000a0000000a000000e7
:1021d0000a0000000a0000000a0000000a000000d7
:1021e0000a0000000a0000000a0000000a000000c7
:1021f0000a0000000a0000000a0000000a000000b7
:102200000a0000000a0000000a0000000a000000a6
:102210000a0000000a0000000a0000000a00000096
:102220000a0000000a0000000a0000000a00000086
:102230000a0000000a000000090000000900000078
:10224000090000000900000009000000090000006a
:10225000090000000900000009000000090000005a
:10226000090000000900000009000000090000004a
:10227000090000000900000009000000090000003a
:10228000090000000900000009000000090000002a
:10229000090000000900000009000000090000001a
:1022a000090000000900000009000000090000000a
:1022b00009000000090000000900000009000000fa
:1022c00008000000080000000800000008000000ee
:1022d00008000000080000000800000008000000de
:1022e00008000000080000000800000008000000ce
:1022f00008000000080000000800000008000000be
:1023000008000000080000000800000008000000ad
:10231000080000000800000008000000080000009d
:10232000080000000800000008000000080000008d
:10233000080000000800000008000000080000007d
:10234000080000000800000008000000070000006e
:102350000700000007000000070000000700000061
:102360000700000007000000070000000700000051
:102370000700000007000000070000000700000041
:102380000700000007000000070000000700000031
:102390000700000007000000070000000700000021
:1023a0000700000007000000070000000700000011
:1023b0000700000007000000070000000700000001
:1023c00007000000070000000700000007000000f1
:1023d00007000000070000000700000007000000e1
:1023e00006000000060000000600000006000000d5
:1023f00006000000060000000600000006000000c5
:1024000006000000060000000600000006000000b4
:1024100006000000060000000600000006000000a4
:102420000600000006000000060000000600000094
:102430000600000006000000060000000600000084
:102440000600000006000000060000000600000074
:102450000600000006000000060000000600000064
:102460000600000006000000060000000600000054
:102470000600000006000000060000000500000045
:102480000500000005000000050000000500000038
:102490000500000005000000050000000500000028
:1024a0000500000005000000050000000500000018
:1024b0000500000005000000050000000500000008
:1024c00005000000050000000500000005000000f8
:1024d00005000000050000000500000005000000e8
:1024e00005000000050000000500000005000000d8
:1024f00005000000050000000500000005000000c8
:1025000005000000050000000500000005000000b7
:1025100005000000050000000500000005000000a7
:10252000040000000400000004000000040000009b
:10253000040000000400000004000000040000008b
:10254000040000000400000004000000040000007b
:10255000040000000400000004000000040000006b
:10256000040000000400000004000000040000005b
:10257000040000000400000004000000040000004b
:10258000040000000400000004000000040000003b
:10259000040000000400000004000000040000002b
:1025a000040000000400000004000000040000001b
:1025b000040000000400000004000000040000000b
:1025c00004000000040000000400000004000000fb
:1025d00004000000030000000300000003000000ee
:1025e00003000000030000000300000003000000df
:1025f00003000000030000000300000003000000cf
:1026000003000000030000000300000003000000be
:1026100003000000030000000300000003000000ae
:10262000030000000300000003000000030000009e
:10263000030000000300000003000000030000008e
:10264000030000000300000003000000030000007e
:10265000030000000300000003000000030000006e
:10266000030000000300000003000000030000005e
:10267000030000000300000003000000030000004e
:10268000030000000300000003000000030000003e
:102690000300000003000000020000000200000030
:1026a0000200000002000000020000000200000022
:1026b0000200000002000000020000000200000012
:1026c0000200000002000000020000000200000002
:1026d00002000000020000000200000002000000f2
:1026e00002000000020000000200000002000000e2
:1026f00002000000020000000200000002000000d2
:1027000002000000020000000200000002000000c1
:1027100002000000020000000200000002000000b1
:1027200002000000020000000200000002000000a1
:102730000200000002000000020000000200000091
:102740000200000002000000020000000200000081
:102750000200000002000000020000000200000071
:102760000200000002000000020000000200000061
:102770000200000002000000020000000200000051
:102780000100000001000000010000000100000045
:102790000100000001000000010000000100000035
:1027a0000100000001000000010000000100000025
:1027b0000100000001000000010000000100000015
:1027c0000100000001000000010000000100000005
:1027d00001000000010000000100000001000000f5
:1027e00001000000010000000100000001000000e5
:1027f00001000000010000000100000001000000d5
:1028000001000000010000000100000001000000c4
:1028100001000000010000000100000001000000b4
:1028200001000000010000000100000001000000a4
:102830000100000001000000010000000100000094
:102840000100000001000000010000000100000084
:102850000100000001000000010000000100000074
:102860000100000001000000010000000100000064
:102870000100000001000000010000000100000054
:102880000100000001000000010000000100000044
:102890000100000001000000010000000100000034
:1028a0000100000001000000000000000000000026
:1028b0000000000000000000000000000000000018
:1028c0000000000000000000000000000000000008
:1028d00000000000000000000000000000000000f8
:1028e00000000000000000000000000000000000e8
:102e2000000000000100000001000000010000009f
:102e3000010000000100000001000000010000008e
:102e4000010000000100000001000000010000007e
:102e5000010000000100000001000000010000006e
:102e6000010000000100000001000000010000005e
:102e7000010000000100000001000000010000004e
:102e8000010000000100000001000000010000003e
:102e9000010000000100000001000000010000002e
:102ea000010000000100000001000000010000001e
:102eb000010000000100000001000000010000000e
:102ec00001000000010000000100000001000000fe
:102ed00001000000010000000100000001000000ee
:102ee00001000000010000000100000001000000de
:102ef00001000000010000000100000001000000ce
:102f000001000000010000000100000001000000bd
:102f100001000000010000000100000001000000ad
:102f2000010000000100000001000000010000009d
:102f3000010000000100000001000000010000008d
:102f4000010000000100000001000000020000007c
:102f50000200000002000000020000000200000069
:102f60000200000002000000020000000200000059
:102f70000200000002000000020000000200000049
:102f80000200000002000000020000000200000039
:102f90000200000002000000020000000200000029
:102fa0000200000002000000020000000200000019
:102fb0000200000002000000020000000200000009
:102fc00002000000020000000200000002000000f9
:102fd00002000000020000000200000002000000e9
:102fe00002000000020000000200000002000000d9
:102ff00002000000020000000200000002000000c9
:1030000002000000020000000200000002000000b8
:1030100002000000020000000200000002000000a8
:103020000200000002000000020000000200000098
:103030000200000003000000030000000300000085
:103040000300000003000000030000000300000074
:103050000300000003000000030000000300000064
:103060000300000003000000030000000300000054
:103070000300000003000000030000000300000044
:103080000300000003000000030000000300000034
:103090000300000003000000030000000300000024
:1030a0000300000003000000030000000300000014
:1030b0000300000003000000030000000300000004
:1030c00003000000030000000300000003000000f4
:1030d00003000000030000000300000003000000e4
:1030e00003000000030000000300000003000000d4
:1030f00003000000030000000300000004000000c3
:1031000004000000040000000400000004000000af
:10311000040000000400000004000000040000009f
:10312000040000000400000004000000040000008f
:10313000040000000400000004000000040000007f
:10314000040000000400000004000000040000006f
:10315000040000000400000004000000040000005f
:10316000040000000400000004000000040000004f
:10317000040000000400000004000000040000003f
:10318000040000000400000004000000040000002f
:10319000040000000400000004000000040000001f
:1031a000040000000400000004000000050000000e
:1031b00005000000050000000500000005000000fb
:1031c00005000000050000000500000005000000eb
:1031d00005000000050000000500000005000000db
:1031e00005000000050000000500000005000000cb
:1031f00005000000050000000500000005000000bb
:1032000005000000050000000500000005000000aa
:10321000050000000500000005000000050000009a
:10322000050000000500000005000000050000008a
:10323000050000000500000005000000050000007a
:10324000050000000500000005000000050000006a
:103250000500000006000000060000000600000057
:103260000600000006000000060000000600000046
:103270000600000006000000060000000600000036
:103280000600000006000000060000000600000026
:103290000600000006000000060000000600000016
:1032a0000600000006000000060000000600000006
:1032b00006000000060000000600000006000000f6
:1032c00006000000060000000600000006000000e6
:1032d00006000000060000000600000006000000d6
:1032e00006000000060000000600000007000000c5
:1032f00007000000070000000700000007000000b2
:1033000007000000070000000700000007000000a1
:103310000700000007000000070000000700000091
:103320000700000007000000070000000700000081
:103330000700000007000000070000000700000071
:103340000700000007000000070000000700000061
:103350000700000007000000070000000700000051
:103360000700000007000000070000000700000041
:103370000700000007000000070000000700000031
:10338000080000000800000008000000080000001d
:10339000080000000800000008000000080000000d
:1033a00008000000080000000800000008000000fd
:1033b00008000000080000000800000008000000ed
:1033c00008000000080000000800000008000000dd
:1033d00008000000080000000800000008000000cd
:1033e00008000000080000000800000008000000bd
:1033f00008000000080000000800000008000000ad
:10340000080000000800000008000000090000009b
:103410000900000009000000090000000900000088
:103420000900000009000000090000000900000078
:103430000900000009000000090000000900000068
:103440000900000009000000090000000900000058
:103450000900000009000000090000000900000048
:103460000900000009000000090000000900000038
:103470000900000009000000090000000900000028
:103480000900000009000000090000000900000018
:1034900009000000090000000a0000000a00000006
:1034a0000a0000000a0000000a0000000a000000f4
:1034b0000a0000000a0000000a0000000a000000e4
:1034c0000a0000000a0000000a0000000a000000d4
:1034d0000a0000000a0000000a0000000a000000c4
:1034e0000a0000000a0000000a0000000a000000b4
:1034f0000a0000000a0000000a0000000a000000a4
:103500000a0000000a0000000a0000000a00000093
:103510000a0000000a0000000a0000000b00000082
:103520000b0000000b0000000b0000000b0000006f
:103530000b0000000b0000000b0000000b0000005f
:103540000b0000000b0000000b0000000b0000004f
:103550000b0000000b0000000b0000000b0000003f
:103560000b0000000b0000000b0000000b0000002f
:103570000b0000000b0000000b0000000b0000001f
:103580000b0000000b0000000b0000000b0000000f
:103590000b0000000b0000000b0000000b000000ff
:1035a0000c0000000c0000000c0000000c000000eb
:1035b0000c0000000c0000000c0000000c000000db
:1035c0000c0000000c0000000c0000000c000000cb
:1035d0000c0000000c0000000c0000000c000000bb
:1035e0000c0000000c0000000c0000000c000000ab
:1035f0000c0000000c0000000c0000000c0000009b
:103600000c0000000c0000000c0000000c0000008a
:103610000c0000000c0000000c0000000c0000007a
:103620000d0000000d0000000d0000000d00000066
:103630000d0000000d0000000d0000000d00000056
:103640000d0000000d0000000d0000000d00000046
:103650000d0000000d0000000d0000000d00000036
:103660000d0000000d0000000d0000000d00000026
:103670000d0000000d0000000d0000000d00000016
:103680000d0000000d0000000d0000000d00000006
:103690000d0000000d0000000d0000000d000000f6
:1036a0000e0000000e0000000e0000000e000000e2
:1036b0000e0000000e0000000e0000000e000000d2
:1036c0000e0000000e0000000e0000000e000000c2
:1036d0000e0000000e0000000e0000000e000000b2
:1036e0000e0000000e0000000e0000000e000000a2
:1036f0000e0000000e0000000e0000000e00000092
:103700000e0000000e0000000e0000000e00000081
:103710000e0000000e0000000e0000000404000077
:10372000090800000e0c000013100000181400001f
:103730001d180000221c0000262000002b24000081
:1037400030280000352c0000393000003e340000e5
:1037500042380000473c00004b4000004f4400004e
:1037600054480000584c00005c50000060540000b9
:1037700064580000675c00006b6000006f6400002c
:1037800072680000756c0000797000007c740000a5
:103790007f780000817c0000840000008704000026
:1037a000890800008b0c00008d1000008f140000b1
:1037b00091180000931c0000942000009524000044
:1037c00096280000972c00009830000098340000e4
:1037d00098380000993c0000984000009844000090
:1037e00097480000974c000095500000945400004a
:1037f00093580000915c00008f6000008d64000011
:103800008a680000876c00008470000081740000ea
:103810007d780000797c00007500000071040000d4
:103820006c080000670c0000621000005c140000cf
:1038300056180000501c00004920000042240000df
:103840003b280000342c00002c3000002334000002
:103850001b380000123c000009400000ff4300003c
:10386000f5470000ea4b0000e04f0000d553000090
:10387000c9570000bd5b0000b15f0000a4630000f9
:10388000976700008a6b00007c6f00006d7300007a
:103890005f7700004f7b0000407f00003003000096
:1038a0001f0700000f0b0000fd0e0000eb120000d0
:1038b000d9160000c71a0000b31e0000a0220000a5
:1038c0008c260000772a0000622e00004d32000096
:1038d00037360000203a0000093e0000f2410000a7
:1038e000da450000c1490000a84d00008f510000da
:1038f000755500005a5900003f5d0000236100002b
:1039000007650000ea680000cd6c0000af700000a1
:103910009174000072780000527c000032000000b8
:1039200012040000f0070000cf0b0000ac0f0000f5
:103930008913000066170000411b00001d1f0000d6
:10394000f7220000d1260000aa2a0000832e0000e2
:103950005b320000333600000a3a0000e03d000010
:10396000b54100008a4500005f490000324d00006b
:1039700005510000d7540000a95800007a5c0000ef
:103980004a6000001a640000e9670000b76b00009d
:10399000846f0000517300001d770000e97a000079
:1039a000b37e00007d020000460600000f0a000002
:1039b000d70d00009e110000641500002a190000b8
:1039c000ee1c0000b3200000762400003828000020
:1039d000fa2b0000bb2f00007c3300003b370000b7
:1039e000fa3a0000b83e000075420000314600007f
:1039f000ed490000a74d0000615100001a5500007c
:103a0000d35800008a5c000041600000f7630000aa
:103a1000ac670000606b0000136f0000c67200000e
:103a200077760000287a0000d87d0000870100002a
:103a300035050000e30800008f0c00003b1000007b
:103a4000e613000090170000381b0000e11e000084
:103a5000882200002e260000d3290000782d0000c7
:103a60001b310000be34000060380000003c000044
:103a7000a03f00003f430000dd4600007a4a0000fe
:103a8000164e0000b25100004c550000e5580000f1
:103a90007d5c000015600000ab6300004067000023
:103aa000d56a0000686e0000fb7100008c75000094
:103ab0001c790000ac7c00003a000000c803000044
:103ac00054070000e00a00006a0e0000f311000035
:103ad0007c15000003190000891c00000f20000065
:103ae0009323000016270000982a0000192e0000da
:103af000993100001835000096380000133c000092
:103b00008f3f00000943000083460000fb4900008e
:103b1000734d0000e95000005e540000d2570000d1
:103b2000455b0000b75e0000286200009865000059
:103b300006690000746c0000e06f00004b73000029
:103b4000b57600001e7a0000867d0000ed000000c2
:103b500052040000b60700001a0b00007c0e0000a3
:103b6000dc1100003c1500009b180000f81b000051
:103b7000541f0000af220000092600006129000048
:103b8000b92c00000f30000064330000b83600008c
:103b90000a3a00005c3d0000ac400000fb4300001e
:103ba00048470000954a0000e04d00002a510000ff
:103bb00073540000ba570000015b0000465e00002d
:103bc00089610000cc6400000d6800004d6b0000ae
:103bd0008c6e0000c971000005750000407800007f
:103be0007a7b0000b27e0000e90100001f050000a2
:103bf00053080000860b0000b80e0000e911000019
:103c00001815000046180000721b00009d1e0000e1
:103c1000c7210000f0240000172800003d2b000001
:103c2000622e000085310000a7340000c737000075
:103c3000e63a0000043e0000214100003c44000040
:103c4000554700006e4a0000854d00009a50000064
:103c5000ae530000c1560000d3590000e35c0000e1
:103c6000f15f0000ff6200000a66000015690000b5
:103c70001e6c0000256f00002c72000030750000e3
:103c800034780000367b0000367e000035010000ed
:103c9000330400002f0700002a0a0000230d000053
:103ca0001b1000001113000006160000fa18000097
:103cb000ec1b0000dc1e0000cb210000b92400003a
:103cc000a52700008f2a0000792d00006030000039
:103cd000463300002b3600000e390000f03b000098
:103ce000d03e0000af4100008c4400006747000058
:103cf000424a00001a4d0000f14f0000c752000078
:103d00009b5500006d5800003e5b00000e5e0000f9
:103d1000dc600000a8630000736600003c690000de
:103d2000046c0000ca6e00008e7100005174000027
:103d300013770000d3790000917c00004e7f0000d3
:103d400009020000c20400007a070000310a0000e6
:103d5000e60c0000990f00004a120000fa1400005f
:103d6000a9170000561a0000011d0000aa1f00003c
:103d700052220000f92400009d270000402a000084
:103d8000e22c0000822f000020320000bc34000032
:103d900057370000f1390000883c00001e3f00004a
:103da000b341000045440000d646000066490000cb
:103db000f44b0000804e00000a51000093530000b5
:103dc0001a5600009f580000235b0000a55d00000c
:103dd00025600000a4620000216500009c670000cf
:103de000156a00008d6c0000036f00007871000000
:103df000eb7300005c760000cb780000397b00009c
:103e0000a57d00000f00000077020000de04000026
:103e100043070000a6090000080c0000670e000020
:103e2000c5100000221300007c150000d51700000b
:103e30002c1a0000821c0000d51e00002721000063
:103e400077230000c5250000122800005c2a00002e
:103e5000a52c0000ed2e000032310000763300006a
:103e6000b8350000f8370000363a0000723c000018
:103e7000ad3e0000e64000001d4300005345000039
:103e800086470000b8490000e84b0000164e0000cd
:103e9000425000006d52000095540000bc560000d6
:103ea000e1580000045b0000265d0000455f000053
:103eb000636100007f63000099650000b167000046
:103ec000c8690000dc6b0000ef6d000000700000ae
:103ed0000f7200001c74000027760000317800008b
:103ee000387a00003e7c0000427e00004400000062
:103ef00044020000420400003f06000039080000b0
:103f0000320a0000280c00001d0e000010100000f6
:103f100001120000f1130000de150000c9170000b7
:103f2000b31900009b1b0000801d0000641f0000ef
:103f3000462100002623000004250000e1260000a1
:103f4000bb280000932a00006a2c00003f2e0000ce
:103f500011300000e2310000b13300007e35000076
:103f60004937000012390000d93a00009e3c000099
:103f7000613e000023400000e24100009f4300003a
:103f80005b45000014470000cc480000824a000056
:103f9000354c0000e74d0000974f000045510000f0
:103fa000f15200009b54000043560000e957000006
:103fb0008d5900002f5b0000cf5c00006d5e00009b
:103fc00009600000a36100003b630000d2640000b0
:103fd00066660000f867000088690000176b000043
:103fe000a36c00002d6e0000b66f00003c71000055
:103ff000c072000043740000c375000041770000e8
:10400000be780000387a0000b07b0000277d0000f9
:104010009b7e00000d0000007e010000ec0200000d
:1040200058040000c20500002b07000091080000a2
:10403000f5090000570b0000b80c0000160e000038
:10404000720f0000cc100000241200007a13000050
:10405000ce1400002016000070170000be180000eb
:104060000a1a0000531b00009b1c0000e11d000009
:10407000251f000066200000a6210000e3220000aa
:104080001f2400005825000090260000c5270000ce
:10409000f82800002a2a0000592b0000862c000076
:1040a000b12d0000da2e00000130000026310000a2
:1040b000493200006933000088340000a535000053
:1040c000bf360000d8370000ee380000023a00008a
:1040d000153b0000253c0000333d00003f3e000042
:1040e000493f000051400000564100005a42000084
:1040f0005c4300005b44000059450000544600004a
:104100004d47000044480000394900002c4a000097
:104110001d4b00000c4c0000f94c0000e34d00006a
:10412000cc4e0000b24f00009650000079510000c4
:10413000595200003753000013540000ec540000a3
:10414000c45500009a5600006d5700003e5800000c
:104150000e590000db590000a65a00006f5b0000fa
:10416000355c0000fa5c0000bd5d00007d5e000073
:104170003b5f0000f85f0000b26000006a61000071
:1041800020620000d36200008563000034640000f8
:10419000e26400008d65000036660000dd66000008
:1041a0008267000025680000c5680000646900009f
:1041b000006a00009b6a0000336b0000c96b0000be
:1041c0005c6c0000ee6c00007e6d00000b6e000069
:1041d000976e0000206f0000a76f00002c70000099
:1041e000ae7000002f710000ae7100002a72000056
:1041f000a47200001c73000092730000067400009b
:1042000078740000e774000055750000c075000068
:104210002976000090760000f576000057770000c0
:10422000b87700001678000072780000cd780000a2
:10423000257900007a790000ce7900001f7a00000d
:104240006f7a0000bc7a0000077b0000507b000002
:10425000977b0000db7b00001e7c00005e7c000082
:104260009c7c0000d87c0000127d00004a7d00008c
:10427000807d0000b37d0000e47d0000137e00001f
:10428000407e00006b7e0000947e0000ba7e00003d
:10429000df7e0000017f0000217f00003f7f0000e3
:1042a0005a7f0000747f00008b7f0000a17f000018
:1042b000b47f0000c57f0000d47f0000e07f0000d5
:1042c000eb7f0000f37f0000f97f0000fd7f00001e
:1042d000ff7f0000ff7f0000fd7f0000f87f0000ef
:1042e000f17f0000e97f0000dd7f0000d07f00004b
:1042f000c17f0000af7f00009c7f0000867f000030
:104300006e7f0000547f0000387f0000197f00009e
:10431000f97e0000d67e0000b17e00008a7e00009b
:10432000617e0000367e0000087e0000d97d00001e
:10433000a77d0000737d00003d7d0000057d00002d
:10434000ca7c00008e7c00004f7c00000e7c0000c8
:10435000cb7b0000867b00003f7b0000f57a0000ed
:10436000aa7a00005c7a00000c7a0000ba7900009a
:104370006679000010790000b77800005d780000d1
:1043800000780000a177000040770000dd76000093
:104390007776000010760000a67500003b750000df
:1043a000cd7400005d740000eb73000076730000b4
:1043b00000730000877200000c7200009071000012
:1043c000117100008f7000000c700000876f0000fa
:1043d000ff6e0000756e0000ea6d00005c6d00006d
:1043e000cc6c0000396c0000a56b00000e6b000067
:1043f000766a0000db6900003e6900009f680000eb
:10440000fe6700005b670000b56600000e660000f6
:1044100064650000b96400000b6400005b63000089
:10442000a9620000f46100003e61000085600000a8
:10443000cb5f00000e5f00004f5e00008e5d00004d
:10444000cb5c0000065c00003f5b0000755a00007a
:10445000aa590000dc5800000c5800003b5700002f
:104460006756000091550000b8540000de5300006c
:10447000025300002352000043510000605000002e
:104480007b4f0000944e0000ab4d0000c04c00007c
:10449000d34b0000e44a0000f2490000ff4800004e
:1044a0000948000012470000184600001c450000a3
:1044b0001e4400001e4300001c4200001841000082
:1044c00012400000093f0000ff3d0000f23c0000e8
:1044d000e43b0000d33a0000c0390000ac380000d3
:1044e000953700007c360000613500004434000040
:1044f0002533000003320000e0300000bb2f000035
:10450000932e00006a2d00003e2c0000112b0000ad
:10451000e1290000af2800007b27000046260000ac
:104520000e250000d4230000982200005a2100002c
:104530001a200000d71e0000931d00004d1c000033
:10454000051b0000ba1900006e18000020170000bb
:10455000cf1500007d14000028130000d2110000c8
:10456000791000001f0f0000c20d0000640c000055
:10457000030b0000a00900003b080000d506000066
:104580006c050000010400009502000026010000f7
:10459000b57f0000427e0000cd7c0000577b00000c
:1045a000de79000063780000e676000067750000a1
:1045b000e673000064720000df700000586f0000b6
:1045c000cf6d0000446c0000b86a0000296900004b
:1045d000986700000566000071640000da62000060
:1045e00041610000a75f00000a5e00006b5c0000f4
:1045f000cb5a00002859000084570000dd55000008
:10460000355400008a520000de500000304f000098
:10461000804d0000cd4b0000194a000063480000a7
:10462000ab460000f1440000354300007741000034
:10463000b73f0000f63d0000323c00006c3a00003d
:10464000a5380000db3600001035000042330000c2
:1046500073310000a22f0000cf2d0000fa2b0000c4
:10466000232a00004a2800006f2600009224000040
:10467000b4220000d3200000f11e00000c1d000039
:10468000261b00003e1900005417000068150000aa
:104690007a1300008b110000990f0000a60d000096
:1046a000b00b0000b9090000c0070000c5050000fc
:1046b000c8030000ca010000c97f0000c77d0000d8
:1046c000c27b0000bc790000b4770000aa7500002e
:1046d0009e73000091710000816f0000706d0000fa
:1046e0005d6b00004869000031670000186500003c
:1046f000fe620000e2600000c35e0000a35c0000f8
:10470000825a00005e580000395600001154000023
:10471000e8510000bd4f0000904d0000624b0000ca
:1047200032490000ff460000cb44000096420000e2
:104730005e400000253e0000ea3b0000ad3900006d
:104740006e3700002e350000eb320000a73000006d
:10475000612e00001a2c0000d029000085270000df
:1047600038250000e922000099200000471e0000c3
:10477000f31b00009d19000046170000ec14000018
:104780009112000035100000d60d0000760b0000dd
:1047900014090000b00600004b040000e401000012
:1047a0007b7f0000107d0000a47a000036780000b6
:1047b000c675000055730000e27000006d6e0000c9
:1047c000f66b00007e69000004670000886400004a
:1047d0000b6200008c5f00000b5d0000895a000036
:1047e000055800007f550000f85200006f5000008f
:1047f000e44d0000574b0000c94800003946000056
:10480000a843000015410000803e0000ea3b000084
:1048100052390000b83600001d340000803100001d
:10482000e12e0000412c00009f290000fc26000022
:1048300056240000b0210000071f00005d1c00008e
:10484000b21900000517000056140000a611000060
:10485000f40e0000400c00008b090000d40600009c
:104860001c04000062010000a67e0000e97b00003d
:104870002a7900006a760000a8730000e570000045
:10488000206e00005a6b000092680000c8650000ae
:10489000fd62000030600000625d0000925a00007e
:1048a000c1570000ee54000019520000444f0000b0
:1048b0006c4c000093490000b9460000dd43000045
:1048c000ff400000203e0000403b00005e3800003a
:1048d0007a35000095320000ae2f0000c62c000093
:1048e000dd290000f2260000062400001821000047
:1048f000281e0000371b000045180000511500005d
:104900005c120000650f00006d0c000073090000d0
:10491000780600007c0300007e0000007e7d000021
:104920007e7a00007b7700007874000073710000cd
:104930006c6e0000646b00005b6800005065000056
:1049400044620000365f0000275c00001759000039
:1049500005560000f2520000de4f0000c84c000077
:10496000b0490000984600007e430000624000000d
:10497000463d0000273a000008370000e7330000fa
:10498000c5300000a12d00007c2a00005627000041
:104990002f24000006210000dc1d0000b01a0000da
:1049a000831700005514000025110000f50d0000cc
:1049b000c20a00008f0700005a0400002401000012
:1049c000ed7d0000b47a00007a7700003f740000ab
:1049d00003710000c56d0000866a00004667000094
:1049e00004640000c26000007d5d0000385a0000d1
:1049f000f2560000aa53000061500000164d00005e
:104a0000cb4900007e46000030430000e13f00003b
:104a1000913c00003f390000ec3500009832000066
:104a2000432f0000ec2b0000952800003c250000df
:104a3000e2210000861e00002a1b0000cc170000a7
:104a40006e1400000e110000ad0d00004a0a0000b7
:104a5000e7060000820300001c000000b67c000096
:104a60004e790000e47500007a7200000f6f0000bc
:104a7000a26b000034680000c564000055610000ae
:104a8000e45d0000725a0000ff5600008b530000e6
:104a9000155000009f4c000027490000ae45000063
:104aa00034420000b93e00003d3b0000c03700002a
:104ab00042340000c3300000432d0000c129000033
:104ac0003f260000bc220000371f0000b21b000080
:104ad0002b180000a31400001b110000910d000012
:104ae000070a00007b060000ee020000617f000064
:104af000d27b000042780000b274000020710000f8
:104b00008d6d0000fa69000065660000cf6200004c
:104b1000395f0000a15b0000095800006f540000dd
:104b2000d5500000394d00009d49000000460000ae
:104b300062420000c33e0000223b000081370000bb
:104b4000df3300003d300000992c0000f428000005
:104b50004f250000a8210000011e0000581a000087
:104b6000af160000051300005a0f0000ae0b000046
:104b70000208000054040000a6000000f67c0000bb
:104b80004679000095750000e3710000316e000069
:104b90007d6a0000c9660000146300005e5f0000cb
:104ba000a75b0000ef570000375400007d50000065
:104bb000c34c0000084900004c4500009041000033
:104bc000d33d0000143a0000563600009632000033
:104bd000d52e0000142b0000522700009023000067
:104be000cc1f0000081c0000431800007d140000ca
:104bf000b7100000ef0c0000270900005f0500005f
:104c000095010000cb7d0000007a000035760000a1
:104c1000687200009c6e0000ce6a0000ff66000013
:104c200030630000615f0000905b0000bf57000030
:104c3000ed5300001b500000484c00007448000079
:104c4000a0440000cb400000f53c00001f390000ec
:104c50004835000070310000982d0000bf29000089
:104c6000e52500000b220000301e0000551a000050
:104c7000791600009d120000c00e0000e20a00003c
:104c80000307000025030000457f0000657b00004e
:104c900084770000a3730000c16f0000df6b000089
:104ca000fc6700001964000035600000515c0000e2
:104cb0006b58000086540000a0500000b94c000062
:104cc000d2480000eb440000024100001a3d000001
:104cd00031390000473500005d310000722d0000c1
:104ce000872900009c250000b0210000c31d0000a2
:104cf000d6190000e9150000fb1100000c0e0000a1
:104d00001e0a00002e0600003f0200004f7e000039
:104d10005e7a00006d7600007c7200008a6e0000f2
:104d2000986a0000a5660000b2620000bf5e000045
:104d3000cb5a0000d7560000e2520000ed4e0000b2
:104d4000f84a0000024700000c430000163f000034
:104d50001f3b00002837000030330000392f0000cf
:104d6000402b0000482700004f230000561f000082
:104d70005c1b000063170000691300006e0f000049
:104d8000730b0000780700007d030000817f0000a6
:104d9000857b0000897700008d730000906f000014
:104da000936b000096670000986300009a5f000014
:104db0009c5b00009e570000a0530000a14f000024
:104dc000a24b0000a3470000a3430000a43f000043
:104dd000a43b0000a4370000a3330000a32f000071
:104de000a22b0000a1270000a02300009f1f0000ad
:104df0009d1b00009c1700009a130000980f0000f4
:104e0000960b000094070000910300008f7f0000c4
:104e10008c7b00008977000086730000836f0000a0
:104e2000806b00007c67000079630000755f000004
:104e3000725b00006e5700006a530000664f00006e
:104e4000624b00005e47000059430000553f0000e0
:104e5000513b00004c37000048330000432f000056
:104e60003f2b00003a27000035230000301f0000d0
:104e70002c1b000027170000221300001d0f00004c
:104e8000180b0000130700000e030000097f00004c
:104e9000047b000000770000fb720000f66e00004b
:104ea000f16a0000ec660000e7620000e35e0000cb
:104eb000de5a0000d9560000d4520000d04e000047
:104ec000cb4a0000c7460000c2420000be3e0000c0
:104ed000ba3a0000b5360000b1320000ad2e000035
:104ee000a92a0000a6260000a22200009e1e0000a3
:104ef0009b1a00009716000094120000910e00000b
:104f00008e0a00008b06000088020000857e0000eb
:104f1000837a0000807600007e7200007c6e0000c4
:104f20007a6a00007966000077620000765e000011
:104f3000755a00007456000073520000724e000053
:104f4000724a00007246000072420000723e000089
:104f5000723a00007336000074320000752e0000b3
:104f6000762a0000782600007a2200007c1e0000cd
:104f70007e1a00008116000084120000870e0000d7
:104f80008a0a00008e06000092020000967e000051
:104f90009a7a00009f760000a4720000aa6e0000ba
:104fa000af6a0000b5660000bc620000c25e00008f
:104fb000c95a0000d1560000d8520000e04e00004f
:104fc000e94a0000f1460000fa420000043f0000f8
:104fd0000e3b000018370000223300002d2f000088
:104fe000382b000044270000502300005c1f000005
:104ff000691b00007617000084130000920f000068
:10500000a00b0000af070000be030000ce7f000031
:10501000de7b0000ef7700000074000011700000dc
:10502000236c000035680000486400005b600000ed
:105030006f5c00008358000098540000ad500000e1
:10504000c34c0000d9480000ef44000006410000b6
:105050001e3d0000363900004f3500006831000069
:10506000822d00009c290000b7250000d2210000fd
:10507000ee1d00000a1a000027160000441200006e
:10508000620e0000810a0000a0060000bf020000be
:10509000e07e0000007b00002277000044730000e7
:1050a000666f0000896b0000ad670000d1630000ef
:1050b000f65f00001c5c00004258000069540000cc
:1050c00090500000b84c0000e14800000a45000084
:1050d000344100005f3d00008a390000b635000011
:1050e000e3310000102e00003e2a00006c26000074
:1050f0009c220000cb1e0000fc1a00002d170000af
:105100005f130000920f0000c50b0000f9070000bc
:105110002e040000640000009a7c0000d17800009a
:1051200009750000417100007a6d0000b46900004b
:10513000ef6500002a620000665e0000a35a0000ce
:10514000e05600001f5300005e4f00009e4b000021
:10515000df4700002044000062400000a53c000042
:10516000e93800002e35000073310000ba2d000030
:10517000012a00004926000091220000db1e0000e9
:10518000251b000070170000bc1300000910000070
:10519000570c0000a6080000f504000045010000bf
:1051a000967d0000e87900003b7600008f720000d9
:1051b000e36e0000396b00008f670000e7630000ba
:1051c0003f600000985c0000f25800004d55000060
:1051d000a8510000054e0000634a0000c1460000cf
:1051e00021430000813f0000e23b00004438000002
:1051f000a83400000c310000712d0000d7290000f8
:105200003e260000a62200000f1f0000791b0000b0
:10521000e31700004f140000bc1000002a0d00002e
:10522000990900000906000079020000eb7e0000e9
:105230005e7b0000d277000047740000bc70000065
:10524000336d0000ab690000246600009e62000020
:10525000195f0000955b0000125800009054000098
:105260000f510000904d0000114a000093460000cd
:10527000174300009b3f0000213c0000a8380000bd
:105280002f350000b8310000422e0000cd2a00006a
:1052900059270000e723000075200000041d0000ce
:1052a0009519000027160000ba1200004d0f0000eb
:1052b000e30b00007908000010050000a9010000c0
:1052c000427e0000dd7a000079770000167400004d
:1052d000b4700000546d0000f46900009666000090
:1052e00039630000dd5f0000835c00002959000085
:1052f000d15500007a520000244f0000cf4b00002f
:105300007c48000029450000d8410000893e00008b
:105310003a3b0000ed370000a0340000553100009a
:105320000c2e0000c32a00007c2700003624000059
:10533000f1200000ae1d00006c1a00002b170000c9
:10534000eb130000ad100000700d0000340a0000e7
:10535000f9060000c003000088000000517d000035
:105360001c7a0000e8760000b5730000837000002e
:10537000536d0000246a0000f7660000cb63000054
:10538000a0600000765d00004e5a00002757000024
:1053900001540000dd500000ba4d0000994a0000a1
:1053a000794700005a4400003c410000203e0000c4
:1053b000053b0000ec370000d4340000bd31000094
:1053c000a82e0000942b0000822800007125000008
:1053d00061220000531f0000461c00003a19000023
:1053e0003016000027130000201000001a0d0000e6
:1053f000160a00001307000011040000110100004c
:10540000137e0000157b0000197800001f75000056
:10541000267200002f6f0000396c00004469000004
:10542000516600005f6300006f600000805d000057
:10543000935a0000a7570000bd540000d45100004b
:10544000ed4e0000074c00002349000040460000dc
:105450005f4300007f400000a13d0000c43a00000f
:10546000e93700000f35000037320000602f0000e0
:105470008b2c0000b7290000e52600001424000052
:1054800045210000781e0000ac1b0000e21800005f
:1054900019160000511300008c100000c70d000009
:1054a000050b00004408000084050000c60200004f
:1054b0000a0000004f7d0000967a0000de770000b1
:1054c0002875000074720000c16f0000106d0000ac
:1054d000606a0000b2670000066500005b620000c1
:1054e000b25f00000a5d0000645a0000c05700006f
:1054f0001d5500007c520000dd4f00003f4d0000b4
:10550000a34a0000084800006f450000d842000090
:1055100043400000af3d00001c3b00008c38000001
:10552000fd3500006f330000e43000005a2e00000b
:10553000d12b00004b290000c626000043240000a8
:10554000c1210000411f0000c31c0000461a0000da
:10555000cb17000052150000db12000065100000a0
:10556000f10d00007f0b00000e0900009f060000f7
:1055700032040000c60100005d7f0000f57c0000e1
:105580008e7a00002a780000c7750000667300005c
:1055900006710000a96e00004d6c0000f369000068
:1055a0009a67000044650000ef6200009c60000004
:1055b0004a5e0000fb5b0000ad590000615700002f
:1055c00016550000ce52000087500000424e0000e9
:1055d000ff4b0000bd4900007e4700004045000031
:1055e00004430000ca400000913e00005a3c000005
:1055f000263a0000f2370000c13500009233000067
:1056000064310000382f00000e2d0000e62a000053
:10561000bf2800009b2600007824000057220000cd
:10562000382000001b1e0000ff1b0000e6190000d0
:10563000ce170000b8150000a4130000911100005f
:10564000810f0000730d0000660b00005b09000075
:10565000520700004b050000460300004201000015
:10566000417f0000417d0000437b0000477900003e
:105670004d770000557500005f7300006a710000ef
:10568000786f0000876d0000986b0000ab69000028
:10569000c0670000d7650000f06300000b620000e7
:1056a00027600000465e0000665c0000885a00002b
:1056b000ad580000d3560000fb54000025530000f5
:1056c000515100007e4f0000ae4d0000e04b000045
:1056d000134a00004948000080460000ba44000018
:1056e000f542000032410000713f0000b23d000071
:1056f000f53b00003a3a000081380000ca3600004d
:105700001535000062330000b031000001300000a8
:10571000542e0000a82c0000ff2a0000572900008a
:10572000b22700000e2600006d240000cd220000ec
:105730002f210000941f0000fa1d0000621c0000d1
:10574000cd1a000039190000a71700001716000035
:1057500089140000fe12000074110000ec0f00001c
:10576000660e0000e20c0000600b0000e009000083
:1057700063080000e70600006d050000f503000067
:105780007f0200000b010000997f00002a7e0000cc
:10579000bc7c0000507b0000e67900007e780000b1
:1057a00019770000b575000053740000f472000012
:1057b000967100003a700000e16e0000896d0000f3
:1057c000336c0000e06a00008e6900003f68000052
:1057d000f2660000a66500005d640000166300002c
:1057e000d06100008d6000004c5f00000d5e000085
:1057f000d05c0000955b00005c5a00002559000059
:10580000f0570000bd5600008d5500005e540000aa
:105810003153000007520000de500000b84f000076
:10582000934e0000714d0000514c0000334b0000be
:10583000174a0000fd480000e5470000cf46000081
:10584000bb450000a9440000994300008c420000c1
:105850008041000077400000703f00006a3e000079
:10586000673d0000663c0000673b00006a3a0000ac
:105870006f39000077380000803700008b36000059
:1058800099350000a9340000ba330000ce32000080
:10589000e4310000fc30000016300000322f000020
:1058a000512e0000712d0000942c0000b82b000038
:1058b000df2a0000082a00003329000060280000c9
:1058c0008f270000c0260000f425000029250000d5
:1058d000612400009a230000d62200001422000058
:1058e0005421000096200000db1f0000211f000053
:1058f0006a1e0000b41d0000011d0000501c0000c5
:10590000a11b0000f41a0000491a0000a1190000b0
:10591000fa18000056180000b41700001317000012
:1059200075160000da15000040150000a8140000ec
:10593000131400007f130000ee1200005f1200003d
:10594000d211000047110000bf1000003810000005
:10595000b40f0000320f0000b10e0000330e000043
:10596000b80d00003e0d0000c60c0000510c0000f8
:10597000de0b00006c0b0000fd0a0000910a000025
:10598000260a0000bd09000057090000f3080000c6
:105990009008000030080000d207000077070000e0
:1059a0001d070000c6060000700600001d0600006e
:1059b000cc0500007e05000031050000e604000073
:1059c0009e0400005804000014040000d2030000ec
:1059d000920300005403000019030000df020000de
:1059e000a802000073020000400200000f02000045
:1059f000e1010000b40100008a0100006201000022
:105a00003c01000018010000f6000000d700000073
:105a1000b90000009e000000850000006e0000003c
:105a20005900000047000000360000002800000078
:105a30001c000000120000000a000000040000002a
:105a40000100000000000000000000000300000052
:105a500008000000100000001900000024000000f1
:105a60003200000042000000540000006800000006
:105a70007e00000097000000b2000000ce00000091
:105a8000ed0000000e01000032010000570100008f
:105a90007e010000a8010000d40100000202000005
:105aa000320200006402000099020000cf020000f0
:105ab000080300004303000080030000bf03000050
:105ac00001040000440400008a040000d204000025
:105ad0001c05000068050000b60500000606000071
:105ae00059060000ad060000040700005d07000035
:105af000b80700001608000075080000d70800006d
:105b00003a090000a0090000080a0000720a00001b
:105b1000de0a00004d0b0000bd0b0000300c000041
:105b2000a50c00001c0d0000950d0000100e0000db
:105b30008e0e00000d0f00008f0f000013100000ec
:105b40009910000021110000ab1100003712000075
:105b5000c612000056130000e91300007e14000076
:105b600015150000ae15000049160000e7160000ec
:105b70008617000028180000cc18000071190000da
:105b8000191a0000c41a0000701b00001e1c00003f
:105b9000cf1c0000811d0000361e0000ed1e00001d
:105ba000a61f0000612000001e210000de21000071
:105bb0009f2200006323000028240000f02400003e
:105bc000ba25000086260000542700002528000082
:105bd000f7280000cb290000a22a00007b2b000040
:105be000552c0000322d0000112e0000f22e000076
:105bf000d62f0000bb300000a23100008c32000024
:105c0000773300006534000055350000473600004a
:105c10003b3700003138000029390000233a0000ea
:105c20001f3b00001e3c00001e3d0000213e000006
:105c3000263f00002c40000035410000404200009b
:105c40004d4300005c4400006d45000081460000ab
:105c500096470000ad480000c7490000e24a000036
:105c6000004c00001f4d0000414e0000654f000039
:105c70008b500000b3510000dd52000009540000b9
:105c8000375500006756000099570000ce580000b5
:105c9000045a00003c5b0000775c0000b35d00002c
:105ca000f25e00003260000075610000ba62000020
:105cb000006400004965000094660000e167000090
:105cc00030690000806a0000d36b0000286d00007e
:105cd0007f6e0000d86f00003371000091720000e9
:105ce000f073000051750000b476000019780000d0
:105cf00080790000ea7a0000557c0000c27d000037
:105d0000317f0000a3000000160200008b0300009a
:105d1000020500007c060000f7070000740900007f
:105d2000f40a0000750c0000f80d00007e0f000062
:105d3000051100008e12000019140000a7150000c4
:105d400036170000c71800005a1a0000f01b0000a8
:105d5000871d0000201f0000bb200000582200000b
:105d6000f7230000982500003b270000e0280000f2
:105d7000872a0000302c0000db2d0000882f000057
:105d800036310000e73200009a3400004e36000041
:105d900005380000be390000783b0000343d0000ab
:105da000f33e0000b3400000754200003a4400009a
:105db00000460000c8470000924900005e4b00000a
:105dc0002b4d0000fb4e0000cd500000a052000003
:105dd000765400004d56000027580000025a00007b
:105de000df5b0000be5d00009f5f0000826100007d
:105df000676300004d650000366700002069000001
:105e00000d6b0000fb6c0000eb6e0000dd7000000d
:105e1000d1720000c7740000be760000b8780000a0
:105e2000b37a0000b17c0000b07e0000b100000039
:105e3000b4020000b9040000bf060000c80800005a
:105e4000d20a0000de0c0000ec0e0000fc10000086
:105e50000e13000021150000371700004e19000036
:105e6000671b0000821d00009f1f0000bd21000075
:105e7000de23000000260000242800004a2a00003b
:105e8000722c00009b2e0000c7300000f43200008e
:105e9000233500005437000086390000bb3b00006a
:105ea000f13d000029400000634200009e440000d4
:105eb000dc4600001b4900005c4b00009e4d0000ca
:105ec000e34f00002952000071540000bb5600004f
:105ed00007590000545b0000a35d0000f45f000060
:105ee000476200009b640000f16600004969000001
:105ef000a36b0000fe6d00005b700000ba72000032
:105f00001b7500007d770000e1790000477c0000f0
:105f1000af7e00001801000083030000f0050000c0
:105f20005e080000ce0a0000400d0000b30f000024
:105f300029120000a0140000181700009319000097
:105f40000f1c00008d1e00000c2100008d2300009e
:105f500010260000942800001b2b0000a22d00003a
:105f60002c300000b732000044350000d337000069
:105f7000633a0000f53c0000883f00001d4200002d
:105f8000b44400004c470000e6490000824c000089
:105f90001f4f0000be5100005f5400000157000079
:105fa000a55900004b5c0000f25e00009b61000000
:105fb00045640000f16600009e6900004e6c000020
:105fc000fe6e0000b1710000657400001a770000d9
:105fd000d17900008a7c0000447f000000020000ac
:105fe000be0400007d0700003d0a0000000d000017
:105ff000c30f00008912000050150000181800009f
:10600000e21a0000ae1d00007b20000049230000c2
:1060100019260000eb280000be2b0000932e000084
:1060200069310000413400001a370000f5390000e2
:10603000d23c0000b03f00008f42000070450000dd
:1060400052480000364b00001b4e00000251000079
:10605000eb530000d5560000c0590000ad5c0000b5
:106060009b5f00008b6200007c6500006f68000091
:10607000636b0000586e00004f7100004874000010
:10608000427700003d7a00003a7d000039000000b0
:1060900038030000390600003c090000400c0000f5
:1060a000450f00004c120000551500005e1800005e
:1060b000691b0000761e000084210000932400006c
:1060c000a4270000b62a0000c92d0000de30000021
:1060d000f43300000c370000253a00003f3d00007b
:1060e0005b4000007843000097460000b74900007d
:1060f000d84c0000fa4f00001e5300004356000029
:106100006a590000925c0000bb5f0000e56200007d
:10611000116600003e6900006d6c00009d6f00007c
:10612000ce7200000076000034790000697c000027
:106130009f7f0000d7020000100600004a090000ff
:10614000860c0000c20f0000011300004016000082
:1061500080190000c21c0000052000004a23000036
:106160008f260000d62900001e2d00006830000098
:10617000b2330000fe3600004b3a0000993d0000ab
:10618000e94000003a4400008b470000df4a00006d
:10619000334e000089510000df54000037580000e2
:1061a000905b0000eb5e000046620000a36500000b
:1061b00001690000606c0000c06f000022730000e5
:1061c00084760000e87900004d7d0000b3000000f7
:1061d0001a04000082070000ec0a0000560e0000be
:1061e000c21100002f1500009d1800000c1c0000bb
:1061f0007c1f0000ed22000060260000d329000073
:10620000482d0000be30000035340000ad370000de
:10621000263b0000a03e00001b4200009745000006
:1062200015490000934c00001250000093530000e9
:1062300014570000975a00001b5e00009f61000089
:1062400025650000ac680000346c0000bd6f0000e4
:1062500046730000d17600005d7a0000ea7d000000
:10626000780100000705000097080000280c0000d6
:10627000ba0f00004d130000e1160000751a00006f
:106280000b1e0000a22100003a250000d3280000c8
:106290006c2c000007300000a33300003f370000e3
:1062a000dd3a00007b3e00001a420000bb450000c2
:1062b0005c490000fe4c0000a15000004554000065
:1062c000ea570000905b0000375f0000de620000cc
:1062d00087660000306a0000da6d000085710000fa
:1062e00031750000de7800008c7c00003b0000006f
:1062f000ea0300009b0700004c0b0000fe0e0000ac
:10630000b112000065160000191a0000cf1d000030
:10631000852100003c250000f4280000ac2c000082
:106320006630000020340000db370000973b00009f
:10633000543f000012430000d04600008f4a000086
:106340004f4e00000f520000d1550000935900003d
:10635000565d00001a610000de640000a3680000c2
:10636000696c000030700000f7730000bf77000018
:10637000887b0000527f00001c030000e70600003d
:10638000b30a00007f0e00004c1200001a16000035
:10639000e9190000b81d0000882100005825000000
:1063a0002a290000fc2c0000ce300000a13400009f
:1063b000753800004a3c00001f400000f543000013
:1063c000cb470000a34b00007a4f0000535300005e
:1063d0002c570000055b0000e05e0000bb6200007f
:1063e00096660000726a00004f6e00002c7200007a
:1063f0000a760000e8790000c87d0000a7010000cf
:106400008705000068090000490d00002b110000fd
:106410000e150000f1180000d41c0000b820000088
:106420009d24000082280000682c00004e300000ef
:10643000353400001c380000043c0000ec3f000034
:10644000d5430000be470000a84b0000924f00005b
:106450007d53000068570000535b0000405f000060
:106460002c63000019670000076b0000f56e000048
:10647000e3720000d2760000c27a0000b17e000014
:10648000a102000092060000830a0000750e0000c1
:1064900067120000591600004b1a00003f1e000052
:1064a00032220000262600001a2a00000f2e0000cb
:1064b00004320000f9350000ef390000e53d00002e
:1064c000dc410000d3450000ca490000c14d000076
:1064d000b9510000b2550000aa590000a35d0000a8
:1064e0009c61000096650000906900008a6d0000c4
:1064f000857100007f7500007a790000767d0000cc
:10650000720100006e0500006a090000660d0000bf
:1065100063110000601500005e1900005b1d0000a3
:10652000592100005725000055290000542d000076
:10653000533100005235000051390000513d000038
:10654000504100005045000050490000514d0000ee
:10655000515100005255000053590000545d000095
:106560005561000057650000596900005a6d000030
:106570005c7100005f75000061790000637d0000c0
:1065800066010000690500006c0900006f0d000045
:106590007211000075150000781900007c1d0000c4
:1065a0008021000083250000872900008b2d00003a
:1065b0008f31000093350000973900009c3d0000aa
:1065c000a0410000a4450000a9490000ad4d000015
:1065d000b2510000b6550000bb590000c05d00007c
:1065e000c5610000c9650000ce690000d36d0000e0
:1065f000d8710000dd750000e27900001e00000087
